:10000000D6C00000FEC00000FCC00000FAC0000026
:10001000F8C00000F6C00000F4C00000F2C000000C
:10002000F0C000000C94900EECC00000EAC000008C
:100030000C94570EE6C00000E4C00000E2C00000CF
:10004000E0C00000DEC00000DCC00000DAC000003C
:10005000D8C000000C944110D4C00000D2C00000F1
:10006000D0C000000C94BE0ECCC00000CAC000007E
:10007000C8C00000C6C00000C4C00000C2C000006C
:100080000C948110BEC00000BCC00000BAC00000CB
:10009000B8C00000B61B571BF21ABE1A821A401ACB
:1000A000C8194819BF1855181A1C6E616E00696E80
:1000B000660000407A10F35A00A0724E1809001032
:1000C000A5D4E80000E87648170000E40B540200CD
:1000D00000CA9A3B000000E1F505000080969800F8
:1000E000000040420F000000A08601000000102721
:1000F00000000000E80300000000640000000000B1
:100100000A00000000000100000000002C76D888E2
:10011000DC674F0823DFC1DFAE59E1B1B796E5E3F5
:10012000E453C63AE651997696E8E6C28426EB890E
:100130008C9B62ED407C6FFCEFBC9C9F40F2BAA5AB
:100140006FA5F490055A2AF75C936B6CF9676DC143
:100150001BFCE0E40D47FEF520E6B500D0ED902E47
:100160000300943577050080841E080000204E0AA5
:10017000000000C80C333333330F986E12831141E3
:10018000EF8D2114893BE65516CFFEE6DB18D184AE
:100190004B381BF77C1D901DA4BBE42420328472D5
:1001A0005E228100C9F124ECA1E53D27AA111124AA
:1001B0001FBECFEFD0E1DEBFCDBF11E0A0E0B1E0C8
:1001C000ECEFF6E400E00BBF02C007900D92AC38F4
:1001D000B107D9F723E0ACE8B1E001C01D92A43229
:1001E000B207E1F710E0C7EDD0E004C02197FE01AF
:1001F0000E94981EC63DD107C9F70E94F00E0C94CC
:100200007A23FECEA0918C01B0918D01109769F0F8
:10021000ED91FC91119712968D919C91139790936B
:100220008D0180938C010995EDCF0895CF93DF93D5
:10023000EC0184E090E00E94D120009781F0FC0165
:10024000D183C08320918C0130918D01338322832F
:1002500090938D0180938C0180E090E002C081E05A
:1002600090E0DF91CF9108952F923F924F925F924D
:100270006F927F928F929F92AF92BF92CF92DF92B6
:10028000EF92FF920F931F93CF93DF93CDB7DEB71B
:1002900060970FB6F894DEBF0FBECDBF7C011B0187
:1002A0006A01FC0117821682838181FF44C39E018B
:1002B0002F5F3F4F3901F7019381F10193FD859144
:1002C00093FF81911F01882309F431C3853239F4EA
:1002D00093FD859193FF81911F01853239F4B70118
:1002E00090E00E94E02256016501E5CF10E0512C1C
:1002F000912CFFE1F915D8F08B3279F038F4803287
:1003000079F08332A1F4F92DF0612EC08D3261F0C5
:10031000803369F4292D21602DC0392D3260932E50
:10032000892D8460982E2AC0E92DE86015C097FCBD
:100330002DC020ED280F2A3088F496FE06C03AE042
:10034000139F200D1124122F19C08AE0589E200DF2
:100350001124522EE92DE0629E2E10C08E3231F40F
:1003600096FCE5C2F92DF0649F2E08C08C3621F46E
:10037000292D2068922E02C0883641F4F10193FDA8
:10038000859193FF81911F018111B3CF9BEB980F52
:10039000933020F4992D9061805E07C09BE9980FFF
:1003A000933008F066C1992D9F7E96FF16E09F73EB
:1003B000992E853619F49064992E08C0863621F45A
:1003C000392F3068932E02C01111115097FE07C0CB
:1003D0001C3350F444244394410E27E00BC01830E2
:1003E00038F027E017E005C027E09CE3492E02C063
:1003F000212F412C560184E0A80EB11CF60160812A
:10040000718182819381042DA3010E94F2216C01EC
:10041000F981FC87F0FF02C0F3FF06C091FC06C023
:1004200092FE06C000E205C00DE203C00BE201C06F
:1004300000E08C858C7019F001115AC29BC297FEA6
:1004400010C04C0CFC85F4FF04C08A81813309F490
:100450004A94141474F528E0241578F588E0482EA1
:100460002CC096FC2AC0812F90E08C159D059CF035
:100470003CEFC3163FEFD30674F0892D8068982EA9
:100480000AC0E2E0F0E0EC0FFD1FE10FF11D8081FA
:10049000803319F411501111F4CF97FE0EC044248B
:1004A0004394410E812F90E0C816D9062CF41C19F4
:1004B00004C04424439401C010E097FE06C01C14FD
:1004C0001D0434F4C601019605C085E090E002C029
:1004D00081E090E001110196112331F0212F30E0ED
:1004E0002F5F3F4F820F931F252D30E08217930718
:1004F00014F4581A01C0512C892D897049F45520E3
:1005000039F0B70180E290E00E94E0225A94F7CFE0
:10051000002329F0B701802F90E00E94E02293FC95
:1005200009C0552039F0B70180E390E00E94E02235
:100530005A94F7CF97FE4CC04601D7FE02C0812CDB
:10054000912CC60188199909F301E80FF91FFE875C
:10055000ED87960124193109388B2F87012F10E080
:100560001195019511093FEF8316930629F4B70100
:100570008EE290E00E94E022C814D9044CF08F85EE
:1005800098898815990524F4ED85FE85818101C03F
:1005900080E3F1E08F1A91082D853E852F5F3F4F54
:1005A0003E872D87801691062CF0B70190E00E94BF
:1005B000E022D9CFC814D90441F49A81963320F4AB
:1005C000953319F43C8534FF81E3B70190E04EC0C8
:1005D0008A81813319F09C859F7E9C87B70190E0CA
:1005E0000E94E022111105C094FC18C085E690E03D
:1005F00017C0B7018EE290E00E94E0221E5F82E009
:1006000001E0080FF301E80FF11D8081B70190E0D0
:100610000E94E022802F0113F3CFE6CF85E490E023
:10062000B7010E94E022D7FC06C0C114D10441F4F6
:10063000EC85E4FF05C0D194C194D1088DE201C0DE
:100640008BE2B70190E00E94E02280E32AE0C2162C
:10065000D1042CF08F5FFAE0CF1AD108F7CFB701A1
:1006600090E00E94E022B701C601C0960E94E022FD
:1006700054C1833631F0833779F0833509F056C0A1
:1006800020C0560132E0A30EB11CF601808189839F
:1006900001E010E0630112C05601F2E0AF0EB11CA0
:1006A000F601C080D18096FE03C0612F70E002C0C9
:1006B0006FEF7FEFC6010E94D5228C01F92DFF77E5
:1006C00014C0560122E0A20EB11CF601C080D180F8
:1006D00096FE03C0612F70E002C06FEF7FEFC6018E
:1006E0000E94CA228C01F92DF0689F2EF3FD1AC0DA
:1006F000852D90E008171907A8F4B70180E290E073
:100700000E94E0225A94F4CFF60197FC859197FE5F
:1007100081916F01B70190E00E94E02251105A943C
:10072000015011090115110579F7F7C0843611F050
:10073000893661F5560197FE09C024E0A20EB11C6E
:10074000F60160817181828193810AC0F2E0AF0E6F
:10075000B11CF60160817181072E000C880B990B8A
:10076000F92DFF769F2E97FF09C090958095709583
:1007700061957F4F8F4F9F4FF0689F2E2AE030E0AA
:10078000A3010E941C23C82EC6183FC0092D85371F
:1007900021F40F7E2AE030E01DC0097F8F3691F0F2
:1007A00018F4883559F0C3C0803719F0883711F034
:1007B000BEC0006104FF09C0046007C094FE08C009
:1007C000066006C028E030E005C020E130E002C04D
:1007D00020E132E0560107FF09C084E0A80EB11CF9
:1007E000F601608171818281938108C0F2E0AF0ED1
:1007F000B11CF6016081718180E090E0A3010E944C
:100800001C23C82EC6180F77902E96FE0BC0092DFC
:100810000E7FC11650F494FE0AC092FC08C0092D48
:100820000E7E05C0DC2C092D03C0DC2C01C0D12EAE
:1008300004FF0DC0FE01EC0DF11D8081803311F429
:10084000097E09C002FF06C0D394D39404C0802F50
:10085000867809F0D39403FD11C000FF06C01C2D5B
:10086000D51480F4150D1D190DC0D51458F4B70119
:1008700080E290E00E94E022D394F7CFD51410F4E8
:100880005D1801C0512C04FF10C0B70180E390E057
:100890000E94E02202FF17C001FD03C088E790E03C
:1008A00002C088E590E0B7010CC0802F867859F02F
:1008B00001FF02C08BE201C080E207FD8DE2B701BB
:1008C00090E00E94E022C11638F4B70180E390E086
:1008D0000E94E0221150F7CFCA94F301EC0DF11DF4
:1008E0008081B70190E00E94E022C110F5CF15C0D1
:1008F000F4E0F51560F584E0581A93FE1FC001116D
:1009000027C02C8523FF2AC00AEA10E0392D307158
:10091000932EF8018491811124C0552009F4E4CC70
:10092000B70180E290E00E94E0225A94F6CFF701EE
:100930008681978126C08FEF9FEF23C0B70180E2A9
:1009400090E00E94E0225A945110F8CFD8CF512C59
:10095000B701802F90E00E94E022D3CF0EEA10E092
:10096000D5CF91108052B70190E00E94E0220F5F36
:100970001F4FCFCF23E0251510F483E0BDCF512CBE
:10098000C0CF60960FB6F894DEBF0FBECDBFDF912B
:10099000CF911F910F91FF90EF90DF90CF90BF907C
:1009A000AF909F908F907F906F905F904F903F900F
:1009B0002F900895CF93DF93CDB7DEB7F89481E001
:1009C000DF91CF910895CF93DF9300D0CDB7DEB7FD
:1009D0009A838983789400000F900F90DF91CF91D4
:1009E0000895CF93DF9300D0CDB7DEB79A83898384
:1009F00089819A81FC0182810F900F90DF91CF91C4
:100A00000895CF93DF9300D0CDB7DEB79A83898363
:100A100089819A81FC0180819181A281B3812FE635
:100A200032E143E852E4BC01CD010E946E20DC01BA
:100A3000CB0120E030E048EC52E4BC01CD010E9443
:100A40006E20DC01CB01BC01CD010E948B1FDC01BB
:100A5000CB010F900F90DF91CF910895CF93DF934B
:100A6000CDB7DEB786E991E047D1DF91CF91089508
:100A7000CF93DF93CDB7DEB78EE891E0FC018081A4
:100A80008823A1F48EE891E00E94681E21E0892B62
:100A900009F420E0222351F086E991E0C2D08EE8EB
:100AA00091E00E94711E8EE295E0C0DB86E991E044
:100AB000DF91CF910895CF93DF93CDB7DEB728971D
:100AC0000FB6F894DEBF0FBECDBF9D838C836E83BF
:100AD00058874F838C819D81FC01808D918D892B5E
:100AE00009F046C019828981882309F041C08981B3
:100AF000882F90E02C813D810B96880F991F820FE3
:100B0000931FFC01808191816CDF282F81E09E8101
:100B1000291709F080E0882339F18981882F90E036
:100B20002C813D810B96880F991F820F931FFC012A
:100B3000208131818C819D81FC01318F208F1B822E
:100B400039DF8A838A81882361F08F819885FC014F
:100B5000208131818C819D81FC01338F228F1A820B
:100B6000F1CFCE0103962FDF89818F5F8983BBCFC1
:100B7000000028960FB6F894DEBF0FBECDBFDF9100
:100B8000CF910895CF93DF9300D0CDB7DEB79A838E
:100B9000898389819A81FC01808D918D892B19F13E
:100BA00089819A81FC01808D918DFC0180819181E8
:100BB0000496FC012081318189819A81AC01465ED5
:100BC0005F4F89819A81FC01808D918DBA01F90175
:100BD000099589819A81FC01118E108E89819A81F3
:100BE000FC01138E128E89819A81FC0181818823F8
:100BF00091F089819A81FC01118289819A81FC019D
:100C0000808D918D892B39F489819A81FC01118223
:100C100089819A81BAD000000F900F90DF91CF9117
:100C200008950F931F93CF93DF9300D0CDB7DEB716
:100C30009A83898383E090E00E94661E8C01C8013C
:100C400024D189819A81FC01178B068B89819A8135
:100C5000FC01118E108E89819A81FC01138E128EF7
:100C600089819A8122E3FC01208389819A81FC0198
:100C7000118289819A812CE00296FC01322F119217
:100C80003A95E9F789819A8128E0FC0123838981DB
:100C90009A81FC01158689819A8125E030E0FC016A
:100CA0003583248389819A8128E0FC01208789810A
:100CB0009A819C01225F3F4F89819A81FC01328792
:100CC000218768EE73E08EE193E00E94C51561E034
:100CD0008EE193E00E94C91540E855E260E070E0C3
:100CE00089EF91E00E94C11000000F900F90DF91FA
:100CF000CF911F910F910895CF93DF9300D01F9252
:100D0000CDB7DEB79B838A83198289818823B1F5A9
:100D10008981882F90E02A813B810B96880F991F4B
:100D2000820F931FFC0180819181892B19F18981A8
:100D3000882F90E02A813B810B96880F991F820FA4
:100D4000931FFC0180819181FC0180819181029639
:100D5000FC01208131818981882F90E04A815B816B
:100D60000B96880F991F840F951FFC01808191813C
:100D7000F901099589818F5F8983C7CF00000F90A2
:100D80000F900F90DF91CF910895CF93DF9300D014
:100D900000D0CDB7DEB79C838B838B819C8102967C
:100DA000BC018EE193E00E94A71D882F90E0892B63
:100DB00009F021C08B819C810E969A838983898159
:100DC0009A81FC018081882369F489819A819C0140
:100DD0002E5F3F4F89819A81FC0160818B819C81CC
:100DE000A90169DE8B819C810296BC018EE193E0B2
:100DF0000E947517000000000F900F900F900F9049
:100E0000DF91CF910895CF93DF9300D0CDB7DEB7B8
:100E10009A83898324E131E089819A81FC013183BD
:100E2000208380E090E0892B21F089819A810E94C3
:100E3000671E0F900F90DF91CF910895CF93DF93AE
:100E400000D0CDB7DEB79A83898389819A81DBDFB1
:100E500089819A810E94671E0F900F90DF91CF9138
:100E60000895CF93DF9300D0CDB7DEB79A838983FF
:100E700024E131E089819A81FC01318320830000E3
:100E80000F900F90DF91CF910895CF93DF9300D013
:100E9000CDB7DEB79A83898389819A81E2DF2AE020
:100EA00031E089819A81FC013183208389819A8193
:100EB000FC01128200000F900F90DF91CF910895F6
:100EC000CF93DF9300D0CDB7DEB79A8389832AE032
:100ED00031E089819A81FC013183208389819A8163
:100EE00092DF80E090E0892B21F089819A810E9435
:100EF000671E0F900F90DF91CF910895CF93DF93EE
:100F000000D0CDB7DEB79A83898389819A81D8DFF3
:100F100089819A810E94671E0F900F90DF91CF9177
:100F20000895CF93DF9300D000D0CDB7DEB79A837A
:100F300089837C836B8389819A810FD04AE050E05A
:100F4000BC0189EF91E00E94421280E00F900F9067
:100F50000F900F90DF91CF910895CF93DF9300D042
:100F600000D0CDB7DEB79C838B839E012F5F3F4FB0
:100F70008091200390912103892B29F080912003F7
:100F80009091210302C084E293E0A901481B590B10
:100F9000CA010F900F900F900F90DF91CF9108959D
:100FA000CF93DF93CDB7DEB7F89481E0DF91CF9197
:100FB0000895CF93DF9300D0CDB7DEB79A838983AE
:100FC000789400000F900F90DF91CF910895CF9308
:100FD000DF9300D0CDB7DEB79A8389832EE131E06D
:100FE00089819A81FC013183208380E090E0892B04
:100FF00021F089819A810E94671E0F900F90DF91E6
:10100000CF910895CF93DF93CDB7DEB78AE790E015
:1010100027E0FC0120838CE790E020E4FC012083A2
:101020008AE790E02AE730E0F90120812868FC0196
:1010300020830000DF91CF910895CF93DF9300D0FC
:101040001F92CDB7DEB79A8389836B8324D0882320
:10105000D9F089819A819093B3018093B2018B81F9
:101060008093B4018CE790E02B812F702064FC0109
:1010700020838AE790E02AE730E0F90120812064AC
:10108000FC01208381E001C080E00F900F900F9061
:10109000DF91CF910895CF93DF93CDB7DEB78091E5
:1010A000B2019091B30121E0892B09F020E0822F59
:1010B000DF91CF910895CF93DF9300D000D0CDB7CB
:1010C000DEB7E9DF982F81E08927882309F43DC046
:1010D0001C8266DF898389818823C1F088E790E0DC
:1010E000FC018081882F90E09B838A8389E790E0D0
:1010F000FC018081882F90E0382F22278A819B81F4
:10110000822B932B9B838A831982E5CFCE01049691
:1011100050DF8091B2019091B301FC0180819181F7
:101120000496FC01208131814091B4018091B2018B
:101130009091B301BE016E5F7F4FF9010995109246
:10114000B3011092B2011092B40100000F900F9001
:101150000F900F90DF91CF910895CF93DF93CDB78C
:10116000DEB727970FB6F894DEBF0FBECDBF9A83C8
:1011700089837C836B835E834D832F8389819A81EE
:101180002B813C81FC013183208389819A819C01E0
:101190002E5F3F4F8D819E81FC0180819181A281D4
:1011A000B381F90180839183A283B38389819A817A
:1011B0002F81FC01268389819A8128E00A96FC010F
:1011C000322F11923A95E9F789819A812B813C81DE
:1011D000FC013187208789819A81FC01128A0000F5
:1011E00027960FB6F894DEBF0FBECDBFDF91CF912B
:1011F0000895CF93DF9300D000D000D0CDB7DEB7F5
:101200009B838A837D836C834E838E8189838981CE
:10121000853010F080E02FC08981882F90E02A81EE
:101220003B810596880F991F820F931FFC018081D7
:101230009181892B11F080E01EC08A819B81FC0185
:1012400092898981891738F0898121E0280F8A8164
:101250009B81FC01228B8981882F90E02A813B8130
:101260000596880F991F820F931F2C813D81FC01E9
:101270003183208381E026960FB6F894DEBF0FBE3F
:10128000CDBFDF91CF910895CF93DF9300D0CDB73D
:10129000DEB79A83898389819A81FC018085918553
:1012A0009C012150310989819A81FC013187208775
:1012B00089819A81FC018085918521E0892B09F043
:1012C00020E0222379F089819A8121E0FC012783A3
:1012D00089819A81FC012081318189819A81FC0177
:1012E0003187208700000F900F90DF91CF910895F4
:1012F000CF93DF93CDB7DEB76F970FB6F894DEBF0D
:101300000FBECDBF9F8F8E8F8E8D9F8DFC018781ED
:10131000882309F4E5C019828E8D9F8DFC01928986
:101320008981891738F58981882F90E02E8D3F8D2E
:101330000596880F991F820F931FFC018081918170
:10134000892BA1F08981882F90E02E8D3F8D059605
:10135000880F991F820F931FFC01808191819BD17F
:101360008823D1F289818F5F8983D6CF89818F5F6E
:101370008983D2CF28E0CE010896FC01322F11924A
:101380003A95E9F71A828E8D9F8DFC0192898A81A8
:10139000891708F04DC08A81882F90E02E8D3F8DEF
:1013A0000596880F991F820F931FFC018081918100
:1013B000892BC9F18A81882F90E02E8D3F8D05966B
:1013C000880F991F820F931FFC0180819181A4D106
:1013D0009D8F8C8FCE014C969E838D838D819E81B7
:1013E000FC0180818F838D819E81FC0121818D8113
:1013F0009E81FC0120838D819E8101962F81FC01BD
:1014000020838A81882F90E02C8D3D8DA901880F43
:10141000991F9E012F5F3F4F820F931F0796FC017C
:101420005183408301C000008A818F5F8A83ABCFE4
:101430002CE0CE014096FC01322F11923A95E9F74B
:1014400082E0898B8E8D9F8DFC018289880F8E8B27
:101450008E8D9F8DFC018681882361F08E8D9F8DFE
:10146000FC0182819381A481B5818A8B9B8BAC8B9B
:10147000BD8B07C08E8D9F8DFC01828193819B8BDC
:101480008A8B8E8D9F8DFC0186818B8FCE01089675
:10149000988F8F8BCE014096BC018EE193E00E9425
:1014A00075171C821B82CE014096BC018EE193E031
:1014B0000E94A71D882339F08B819C81883E9D4F17
:1014C00010F481E001C080E0882331F08B819C81A1
:1014D00001969C838B83E7CF8E8D9F8DFC011782B5
:1014E00000006F960FB6F894DEBF0FBECDBFDF9140
:1014F000CF910895CF93DF9300D000D0CDB7DEB762
:101500009A8389837C836B8389819A81FC01208102
:1015100031818B819C81FC018081918141E0281780
:1015200039070CF040E0842F0F900F900F900F9030
:10153000DF91CF910895CF93DF93CDB7DEB7F894C5
:1015400081E0DF91CF910895CF93DF9300D0CDB7A5
:10155000DEB79A838983789400000F900F90DF9113
:10156000CF910895CF93DF9300D0CDB7DEB79A83A4
:1015700089832EE131E089819A81FC0131832083C6
:1015800000000F900F90DF91CF910895CF93DF93DC
:1015900000D000D0CDB7DEB79A8389837C836B837C
:1015A00089819A81DFDF28E231E089819A81FC011B
:1015B000318320838B819C81FC0120813181898151
:1015C0009A81FC01338322838B819C81FC012281DF
:1015D000338189819A81FC01358324838B819C81AD
:1015E000FC01248189819A81FC0126838B819C8165
:1015F0009C012E5F3F4F8B819C81B9017BDF282F9F
:1016000089819A81FC0122878B819C81FC01258143
:10161000368189819A81FC013487238789819A8167
:10162000FC01118600000F900F900F900F90DF913A
:10163000CF910895CF93DF9300D0CDB7DEB79A83D3
:10164000898328E231E089819A81FC0131832083FA
:1016500089819A81BCDC80E090E0892B21F089812E
:101660009A810E94671E0F900F90DF91CF9108958D
:10167000CF93DF9300D0CDB7DEB79A83898389817A
:101680009A81D8DF89819A810E94671E0F900F90FE
:10169000DF91CF910895CF93DF9300D0CDB7DEB720
:1016A0009A83898389819A81FC01268189819A8123
:1016B000622FC3DC882331F089819A81FC01118675
:1016C00081E001C080E00F900F90DF91CF910895ED
:1016D000CF93DF9300D000D01F92CDB7DEB79A83AF
:1016E00089837C836B834D838B819C81FC0120816A
:1016F000318189819A81FC013087278389819A8190
:1017000021E0FC01218700000F900F900F900F90B7
:101710000F90DF91CF910895CF93DF93CDB7DEB7D0
:1017200028970FB6F894DEBF0FBECDBF98878F8382
:101730001A8219829E012D5F3F4F8F819885B901D2
:1017400016D08F819885FC0123853485CE010396C0
:10175000F90109959A83898389819A8128960FB620
:10176000F894DEBF0FBECDBFDF91CF910895CF9229
:10177000DF92EF92FF92CF93DF9300D000D000D0A2
:10178000CDB7DEB79C838B837E836D831A82D3DED5
:1017900089838981882309F18B819C81FC01878160
:1017A0009085CC01A0E0B0E0BC01CD010E94BC1F3F
:1017B000DC01CB012AE038E240EA5BE3BC01CD0169
:1017C0000E946E20DC01CB012D813E81F9018083D6
:1017D0009183A283B3831982DCCFCE010296B4DE5B
:1017E0008D819E81FC01C080D180E280F3808D815B
:1017F0009E81FC0180819181A281B38122E430E647
:1018000045E65CEBBC01CD010E946E20DC01CB0102
:101810002CE437E349E85DE3BC01CD010E94BB1E27
:10182000DC01CB019C01AD01C701B6010E94BA1ECB
:10183000DC01CB012D813E81F90180839183A2835C
:10184000B3838D819E81FC0180819181A281B381CE
:1018500020E030E0A901BC01CD010E941F1F8823B8
:101860000CF007C08D819E81FC01108211821282D2
:101870001382000026960FB6F894DEBF0FBECDBFD0
:10188000DF91CF91FF90EF90DF90CF900895CF93AD
:10189000DF93CDB7DEB785EB91E0FC018081882333
:1018A00089F485EB91E00E94681E21E0892B09F400
:1018B00020E0222339F08DEB91E009D085EB91E017
:1018C0000E94711E8DEB91E0DF91CF9108950F93EF
:1018D0001F93CF93DF93CDB7DEB7AE970FB6F894D3
:1018E000DEBF0FBECDBF9EA78DA719821A828A8147
:1018F000823008F073C08A81282F30E045E2429F91
:10190000C001439F900D1124825D9E4F25E2FC0192
:10191000DE01189601900D922A95E1F783E190E09F
:101920000E94661E8C012C858E859F85AE01485FC6
:101930005F4FBC01C80111DC1D830C838A81882F95
:1019400090E02DA53EA50896880F991F820F931F42
:101950002C813D81FC01318320831B829CA58B81DE
:101960008917C0F58DE090E00E94661E8C018B8186
:10197000282F30E0AE01485F5F4FC901880F991FE3
:10198000880F991F880F991F821B930B0896840F4D
:10199000951FBC01C801FADD1F830E838981882F42
:1019A00090E02DA53EA5880F991F820F931F2E81D1
:1019B0003F81FC013183208389818F5F89832E8160
:1019C0003F818C819D814B81B90113DC8B818F5FBD
:1019D0008B83C4CF8A818F5F8A8389CF0000AE96C4
:1019E0000FB6F894DEBF0FBECDBFDF91CF911F9130
:1019F0000F910895CF93DF9300D01F92CDB7DEB73C
:101A00009B838A8319828981823090F48981882F0F
:101A100090E02A813B810896880F991F820F931FBF
:101A2000FC018081918164DC89818F5F8983EBCFA8
:101A300000000F900F900F90DF91CF910895CF93FA
:101A4000DF9300D01F92CDB7DEB79B838A831982C4
:101A50008981823090F48981882F90E02A813B81AE
:101A60000896880F991F820F931FFC018081918136
:101A70000BDC89818F5F8983EBCF00000F900F9083
:101A80000F90DF91CF910895CF93DF9300D0CDB722
:101A9000DEB79A83898389819A81FC01908181E0F4
:101AA000992309F480E0882359F089819A81FC0107
:101AB00080812FEF280F89819A81FC0120830AC041
:101AC00089819A8122E3FC01208389819A8121E026
:101AD000FC01218300000F900F90DF91CF910895BA
:101AE000CF93DF93CDB7DEB781E890E021E830E017
:101AF000F90120812A60FC01208384E890E0FC0148
:101B00001182108288E890E02FEC37E0FC013183ED
:101B100020838FE690E02FE630E0F90120812260FB
:101B2000FC0120830000DF91CF910895CF93DF93D4
:101B3000CDB7DEB780EB90E020EB30E0F9012081FB
:101B40002A60FC01208382EB90E0FC01108283EB91
:101B500090E02FEFFC01208380E790E020E730E069
:101B6000F90120812260FC0120830000DF91CF91E8
:101B70000895CF92DF92EF92FF92CF93DF9300D040
:101B800000D000D0CDB7DEB7F89487E390E0FC0139
:101B90008081882F90E08270992721E0892B09F4B9
:101BA00020E0298389818823E1F08091D8019091F8
:101BB000D901A091DA01B091DB010196A11DB11DFF
:101BC0008093D8019093D901A093DA01B093DB01FF
:101BD00087E390E027E330E0F90120812D6FFC01DD
:101BE000208382EB90E0FC0180818A838091D80180
:101BF0009091D901A091DA01B091DB01880F991F72
:101C0000AA1FBB1F880F991FAA1FBB1F880F991FF0
:101C1000AA1FBB1F880F991FAA1FBB1F880F991FE0
:101C2000AA1FBB1F880F991FAA1FBB1F880F991FD0
:101C3000AA1FBB1FBC01CD010E94BC1F6B017C0110
:101C40008A81882F90E0092E000CAA0BBB0BBC01E7
:101C5000CD010E94BE1FDC01CB0120E030E040E05E
:101C600050E4BC01CD010E94231FDC01CB019C018B
:101C7000AD01C701B6010E94BB1EDC01CB018B8305
:101C80009C83AD83BE8378948B819C81AD81BE8122
:101C9000BC01CD0126960FB6F894DEBF0FBECDBFB6
:101CA000DF91CF91FF90EF90DF90CF9008951F923A
:101CB0000F9200905F000F92112400905B000F9232
:101CC0002F933F934F935F936F937F938F939F9344
:101CD000AF93BF93EF93FF93CF93DF93CDB7DEB76F
:101CE00081E08093D101D3DDAADE0E943805CCDEED
:101CF0000000DF91CF91FF91EF91BF91AF919F9144
:101D00008F917F916F915F914F913F912F910F90A4
:101D100000925B000F9000925F000F901F9018954B
:101D20001F920F9200905F000F9211248F939F9348
:101D3000AF93BF93CF93DF93CDB7DEB78091D80138
:101D40009091D901A091DA01B091DB010196A11D1A
:101D5000B11D8093D8019093D901A093DA01B0937B
:101D6000DB010000DF91CF91BF91AF919F918F91E7
:101D70000F9000925F000F901F9018951F920F9286
:101D800000905F000F92112400905B000F922F9340
:101D90003F934F935F936F937F938F939F93AF93F3
:101DA000BF93EF93FF93CF93DF93CDB7DEB783D984
:101DB0000000DF91CF91FF91EF91BF91AF919F9183
:101DC0008F917F916F915F914F913F912F910F90E4
:101DD00000925B000F9000925F000F901F9018958B
:101DE000CF93DF93CDB7DEB7A1970FB6F894DEBFE0
:101DF0000FBECDBFF8940E9438059C838B8370DEA4
:101E000095DE00D944DD9E838D8378941F821886E9
:101E100019861A86AEDEDC01CB018F839887A987ED
:101E2000BA878D819E81E6DD8B819C810E94C205EF
:101E3000A0DEDC01CB012F81388549855A85BC01A4
:101E4000CD010E94BA1EDC01CB018F839887A98740
:101E5000BA878F819885A985BA859C01AD01BC019F
:101E6000CD010E94BB1EDC01CB01BC01CD010E9453
:101E7000901FDC01CB019C0140E050E08091D20139
:101E80009091D301A091D401B091D501820F931FFD
:101E9000A41FB51F8093D2019093D301A093D401C6
:101EA000B093D5018091D6019091D701019690937E
:101EB000D7018093D6018091D101882309F4AACF5C
:101EC0001092D10128E0CE010E96FC01322F119222
:101ED0003A95E9F78091D2019091D301A091D40174
:101EE000B091D5012091D6013091D701990140E000
:101EF00050E0BC01CD010E94761EDA01C9018E8737
:101F00001092D2011092D3011092D4011092D501F7
:101F10001092D7011092D6018E858B878F858E8780
:101F20008B858F8785ED90E09D878C872CE0CE0197
:101F30004696FC01322F11923A95E9F782E08F8B99
:101F400082E08C8F8C859D85998F888F19A2CE0118
:101F50000E969E8F8D8FCE014696BC018EE193E04A
:101F6000C4D71A821982CE014696BC018EE193E055
:101F70000E94A71D882339F089819A81883E9D4F50
:101F800010F481E001C080E0882309F443CF898107
:101F90009A8101969A838983E6CF089580E090E044
:101FA0000895FC0124853585F901E058FF4F8081B3
:101FB000918180589F4F329620813181821B930BF3
:101FC0008F77907897FF0895019780689F6F0196AB
:101FD0000895FC0184859585FC01EE57FF4F208113
:101FE0003181DC01A058BF4F4D915C9142175307DE
:101FF000C1F0DC01A20FB31F8C912F5F3F4F2F77F1
:10200000307837FD04C03183208390E0089521505B
:10201000310920683F6F2F5F3F4F3183208390E06D
:1020200008958FEF9FEF0895FC0184859585FC014D
:10203000E058FF4FDC01AE57BF4F8D919C919183CB
:1020400080830895DC015296ED91FC91539741E015
:1020500050E05B960C905B9702C0440F551F0A94AA
:10206000E2F7208130E024233523232BD1F3569649
:10207000ED91FC915797608381E090E008950C9476
:10208000671E1F920F920FB60F9211240BB60F927C
:102090002F933F934F935F936F938F939F93EF9300
:1020A000FF936091C60020911A0330911B03C90170
:1020B00001968F77907897FD1FC040911C03509137
:1020C0001D038417950741F0F901E656FD4F608323
:1020D00090931B0380931A03FF91EF919F918F912F
:1020E0006F915F914F913F912F910F900BBE0F9089
:1020F0000FBE0F901F901895019780689F6F0196F3
:10210000DCCF1F920F920FB60F9211240BB60F92D5
:102110002F933F934F935F936F938F939F93EF937F
:10212000FF936091CE002091960230919702C901F1
:1021300001968F77907897FD1FC04091980250913B
:1021400099028417950741F0F901EA5EFD4F60831B
:102150009093970280939602FF91EF919F918F91B8
:102160006F915F914F913F912F910F900BBE0F9008
:102170000FBE0F901F901895019780689F6F019672
:10218000DCCF8F929F92AF92BF92CF92DF92EF926D
:10219000FF921F93CF93DF93EC016A017B014134DF
:1021A00052446F40710508F456C0EA89FB8981E00A
:1021B00090E00C8C02C0880F991F0A94E2F780838C
:1021C00060E079E08DE390E0A70196010E94761E21
:1021D000DA01C9010197A109B109AC01BD017695E8
:1021E000679557954795CA01EE85FF859083E889E5
:1021F000F9898083EC89FD89408181E090E09C0130
:10220000088C02C0220F331F0A94E2F7242B20838C
:10221000EC89FD8940819C01098C02C0220F331F8B
:102220000A94E2F7242B2083EC89FD8920810A8C13
:1022300002C0880F991F0A94E2F7822B8083DF91F6
:10224000CF911F91FF90EF90DF90CF90BF90AF9014
:102250009F908F90089560E874E88EE190E0A70168
:1022600096010E94761E49015A0181E0881A910860
:10227000A108B108B694A79497948794D501C40196
:102280000196A11DB11D880F991FAA1FBB1F880FA2
:10229000991FAA1FBB1F9C01AD01220F331F441FB2
:1022A000551F220F331F441F551F60E074E284EF57
:1022B00090E00E94761EAFEFB0E00E94A11EA70141
:1022C00096010E94761E8FEF90E0821B930B1816EA
:1022D0001906DCF5122F109560E079E08DE390E0AF
:1022E000A70196010E94761EDA01C9010197A10992
:1022F000B1098E7F0296A11DB11D9C01AD01220F77
:10230000331F441F551F220F331F441F551F60E00A
:1023100074E284EF90E00E94761EAFEFB0E00E947E
:10232000A11EA70196010E94761E8FEF90E0821BEE
:10233000930B1816190664F42095211708F435CF6D
:10234000EA89FB891082C4014FCF11E0120FC4CF7C
:102350002F5FF3CFCF92DF92EF92FF92E9EFF1E0A0
:102360001382128288EEC82E83E0D82EE12CF12C45
:10237000C482D582E682F782108611861286138681
:102380006CE771E0718360838AE992E095878487C6
:1023900085EC90E09787868784EC90E0918B808B2A
:1023A00080EC90E0938B828B81EC90E0958B848B1A
:1023B00086EC90E0978B868B44E0408F33E0318F42
:1023C00027E0228F95E0938F81E0848FECEDF1E0A0
:1023D00013821282C482D582E682F7821086118629
:1023E000128613867183608366E172E07587648765
:1023F0006DEC70E0778766876CEC70E0718B608BBA
:1024000068EC70E0738B628B69EC70E0758B648BA9
:102410006EEC70E0778B668B408F318F228F938FBD
:10242000848FFF90EF90DF90CF900895CF92DF924E
:10243000EF92FF920F931F93CF93DF9341155105B6
:10244000F1F08C017B01EA01C12CD12CD7016D91F7
:102450007D01D801ED91FC910190F081E02DC80142
:102460000995C80ED91E219789F7C601DF91CF9132
:102470001F910F91FF90EF90DF90CF900895C12CA6
:10248000D12CF3CF4F925F926F927F929F92AF9237
:10249000BF92CF92DF92EF92FF920F931F93CF9351
:1024A000DF93CDB7DEB7A1970FB6F894DEBF0FBEAE
:1024B000CDBF5C014115510509F480C0942E19A2CD
:1024C000B1E0B41708F086C0442E512C612C712C59
:1024D0006B01E12CF12C8E010F5D1F4F09C0805D57
:1024E000F801808369017A01232B242B252B81F0AD
:1024F000C701B601A30192010E94761E8C2D929E07
:1025000080191124015011098A3048F3895CE8CF01
:10251000D501ED91FC9122813381D8010D900020ED
:10252000E9F71197AD01401B510BB2E126313B0792
:1025300009F058C04115510509F45DC07A01C12C5C
:10254000D12CD8016D918D010190F081E02DC50154
:102550000995C80ED91EB1E0EB1AF108D501ED912D
:10256000FC91E114F10469F70190F081E02D6DE038
:10257000C50109958C01D501ED91FC910190F08187
:10258000E02D6AE0C5010995C00ED11E8C0D9D1D80
:10259000A1960FB6F894DEBF0FBECDBFDF91CF91ED
:1025A0001F910F91FF90EF90DF90CF90BF90AF9071
:1025B0009F907F906F905F904F900895DC01ED9118
:1025C000FC910190F081E02D09956C01D501ED9110
:1025D000FC91CACF8AE0482E512C612C712C9AE0D4
:1025E000992E76CFB801C501F90109956C01D50185
:1025F000ED91FC91B9CFC12CD12CB6CFBF92CF9227
:10260000DF92EF92FF920F931F93CF93DF93662396
:1026100009F440C08091E2008E7709F498C2A0913D
:10262000E200AE77A695AF5F8091E3008E7009F46B
:1026300094C23091E3003E7036953F5FE32FF0E0A7
:102640008091E4008E70833008F490C28091E400A1
:102650008E7086958F5F682F70E09091E400907780
:10266000913108F48CC29091E400907792959F701C
:102670009F5F492F50E06E0F7F1F460F571F483056
:1026800051050CF460C221E0230F280F290F50E000
:1026900041E007C051E040E092E082E028E033E012
:1026A000A1E01092ED001092EE001092EF00109257
:1026B000F0001092F1001092F2001092F3001092CC
:1026C000F4001092F5001092F6001092F70060E10D
:1026D0006093ED001092EE001092EF001092F00067
:1026E0001092F1001092F2001092F3001092F40098
:1026F0001092F5001092F6001092F70060E26093DD
:10270000ED001092EE001092EF001092F000109287
:10271000F1001092F2001092F3001092F400109267
:10272000F5001092F6001092F70060E36093ED0060
:102730001092EE001092EF001092F0001092F10053
:102740001092F2001092F3001092F4001092F50033
:102750001092F6001092F70060E46093ED00109282
:10276000EE001092EF001092F0001092F100109223
:10277000F2001092F3001092F4001092F500109203
:10278000F6001092F70060E56093ED001092EE0005
:102790001092EF001092F0001092F1001092F200EF
:1027A0001092F3001092F4001092F5001092F600CF
:1027B0001092F70060E66093ED001092EE00109228
:1027C000EF001092F0001092F1001092F2001092BF
:1027D000F3001092F4001092F5001092F60010929F
:1027E000F70060E76093ED001092EE001092EF00AA
:1027F0001092F0001092F1001092F2001092F3008B
:102800001092F4001092F5001092F6001092F7006A
:1028100060E86093ED001092EE001092EF001092CD
:10282000F0001092F1001092F2001092F30010925A
:10283000F4001092F5001092F6001092F70060E993
:102840006093ED001092EE001092EF001092F000F5
:102850001092F1001092F2001092F3001092F40026
:102860001092F5001092F6001092F70060EA609363
:10287000ED001092EE001092EF001092F000109216
:10288000F1001092F2001092F3001092F4001092F6
:10289000F5001092F6001092F70060EB6093ED00E7
:1028A0001092EE001092EF001092F0001092F100E2
:1028B0001092F2001092F3001092F4001092F500C2
:1028C0001092F6001092F70060EC6093ED00109209
:1028D000EE001092EF001092F0001092F1001092B2
:1028E000F2001092F3001092F4001092F500109292
:1028F000F6001092F70060ED6093ED001092EE008C
:102900001092EF001092F0001092F1001092F2007D
:102910001092F3001092F4001092F5001092F6005D
:102920001092F70060EE6093ED001092EE001092AE
:10293000EF001092F0001092F1001092F20010924D
:10294000F3001092F4001092F5001092F60010922D
:10295000F700BA0100E010E0B0E0D0E8DD2EEAE0D8
:10296000BE2ECC24CA94713009F47CC0513071F56C
:10297000E091EE00E5FF16C08091EF008F73809329
:10298000EF001092D8008091D90082FDFCCF81E049
:10299000DF91CF911F910F91FF90EF90DF90CF903B
:1029A000BF900895EF7109F0B7C0F1E0E091DA004F
:1029B000E5FF08C0B1110FC0C091DA00C062C0933A
:1029C000DA00B1E0EF7079F4F13091F2572F613015
:1029D00051F0E0E042C03091DA0030623093DA002A
:1029E000EF7009F4D0C0411188C0893058F0983098
:1029F00008F485C0293109F492C02F5F92E082E08B
:102A00008930A8F7863008F07AC0982F382F390F10
:102A1000422F431B3FEF340F4250483008F06DC047
:102A2000E92FF0E0632F70E06F5F7F4F680F711D3B
:102A3000EF01CC0FDD1FCC0FDD1FC617D7070CF43D
:102A40005CC0EF01CC0FDD1FEC0FFD1F6E177F0781
:102A50000CF453C0E1E041E060E0752F5E2F71306F
:102A600009F084CF7093D8000F5F1F4FEFEFEA0F8C
:102A7000EE0FE093E200C92FD0E07E01F594E794D9
:102A8000B1E0EB1AF108EE0CFF1CE294F294F0EFC7
:102A9000FF22FE24EF22FE24E32FF0E03197EE0F19
:102AA000FF1FEE29E093E3002197C295D295D07FD6
:102AB000DC27C07FDC27E82FF0E03197EE0FFF1F07
:102AC000EC2BE160E093E400F801F695E795F695CC
:102AD000E795F695E795E093E5001092ED001092EA
:102AE000EE00D092EF00B092D800E091D900E2FF62
:102AF000FCCFC092DA00B0E039CF8F5F76CFE82FFD
:102B0000F0E0692F70E06F5F7F4F6E177F070CF06A
:102B10007DCF9F5F892F7ACF61E0F0E047CFA0346F
:102B200029F0AF5F92E082E028E05FCF8091EF0074
:102B30008F738093EF001092D8008091D90082FDAE
:102B4000FCCF80E025CF50E041E028E0AACDA1E015
:102B50008091E3008E7009F06CCDE1E0F0E031E0AF
:102B60008091E4008E70833008F070CD62E070E0F8
:102B700082E09091E4009077913108F074CD42E0CA
:102B800050E092E078CD572F2ECFFC017183608307
:102B90000895FC0120813181232B09F063C12EDDD2
:102BA000882309F479C11092ED001092EE00109282
:102BB000EF001092F0001092F1001092F2001092CB
:102BC000F3001092F4001092F5001092F6001092AB
:102BD000F70080E18093ED001092EE001092EF007C
:102BE0001092F0001092F1001092F2001092F30097
:102BF0001092F4001092F5001092F6001092F70077
:102C000080E28093ED001092EE001092EF0010929F
:102C1000F0001092F1001092F2001092F300109266
:102C2000F4001092F5001092F6001092F70080E385
:102C30008093ED001092EE001092EF001092F000E1
:102C40001092F1001092F2001092F3001092F40032
:102C50001092F5001092F6001092F70080E4809335
:102C6000ED001092EE001092EF001092F000109222
:102C7000F1001092F2001092F3001092F400109202
:102C8000F5001092F6001092F70080E58093ED00B9
:102C90001092EE001092EF001092F0001092F100EE
:102CA0001092F2001092F3001092F4001092F500CE
:102CB0001092F6001092F70080E68093ED001092DB
:102CC000EE001092EF001092F0001092F1001092BE
:102CD000F2001092F3001092F4001092F50010929E
:102CE000F6001092F70080E78093ED001092EE005E
:102CF0001092EF001092F0001092F1001092F2008A
:102D00001092F3001092F4001092F5001092F60069
:102D10001092F70080E88093ED001092EE00109280
:102D2000EF001092F0001092F1001092F200109259
:102D3000F3001092F4001092F5001092F600109239
:102D4000F70080E98093ED001092EE001092EF0002
:102D50001092F0001092F1001092F2001092F30025
:102D60001092F4001092F5001092F6001092F70005
:102D700080EA8093ED001092EE001092EF00109226
:102D8000F0001092F1001092F2001092F3001092F5
:102D9000F4001092F5001092F6001092F70080EB0C
:102DA0008093ED001092EE001092EF001092F00070
:102DB0001092F1001092F2001092F3001092F400C1
:102DC0001092F5001092F6001092F70080EC8093BC
:102DD000ED001092EE001092EF001092F0001092B1
:102DE000F1001092F2001092F3001092F400109291
:102DF000F5001092F6001092F70080ED8093ED0040
:102E00001092EE001092EF001092F0001092F1007C
:102E10001092F2001092F3001092F4001092F5005C
:102E20001092F6001092F70080EE8093ED00109261
:102E3000EE001092EF001092F0001092F10010924C
:102E4000F2001092F3001092F4001092F50010922C
:102E5000F6001092F7008091D80082608093D8002D
:102E600081E0089521E02093D800FC0180819181C8
:102E7000883C9105A1F188F48436910571F18D3774
:102E8000910589F1892B09F08ECE1092E200109203
:102E9000E3001092E40087CE0895843FF1E09F079D
:102EA00091F0883E23E09207E1F08A3F910509F016
:102EB0007ACE86E08093E2008CE08093E30087E3A3
:102EC0008093E40070CE86E08093E20084E08093FB
:102ED000E30083E18093E40066CE82E1EBCF88E0FB
:102EE000E9CF82E0F1CF8EE0E5CFCF93DF9300D042
:102EF00000D0CDB7DEB7DB0111968C9111978C30E5
:102F000009F486C09091ED001092ED008091EF00E1
:102F1000807C09F428C580E18093ED008091EF006A
:102F2000807C09F422C580E28093ED008091EF005F
:102F3000807C09F41DC580E38093ED008091EF0053
:102F4000807C09F418C580E48093ED008091EF0047
:102F5000807C09F413C580E58093ED008091EF003B
:102F6000807C09F40EC580E68093ED008091EF002F
:102F7000807C09F409C580E78093ED008091EF0023
:102F8000807C09F404C580E88093ED008091EF0017
:102F9000807C09F45DC080E98093ED008091EF00B2
:102FA000807C09F4F7C480EA8093ED008091EF0003
:102FB000807C09F4F2C480EB8093ED008091EF00F7
:102FC000807C09F4EDC480EC8093ED008091EF00EB
:102FD000807C09F4E8C480ED8093ED008091EF00DF
:102FE000807C09F4E3C480EE8093ED008091EF00D3
:102FF000807C09F4DEC49093ED008FE119968C93E8
:103000008FEF0F900F900F900F90DF91CF91089559
:1030100019968C911997803651F019961C9280E080
:103020000F900F900F900F90DF91CF9108958C919A
:103030008295807F8093ED008091EF008F73809365
:10304000EF001092EE001C9219961C9280E0E8CFDF
:1030500028E080E89093ED0090E619969C931997EC
:103060002C938093ED001092EE001092EF001092DE
:10307000F0001092F1001092F2001092F300109202
:10308000F4001092F5001092F6001092F7001196DD
:10309000EC9111974E2F50E0FA013197EB30F1058A
:1030A00008F0BBCFE65BFF4F43C616968C91169790
:1030B000882381F080E01796ED91FC911897E80F36
:1030C000F11D90819093FA008F5F16969C91169750
:1030D000891788F319821A821B821C821092F700CA
:1030E0008B81982F990F990F990F8A8182958695D8
:1030F0008770890F8093F6008A81982F990F990F16
:10310000990F8981829586958770890F8093F50044
:103110008981880F880F880F8093F4009091EF00C9
:1031200016968C911697892B8093EF0081E01A9662
:103130008C938091F40084608093F4008091F0007F
:1031400084608093F0008091EF0080628093EF00B4
:103150008091F4008E7F8093F4008091EF008F7354
:103160008093EF008091EF0080688093EF0080E013
:103170000F900F900F900F90DF91CF9108951B96B5
:103180008C911B97882309F4A8C415968C911597E8
:10319000982F990F990F990F14968C9114978295E7
:1031A00086958770890F8093F30014968C911497FD
:1031B000982F990F990F990F13968C9113978295C9
:1031C00086958770890F8093F20013968C911397E0
:1031D000982F990F990F990F12968C9112978295AB
:1031E00086958770890F8093F10012968C911297C3
:1031F000880F880F880F8093F0008091EF00806126
:103200008093EF004FEF5FEFBA0149835A836B83DE
:103210007C838FEF8093F7008B81982F990F990F04
:10322000990F8A81829586958770890F8093F60021
:103230008A81982F990F990F990F89818295869588
:103240008770890F8093F5008981880F880F880F18
:103250008093F4009091EF0016968C911697892B2D
:103260008093EF0081E01A968C938091F400846043
:103270008093F4008091F00084608093F00080914E
:10328000EF008F7D8093EF008091F400816063CF29
:103290001B968C911B97882309F4E5C315968C9196
:1032A0001597982F990F990F990F14968C91149741
:1032B000829586958770890F8093F30014968C9180
:1032C0001497982F990F990F990F13968C91139724
:1032D000829586958770890F8093F20013968C9162
:1032E0001397982F990F990F990F12968C91129707
:1032F000829586958770890F8093F10012968C9144
:103300001297880F880F880F8093F0008091EF004C
:1033100080618093EF004FEF5FEFBA0149835A83DA
:103320006B837C838FEF8093F7008B81982F990FAD
:10333000990F990F8A81829586958770890F80935E
:10334000F6008A81982F990F990F990F898182959C
:1033500086958770890F8093F5008981880F880F83
:10336000880F8093F4009091EF0016968C91169739
:10337000892B8093EF001A961C928091F400846050
:103380008093F4008091F0008B7F8093F0007CCFDD
:103390001B968C911B97882309F482C315968C91F8
:1033A0001597982F990F990F990F14968C91149740
:1033B000829586958770890F8093F30014968C917F
:1033C0001497982F990F990F990F13968C91139723
:1033D000829586958770890F8093F20013968C9161
:1033E0001397982F990F990F990F12968C91129706
:1033F000829586958770890F8093F10012968C9143
:103400001297880F880F880F8093F0008091EF004B
:1034100080618093EF004FEF5FEFBA0149835A83D9
:103420006B837C838FEF8093F7008B81982F990FAC
:10343000990F990F8A81829586958770890F80935D
:10344000F6008A81982F990F990F990F898182959B
:1034500086958770890F8093F5008981880F880F82
:10346000880F8093F4009091EF0016968C91892B31
:103470008093EF008091F4008B7F8093F40004CF61
:1034800019821A821B821C821092F7008B81982F5E
:10349000990F990F990F8A81829586958770890F68
:1034A0008093F6008A81982F990F990F990F89813F
:1034B000829586958770890F8093F5008981880FA2
:1034C000880F880F8093F4009091EF0016968C91EE
:1034D0001697892B8093EF0081E01A968C93809148
:1034E000F40084608093F4008091F0008460809305
:1034F000F0008091EF008F7D8093EF008091F400C9
:103500008E7F29CE19821A821B821C821092F700AC
:103510008B81982F990F990F990F8A8182958695A3
:103520008770890F8093F6008A81982F990F990FE1
:10353000990F8981829586958770890F8093F50010
:103540008981880F880F880F8093F4009091EF0095
:1035500016968C911697892B8093EF001A961C92E1
:103560008091F40084608093F4008091F0008B7F60
:103570008093F0008091F4008E7FEDCD19821A8245
:103580001B821C821092F7008B81982F990F990F44
:10359000990F8A81829586958770890F8093F600AE
:1035A0008A81982F990F990F990F89818295869515
:1035B0008770890F8093F5008981880F880F880FA5
:1035C0008093F4009091EF0016968C91892B809354
:1035D000EF008091F4008B7F8093F4008091F400E1
:1035E0008E7FB9CD1B968C911B97882309F492C2CC
:1035F00015968C911597982F990F990F990F1496EE
:103600008C911497829586958770890F8093F3002B
:1036100014968C911497982F990F990F990F1396D0
:103620008C911397829586958770890F8093F2000D
:1036300013968C911397982F990F990F990F1296B3
:103640008C911297829586958770890F8093F100EF
:1036500012968C911297880F880F880F8093F00034
:103660008091EF0080618093EF0081E01A968C9347
:103670001A978091F00084608093F0009091EF00A1
:1036800016968C91892B8093EF008091EF008F73B9
:103690008093EF008091EF0080648093EF0080E0E2
:1036A0000F900F900F900F90DF91CF9108951B9680
:1036B0008C911B97882309F4B9C115968C911597A5
:1036C000982F990F990F990F14968C9114978295B2
:1036D00086958770890F8093F30014968C911497C8
:1036E000982F990F990F990F13968C911397829594
:1036F00086958770890F8093F20013968C911397AB
:10370000982F990F990F990F12968C911297829575
:1037100086958770890F8093F10012968C9112978D
:10372000880F880F880F8093F0008091EF008061F0
:103730008093EF0016968C911697882381F080E095
:103740001796ED91FC911897E80FF11D90819093D9
:10375000FA008F5F16969C911697891788F31A9630
:103760001C921A978091F0008B7F86CF1B968C91CC
:103770001B97882309F43DC115968C911597982FB6
:10378000990F990F990F14968C911497829586959D
:103790008770890F8093F30014968C911497982F5B
:1037A000990F990F990F13968C911397829586957F
:1037B0008770890F8093F20013968C911397982F3E
:1037C000990F990F990F12968C9112978295869561
:1037D0008770890F8093F10012968C911297880F51
:1037E000880F880F8093F0008091EF0080618093B4
:1037F000EF0016968C911697882381F080E017963B
:10380000ED91FC911897E80FF11D90819093FA00CB
:103810008F5F16969C911697891788F31A968C914C
:103820001A97882309F49ECF8091F00084608093DA
:10383000F00024CF1B968C911B97882309F4BCC001
:1038400015968C911597982F990F990F990F14969B
:103850008C911497829586958770890F8093F300D9
:1038600014968C911497982F990F990F990F13967E
:103870008C911397829586958770890F8093F200BB
:1038800013968C911397982F990F990F990F129661
:103890008C911297829586958770890F8093F1009D
:1038A00012968C911297880F880F880F8093F000E2
:1038B0008091EF0080618093EF0016968C911697AF
:1038C000882381F080E01796ED91FC911897E80F1E
:1038D000F11D90819093FA008F5F16969C91169738
:1038E000891788F34FEF5FEFBA0149835A836B83DF
:1038F0007C838FEF8093F7008B81982F990F990F1E
:10390000990F8A81829586958770890F8093F6003A
:103910008A81982F990F990F990F898182958695A1
:103920008770890F8093F5008981880F880F880F31
:103930008093F4009091EF0016968C911697892B46
:103940008093EF0081E01A968C938091F40084605C
:103950008093F4008091F00084608093F000809167
:10396000EF0080628FCC20E075CB21E080E172CB4C
:1039700022E080E26FCB23E080E36CCB24E080E4A4
:1039800069CB25E080E566CB26E080E663CB27E0C7
:1039900080E760CB29E080E95DCB2AE080EA5ACB62
:1039A0002BE080EB57CB2CE080EC54CB2DE080ED6E
:1039B00051CB2EE080EE4ECB13969C91139712962E
:1039C0008C91129786958695869520E2929F800D20
:1039D00011248093F30012968C9112978295880F90
:1039E000807E8093F2008091EF008F7E8093EF00C5
:1039F00064CF13969C91139712968C91129786958B
:103A00008695869520E2929F800D11248093F30085
:103A100012968C9112978295880F807E8093F20087
:103A20008091EF008F7E8093EF00E3CE13969C9100
:103A3000139712968C91129786958695869520E21B
:103A4000929F800D11248093F30012968C9112970F
:103A50008295880F807E8093F2008091EF008F7EA8
:103A60008093EF0067CE13969C91139712968C91DA
:103A7000129786958695869520E2929F800D112457
:103A80008093F30012968C9112978295880F807E16
:103A90008093F2008091EF008F7E8093EF003BCC0B
:103AA00013969C91139712968C91129786958695F2
:103AB000869520E2929F800D11248093F300129648
:103AC0008C9112978295880F807E8093F20080916E
:103AD000EF008F7E8093EF009ECC13969C911397FE
:103AE00012968C91129786958695869520E2929FE4
:103AF000800D11248093F30012968C911297829579
:103B0000880F807E8093F2008091EF008F7E8093FB
:103B1000EF0078CB13969C91139712968C91129785
:103B200086958695869520E2929F800D112480933C
:103B3000F30012968C9112978295880F807E809365
:103B4000F2008091EF008F7E8093EF008ECDDB013D
:103B500019968C911997811102C082E008958F31D6
:103B6000E1F38F3FD1F38C918295807F8093ED00BC
:103B70008091EF00807C61F48FEFFB018187809161
:103B8000EF008F738093EF001092EE0082E00895B3
:103B90008091EE00982F907E9032A9F0903439F009
:103BA000903A09F491C08F7141F781E00895DB01EB
:103BB00019969C938091EF008F738093EF00109281
:103BC000EE0080E0089550E28091EF008F70DB01FD
:103BD00016968C9316971796ED91FC9118978091F5
:103BE000EF008F7099F040E020E030E08091FA0023
:103BF000DF01A20FB31F8C934F5F8091EF00242F42
:103C000030E08F7090E02817390784F38091F0003E
:103C100082FB882780F9FB0182878091EF0084FF77
:103C200037C081E083878091F30090E09595879578
:103C3000959587959595879585838091F2009091CC
:103C4000F300869586958695B0E29B9F800D1124A2
:103C5000FB0184838091F1009091F2008695869516
:103C60008695F0E29F9F800D1124DB0113968C93C3
:103C70008091F0009091F100869586958695B0E24E
:103C80009B9F800D1124FB018283FB01518792CF02
:103C900013868091F30090E095958795959587958B
:103CA000959587959595879595958795838390911B
:103CB000F2008091F300929596959770880F880F87
:103CC000880F890F8283E1CF50EA7ECF6AC201C399
:103CD000FC0181E090E02081222311F080E090E05F
:103CE000089521E0FC01208308950895A1E21A2E91
:103CF000AA1BBB1BFD010DC0AA1FBB1FEE1FFF1F90
:103D0000A217B307E407F50720F0A21BB30BE40BDF
:103D1000F50B661F771F881F991F1A9469F7609526
:103D20007095809590959B01AC01BD01CF010895E0
:103D3000EE0FFF1F0024001C0BBE0790F691E02D34
:103D4000099409D0A59F900DB49F900DA49F800D5C
:103D5000911D11240895A29FB001B39FC001A39F9C
:103D6000700D811D1124911DB29F700D811D1124B4
:103D7000911D08955058BB27AA270ED075C166D152
:103D800030F06BD120F031F49F3F11F41EF45BC191
:103D90000EF4E095E7FB51C1E92F77D180F3BA1714
:103DA000620773078407950718F071F49EF58FC1B9
:103DB0000EF4E0950B2EBA2FA02D0B01B901900146
:103DC0000C01CA01A0011124FF27591B99F0593F8A
:103DD00050F4503E68F11A16F040A22F232F342FD2
:103DE0004427585FF3CF469537952795A795F04020
:103DF0005395C9F77EF41F16BA0B620B730B840B35
:103E0000BAF09150A1F0FF0FBB1F661F771F881FEC
:103E1000C2F70EC0BA0F621F731F841F48F4879544
:103E200077956795B795F7959E3F08F0B3CF939533
:103E3000880F08F09927EE0F979587950895D9D0A8
:103E400008F481E008950CD00FC107D140F0FED0F6
:103E500030F021F45F3F19F0F0C0511139C1F3C0C7
:103E600014D198F39923C9F35523B1F3951B550B3E
:103E7000BB27AA2762177307840738F09F5F5F4F3D
:103E8000220F331F441FAA1FA9F333D00E2E3AF07E
:103E9000E0E830D091505040E695001CCAF729D098
:103EA000FE2F27D0660F771F881FBB1F26173707E7
:103EB0004807AB07B0E809F0BB0B802DBF01FF2717
:103EC00093585F4F2AF09E3F510568F0B6C000C17D
:103ED0005F3FECF3983EDCF3869577956795B79551
:103EE000F7959F5FC9F7880F911D9695879597F96C
:103EF0000895E1E0660F771F881FBB1F62177307E5
:103F00008407BA0720F0621B730B840BBA0BEE1FF9
:103F100088F7E095089504D06894B111D9C0089548
:103F2000BCD088F09F5790F0B92F9927B751A0F0D7
:103F3000D1F0660F771F881F991F1AF0BA95C9F73D
:103F400012C0B13081F0C3D0B1E00895C0C0672F76
:103F5000782F8827B85F39F0B93FCCF386957795ED
:103F60006795B395D9F73EF49095809570956195D6
:103F70007F4F8F4F9F4F0895E89409C097FB3EF401
:103F800090958095709561957F4F8F4F9F4F9923A6
:103F9000A9F0F92F96E9BB279395F6958795779524
:103FA0006795B795F111F8CFFAF4BB0F11F460FFE4
:103FB0001BC06F5F7F4F8F4F9F4F16C0882311F03C
:103FC00096E911C0772321F09EE8872F762F05C050
:103FD000662371F096E8862F70E060E02AF09A95EB
:103FE000660F771F881FDAF7880F9695879597F9E0
:103FF0000895990F0008550FAA0BE0E8FEEF16167A
:104000001706E807F907C0F012161306E407F507CC
:1040100098F0621B730B840B950B39F40A2661F040
:10402000232B242B252B21F408950A2609F4A140E3
:10403000A6958FEF811D811D089597F99F6780E8F0
:1040400070E060E008959FEF80EC089500240A94EA
:104050001616170618060906089500240A94121663
:104060001306140605060895092E0394000C11F496
:10407000882352F0BB0F40F4BF2B11F460FF04C043
:104080006F5F7F4F8F4F9F4F089557FD9058440F9C
:10409000551F59F05F3F71F04795880F97FB991FA7
:1040A00061F09F3F79F08795089512161306140664
:1040B000551FF2CF4695F1DF08C0161617061806F1
:1040C000991FF1CF86957105610508940895E894CC
:1040D000BB2766277727CB0197F908950BD0C4CF6C
:1040E000B5DF28F0BADF18F0952309F0A6CFABCFE3
:1040F0001124EECFCADFA0F3959FD1F3950F50E0C6
:10410000551F629FF001729FBB27F00DB11D639F89
:10411000AA27F00DB11DAA1F649F6627B00DA11D2F
:10412000661F829F2227B00DA11D621F739FB00DD5
:10413000A11D621F839FA00D611D221F749F332745
:10414000A00D611D231F849F600D211D822F762FDE
:104150006A2F11249F5750408AF0E1F088234AF0DB
:10416000EE0FFF1FBB1F661F771F881F9150504027
:10417000A9F79E3F510570F060CFAACF5F3FECF3E7
:10418000983EDCF3869577956795B795F795E79513
:104190009F5FC1F7FE2B880F911D9695879597F924
:1041A00008950F931F93CF93DF938230910510F4FE
:1041B00082E090E0E0912203F091230320E030E0E0
:1041C000A0E0B0E0309719F1408151810281138164
:1041D00048175907C8F08417950769F4109731F00C
:1041E00012960C93129713961C9327C000932203E8
:1041F0001093230322C02115310519F042175307EC
:1042000018F49A01BD01EF01DF01F801DBCF2115A0
:104210003105F9F0281B390B2430310580F48A81EF
:104220009B816115710521F0FB019383828304C09A
:104230009093230380932203FE01329644C0FE0133
:10424000E20FF31F81939193225031093983288320
:104250003AC02091200330912103232B41F4209177
:104260000201309103013093210320932003209118
:104270000001309101012115310541F42DB73EB700
:104280004091040150910501241B350BE09120035E
:10429000F0912103E217F307A0F42E1B3F0B281720
:1042A000390778F0AC014E5F5F4F2417350748F0AF
:1042B0004E0F5F1F509321034093200381939193EE
:1042C00002C0E0E0F0E0CF01DF91CF911F910F91AC
:1042D0000895CF93DF93009709F481C0FC013297D2
:1042E00013821282A0912203B0912303109781F4CC
:1042F00020813181820F931F20912003309121036F
:104300002817390751F5F0932103E093200367C084
:10431000ED0120E030E0CE17DF0740F44A815B81F9
:104320009E0141155105F1F0EA01F5CFD383C28317
:1043300040815181840F951FC817D90759F488818E
:104340009981840F951F0296918380838A819B8136
:10435000938382832115310529F4F0932303E0939D
:1043600022033DC0E901FB83EA8349915991C40FBF
:10437000D51FEC17FD0761F480819181840F951F93
:104380000296E90199838883828193819B838A8342
:10439000E0E0F0E012968D919C911397009719F050
:1043A000FD01DC01F7CF8D919C9111979D012E5F4E
:1043B0003F4F820F931F2091200330912103281734
:1043C000390769F4309729F41092230310922203DD
:1043D00002C013821282B0932103A0932003DF91C5
:1043E000CF910895283008F027E03327DA01990F9C
:1043F000311D87FD916000966105710539F43260C9
:104400002E5F3D9330E32A95E1F708959F3F30F00A
:1044100080387105610509F03C5F3C5F3D93913048
:1044200008F08068911DDF93CF931F930F93FF9245
:10443000EF92192F987F9695E92F96959695E90F0B
:10444000FF27E45FFE4F99273327EE24FF24A701BF
:10445000E70105900894079428F4360FE71EF81E2C
:10446000491F511D660F771F881F991F0694A1F7DA
:104470000590079428F4E70EF81E491F561FC11D2A
:10448000770F881F991F661F0694A1F70590079460
:1044900028F4F80E491F561FC71FD11D880F991FFA
:1044A000661F771F0694A1F70590079420F4490F23
:1044B000561FC71FD81F990F661F771F881F0694A6
:1044C000A9F784911095177041F0D695C795579527
:1044D0004795F794E7941A95C1F7E2EBF0E06894FA
:1044E0001590159135916591959105907FE27395A1
:1044F000E118F10A430B560BC90BD009C0F7E10CC8
:10450000F11E431F561FC91FD01D7EF4703311F4D6
:104510008A95E6CFE894015030F0080F0AF400279E
:10452000021708F4202F2395022F7A3328F079E31D
:104530007D932A95E9F710C07D932A9589F6069414
:1045400097956795379517951794E118F10A430BDE
:10455000560BC90BD00998F023957E9173957A3349
:1045600008F070E37C932013B8F77E9170617D931F
:1045700030F0839571E37D9370E32A95E1F7112480
:10458000EF90FF900F911F91CF91DF91992787FDB9
:1045900090950895FC010590615070400110D8F786
:1045A000809590958E0F9F1F0895FC01615070407B
:1045B00001900110D8F7809590958E0F9F1F089558
:1045C0000F931F93CF93DF93FB01238121FD03C042
:1045D0008FEF9FEF2CC022FF16C0468157812481A8
:1045E00035814217530744F4A081B1819D012F5FAB
:1045F0003F4F318320838C93268137812F5F3F4F3C
:104600003783268314C08B01EC01FB010084F18504
:10461000E02D0995892BE1F6D80116968D919C9194
:104620001797019617969C938E931697CE01DF915C
:10463000CF911F910F910895FA01AA27283051F1C7
:10464000203181F1E8946F936E7F6E5F7F4F8F4FC3
:104650009F4FAF4FB1E03ED0B4E03CD0670F781F22
:10466000891F9A1FA11D680F791F8A1F911DA11D07
:104670006A0F711D811D911DA11D20D009F4689440
:104680003F912AE0269F11243019305D3193DEF6E8
:10469000CF010895462F4770405D4193B3E00FD09E
:1046A000C9F7F6CF462F4F70405D4A3318F0495D89
:1046B00031FD4052419302D0A9F7EACFB4E0A6956C
:1046C0009795879577956795BA95C9F7009761058E
:1046D000710508959B01AC010A2E069457954795E4
:1046E00037952795BA95C9F7620F731F841F951FD9
:0C46F000A01D08950E940201F894FFCF65
:1046FC000000240320000000000060077E079107E3
:10470C000000000000000000751E0000000000000A
:10471C000000751E000000001A0B380B680BD3004C
:10472C000000000002000000000000010500000075
:10473C00000101050000000002010500000000035B
:10474C00010504D400000000000600000000000475
:10475C000105000000000501050000000006010530
:10476C0000000000070105040000000022101612D2
:0C477C00D10FE90FCE0F1410CD0F3F102D
:00000001FF
