:10000000D6C00000FEC00000FCC00000FAC0000026
:10001000F8C00000F6C00000F4C00000F2C000000C
:10002000F0C00000EEC00000ECC00000EAC000001C
:100030000C94CC09E6C00000E4C00000E2C000005F
:10004000E0C00000DEC00000DCC00000DAC000003C
:10005000D8C000000C94E40AD4C00000D2C0000054
:10006000D0C000000C94FE09CCC00000CAC0000043
:10007000C8C00000C6C00000C4C00000C2C000006C
:100080000C94240BBEC00000BCC00000BAC000002D
:10009000B8C00000D61877181218DE17A21760171C
:1000A000E8166816DF1575153A196E616E00696EEF
:1000B000660000407A10F35A00A0724E1809001032
:1000C000A5D4E80000E87648170000E40B540200CD
:1000D00000CA9A3B000000E1F505000080969800F8
:1000E000000040420F000000A08601000000102721
:1000F00000000000E80300000000640000000000B1
:100100000A00000000000100000000002C76D888E2
:10011000DC674F0823DFC1DFAE59E1B1B796E5E3F5
:10012000E453C63AE651997696E8E6C28426EB890E
:100130008C9B62ED407C6FFCEFBC9C9F40F2BAA5AB
:100140006FA5F490055A2AF75C936B6CF9676DC143
:100150001BFCE0E40D47FEF520E6B500D0ED902E47
:100160000300943577050080841E080000204E0AA5
:10017000000000C80C333333330F986E12831141E3
:10018000EF8D2114893BE65516CFFEE6DB18D184AE
:100190004B381BF77C1D901DA4BBE42420328472D5
:1001A0005E228100C9F124ECA1E53D274D0C11240C
:1001B0001FBECFEFD0E1DEBFCDBF11E0A0E0B1E0C8
:1001C000E0EAFFE300E00BBF02C007900D92AC38FD
:1001D000B107D9F722E0ACE8B1E001C01D92AB3E17
:1001E000B207E1F710E0C7EDD0E004C02197FE01AF
:1001F0000E94EC1AC63DD107C9F70E94300A0C9440
:10020000CE1FFECE2F923F924F925F926F927F92BF
:100210008F929F92AF92BF92CF92DF92EF92FF9216
:100220000F931F93CF93DF93CDB7DEB760970FB6D1
:10023000F894DEBF0FBECDBF7C011B016A01FC013B
:1002400017821682838181FF44C39E012F5F3F4F37
:100250003901F7019381F10193FD859193FF81911C
:100260001F01882309F431C3853239F493FD859148
:1002700093FF81911F01853239F4B70190E00E940C
:10028000341F56016501E5CF10E0512C912CFFE1A0
:10029000F915D8F08B3279F038F4803279F0833266
:1002A000A1F4F92DF0612EC08D3261F0803369F434
:1002B000292D21602DC0392D3260932E892D846027
:1002C000982E2AC0E92DE86015C097FC2DC020EDBE
:1002D000280F2A3088F496FE06C03AE0139F200DBE
:1002E0001124122F19C08AE0589E200D1124522E7D
:1002F000E92DE0629E2E10C08E3231F496FCE5C2EC
:10030000F92DF0649F2E08C08C3621F4292D206829
:10031000922E02C0883641F4F10193FD859193FF3E
:1003200081911F018111B3CF9BEB980F933020F483
:10033000992D9061805E07C09BE9980F933008F07B
:1003400066C1992D9F7E96FF16E09F73992E853684
:1003500019F49064992E08C0863621F4392F30683C
:10036000932E02C01111115097FE07C01C3350F498
:1003700044244394410E27E00BC0183038F027E0A6
:1003800017E005C027E09CE3492E02C0212F412C35
:10039000560184E0A80EB11CF60160817181828152
:1003A0009381042DA3010E94461E6C01F981FC87F4
:1003B000F0FF02C0F3FF06C091FC06C092FE06C02B
:1003C00000E205C00DE203C00BE201C000E08C8535
:1003D0008C7019F001115AC29BC297FE10C04C0CD0
:1003E000FC85F4FF04C08A81813309F44A94141413
:1003F00074F528E0241578F588E0482E2CC096FC8A
:100400002AC0812F90E08C159D059CF03CEFC3160F
:100410003FEFD30674F0892D8068982E0AC0E2E081
:10042000F0E0EC0FFD1FE10FF11D8081803319F426
:1004300011501111F4CF97FE0EC044244394410E85
:10044000812F90E0C816D9062CF41C1904C044244E
:10045000439401C010E097FE06C01C141D0434F440
:10046000C601019605C085E090E002C081E090E001
:1004700001110196112331F0212F30E02F5F3F4F02
:10048000820F931F252D30E08217930714F4581A1A
:1004900001C0512C892D897049F4552039F0B701DC
:1004A00080E290E00E94341F5A94F7CF002329F095
:1004B000B701802F90E00E94341F93FC09C05520A3
:1004C00039F0B70180E390E00E94341F5A94F7CFCF
:1004D00097FE4CC04601D7FE02C0812C912CC6016C
:1004E00088199909F301E80FF91FFE87ED87960136
:1004F00024193109388B2F87012F10E011950195B0
:1005000011093FEF8316930629F4B7018EE290E0BC
:100510000E94341FC814D9044CF08F85988988151F
:10052000990524F4ED85FE85818101C080E3F1E029
:100530008F1A91082D853E852F5F3F4F3E872D876F
:10054000801691062CF0B70190E00E94341FD9CF9D
:10055000C814D90441F49A81963320F4953319F4E0
:100560003C8534FF81E3B70190E04EC08A8181333E
:1005700019F09C859F7E9C87B70190E00E94341FF4
:10058000111105C094FC18C085E690E017C0B701B2
:100590008EE290E00E94341F1E5F82E001E0080FAF
:1005A000F301E80FF11D8081B70190E00E94341F34
:1005B000802F0113F3CFE6CF85E490E0B7010E94CE
:1005C000341FD7FC06C0C114D10441F4EC85E4FF0C
:1005D00005C0D194C194D1088DE201C08BE2B7016E
:1005E00090E00E94341F80E32AE0C216D1042CF070
:1005F0008F5FFAE0CF1AD108F7CFB70190E00E94E1
:10060000341FB701C601C0960E94341F54C18336FF
:1006100031F0833779F0833509F056C020C0560198
:1006200032E0A30EB11CF6018081898301E010E065
:10063000630112C05601F2E0AF0EB11CF601C0809A
:10064000D18096FE03C0612F70E002C06FEF7FEF94
:10065000C6010E94291F8C01F92DFF7714C0560195
:1006600022E0A20EB11CF601C080D18096FE03C02C
:10067000612F70E002C06FEF7FEFC6010E941E1F66
:100680008C01F92DF0689F2EF3FD1AC0852D90E0A6
:1006900008171907A8F4B70180E290E00E94341F00
:1006A0005A94F4CFF60197FC859197FE81916F01E2
:1006B000B70190E00E94341F51105A940150110963
:1006C0000115110579F7F7C0843611F0893661F507
:1006D000560197FE09C024E0A20EB11CF60160810C
:1006E0007181828193810AC0F2E0AF0EB11CF601E4
:1006F00060817181072E000C880B990BF92DFF7614
:100700009F2E97FF09C090958095709561957F4FBA
:100710008F4F9F4FF0689F2E2AE030E0A3010E9488
:10072000701FC82EC6183FC0092D853721F40F7ED3
:100730002AE030E01DC0097F8F3691F018F488352B
:1007400059F0C3C0803719F0883711F0BEC000617E
:1007500004FF09C0046007C094FE08C0066006C01C
:1007600028E030E005C020E130E002C020E132E0C6
:10077000560107FF09C084E0A80EB11CF601608194
:1007800071818281938108C0F2E0AF0EB11CF60145
:100790006081718180E090E0A3010E94701FC82EEB
:1007A000C6180F77902E96FE0BC0092D0E7FC1162E
:1007B00050F494FE0AC092FC08C0092D0E7E05C0BC
:1007C000DC2C092D03C0DC2C01C0D12E04FF0DC090
:1007D000FE01EC0DF11D8081803311F4097E09C00A
:1007E00002FF06C0D394D39404C0802F867809F00A
:1007F000D39403FD11C000FF06C01C2DD51480F456
:10080000150D1D190DC0D51458F4B70180E290E004
:100810000E94341FD394F7CFD51410F45D1801C093
:10082000512C04FF10C0B70180E390E00E94341FF8
:1008300002FF17C001FD03C088E790E002C088E511
:1008400090E0B7010CC0802F867859F001FF02C0FC
:100850008BE201C080E207FD8DE2B70190E00E94CB
:10086000341FC11638F4B70180E390E00E94341FB2
:100870001150F7CFCA94F301EC0DF11D8081B7013F
:1008800090E00E94341FC110F5CF15C0F4E0F515BB
:1008900060F584E0581A93FE1FC0011127C02C8513
:1008A00023FF2AC00AEA10E0392D3071932EF80197
:1008B0008491811124C0552009F4E4CCB70180E271
:1008C00090E00E94341F5A94F6CFF70186819781F9
:1008D00026C08FEF9FEF23C0B70180E290E00E9417
:1008E000341F5A945110F8CFD8CF512CB701802F14
:1008F00090E00E94341FD3CF0EEA10E0D5CF9110C4
:100900008052B70190E00E94341F0F5F1F4FCFCF7E
:1009100023E0251510F483E0BDCF512CC0CF6096A5
:100920000FB6F894DEBF0FBECDBFDF91CF911F9100
:100930000F91FF90EF90DF90CF90BF90AF909F907E
:100940008F907F906F905F904F903F902F90089581
:10095000CF93DF9300D0CDB7DEB79A8389838981A7
:100960009A81FC0180819181A281B381BC01CD017A
:100970000E94DF1BDC01CB010F900F90DF91CF9124
:100980000895CF93DF93CDB7DEB7F89481E0DF9180
:10099000CF910895CF93DF9300D0CDB7DEB79A8380
:1009A0008983789400000F900F90DF91CF91089584
:1009B000CF93DF9300D0CDB7DEB79A8389832CE144
:1009C00031E089819A81FC013183208380E090E0CD
:1009D000892B21F089819A810E94C81A0F900F906B
:1009E000DF91CF910895CF93DF93CDB7DEB78AE73C
:1009F00090E027E0FC0120838CE790E020E4FC01FC
:100A000020838AE790E02AE730E0F9012081286816
:100A1000FC0120830000DF91CF910895CF93DF93F5
:100A200000D01F92CDB7DEB79A8389836B8324D021
:100A30008823D9F089819A8190938D0180938C01CC
:100A40008B8180938E018CE790E02B812F70206446
:100A5000FC0120838AE790E02AE730E0F901208159
:100A60002064FC01208381E001C080E00F900F90A2
:100A70000F90DF91CF910895CF93DF93CDB7DEB77D
:100A800080918C0190918D0121E0892B09F020E06B
:100A9000822FDF91CF910895CF93DF9300D000D0C4
:100AA000CDB7DEB7E9DF982F81E08927882309F4E5
:100AB0003DC01C8266DF898389818823C1F088E775
:100AC00090E0FC018081882F90E09B838A8389E7F6
:100AD00090E0FC018081882F90E0382F22278A81C6
:100AE0009B81822B932B9B838A831982E5CFCE0136
:100AF000049650DF80918C0190918D01FC018081E2
:100B000091810496FC012081318140918E01809178
:100B10008C0190918D01BE016E5F7F4FF9010995A7
:100B200010928D0110928C0110928E0100000F9096
:100B30000F900F900F90DF91CF910895CF93DF9397
:100B400000D0CDB7DEB79A83898389819A81FC0171
:100B500081850F900F90DF91CF910895CF93DF9310
:100B6000CDB7DEB727970FB6F894DEBF0FBECDBF67
:100B70009A8389837C836B835E834D832F838981F2
:100B80009A812B813C81FC013183208389819A8168
:100B90009C012E5F3F4F8D819E81FC018081918160
:100BA000A281B381F90180839183A283B383898178
:100BB0009A812F81FC01268389819A8128E00A96F7
:100BC000FC01322F11923A95E9F789819A812B81A4
:100BD0003C81FC013187208789819A81FC01128A3E
:100BE000000027960FB6F894DEBF0FBECDBFDF9191
:100BF000CF910895CF93DF9300D000D000D0CDB730
:100C0000DEB79B838A837D836C834E838E81898349
:100C10008981853010F080E02FC08981882F90E095
:100C20002A813B810596880F991F820F931FFC0133
:100C300080819181892B11F080E01EC08A819B8187
:100C4000FC0192898981891738F0898121E0280F78
:100C50008A819B81FC01228B8981882F90E02A81E7
:100C60003B810596880F991F820F931F2C813D8130
:100C7000FC013183208381E026960FB6F894DEBF15
:100C80000FBECDBFDF91CF910895CF93DF9300D0FA
:100C9000CDB7DEB79A83898389819A81FC018085EB
:100CA00091859C012150310989819A81FC0131870C
:100CB000208789819A81FC018085918521E0892B9B
:100CC00009F020E0222379F089819A8121E0FC015A
:100CD000278389819A81FC012081318189819A81D0
:100CE000FC013187208700000F900F90DF91CF919A
:100CF0000895CF93DF93CDB7DEB768970FB6F8941A
:100D0000DEBF0FBECDBF988F8F8B8F89988DFC0172
:100D10008781882309F4F7C019828F89988DFC0197
:100D200092898981891738F58981882F90E02F89E8
:100D3000388D0596880F991F820F931FFC018081C3
:100D40009181892B21F489818F5F8983E6CF898105
:100D5000882F90E02F89388D0596880F991F820F74
:100D6000931FFC018081918192D18823B1F2898106
:100D70008F5F8983D2CF8F89988DFC018289882FDC
:100D800090E001972F89388D0596880F991F820F63
:100D9000931FFC0180819181D1DE982F81E089270A
:100DA000882309F0E8CF28E0CE010396FC01322F1A
:100DB00011923A95E9F71A828F89988DFC019289F0
:100DC0008A81891708F062C08A81882F90E02F8974
:100DD000388D0596880F991F820F931FFC01808123
:100DE0009181892B09F44DC08A81882F90E0880F6A
:100DF000991F9E012F5F3F4F820F931F029622E0A3
:100E000031E0FC013183208366E071E080EC91E009
:100E1000DCD58A81882F90E02F89388D0596880F40
:100E2000991F820F931FFC0180819181FC018681B3
:100E30004AE050E0682F80EC91E00FD66CE071E062
:100E400080EC91E0C2D58A81882F90E02F89388D7F
:100E50000596880F991F820F931FFC018081918155
:100E600057D1DC01CB0124E030E0AC01BD0180ECC6
:100E700091E00E941D1061E171E080EC91E08ED65E
:100E800001C000008A818F5F8A8396CF2CE0CE015B
:100E90000B96FC01322F11923A95E9F782E08C878C
:100EA0008F89988DFC018289880F898B8F89988D15
:100EB000FC018681882361F08F89988DFC018281F5
:100EC0009381A481B5818D879E87AF87B88B07C03A
:100ED0008F89988DFC01828193819E878D878F8970
:100EE000988DFC0186818E8BCE0103969B8B8A8B1D
:100EF000CE010B96BC0185EE92E00E9495148F897D
:100F0000988DFC011782000068960FB6F894DEBF3A
:100F10000FBECDBFDF91CF910895CF93DF9300D067
:100F200000D0CDB7DEB79A8389837C836B838981B8
:100F30009A81FC01208131818B819C81FC0180811F
:100F4000918141E0281739070CF040E0842F0F9081
:100F50000F900F900F90DF91CF910895CF93DF9373
:100F600000D0CDB7DEB79A8389832CE131E0898147
:100F70009A81FC013183208300000F900F90DF9154
:100F8000CF910895CF93DF9300D000D0CDB7DEB7D7
:100F90009A8389837C836B8389819A81DFDF26E250
:100FA00031E089819A81FC01318320838B819C818E
:100FB000FC012081318189819A81FC013383228364
:100FC0008B819C81FC012281338189819A81FC0182
:100FD000358324838B819C81FC01248189819A81C2
:100FE000FC0126838B819C819C012E5F3F4F8B816E
:100FF0009C81B90192DF282F89819A81FC01228787
:101000008B819C81FC012581368189819A81FC013B
:101010003487238789819A81FC01118600000F9013
:101020000F900F900F90DF91CF910895CF93DF93A2
:1010300000D0CDB7DEB79A83898326E231E089817B
:101040009A81FC013183208389819A81B1DC80E01F
:1010500090E0892B21F089819A810E94C81A0F9013
:101060000F90DF91CF910895CF93DF9300D0CDB74C
:10107000DEB79A83898389819A81D8DF89819A81B1
:101080000E94C81A0F900F90DF91CF910895CF93CF
:10109000DF9300D0CDB7DEB79A83898389819A81A7
:1010A000FC01268189819A81622FB8DC882331F086
:1010B00089819A81FC01118681E001C080E00F9056
:1010C0000F90DF91CF910895CF93DF9300D000D0A0
:1010D0001F92CDB7DEB79A8389837C836B834D8360
:1010E0008B819C81FC012081318189819A81FC0165
:1010F0003087278389819A8121E0FC0121870000C4
:101100000F900F900F900F900F90DF91CF91089557
:10111000CF93DF9300D000D000D0CDB7DEB79E8351
:101120008D838D819E81FC0187819085CC01A0E01B
:10113000B0E0BC01CD010E94101CDC01CB012AE013
:1011400038E240EA5BE3BC01CD010E94C21CDC0135
:10115000CB0189839A83AB83BC8322E430E645E6E6
:101160005CEB69817A818B819C810E94C21CDC01CD
:10117000CB012CE437E349E85DE3BC01CD010E94DB
:101180000F1BDC01CB019C01AD0169817A818B8150
:101190009C810E940E1BDC01CB0189839A83AB8367
:1011A000BC8389819A81AB81BC81BC01CD0126962B
:1011B0000FB6F894DEBF0FBECDBFDF91CF9108957B
:1011C0000F931F93CF93DF93CDB7DEB7AC970FB6D6
:1011D000F894DEBF0FBECDBF19821A828A81823099
:1011E00008F06EC08A81282F30E045E2429FC0019E
:1011F000439F900D1124845D9E4F25E2FC01DE018A
:10120000189601900D922A95E1F783E190E00E94F3
:10121000C71A8C012C858E859F85AE01485F5F4F74
:10122000BC01C8019BDC1D830C838A81882F90E060
:10123000880F991F81569E4F2C813D81FC0131837F
:1012400020831B829CA58B818917B0F58DE090E0EF
:101250000E94C71A8C018B81282F30E0AE01485FB5
:101260005F4FC901880F991F880F991F880F991F19
:10127000821B930B0896840F951FBC01C80182DE68
:101280001F830E838981882F90E0880F991F8157D3
:101290009E4F2E813F81FC013183208389818F5FA6
:1012A00089832E813F818C819D814B81B901A2DC94
:1012B0008B818F5F8B83C6CF8A818F5F8A838ECF2E
:1012C0000000AC960FB6F894DEBF0FBECDBFDF9125
:1012D000CF911F910F910895CF93DF931F92CDB7B8
:1012E000DEB719828981823078F48981882F90E075
:1012F000880F991F81569E4FFC0180819181F9DCF6
:1013000089818F5F8983EECF00000F90DF91CF91AD
:101310000895CF93DF931F92CDB7DEB719828981ED
:10132000823078F48981882F90E0880F991F815648
:101330009E4FFC0180819181A8DC89818F5F898328
:10134000EECF00000F90DF91CF910895CF93DF9300
:10135000CDB7DEB781E890E021E830E0F9012081E7
:101360002A60FC01208384E890E0FC011182108255
:1013700088E890E02FEC37E0FC01318320838FE692
:1013800090E02FE630E0F90120812260FC0120830B
:101390000000DF91CF9108951F920F9200905F009F
:1013A0000F92112400905B000F922F933F934F9365
:1013B0005F936F937F938F939F93AF93BF93EF93BD
:1013C000FF93CF93DF93CDB7DEB7A3DF0000DF91AC
:1013D000CF91FF91EF91BF91AF919F918F917F91AD
:1013E0006F915F914F913F912F910F9000925B0011
:1013F0000F9000925F000F901F9018951F920F9210
:1014000000905F000F92112400905B000F922F93C9
:101410003F934F935F936F937F938F939F93AF937C
:10142000BF93EF93FF93CF93DF93CDB7DEB734DB5A
:101430000000DF91CF91FF91EF91BF91AF919F910C
:101440008F917F916F915F914F913F912F910F906D
:1014500000925B000F9000925F000F901F90189514
:10146000CF93DF9300D000D0CDB7DEB7F89440E83B
:1014700055E260E070E080EC91E026D162E171E03D
:1014800080EC91E08BD362DFAEDA9ADE68EE73E037
:1014900085EE92E00E94E51261E085EE92E00E9406
:1014A000E912789480EC91E062D019821A821B8252
:1014B0001C8289819A81AB81BC81803F9944A24082
:1014C000B10560F489819A81AB81BC810196A11D2F
:1014D000B11D89839A83AB83BC83EBCFFDDEE2CF62
:1014E000089580E090E00895FC0124853585F90198
:1014F000E058FF4F8081918180589F4F3296208124
:101500003181821B930B8F77907897FF0895019715
:1015100080689F6F01960895FC0184859585FC0184
:10152000EE57FF4F20813181DC01A058BF4F4D9114
:101530005C9142175307C1F0DC01A20FB31F8C91DD
:101540002F5F3F4F2F77307837FD04C031832083E2
:1015500090E008952150310920683F6F2F5F3F4F81
:101560003183208390E008958FEF9FEF0895FC0171
:1015700084859585FC01E058FF4FDC01AE57BF4FD5
:101580008D919C91918380830895DC015296ED9119
:10159000FC91539741E050E05B960C905B9702C042
:1015A000440F551F0A94E2F7208130E024233523AD
:1015B000232BD1F35696ED91FC915797608381E0F0
:1015C00090E008950C94C81A1F920F920FB60F92D4
:1015D00011240BB60F922F933F934F935F936F930A
:1015E0008F939F93EF93FF936091C6002091E10248
:1015F0003091E202C90101968F77907897FD1FC064
:101600004091E3025091E4028417950741F0F901FB
:10161000EF59FD4F60839093E2028093E102FF91C6
:10162000EF919F918F916F915F914F913F912F918A
:101630000F900BBE0F900FBE0F901F901895019743
:1016400080689F6F0196DCCF1F920F920FB60F92AA
:1016500011240BB60F922F933F934F935F936F9389
:101660008F939F93EF93FF936091CE0020915D0243
:1016700030915E02C90101968F77907897FD1FC067
:1016800040915F02509160028417950741F0F90183
:10169000E352FE4F608390935E0280935D02FF9160
:1016A000EF919F918F916F915F914F913F912F910A
:1016B0000F900BBE0F900FBE0F901F9018950197C3
:1016C00080689F6F0196DCCF8F929F92AF92BF92FE
:1016D000CF92DF92EF92FF921F93CF93DF93EC01B3
:1016E0006A017B01413452446F40710508F456C0D1
:1016F000EA89FB8981E090E00C8C02C0880F991F79
:101700000A94E2F7808360E079E08DE390E0A7013E
:1017100096010E94CA1ADA01C9010197A109B1090B
:10172000AC01BD017695679557954795CA01EE8541
:10173000FF859083E889F9898083EC89FD89408160
:1017400081E090E09C01088C02C0220F331F0A94B4
:10175000E2F7242B2083EC89FD8940819C01098CD0
:1017600002C0220F331F0A94E2F7242B2083EC8956
:10177000FD8920810A8C02C0880F991F0A94E2F724
:10178000822B8083DF91CF911F91FF90EF90DF90AC
:10179000CF90BF90AF909F908F90089560E874E8CD
:1017A0008EE190E0A70196010E94CA1A49015A01F0
:1017B00081E0881A9108A108B108B694A79497947B
:1017C0008794D501C4010196A11DB11D880F991FF1
:1017D000AA1FBB1F880F991FAA1FBB1F9C01AD0129
:1017E000220F331F441F551F220F331F441F551F45
:1017F00060E074E284EF90E00E94CA1AAFEFB0E0BC
:101800000E94F51AA70196010E94CA1A8FEF90E074
:10181000821B930B18161906DCF5122F109560E049
:1018200079E08DE390E0A70196010E94CA1ADA01DF
:10183000C9010197A109B1098E7F0296A11DB11DB1
:101840009C01AD01220F331F441F551F220F331F70
:10185000441F551F60E074E284EF90E00E94CA1AB2
:10186000AFEFB0E00E94F51AA70196010E94CA1AD4
:101870008FEF90E0821B930B1816190664F42095E5
:10188000211708F435CFEA89FB891082C4014FCFB4
:1018900011E0120FC4CF2F5FF3CFCF92DF92EF9200
:1018A000FF92E0ECF1E01382128288EEC82E83E012
:1018B000D82EE12CF12CC482D582E682F7821086E4
:1018C0001186128613866AE771E07183608381E670
:1018D00092E09587848785EC90E09787868784ECF3
:1018E00090E0918B808B80EC90E0938B828B81ECED
:1018F00090E0958B848B86EC90E0978B868B44E010
:10190000408F33E0318F27E0228F95E0938F81E085
:10191000848FE3EAF1E013821282C482D582E682E8
:10192000F7821086118612861386718360836DEDAF
:1019300071E0758764876DEC70E0778766876CEC83
:1019400070E0718B608B68EC70E0738B628B69EC7C
:1019500070E0758B648B6EEC70E0778B668B408FDC
:10196000318F228F938F848FFF90EF90DF90CF90F5
:101970000895CF92DF92EF92FF920F931F93CF9330
:10198000DF9341155105F1F08C017B01EA01C12C77
:10199000D12CD7016D917D01D801ED91FC91019081
:1019A000F081E02DC8010995C80ED91E219789F74D
:1019B000C601DF91CF911F910F91FF90EF90DF90C3
:1019C000CF900895C12CD12CF3CFCF92DF92EF921C
:1019D000FF920F931F93CF93DF93FC01A081B181FE
:1019E0001296ED91FC911397EB0109900020E9F715
:1019F0002197AE01461B570B2CE0E93BF20709F596
:101A00004115510539F17C018B01EA01C12CD12C22
:101A100003C0F701A081B181F80161918F01ED91BF
:101A2000FC91C7010995C80ED91E219791F7C601EF
:101A3000DF91CF911F910F91FF90EF90DF90CF90AA
:101A40000895DF91CF911F910F91FF90EF90DF905C
:101A5000CF90099480E090E0EBCF4F925F926F922D
:101A60007F929F92AF92BF92CF92DF92EF92FF92BE
:101A70000F931F93CF93DF93CDB7DEB7A1970FB628
:101A8000F894DEBF0FBECDBF5C014115510509F4CE
:101A90006DC0942E19A2B1E0B41708F06FC0442EA7
:101AA000512C612C712CC62ED12CE12CF12C8E01E5
:101AB0000F5D1F4F09C0805DF801808369017A01C5
:101AC000232B242B252B81F0C701B601A301920102
:101AD0000E94CA1A8C2D929E80191124015011095E
:101AE0008A3048F3895CE8CFD501ED91FC912281E1
:101AF0003381D8010D900020E9F71197AD01401B0B
:101B0000510BBCE0293B3B0709F040C04115510592
:101B100009F441C07A01C12CD12C03C0D501ED914B
:101B2000FC91D8016D918D010190F081E02DC501EE
:101B30000995C80ED91EB1E0EB1AF10879F7C60174
:101B4000A1960FB6F894DEBF0FBECDBFDF91CF9147
:101B50001F910F91FF90EF90DF90CF90BF90AF90CB
:101B60009F907F906F905F904F900895DC01ED9172
:101B7000FC910190F081E02D0995E2CF8AE0482E9A
:101B8000512C612C712C9AE0992E8DCFB801C50192
:101B9000F9010995D5CF80E090E0D2CFCF92DF92C6
:101BA000EF92FF920F931F93CF93DF937C01FC0181
:101BB000A081B1811296ED91FC911397EB010990F0
:101BC0000020E9F72197AE01461B570B8CE0E93B5B
:101BD000F80791F541155105B1F16B01EA0100E0FB
:101BE00010E0F60161916F01ED91FC91C70109953B
:101BF000080F191F2197F701A081B181209789F75C
:101C0000ED91FC916DE0C7010995EC01D701ED91D3
:101C1000FC910190F081E02D6AE0C70109950C0F5D
:101C20001D1F800F911FDF91CF911F910F91FF908A
:101C3000EF90DF90CF900895C70109958C01F701CF
:101C4000A081B181DDCF00E010E0DACF2F923F928A
:101C50004F925F926F927F928F929F92AF92BF92BC
:101C6000CF92DF92EF92FF920F931F93CF93DF9368
:101C7000CDB7DEB7AD970FB6F894DEBF0FBECDBFC0
:101C80001C016A017B01B22E20E030E0A901C701EE
:101C9000B6010E94731B87FDB0C11BA61AA6BB200C
:101CA00009F4BBC110E060E070E080E09FE320E059
:101CB00030E040E251E40E94771B1F5FB112F7CF82
:101CC0009B01AC01C701B6010E940F1B6AA37BA355
:101CD0008CA39DA30E94E41BA62E972E882E9EA364
:101CE00019A2F62E8E010F5D1F4F3AE0432E512CA4
:101CF000612C712C0AC0805DF8018083F22E732F55
:101D0000CA01232B242B252B81F06F2DA3019201D7
:101D10000E94CA1A8F2DBAE02B9F801911240150FE
:101D200011098A3040F3895CE7CFD101ED91FC9134
:101D300022813381D8010D900020E9F71197AD0180
:101D4000401B510BBCE0293B3B0709F051C1411539
:101D5000510509F467C17A01C12CD12C03C0D1010E
:101D6000ED91FC91D8016D918D010190F081E02DF4
:101D7000C1010995C80ED91EB1E0EB1AF10879F737
:101D8000C6012AA53BA5280F391F3BA72AA7B110DA
:101D90001BC08AA59BA5AD960FB6F894DEBF0FBEFB
:101DA000CDBFDF91CF911F910F91FF90EF90DF900A
:101DB000CF90BF90AF909F908F907F906F905F90EB
:101DC0004F903F902F900895F101A081B18112961C
:101DD000ED91FC9113972CE0E93BF20709F025C146
:101DE000ED91FC916EE2C10109958C016A2D792D6E
:101DF000882D9EA10E94101C9B01AC016AA17BA1B1
:101E00008CA19DA10E940E1BAAA5BBA5A00FB11F6E
:101E1000BBA7AAA7BAA22AE0422E512C612C712C92
:101E200020E030E040E251E40E94C21C6EA37FA398
:101E300088A799A70E94DF1B4B01770FAA08BB0850
:101E4000B7FC66C0F82C792DC50119A28E010F5D73
:101E50001F4F0AC0805DD8018C93F22E732FCA01E8
:101E6000232B242B252B81F06F2DA30192010E949F
:101E7000CA1A8F2D9AE0299F801911240150110947
:101E80008A3040F3895CE7CFD101ED91FC9122814A
:101E90003381D8010D900020E9F71197AD01401B67
:101EA000510BBCE0293B3B0709F092C0411551059D
:101EB00009F498C07A01C12CD12C03C0D101ED9155
:101EC000FC91D8016D918D010190F081E02DC1014F
:101ED0000995C80ED91EB1E0EB1AF10879F7C601D1
:101EE0002AA53BA5280F391F3BA72AA7C501B40186
:101EF0000E94121C9B01AC016EA17FA188A599A52F
:101F00000E940E1B3AA131503AA3311189CF41CF23
:101F1000D101ED91FC910190F081E02D6DE2C101C4
:101F200009959DA78CA7CC24DD247601C818D90873
:101F3000EA08FB0819A28E010F5D1F4F09C0805DE2
:101F4000F801808369017A01232B242B252B89F04A
:101F5000C701B601A30192010E94CA1A8C2DBAE0F2
:101F60002B9F80191124015011098A3040F3895C9C
:101F7000E7CFD101ED91FC9122813381D8010D9001
:101F80000020E9F71197AD01401B510BBCE0293B44
:101F90003B0719F54115510541F178018A01C12C22
:101FA000D12C03C0D101ED91FC91D7016D917D0140
:101FB0000190F081E02DC1010995C80ED91E015094
:101FC000110981F7C6012CA53DA5820F931F88CF6B
:101FD000B801C101F901099583CFB801C101F90127
:101FE0000995F1CF80E090E07BCF80E090E0EBCFEF
:101FF000B801C101F9010995C4CED101ED91FC915F
:102000000190F081E02D6DE2C10109959BA78AA79F
:10201000F7FAF094F7F8F09442CE60E070E080E0D8
:102020009FE34ECE80E090E0ACCE41E050E06AE825
:1020300071E0C10109958C01D9CE08CEBF92CF9233
:10204000DF92EF92FF920F931F93CF93DF9366235C
:1020500009F440C08091E2008E7709F498C2A09103
:10206000E200AE77A695AF5F8091E3008E7009F431
:1020700094C23091E3003E7036953F5FE32FF0E06D
:102080008091E4008E70833008F490C28091E40067
:102090008E7086958F5F682F70E09091E400907746
:1020A000913108F48CC29091E400907792959F70E2
:1020B0009F5F492F50E06E0F7F1F460F571F48301C
:1020C00051050CF460C221E0230F280F290F50E0C6
:1020D00041E007C051E040E092E082E028E033E0D8
:1020E000A1E01092ED001092EE001092EF0010921D
:1020F000F0001092F1001092F2001092F300109292
:10210000F4001092F5001092F6001092F70060E1D2
:102110006093ED001092EE001092EF001092F0002C
:102120001092F1001092F2001092F3001092F4005D
:102130001092F5001092F6001092F70060E26093A2
:10214000ED001092EE001092EF001092F00010924D
:10215000F1001092F2001092F3001092F40010922D
:10216000F5001092F6001092F70060E36093ED0026
:102170001092EE001092EF001092F0001092F10019
:102180001092F2001092F3001092F4001092F500F9
:102190001092F6001092F70060E46093ED00109248
:1021A000EE001092EF001092F0001092F1001092E9
:1021B000F2001092F3001092F4001092F5001092C9
:1021C000F6001092F70060E56093ED001092EE00CB
:1021D0001092EF001092F0001092F1001092F200B5
:1021E0001092F3001092F4001092F5001092F60095
:1021F0001092F70060E66093ED001092EE001092EE
:10220000EF001092F0001092F1001092F200109284
:10221000F3001092F4001092F5001092F600109264
:10222000F70060E76093ED001092EE001092EF006F
:102230001092F0001092F1001092F2001092F30050
:102240001092F4001092F5001092F6001092F70030
:1022500060E86093ED001092EE001092EF00109293
:10226000F0001092F1001092F2001092F300109220
:10227000F4001092F5001092F6001092F70060E959
:102280006093ED001092EE001092EF001092F000BB
:102290001092F1001092F2001092F3001092F400EC
:1022A0001092F5001092F6001092F70060EA609329
:1022B000ED001092EE001092EF001092F0001092DC
:1022C000F1001092F2001092F3001092F4001092BC
:1022D000F5001092F6001092F70060EB6093ED00AD
:1022E0001092EE001092EF001092F0001092F100A8
:1022F0001092F2001092F3001092F4001092F50088
:102300001092F6001092F70060EC6093ED001092CE
:10231000EE001092EF001092F0001092F100109277
:10232000F2001092F3001092F4001092F500109257
:10233000F6001092F70060ED6093ED001092EE0051
:102340001092EF001092F0001092F1001092F20043
:102350001092F3001092F4001092F5001092F60023
:102360001092F70060EE6093ED001092EE00109274
:10237000EF001092F0001092F1001092F200109213
:10238000F3001092F4001092F5001092F6001092F3
:10239000F700BA0100E010E0B0E0D0E8DD2EEAE09E
:1023A000BE2ECC24CA94713009F47CC0513071F532
:1023B000E091EE00E5FF16C08091EF008F738093EF
:1023C000EF001092D8008091D90082FDFCCF81E00F
:1023D000DF91CF911F910F91FF90EF90DF90CF9001
:1023E000BF900895EF7109F0B7C0F1E0E091DA0015
:1023F000E5FF08C0B1110FC0C091DA00C062C09300
:10240000DA00B1E0EF7079F4F13091F2572F6130DA
:1024100051F0E0E042C03091DA0030623093DA00EF
:10242000EF7009F4D0C0411188C0893058F098305D
:1024300008F485C0293109F492C02F5F92E082E050
:102440008930A8F7863008F07AC0982F382F390FD6
:10245000422F431B3FEF340F4250483008F06DC00D
:10246000E92FF0E0632F70E06F5F7F4F680F711D01
:10247000EF01CC0FDD1FCC0FDD1FC617D7070CF403
:102480005CC0EF01CC0FDD1FEC0FFD1F6E177F0747
:102490000CF453C0E1E041E060E0752F5E2F713035
:1024A00009F084CF7093D8000F5F1F4FEFEFEA0F52
:1024B000EE0FE093E200C92FD0E07E01F594E7949F
:1024C000B1E0EB1AF108EE0CFF1CE294F294F0EF8D
:1024D000FF22FE24EF22FE24E32FF0E03197EE0FDF
:1024E000FF1FEE29E093E3002197C295D295D07F9C
:1024F000DC27C07FDC27E82FF0E03197EE0FFF1FCD
:10250000EC2BE160E093E400F801F695E795F69591
:10251000E795F695E795E093E5001092ED001092AF
:10252000EE00D092EF00B092D800E091D900E2FF27
:10253000FCCFC092DA00B0E039CF8F5F76CFE82FC2
:10254000F0E0692F70E06F5F7F4F6E177F070CF030
:102550007DCF9F5F892F7ACF61E0F0E047CFA03435
:1025600029F0AF5F92E082E028E05FCF8091EF003A
:102570008F738093EF001092D8008091D90082FD74
:10258000FCCF80E025CF50E041E028E0AACDA1E0DB
:102590008091E3008E7009F06CCDE1E0F0E031E075
:1025A0008091E4008E70833008F070CD62E070E0BE
:1025B00082E09091E4009077913108F074CD42E090
:1025C00050E092E078CD572F2ECFFC0171836083CD
:1025D0000895FC0120813181232B09F063C12EDD98
:1025E000882309F479C11092ED001092EE00109248
:1025F000EF001092F0001092F1001092F200109291
:10260000F3001092F4001092F5001092F600109270
:10261000F70080E18093ED001092EE001092EF0041
:102620001092F0001092F1001092F2001092F3005C
:102630001092F4001092F5001092F6001092F7003C
:1026400080E28093ED001092EE001092EF00109265
:10265000F0001092F1001092F2001092F30010922C
:10266000F4001092F5001092F6001092F70080E34B
:102670008093ED001092EE001092EF001092F000A7
:102680001092F1001092F2001092F3001092F400F8
:102690001092F5001092F6001092F70080E48093FB
:1026A000ED001092EE001092EF001092F0001092E8
:1026B000F1001092F2001092F3001092F4001092C8
:1026C000F5001092F6001092F70080E58093ED007F
:1026D0001092EE001092EF001092F0001092F100B4
:1026E0001092F2001092F3001092F4001092F50094
:1026F0001092F6001092F70080E68093ED001092A1
:10270000EE001092EF001092F0001092F100109283
:10271000F2001092F3001092F4001092F500109263
:10272000F6001092F70080E78093ED001092EE0023
:102730001092EF001092F0001092F1001092F2004F
:102740001092F3001092F4001092F5001092F6002F
:102750001092F70080E88093ED001092EE00109246
:10276000EF001092F0001092F1001092F20010921F
:10277000F3001092F4001092F5001092F6001092FF
:10278000F70080E98093ED001092EE001092EF00C8
:102790001092F0001092F1001092F2001092F300EB
:1027A0001092F4001092F5001092F6001092F700CB
:1027B00080EA8093ED001092EE001092EF001092EC
:1027C000F0001092F1001092F2001092F3001092BB
:1027D000F4001092F5001092F6001092F70080EBD2
:1027E0008093ED001092EE001092EF001092F00036
:1027F0001092F1001092F2001092F3001092F40087
:102800001092F5001092F6001092F70080EC809381
:10281000ED001092EE001092EF001092F000109276
:10282000F1001092F2001092F3001092F400109256
:10283000F5001092F6001092F70080ED8093ED0005
:102840001092EE001092EF001092F0001092F10042
:102850001092F2001092F3001092F4001092F50022
:102860001092F6001092F70080EE8093ED00109227
:10287000EE001092EF001092F0001092F100109212
:10288000F2001092F3001092F4001092F5001092F2
:10289000F6001092F7008091D80082608093D800F3
:1028A00081E0089521E02093D800FC01808191818E
:1028B000883C9105A1F188F48436910571F18D373A
:1028C000910589F1892B09F08ECE1092E2001092C9
:1028D000E3001092E40087CE0895843FF1E09F0763
:1028E00091F0883E23E09207E1F08A3F910509F0DC
:1028F0007ACE86E08093E2008CE08093E30087E369
:102900008093E40070CE86E08093E20084E08093C0
:10291000E30083E18093E40066CE82E1EBCF88E0C0
:10292000E9CF82E0F1CF8EE0E5CFCF93DF9300D007
:1029300000D0CDB7DEB7DB0111968C9111978C30AA
:1029400009F486C09091ED001092ED008091EF00A7
:10295000807C09F428C580E18093ED008091EF0030
:10296000807C09F422C580E28093ED008091EF0025
:10297000807C09F41DC580E38093ED008091EF0019
:10298000807C09F418C580E48093ED008091EF000D
:10299000807C09F413C580E58093ED008091EF0001
:1029A000807C09F40EC580E68093ED008091EF00F5
:1029B000807C09F409C580E78093ED008091EF00E9
:1029C000807C09F404C580E88093ED008091EF00DD
:1029D000807C09F45DC080E98093ED008091EF0078
:1029E000807C09F4F7C480EA8093ED008091EF00C9
:1029F000807C09F4F2C480EB8093ED008091EF00BD
:102A0000807C09F4EDC480EC8093ED008091EF00B0
:102A1000807C09F4E8C480ED8093ED008091EF00A4
:102A2000807C09F4E3C480EE8093ED008091EF0098
:102A3000807C09F4DEC49093ED008FE119968C93AD
:102A40008FEF0F900F900F900F90DF91CF9108951F
:102A500019968C911997803651F019961C9280E046
:102A60000F900F900F900F90DF91CF9108958C9160
:102A70008295807F8093ED008091EF008F7380932B
:102A8000EF001092EE001C9219961C9280E0E8CFA5
:102A900028E080E89093ED0090E619969C931997B2
:102AA0002C938093ED001092EE001092EF001092A4
:102AB000F0001092F1001092F2001092F3001092C8
:102AC000F4001092F5001092F6001092F7001196A3
:102AD000EC9111974E2F50E0FA013197EB30F10550
:102AE00008F0BBCFE65BFF4F77C516968C91169723
:102AF000882381F080E01796ED91FC911897E80FFC
:102B0000F11D90819093FA008F5F16969C91169715
:102B1000891788F319821A821B821C821092F7008F
:102B20008B81982F990F990F990F8A81829586959D
:102B30008770890F8093F6008A81982F990F990FDB
:102B4000990F8981829586958770890F8093F5000A
:102B50008981880F880F880F8093F4009091EF008F
:102B600016968C911697892B8093EF0081E01A9628
:102B70008C938091F40084608093F4008091F00045
:102B800084608093F0008091EF0080628093EF007A
:102B90008091F4008E7F8093F4008091EF008F731A
:102BA0008093EF008091EF0080688093EF0080E0D9
:102BB0000F900F900F900F90DF91CF9108951B967B
:102BC0008C911B97882309F4A8C415968C911597AE
:102BD000982F990F990F990F14968C9114978295AD
:102BE00086958770890F8093F30014968C911497C3
:102BF000982F990F990F990F13968C91139782958F
:102C000086958770890F8093F20013968C911397A5
:102C1000982F990F990F990F12968C911297829570
:102C200086958770890F8093F10012968C91129788
:102C3000880F880F880F8093F0008091EF008061EB
:102C40008093EF004FEF5FEFBA0149835A836B83A4
:102C50007C838FEF8093F7008B81982F990F990FCA
:102C6000990F8A81829586958770890F8093F600E7
:102C70008A81982F990F990F990F8981829586954E
:102C80008770890F8093F5008981880F880F880FDE
:102C90008093F4009091EF0016968C911697892BF3
:102CA0008093EF0081E01A968C938091F400846009
:102CB0008093F4008091F00084608093F000809114
:102CC000EF008F7D8093EF008091F400816063CFEF
:102CD0001B968C911B97882309F4E5C315968C915C
:102CE0001597982F990F990F990F14968C91149707
:102CF000829586958770890F8093F30014968C9146
:102D00001497982F990F990F990F13968C911397E9
:102D1000829586958770890F8093F20013968C9127
:102D20001397982F990F990F990F12968C911297CC
:102D3000829586958770890F8093F10012968C9109
:102D40001297880F880F880F8093F0008091EF0012
:102D500080618093EF004FEF5FEFBA0149835A83A0
:102D60006B837C838FEF8093F7008B81982F990F73
:102D7000990F990F8A81829586958770890F809324
:102D8000F6008A81982F990F990F990F8981829562
:102D900086958770890F8093F5008981880F880F49
:102DA000880F8093F4009091EF0016968C911697FF
:102DB000892B8093EF001A961C928091F400846016
:102DC0008093F4008091F0008B7F8093F0007CCFA3
:102DD0001B968C911B97882309F482C315968C91BE
:102DE0001597982F990F990F990F14968C91149706
:102DF000829586958770890F8093F30014968C9145
:102E00001497982F990F990F990F13968C911397E8
:102E1000829586958770890F8093F20013968C9126
:102E20001397982F990F990F990F12968C911297CB
:102E3000829586958770890F8093F10012968C9108
:102E40001297880F880F880F8093F0008091EF0011
:102E500080618093EF004FEF5FEFBA0149835A839F
:102E60006B837C838FEF8093F7008B81982F990F72
:102E7000990F990F8A81829586958770890F809323
:102E8000F6008A81982F990F990F990F8981829561
:102E900086958770890F8093F5008981880F880F48
:102EA000880F8093F4009091EF0016968C91892BF7
:102EB0008093EF008091F4008B7F8093F40004CF27
:102EC00019821A821B821C821092F7008B81982F24
:102ED000990F990F990F8A81829586958770890F2E
:102EE0008093F6008A81982F990F990F990F898105
:102EF000829586958770890F8093F5008981880F68
:102F0000880F880F8093F4009091EF0016968C91B3
:102F10001697892B8093EF0081E01A968C9380910D
:102F2000F40084608093F4008091F00084608093CA
:102F3000F0008091EF008F7D8093EF008091F4008E
:102F40008E7F29CE19821A821B821C821092F70072
:102F50008B81982F990F990F990F8A818295869569
:102F60008770890F8093F6008A81982F990F990FA7
:102F7000990F8981829586958770890F8093F500D6
:102F80008981880F880F880F8093F4009091EF005B
:102F900016968C911697892B8093EF001A961C92A7
:102FA0008091F40084608093F4008091F0008B7F26
:102FB0008093F0008091F4008E7FEDCD19821A820B
:102FC0001B821C821092F7008B81982F990F990F0A
:102FD000990F8A81829586958770890F8093F60074
:102FE0008A81982F990F990F990F898182958695DB
:102FF0008770890F8093F5008981880F880F880F6B
:103000008093F4009091EF0016968C91892B809319
:10301000EF008091F4008B7F8093F4008091F400A6
:103020008E7FB9CD1B968C911B97882309F492C291
:1030300015968C911597982F990F990F990F1496B3
:103040008C911497829586958770890F8093F300F1
:1030500014968C911497982F990F990F990F139696
:103060008C911397829586958770890F8093F200D3
:1030700013968C911397982F990F990F990F129679
:103080008C911297829586958770890F8093F100B5
:1030900012968C911297880F880F880F8093F000FA
:1030A0008091EF0080618093EF0081E01A968C930D
:1030B0001A978091F00084608093F0009091EF0067
:1030C00016968C91892B8093EF008091EF008F737F
:1030D0008093EF008091EF0080648093EF0080E0A8
:1030E0000F900F900F900F90DF91CF9108951B9646
:1030F0008C911B97882309F4B9C115968C9115976B
:10310000982F990F990F990F14968C911497829577
:1031100086958770890F8093F30014968C9114978D
:10312000982F990F990F990F13968C911397829559
:1031300086958770890F8093F20013968C91139770
:10314000982F990F990F990F12968C91129782953B
:1031500086958770890F8093F10012968C91129753
:10316000880F880F880F8093F0008091EF008061B6
:103170008093EF0016968C911697882381F080E05B
:103180001796ED91FC911897E80FF11D908190939F
:10319000FA008F5F16969C911697891788F31A96F6
:1031A0001C921A978091F0008B7F86CF1B968C9192
:1031B0001B97882309F43DC115968C911597982F7C
:1031C000990F990F990F14968C9114978295869563
:1031D0008770890F8093F30014968C911497982F21
:1031E000990F990F990F13968C9113978295869545
:1031F0008770890F8093F20013968C911397982F04
:10320000990F990F990F12968C9112978295869526
:103210008770890F8093F10012968C911297880F16
:10322000880F880F8093F0008091EF008061809379
:10323000EF0016968C911697882381F080E0179600
:10324000ED91FC911897E80FF11D90819093FA0091
:103250008F5F16969C911697891788F31A968C9112
:103260001A97882309F49ECF8091F00084608093A0
:10327000F00024CF1B968C911B97882309F4BCC0C7
:1032800015968C911597982F990F990F990F149661
:103290008C911497829586958770890F8093F3009F
:1032A00014968C911497982F990F990F990F139644
:1032B0008C911397829586958770890F8093F20081
:1032C00013968C911397982F990F990F990F129627
:1032D0008C911297829586958770890F8093F10063
:1032E00012968C911297880F880F880F8093F000A8
:1032F0008091EF0080618093EF0016968C91169775
:10330000882381F080E01796ED91FC911897E80FE3
:10331000F11D90819093FA008F5F16969C911697FD
:10332000891788F34FEF5FEFBA0149835A836B83A4
:103330007C838FEF8093F7008B81982F990F990FE3
:10334000990F8A81829586958770890F8093F60000
:103350008A81982F990F990F990F89818295869567
:103360008770890F8093F5008981880F880F880FF7
:103370008093F4009091EF0016968C911697892B0C
:103380008093EF0081E01A968C938091F400846022
:103390008093F4008091F00084608093F00080912D
:1033A000EF0080628FCC20E075CB21E080E172CB12
:1033B00022E080E26FCB23E080E36CCB24E080E46A
:1033C00069CB25E080E566CB26E080E663CB27E08D
:1033D00080E760CB29E080E95DCB2AE080EA5ACB28
:1033E0002BE080EB57CB2CE080EC54CB2DE080ED34
:1033F00051CB2EE080EE4ECB13969C9113971296F4
:103400008C91129786958695869520E2929F800DE5
:1034100011248093F30012968C9112978295880F55
:10342000807E8093F2008091EF008F7E8093EF008A
:1034300064CF13969C91139712968C911297869550
:103440008695869520E2929F800D11248093F3004B
:1034500012968C9112978295880F807E8093F2004D
:103460008091EF008F7E8093EF00E3CE13969C91C6
:10347000139712968C91129786958695869520E2E1
:10348000929F800D11248093F30012968C911297D5
:103490008295880F807E8093F2008091EF008F7E6E
:1034A0008093EF0067CE13969C91139712968C91A0
:1034B000129786958695869520E2929F800D11241D
:1034C0008093F30012968C9112978295880F807EDC
:1034D0008093F2008091EF008F7E8093EF003BCCD1
:1034E00013969C91139712968C91129786958695B8
:1034F000869520E2929F800D11248093F30012960E
:103500008C9112978295880F807E8093F200809133
:10351000EF008F7E8093EF009ECC13969C911397C3
:1035200012968C91129786958695869520E2929FA9
:10353000800D11248093F30012968C91129782953E
:10354000880F807E8093F2008091EF008F7E8093C1
:10355000EF0078CB13969C91139712968C9112974B
:1035600086958695869520E2929F800D1124809302
:10357000F30012968C9112978295880F807E80932B
:10358000F2008091EF008F7E8093EF008ECD5DC2C0
:10359000F4C20895A1E21A2EAA1BBB1BFD010DC0A7
:1035A000AA1FBB1FEE1FFF1FA217B307E407F507F3
:1035B00020F0A21BB30BE40BF50B661F771F881FCF
:1035C000991F1A9469F760957095809590959B0165
:1035D000AC01BD01CF010895EE0FFF1F0024001CB8
:1035E0000BBE0790F691E02D099409D0A59F900D90
:1035F000B49F900DA49F800D911D11240895A29F4A
:10360000B001B39FC001A39F700D811D1124911DB6
:10361000B29F700D811D1124911D08955058BB2734
:10362000AA270ED075C166D130F06BD120F031F4ED
:103630009F3F11F41EF45BC10EF4E095E7FB51C10E
:10364000E92F77D180F3BA176207730784079507CC
:1036500018F071F49EF58FC10EF4E0950B2EBA2F81
:10366000A02D0B01B90190010C01CA01A001112488
:10367000FF27591B99F0593F50F4503E68F11A1634
:10368000F040A22F232F342F4427585FF3CF4695C5
:1036900037952795A795F0405395C9F77EF41F16E7
:1036A000BA0B620B730B840BBAF09150A1F0FF0FB1
:1036B000BB1F661F771F881FC2F70EC0BA0F621F9D
:1036C000731F841F48F4879577956795B795F7958D
:1036D0009E3F08F0B3CF9395880F08F09927EE0F1F
:1036E000979587950895D9D008F481E008950CD076
:1036F0000FC107D140F0FED030F021F45F3F19F048
:10370000F0C0511139C1F3C014D198F39923C9F312
:103710005523B1F3951B550BBB27AA2762177307D7
:10372000840738F09F5F5F4F220F331F441FAA1F8B
:10373000A9F333D00E2E3AF0E0E830D0915050404B
:10374000E695001CCAF729D0FE2F27D0660F771FF9
:10375000881FBB1F261737074807AB07B0E809F0DB
:10376000BB0B802DBF01FF2793585F4F2AF09E3F70
:10377000510568F0B6C000C15F3FECF3983EDCF342
:10378000869577956795B795F7959F5FC9F7880FE9
:10379000911D9695879597F90895E1E0660F771F3B
:1037A000881FBB1F621773078407BA0720F0621BCC
:1037B000730B840BBA0BEE1F88F7E095089504D0C5
:1037C0006894B111D9C00895BCD088F09F5790F08B
:1037D000B92F9927B751A0F0D1F0660F771F881F36
:1037E000991F1AF0BA95C9F712C0B13081F0C3D051
:1037F000B1E00895C0C0672F782F8827B85F39F0EF
:10380000B93FCCF3869577956795B395D9F73EF494
:1038100090958095709561957F4F8F4F9F4F08953C
:10382000E89409C097FB3EF490958095709561955A
:103830007F4F8F4F9F4F9923A9F0F92F96E9BB2710
:103840009395F695879577956795B795F111F8CF8C
:10385000FAF4BB0F11F460FF1BC06F5F7F4F8F4FF7
:103860009F4F16C0882311F096E911C0772321F0ED
:103870009EE8872F762F05C0662371F096E8862F85
:1038800070E060E02AF09A95660F771F881FDAF7DC
:10389000880F9695879597F90895990F0008550F09
:1038A000AA0BE0E8FEEF16161706E807F907C0F0C6
:1038B00012161306E407F50798F0621B730B840BCE
:1038C000950B39F40A2661F0232B242B252B21F4A8
:1038D00008950A2609F4A140A6958FEF811D811D48
:1038E000089597F99F6780E870E060E008959FEF82
:1038F00080EC089500240A94161617061806090687
:10390000089500240A941216130614060506089555
:10391000092E0394000C11F4882352F0BB0F40F4DD
:10392000BF2B11F460FF04C06F5F7F4F8F4F9F4F1D
:10393000089557FD9058440F551F59F05F3F71F09F
:103940004795880F97FB991F61F09F3F79F0879506
:103950000895121613061406551FF2CF4695F1DF8F
:1039600008C0161617061806991FF1CF869571051F
:10397000610508940895E894BB2766277727CB0153
:1039800097F908950BD0C4CFB5DF28F0BADF18F04F
:10399000952309F0A6CFABCF1124EECFCADFA0F359
:1039A000959FD1F3950F50E0551F629FF001729FD4
:1039B000BB27F00DB11D639FAA27F00DB11DAA1FF3
:1039C000649F6627B00DA11D661F829F2227B00D40
:1039D000A11D621F739FB00DA11D621F839FA00DCB
:1039E000611D221F749F3327A00D611D231F849F1B
:1039F000600D211D822F762F6A2F11249F57504072
:103A00008AF0E1F088234AF0EE0FFF1FBB1F661F0C
:103A1000771F881F91505040A9F79E3F510570F0C5
:103A200060CFAACF5F3FECF3983EDCF386957795A5
:103A30006795B795F795E7959F5FC1F7FE2B880FC0
:103A4000911D9695879597F908950F931F93CF939E
:103A5000DF938230910510F482E090E0E091E9027A
:103A6000F091EA0220E030E0A0E0B0E0309719F1F8
:103A7000408151810281138148175907C8F084178A
:103A8000950769F4109731F012960C9312971396DC
:103A90001C9327C00093E9021093EA0222C021156B
:103AA000310519F04217530718F49A01BD01EF01CF
:103AB000DF01F801DBCF21153105F9F0281B390BA7
:103AC0002430310580F48A819B816115710521F0D4
:103AD000FB019383828304C09093EA028093E902FE
:103AE000FE01329644C0FE01E20FF31F81939193D1
:103AF00022503109398328833AC02091E70230915E
:103B0000E802232B41F4209102013091030130930C
:103B1000E8022093E7022091000130910101211574
:103B2000310541F42DB73EB7409104015091050194
:103B3000241B350BE091E702F091E802E217F3074E
:103B4000A0F42E1B3F0B2817390778F0AC014E5F0D
:103B50005F4F2417350748F04E0F5F1F5093E80260
:103B60004093E7028193919302C0E0E0F0E0CF013F
:103B7000DF91CF911F910F910895CF93DF9300971D
:103B800009F481C0FC01329713821282A091E902EC
:103B9000B091EA02109781F420813181820F931F46
:103BA0002091E7023091E8022817390751F5F09388
:103BB000E802E093E70267C0ED0120E030E0CE17B5
:103BC000DF0740F44A815B819E0141155105F1F008
:103BD000EA01F5CFD383C28340815181840F951FC1
:103BE000C817D90759F488819981840F951F0296C7
:103BF000918380838A819B81938382832115310500
:103C000029F4F093EA02E093E9023DC0E901FB8365
:103C1000EA8349915991C40FD51FEC17FD0761F450
:103C200080819181840F951F0296E9019983888391
:103C3000828193819B838A83E0E0F0E012968D91EC
:103C40009C911397009719F0FD01DC01F7CF8D913E
:103C50009C9111979D012E5F3F4F820F931F2091E2
:103C6000E7023091E8022817390769F4309729F400
:103C70001092EA021092E90202C013821282B093FB
:103C8000E802A093E702DF91CF910895283008F071
:103C900027E03327DA01990F311D87FD91600096E7
:103CA0006105710539F432602E5F3D9330E32A954A
:103CB000E1F708959F3F30F080387105610509F004
:103CC0003C5F3C5F3D93913008F08068911DDF932D
:103CD000CF931F930F93FF92EF92192F987F969592
:103CE000E92F96959695E90FFF27E45FFE4F9927F8
:103CF0003327EE24FF24A701E701059008940794D9
:103D000028F4360FE71EF81E491F511D660F771F56
:103D1000881F991F0694A1F70590079428F4E70ED1
:103D2000F81E491F561FC11D770F881F991F661F58
:103D30000694A1F70590079428F4F80E491F561F22
:103D4000C71FD11D880F991F661F771F0694A1F703
:103D50000590079420F4490F561FC71FD81F990FCD
:103D6000661F771F881F0694A9F784911095177016
:103D700041F0D695C79557954795F794E7941A95CE
:103D8000C1F7E2EBF0E068941590159135916591DB
:103D9000959105907FE27395E118F10A430B560B5C
:103DA000C90BD009C0F7E10CF11E431F561FC91FF4
:103DB000D01D7EF4703311F48A95E6CFE89401505B
:103DC00030F0080F0AF40027021708F4202F23957B
:103DD000022F7A3328F079E37D932A95E9F710C012
:103DE0007D932A9589F6069497956795379517954B
:103DF0001794E118F10A430B560BC90BD00998F040
:103E000023957E9173957A3308F070E37C932013A9
:103E1000B8F77E9170617D9330F0839571E37D9367
:103E200070E32A95E1F71124EF90FF900F911F9115
:103E3000CF91DF91992787FD90950895FC0105901A
:103E4000615070400110D8F7809590958E0F9F1F9C
:103E50000895FC016150704001900110D8F78095E1
:103E600090958E0F9F1F08950F931F93CF93DF930D
:103E7000FB01238121FD03C08FEF9FEF2CC022FFA8
:103E800016C046815781248135814217530744F477
:103E9000A081B1819D012F5F3F4F318320838C939F
:103EA000268137812F5F3F4F3783268314C08B01D4
:103EB000EC01FB010084F185E02D0995892BE1F6E9
:103EC000D80116968D919C911797019617969C9301
:103ED0008E931697CE01DF91CF911F910F91089588
:103EE000FA01AA27283051F1203181F1E8946F932B
:103EF0006E7F6E5F7F4F8F4F9F4FAF4FB1E03ED0D1
:103F0000B4E03CD0670F781F891F9A1FA11D680F6E
:103F1000791F8A1F911DA11D6A0F711D811D911DA1
:103F2000A11D20D009F468943F912AE0269F112416
:103F30003019305D3193DEF6CF010895462F47707A
:103F4000405D4193B3E00FD0C9F7F6CF462F4F70D5
:103F5000405D4A3318F0495D31FD4052419302D033
:103F6000A9F7EACFB4E0A6959795879577956795D9
:103F7000BA95C9F700976105710508959B01AC01D9
:103F80000A2E06945795479537952795BA95C9F700
:103F9000620F731F841F951FA01D0895F894FFCF13
:103FA0000000EB0220002043483A200020563A202F
:103FB000000054455354320000000000C91AC91AC9
:103FC000C91A000000001608340864080000000048
:103FD000000032000000000000A804000000000102
:103FE000A8040000000002A8040000000003A804C8
:103FF0000401000000000064000000000004A804A8
:104000000000000005A8040000000006A80400004D
:10401000000007A8040400000000C50AB90C740AD7
:0C4020008C0A710AB70A700AE20A2E002E
:00000001FF
