:1000000055C000007CC000007AC0000078C000002D
:1000100076C0000074C0000072C0000070C0000014
:100020006EC000006CC000006AC0000068C0000024
:10003000EEC1000064C0000062C0000060C00000AB
:100040005EC000005CC000005AC0000058C0000044
:1000500056C000005EC5000052C0000050C0000045
:100060004EC00000FBC100004AC0000048C00000B4
:1000700046C0000044C0000042C0000040C0000074
:1000800088C500003CC000003AC0000038C0000035
:1000900036C0000073131413AF127B123F12FD1110
:1000A000851105117C101210D713F20611241FBE02
:1000B000CFEFD0E1DEBFCDBF11E0A0E0B1E0ECECCE
:1000C000FEE200E00BBF02C007900D92A238B1071C
:1000D000D9F722E0A2E8B1E001C01D92A13EB2072B
:1000E000E1F710E0C6E5D0E004C02197FE010E94D0
:1000F0002116C535D107C9F7D8D10C94641780CF24
:100100000895EAE7F0E087E0808380E480937C0054
:1001100080818868808308952091830130918401D3
:10012000232B89F49093840180938301609382014F
:100130006F70606460937C00EAE7F0E08081806427
:10014000808381E0089580E00895CF93DF9300D00D
:10015000CDB7DEB78091830190918401892B11F195
:10016000F8948091780090E09A83898320917900B7
:10017000922B9A8389837894809183019091840152
:10018000DC01ED91FC910480F581E02D409182012C
:10019000BE016F5F7F4F0995109284011092830119
:1001A000109282010F900F90DF91CF910895CF931D
:1001B000DF93FC0171836083EA0188819981AA81C0
:1001C000BB8182839383A483B5832683DF011A9640
:1001D00088E0ED0119928A95E9F771876087128AA4
:1001E000DF91CF9108954530B8F4E42FF0E0EE0FA1
:1001F000FF1FE80FF91F22853385232B79F4DC01DB
:1002000052962C915297421718F04F5F52964C938A
:100210007387628781E0089580E0089580E0089503
:10022000FC018085918501979187808780859185E4
:10023000892B31F481E08783808191819187808748
:100240000895BF92CF92DF92EF92FF920F931F9388
:10025000CF93DF93CDB7DEB764970FB6F894DEBFC8
:100260000FBECDBFDC0117962C91222309F4A2C04A
:100270008C01F12CF8018289F81690F4EF2DF0E052
:100280003596EE0FFF1FE00FF11F808191810097DF
:1002900011F4F394EFCF76D1882361F3F394EACF8E
:1002A000E82FF0E03496EE0FFF1FE00FF11F0190F2
:1002B000F081E02D91859923E9F3FE013D9698E0C8
:1002C000DF011D929A95E9F7882309F449C0B12C02
:1002D0006894CC24C1F8DD24D3948B2D90E07C016C
:1002E000EE0CFF1CE00EF11EF70122853385232B57
:1002F00081F1880F991FE1E0F0E0EC0FFD1FE80F9E
:10030000F91FD586C48666E071E086EB91E002D6DF
:10031000D7011A96ED91FC911B974AE050E0668157
:1003200086EB91E03FD66CE071E086EB91E0F2D590
:10033000F7018285938530D1AB01BC0124E030E028
:1003400086EB91E00E94BA0A6BE071E086EB91E0E7
:10035000CAD6B394D80152968C91B81608F4BDCF82
:10036000FE0131969CE0DF011D929A95E9F792E03B
:100370009A83880F8F83F8018681882349F0428110
:100380005381648175814B835C836D837E8304C05C
:10039000228133813C832B838C87CE010D969987F4
:1003A0008887BE016F5F7F4F8BED92E00E94320F16
:1003B000F801178264960FB6F894DEBF0FBECDBF6A
:1003C000DF91CF911F910F91FF90EF90DF90CF9031
:1003D000BF900895FC01608171818281938103D275
:1003E000CB010895E1E8F0E080818A60808310927B
:1003F0008500109284008FEC97E0909389008093A1
:100400008800EFE6F0E080818260808308951F928B
:100410000F920FB60F9211240BB60F922F933F93AA
:100420004F935F936F937F938F939F93AF93BF93FC
:10043000EF93FF9366D1FF91EF91BF91AF919F91A1
:100440008F917F916F915F914F913F912F910F907D
:100450000BBE0F900FBE0F901F9018951F920F921A
:100460000FB60F9211240BB60F922F933F934F9319
:100470005F936F937F938F939F93AF93BF93EF930C
:10048000FF9363DEFF91EF91BF91AF919F918F91A9
:100490007F916F915F914F913F912F910F900BBE84
:1004A0000F900FBE0F901F901895F89440E855E2FA
:1004B00060E070E086EB91E0ACD361E171E086EB47
:1004C00091E011D68FDF1DDE8CD068EE73E08BEDEE
:1004D00092E00E94820D61E08BED92E00E94860D19
:1004E000789486EB91E0E8D280EF99E4A2E0B0E066
:1004F0000197A109B109E1F7F7D0F3CFFB01208102
:100500003181FC013087278321E0218708952BE189
:1005100031E0FC0131832083F3CD0895CF93DF9345
:10052000EC01F5DFCE010E946515DF91CF910895B2
:10053000FC01DB018BE191E0918380838D919C91A3
:1005400011979383828312968D919C911397958333
:10055000848314968C911497868381E04D915C91ED
:10056000119712962D913C911397421753070CF057
:1005700080E0828715968D919C911697948783874A
:1005800011860895CF93DF93EC016E81C5DD811153
:100590001986DF91CF910895CF92DF92EF92FF926B
:1005A000FC016781708580E090E04ED12AE038E25E
:1005B00040EA5BE3D7D16B017C0122E430E645E6FB
:1005C0005CEBD0D12CE437E349E85DE3A8D09B0194
:1005D000AC01C701B601A2D0FF90EF90DF90CF90A1
:1005E00008956F927F928F929F92AF92BF92CF9217
:1005F000DF92EF92FF920F931F93CF93DF93CDB7CC
:10060000DEB7A5970FB6F894DEBF0FBECDBF0F2E95
:10061000F1E2AF2EF1E0BF2EF02D0F2EF5E8CF2E38
:10062000F1E0DF2EF02D0F2EF9E88F2EF1E09F2E56
:10063000F02D612C85E2F501DE01119601900D92FD
:100640008A95E1F783E190E00E9464157C016F8157
:1006500078852D81AE014F5F5F4FA9DDF601E192F4
:10066000F1926F018DA1882319F1712C8DE090E03A
:100670000E9464158C0161E070E06C0F7D1FF7E053
:100680007F9E600D711D1124685F7F4F51DFE62D45
:10069000F0E0EE0FFF1FE757FE4F118300836394D6
:1006A000472DB801C7019FDD73948DA17816F0F234
:1006B00085E2A80EB11C8C149D0409F0BBCFA59651
:1006C0000FB6F894DEBF0FBECDBFDF91CF911F9163
:1006D0000F91FF90EF90DF90CF90BF90AF909F90E1
:1006E0008F907F906F900895CF93DF93C5E8D1E00E
:1006F00088819981A6DD8A819B81A3DDDF91CF91DD
:100700000895CF93DF93C5E8D1E08881998188DD92
:100710008A819B8185DDDF91CF9108955058BB2759
:10072000AA270ED0E5C0D6D030F0DBD020F031F4CF
:100730009F3F11F41EF4CBC00EF4E095E7FBC1C05F
:10074000E92FE7D080F3BA1762077307840795078C
:1007500018F071F49EF5FFC00EF4E0950B2EBA2F41
:10076000A02D0B01B90190010C01CA01A0011124B7
:10077000FF27591B99F0593F50F4503E68F11A1663
:10078000F040A22F232F342F4427585FF3CF4695F4
:1007900037952795A795F0405395C9F77EF41F1616
:1007A000BA0B620B730B840BBAF09150A1F0FF0FE0
:1007B000BB1F661F771F881FC2F70EC0BA0F621FCC
:1007C000731F841F48F4879577956795B795F795BC
:1007D0009E3F08F0B3CF9395880F08F09927EE0F4E
:1007E00097958795089504D06894B111B5C0089580
:1007F00098D088F09F5790F0B92F9927B751A0F063
:10080000D1F0660F771F881F991F1AF0BA95C9F7A4
:1008100012C0B13081F09FD0B1E008959CC0672F25
:10082000782F8827B85F39F0B93FCCF38695779554
:100830006795B395D9F73EF490958095709561953D
:100840007F4F8F4F9F4F0895E89409C097FB3EF468
:1008500090958095709561957F4F8F4F9F4F99230D
:10086000A9F0F92F96E9BB279395F695879577958B
:100870006795B795F111F8CFFAF4BB0F11F460FF4B
:100880001BC06F5F7F4F8F4F9F4F16C0882311F0A3
:1008900096E911C0772321F09EE8872F762F05C0B7
:1008A000662371F096E8862F70E060E02AF09A9552
:1008B000660F771F881FDAF7880F9695879597F947
:1008C000089597F99F6780E870E060E008959FEFD2
:1008D00080EC089500240A941616170618060906D7
:1008E000089500240A9412161306140605060895A6
:1008F000092E0394000C11F4882352F0BB0F40F42E
:10090000BF2B11F460FF04C06F5F7F4F8F4F9F4F6D
:10091000089557FD9058440F551F59F05F3F71F0EF
:100920004795880F97FB991F61F09F3F79F0879556
:100930000895121613061406551FF2CF4695F1DFDF
:1009400008C0161617061806991FF1CF869571056F
:10095000610508940895E894BB2766277727CB01A3
:1009600097F908950BD0C4CFB5DF28F0BADF18F09F
:10097000952309F0A6CFABCF1124EECFCADFA0F3A9
:10098000959FD1F3950F50E0551F629FF001729F24
:10099000BB27F00DB11D639FAA27F00DB11DAA1F43
:1009A000649F6627B00DA11D661F829F2227B00D90
:1009B000A11D621F739FB00DA11D621F839FA00D1B
:1009C000611D221F749F3327A00D611D231F849F6B
:1009D000600D211D822F762F6A2F11249F575040C2
:1009E0008AF0E1F088234AF0EE0FFF1FBB1F661F5D
:1009F000771F881F91505040A9F79E3F510570F016
:100A000060CFAACF5F3FECF3983EDCF386957795F5
:100A10006795B795F795E7959F5FC1F7FE2B880F10
:100A2000911D9695879597F90895089580E090E037
:100A30000895FC0124853585F901E058FF4F808138
:100A4000918180589F4F329620813181821B930B78
:100A50008F77907897FF0895019780689F6F019630
:100A60000895FC0184859585FC01EE57FF4F208198
:100A70003181DC01A058BF4F4D915C914217530763
:100A8000C1F0DC01A20FB31F8C912F5F3F4F2F7776
:100A9000307837FD04C03183208390E008952150E1
:100AA000310920683F6F2F5F3F4F3183208390E0F3
:100AB00008958FEF9FEF0895FC0184859585FC01D3
:100AC000E058FF4FDC01AE57BF4F8D919C91918351
:100AD00080830895DC015296ED91FC91539741E09B
:100AE00050E05B960C905B9702C0440F551F0A9430
:100AF000E2F7208130E024233523232BD1F35696CF
:100B0000ED91FC915797608381E090E008950C94FB
:100B100065151F920F920FB60F9211240BB60F920C
:100B20002F933F934F935F936F938F939F93EF9385
:100B3000FF936091C6002091D7023091D802C9017D
:100B400001968F77907897FD1FC04091D902509100
:100B5000DA028417950741F0F901E95AFD4F6083E5
:100B60009093D8028093D702FF91EF919F918F913C
:100B70006F915F914F913F912F910F900BBE0F900E
:100B80000FBE0F901F901895019780689F6F019678
:100B9000DCCF1F920F920FB60F9211240BB60F925B
:100BA0002F933F934F935F936F938F939F93EF9305
:100BB000FF936091CE002091530230915402C901FD
:100BC00001968F77907897FD1FC040915502509104
:100BD00056028417950741F0F901ED52FE4F6083EC
:100BE0009093540280935302FF91EF919F918F91C4
:100BF0006F915F914F913F912F910F900BBE0F908E
:100C00000FBE0F901F901895019780689F6F0196F7
:100C1000DCCF8F929F92AF92BF92CF92DF92EF92F2
:100C2000FF921F93CF93DF93EC016A017B01413464
:100C300052446F40710508F456C0EA89FB8981E08F
:100C400090E00C8C02C0880F991F0A94E2F7808311
:100C500060E079E08DE390E0A70196010E94FF1526
:100C6000DA01C9010197A109B109AC01BD0176956D
:100C7000679557954795CA01EE85FF859083E8896A
:100C8000F9898083EC89FD89408181E090E09C01B5
:100C9000088C02C0220F331F0A94E2F7242B208312
:100CA000EC89FD8940819C01098C02C0220F331F11
:100CB0000A94E2F7242B2083EC89FD8920810A8C99
:100CC00002C0880F991F0A94E2F7822B8083DF917C
:100CD000CF911F91FF90EF90DF90CF90BF90AF909A
:100CE0009F908F90089560E874E88EE190E0A701EE
:100CF00096010E94FF1549015A0181E0881A910866
:100D0000A108B108B694A79497948794D501C4011B
:100D10000196A11DB11D880F991FAA1FBB1F880F27
:100D2000991FAA1FBB1F9C01AD01220F331F441F37
:100D3000551F220F331F441F551F60E074E284EFDC
:100D400090E00E94FF15AFEFB0E00E942A16A701C5
:100D500096010E94FF158FEF90E0821B930B1816EF
:100D60001906DCF5122F109560E079E08DE390E034
:100D7000A70196010E94FF15DA01C9010197A10997
:100D8000B1098E7F0296A11DB11D9C01AD01220FFC
:100D9000331F441F551F220F331F441F551F60E090
:100DA00074E284EF90E00E94FF15AFEFB0E00E9484
:100DB0002A16A70196010E94FF158FEF90E0821B73
:100DC000930B1816190664F42095211708F435CFF3
:100DD000EA89FB891082C4014FCF11E0120FC4CF02
:100DE0002F5FF3CFCF92DF92EF92FF92E6EBF1E02D
:100DF0001382128288EEC82E83E0D82EE12CF12CCB
:100E0000C482D582E682F782108611861286138606
:100E10006FE671E07183608387E592E09587848750
:100E200085EC90E09787868784EC90E0918B808BAF
:100E300080EC90E0938B828B81EC90E0958B848B9F
:100E400086EC90E0978B868B44E0408F33E0318FC7
:100E500027E0228F95E0938F81E0848FE9E9F1E02C
:100E600013821282C482D582E682F78210861186AE
:100E7000128613867183608363ED71E075876487E2
:100E80006DEC70E0778766876CEC70E0718B608B3F
:100E900068EC70E0738B628B69EC70E0758B648B2F
:100EA0006EEC70E0778B668B408F318F228F938F43
:100EB000848FFF90EF90DF90CF900895CF92DF92D4
:100EC000EF92FF920F931F93CF93DF93411551053C
:100ED000F1F08C017B01EA01C12CD12CD7016D917D
:100EE0007D01D801ED91FC910190F081E02DC801C8
:100EF0000995C80ED91E219789F7C601DF91CF91B8
:100F00001F910F91FF90EF90DF90CF900895C12C2B
:100F1000D12CF3CFCF92DF92EF92FF920F931F93DA
:100F2000CF93DF93FC01A081B1811296ED91FC91EA
:100F30001397EB0109900020E9F72197AE01461BBA
:100F4000570B27E0EE35F20709F54115510539F148
:100F50007C018B01EA01C12CD12C03C0F701A081D7
:100F6000B181F80161918F01ED91FC91C701099563
:100F7000C80ED91E219791F7C601DF91CF911F911D
:100F80000F91FF90EF90DF90CF900895DF91CF9178
:100F90001F910F91FF90EF90DF90CF90099480E028
:100FA00090E0EBCF4F925F926F927F929F92AF92C1
:100FB000BF92CF92DF92EF92FF920F931F93CF9346
:100FC000DF93CDB7DEB7A1970FB6F894DEBF0FBEA3
:100FD000CDBF5C014115510509F46DC0942E19A2D5
:100FE000B1E0B41708F06FC0442E512C612C712C65
:100FF000C62ED12CE12CF12C8E010F5D1F4F09C0A4
:10100000805DF801808369017A01232B242B252B35
:1010100081F0C701B601A30192010E94FF158C2D3A
:10102000929E80191124015011098A3048F3895C7D
:10103000E8CFD501ED91FC9122813381D8010D904B
:101040000020E9F71197AD01401B510BB7E02E3599
:101050003B0709F040C04115510509F441C07A0130
:10106000C12CD12C03C0D501ED91FC91D8016D911B
:101070008D010190F081E02DC5010995C80ED91EA2
:10108000B1E0EB1AF10879F7C601A1960FB6F89412
:10109000DEBF0FBECDBFDF91CF911F910F91FF90AB
:1010A000EF90DF90CF90BF90AF909F907F906F9028
:1010B0005F904F900895DC01ED91FC910190F081DB
:1010C000E02D0995E2CF8AE0482E512C612C712C3D
:1010D0009AE0992E8DCFB801C501F9010995D5CFB8
:1010E00080E090E0D2CFCF92DF92EF92FF920F9309
:1010F0001F93CF93DF937C01FC01A081B1811296F5
:10110000ED91FC911397EB0109900020E9F72197ED
:10111000AE01461B570B87E0EE35F80791F54115F8
:101120005105B1F16B01EA0100E010E0F6016191B7
:101130006F01ED91FC91C7010995080F191F2197C7
:10114000F701A081B181209789F7ED91FC916DE0C5
:10115000C7010995EC01D701ED91FC910190F08157
:10116000E02D6AE0C70109950C0F1D1F800F911F2C
:10117000DF91CF911F910F91FF90EF90DF90CF9073
:101180000895C70109958C01F701A081B181DDCFD8
:1011900000E010E0DACF2F923F924F925F926F9271
:1011A0007F928F929F92AF92BF92CF92DF92EF92F7
:1011B000FF920F931F93CF93DF93CDB7DEB7AD9719
:1011C0000FB6F894DEBF0FBECDBF1C016A017B01D4
:1011D000B22E20E030E0A901C701B6010E946615D9
:1011E00087FDA8C11BA61AA6BB2009F4B3C110E055
:1011F00060E070E080E09FE320E030E040E251E416
:101200000E946A151F5FB112F7CF9B01AC01C701A5
:10121000B60185DA6AA37BA38CA39DA3E9DAA62E87
:10122000972E882E9EA319A2F62E8E010F5D1F4FBA
:101230003AE0432E512C612C712C0AC0805DF801DC
:101240008083F22E732FCA01232B242B252B81F0B0
:101250006F2DA30192010E94FF158F2DBAE02B9FE5
:1012600080191124015011098A3040F3895CE7CFBD
:10127000D101ED91FC9122813381D8010D900020A4
:10128000E9F71197AD01401B510BB7E02E353B0735
:1012900009F04BC14115510509F461C17A01C12C16
:1012A000D12C03C0D101ED91FC91D8016D918D013C
:1012B0000190F081E02DC1010995C80ED91EB1E061
:1012C000EB1AF10879F7C6012AA53BA5280F391FAB
:1012D0003BA72AA7B1101BC08AA59BA5AD960FB648
:1012E000F894DEBF0FBECDBFDF91CF911F910F915C
:1012F000FF90EF90DF90CF90BF90AF909F908F9036
:101300007F906F905F904F903F902F900895F101E4
:10131000A081B1811296ED91FC91139727E0EE35F3
:10132000F20709F01FC1ED91FC916EE2C101099530
:101330008C016A2D792D882D9EA186DA9B01AC0146
:101340006AA17BA18CA19DA1E9D9AAA5BBA5A00FEB
:10135000B11FBBA7AAA7BAA22AE0422E512C612C2A
:10136000712C20E030E040E251E4FCDA6EA37FA370
:1013700088A799A738DA4B01770FAA08BB08B7FCF2
:1013800064C0F82C792DC50119A28E010F5D1F4F85
:101390000AC0805DD8018C93F22E732FCA01232BD3
:1013A000242B252B81F06F2DA30192010E94FF15A4
:1013B0008F2D9AE0299F80191124015011098A303C
:1013C00040F3895CE7CFD101ED91FC91228133811B
:1013D000D8010D900020E9F71197AD01401B510B8A
:1013E000B7E02E353B0709F090C04115510509F4CF
:1013F00096C07A01C12CD12C03C0D101ED91FC9192
:10140000D8016D918D010190F081E02DC101099508
:10141000C80ED91EB1E0EB1AF10879F7C6012AA56A
:101420003BA5280F391F3BA72AA7C501B4010EDA37
:101430009B01AC016EA17FA188A599A56FD93AA1A6
:1014400031503AA331118DCF47CFD101ED91FC91AD
:101450000190F081E02D6DE2C10109959DA78CA757
:10146000CC24DD247601C818D908EA08FB0819A2A3
:101470008E010F5D1F4F09C0805DF80180836901F7
:101480007A01232B242B252B89F0C701B601A30158
:1014900092010E94FF158C2DBAE02B9F8019112418
:1014A000015011098A3040F3895CE7CFD101ED91F9
:1014B000FC9122813381D8010D900020E9F711972A
:1014C000AD01401B510BB7E02E353B0719F5411517
:1014D000510541F178018A01C12CD12C03C0D10101
:1014E000ED91FC91D7016D917D010190F081E02D8E
:1014F000C1010995C80ED91E0150110981F7C60115
:101500002CA53DA5820F931F8ACFB801C101F90117
:10151000099585CFB801C101F9010995F1CF80E0A6
:1015200090E07DCF80E090E0EBCFB801C101F90100
:101530000995CACED101ED91FC910190F081E02D89
:101540006DE2C10109959BA78AA7F7FAF094F7F815
:10155000F0944ACE60E070E080E09FE356CE80E0F9
:1015600090E0B2CE41E050E06FE771E0C101099533
:101570008C01DFCE10CEBF92CF92DF92EF92FF921E
:101580000F931F93CF93DF93662309F440C080919C
:10159000E2008E7709F498C2A091E200AE77A6959A
:1015A000AF5F8091E3008E7009F494C23091E30044
:1015B0003E7036953F5FE32FF0E08091E4008E703F
:1015C000833008F490C28091E4008E7086958F5F1E
:1015D000682F70E09091E4009077913108F48CC20C
:1015E0009091E400907792959F709F5F492F50E013
:1015F0006E0F7F1F460F571F483051050CF460C215
:1016000021E0230F280F290F50E041E007C051E0EF
:1016100040E092E082E028E033E0A1E01092ED00AB
:101620001092EE001092EF001092F0001092F10074
:101630001092F2001092F3001092F4001092F50054
:101640001092F6001092F70060E16093ED001092A6
:10165000EE001092EF001092F0001092F100109244
:10166000F2001092F3001092F4001092F500109224
:10167000F6001092F70060E26093ED001092EE0029
:101680001092EF001092F0001092F1001092F20010
:101690001092F3001092F4001092F5001092F600F0
:1016A0001092F70060E36093ED001092EE0010924C
:1016B000EF001092F0001092F1001092F2001092E0
:1016C000F3001092F4001092F5001092F6001092C0
:1016D000F70060E46093ED001092EE001092EF00CE
:1016E0001092F0001092F1001092F2001092F300AC
:1016F0001092F4001092F5001092F6001092F7008C
:1017000060E56093ED001092EE001092EF001092F1
:10171000F0001092F1001092F2001092F30010927B
:10172000F4001092F5001092F6001092F70060E6B7
:101730006093ED001092EE001092EF001092F00016
:101740001092F1001092F2001092F3001092F40047
:101750001092F5001092F6001092F70060E7609387
:10176000ED001092EE001092EF001092F000109237
:10177000F1001092F2001092F3001092F400109217
:10178000F5001092F6001092F70060E86093ED000B
:101790001092EE001092EF001092F0001092F10003
:1017A0001092F2001092F3001092F4001092F500E3
:1017B0001092F6001092F70060E96093ED0010922D
:1017C000EE001092EF001092F0001092F1001092D3
:1017D000F2001092F3001092F4001092F5001092B3
:1017E000F6001092F70060EA6093ED001092EE00B0
:1017F0001092EF001092F0001092F1001092F2009F
:101800001092F3001092F4001092F5001092F6007E
:101810001092F70060EB6093ED001092EE001092D2
:10182000EF001092F0001092F1001092F20010926E
:10183000F3001092F4001092F5001092F60010924E
:10184000F70060EC6093ED001092EE001092EF0054
:101850001092F0001092F1001092F2001092F3003A
:101860001092F4001092F5001092F6001092F7001A
:1018700060ED6093ED001092EE001092EF00109278
:10188000F0001092F1001092F2001092F30010920A
:10189000F4001092F5001092F6001092F70060EE3E
:1018A0006093ED001092EE001092EF001092F000A5
:1018B0001092F1001092F2001092F3001092F400D6
:1018C0001092F5001092F6001092F700BA0100E0B5
:1018D00010E0B0E0D0E8DD2EEAE0BE2ECC24CA94C1
:1018E000713009F47CC0513071F5E091EE00E5FFF4
:1018F00016C08091EF008F738093EF001092D80094
:101900008091D90082FDFCCF81E0DF91CF911F91C2
:101910000F91FF90EF90DF90CF90BF900895EF71FF
:1019200009F0B7C0F1E0E091DA00E5FF08C0B111BD
:101930000FC0C091DA00C062C093DA00B1E0EF706E
:1019400079F4F13091F2572F613051F0E0E042C06C
:101950003091DA0030623093DA00EF7009F4D0C0D1
:10196000411188C0893058F0983008F485C0293179
:1019700009F492C02F5F92E082E08930A8F78630A8
:1019800008F07AC0982F382F390F422F431B3FEFB2
:10199000340F4250483008F06DC0E92FF0E0632F5B
:1019A00070E06F5F7F4F680F711DEF01CC0FDD1F7F
:1019B000CC0FDD1FC617D7070CF45CC0EF01CC0FAE
:1019C000DD1FEC0FFD1F6E177F070CF453C0E1E025
:1019D00041E060E0752F5E2F713009F084CF709385
:1019E000D8000F5F1F4FEFEFEA0FEE0FE093E2001A
:1019F000C92FD0E07E01F594E794B1E0EB1AF1082D
:101A0000EE0CFF1CE294F294F0EFFF22FE24EF2292
:101A1000FE24E32FF0E03197EE0FFF1FEE29E09355
:101A2000E3002197C295D295D07FDC27C07FDC27C9
:101A3000E82FF0E03197EE0FFF1FEC2BE160E09311
:101A4000E400F801F695E795F695E795F695E795A4
:101A5000E093E5001092ED001092EE00D092EF00BE
:101A6000B092D800E091D900E2FFFCCFC092DA003A
:101A7000B0E039CF8F5F76CFE82FF0E0692F70E0CC
:101A80006F5F7F4F6E177F070CF07DCF9F5F892FB1
:101A90007ACF61E0F0E047CFA03429F0AF5F92E069
:101AA00082E028E05FCF8091EF008F738093EF009A
:101AB0001092D8008091D90082FDFCCF80E025CF24
:101AC00050E041E028E0AACDA1E08091E3008E70D3
:101AD00009F06CCDE1E0F0E031E08091E4008E703F
:101AE000833008F070CD62E070E082E09091E40015
:101AF0009077913108F074CD42E050E092E078CDDB
:101B0000572F2ECFFC01718360830895FC01208143
:101B10003181232B09F063C12EDD882309F479C1BB
:101B20001092ED001092EE001092EF001092F00073
:101B30001092F1001092F2001092F3001092F40053
:101B40001092F5001092F6001092F70080E1809359
:101B5000ED001092EE001092EF001092F000109243
:101B6000F1001092F2001092F3001092F400109223
:101B7000F5001092F6001092F70080E28093ED00DD
:101B80001092EE001092EF001092F0001092F1000F
:101B90001092F2001092F3001092F4001092F500EF
:101BA0001092F6001092F70080E38093ED001092FF
:101BB000EE001092EF001092F0001092F1001092DF
:101BC000F2001092F3001092F4001092F5001092BF
:101BD000F6001092F70080E48093ED001092EE0082
:101BE0001092EF001092F0001092F1001092F200AB
:101BF0001092F3001092F4001092F5001092F6008B
:101C00001092F70080E58093ED001092EE001092A4
:101C1000EF001092F0001092F1001092F20010927A
:101C2000F3001092F4001092F5001092F60010925A
:101C3000F70080E68093ED001092EE001092EF0026
:101C40001092F0001092F1001092F2001092F30046
:101C50001092F4001092F5001092F6001092F70026
:101C600080E78093ED001092EE001092EF0010924A
:101C7000F0001092F1001092F2001092F300109216
:101C8000F4001092F5001092F6001092F70080E830
:101C90008093ED001092EE001092EF001092F00091
:101CA0001092F1001092F2001092F3001092F400E2
:101CB0001092F5001092F6001092F70080E98093E0
:101CC000ED001092EE001092EF001092F0001092D2
:101CD000F1001092F2001092F3001092F4001092B2
:101CE000F5001092F6001092F70080EA8093ED0064
:101CF0001092EE001092EF001092F0001092F1009E
:101D00001092F2001092F3001092F4001092F5007D
:101D10001092F6001092F70080EB8093ED00109285
:101D2000EE001092EF001092F0001092F10010926D
:101D3000F2001092F3001092F4001092F50010924D
:101D4000F6001092F70080EC8093ED001092EE0008
:101D50001092EF001092F0001092F1001092F20039
:101D60001092F3001092F4001092F5001092F60019
:101D70001092F70080ED8093ED001092EE0010922B
:101D8000EF001092F0001092F1001092F200109209
:101D9000F3001092F4001092F5001092F6001092E9
:101DA000F70080EE8093ED001092EE001092EF00AD
:101DB0001092F0001092F1001092F2001092F300D5
:101DC0001092F4001092F5001092F6001092F700B5
:101DD0008091D80082608093D80081E0089521E04E
:101DE0002093D800FC0180819181883C9105A1F16C
:101DF00088F48436910571F18D37910589F1892B2D
:101E000009F08ECE1092E2001092E3001092E400EE
:101E100087CE0895843FF1E09F0791F0883E23E04C
:101E20009207E1F08A3F910509F07ACE86E080932F
:101E3000E2008CE08093E30087E38093E40070CEBF
:101E400086E08093E20084E08093E30083E1809366
:101E5000E40066CE82E1EBCF88E0E9CF82E0F1CF0B
:101E60008EE0E5CFCF93DF9300D000D0CDB7DEB7C3
:101E7000DB0111968C9111978C3009F486C09091FA
:101E8000ED001092ED008091EF00807C09F428C5F0
:101E900080E18093ED008091EF00807C09F422C501
:101EA00080E28093ED008091EF00807C09F41DC5F5
:101EB00080E38093ED008091EF00807C09F418C5E9
:101EC00080E48093ED008091EF00807C09F413C5DD
:101ED00080E58093ED008091EF00807C09F40EC5D1
:101EE00080E68093ED008091EF00807C09F409C5C5
:101EF00080E78093ED008091EF00807C09F404C5B9
:101F000080E88093ED008091EF00807C09F45DC053
:101F100080E98093ED008091EF00807C09F4F7C4A4
:101F200080EA8093ED008091EF00807C09F4F2C498
:101F300080EB8093ED008091EF00807C09F4EDC48C
:101F400080EC8093ED008091EF00807C09F4E8C480
:101F500080ED8093ED008091EF00807C09F4E3C474
:101F600080EE8093ED008091EF00807C09F4DEC468
:101F70009093ED008FE119968C938FEF0F900F9057
:101F80000F900F90DF91CF91089519968C9119972A
:101F9000803651F019961C9280E00F900F900F90B0
:101FA0000F90DF91CF9108958C918295807F8093DF
:101FB000ED008091EF008F738093EF001092EE00A0
:101FC0001C9219961C9280E0E8CF28E080E890935C
:101FD000ED0090E619969C9319972C938093ED0051
:101FE0001092EE001092EF001092F0001092F100AB
:101FF0001092F2001092F3001092F4001092F5008B
:102000001092F6001092F7001196EC9111974E2F56
:1020100050E0FA013197EB30F10508F0BBCFE65BF9
:10202000FF4F0FC616968C911697882381F080E09B
:102030001796ED91FC911897E80FF11D9081909300
:10204000FA008F5F16969C911697891788F319826C
:102050001A821B821C821092F7008B81982F990F95
:10206000990F990F8A81829586958770890F809341
:10207000F6008A81982F990F990F990F898182957F
:1020800086958770890F8093F5008981880F880F66
:10209000880F8093F4009091EF0016968C9116971C
:1020A000892B8093EF0081E01A968C938091F40045
:1020B00084608093F4008091F00084608093F0004D
:1020C0008091EF0080628093EF008091F4008E7F1A
:1020D0008093F4008091EF008F738093EF008091E4
:1020E000EF0080688093EF0080E00F900F900F90DA
:1020F0000F90DF91CF9108951B968C911B978823A9
:1021000009F4A8C415968C911597982F990F990FDB
:10211000990F14968C911497829586958770890FE4
:102120008093F30014968C911497982F990F990F20
:10213000990F13968C911397829586958770890FC6
:102140008093F20013968C911397982F990F990F03
:10215000990F12968C911297829586958770890FA8
:102160008093F10012968C911297880F880F880F38
:102170008093F0008091EF0080618093EF004FEF3B
:102180005FEFBA0149835A836B837C838FEF80931F
:10219000F7008B81982F990F990F990F8A8182955B
:1021A00086958770890F8093F6008A81982F990F02
:1021B000990F990F8981829586958770890F8093F1
:1021C000F5008981880F880F880F8093F400909123
:1021D000EF0016968C911697892B8093EF0081E083
:1021E0001A968C938091F40084608093F40080911F
:1021F000F00084608093F0008091EF008F7D8093E9
:10220000EF008091F400816063CF1B968C911B9747
:10221000882309F4E5C315968C911597982F990F8B
:10222000990F990F14968C911497829586958770C3
:10223000890F8093F30014968C911497982F990F1F
:10224000990F990F13968C911397829586958770A5
:10225000890F8093F20013968C911397982F990F02
:10226000990F990F12968C91129782958695877087
:10227000890F8093F10012968C911297880F880F26
:10228000880F8093F0008091EF0080618093EF00D1
:102290004FEF5FEFBA0149835A836B837C838FEFE3
:1022A0008093F7008B81982F990F990F990F8A814E
:1022B000829586958770890F8093F6008A81982F82
:1022C000990F990F990F8981829586958770890F4B
:1022D0008093F5008981880F880F880F8093F40020
:1022E0009091EF0016968C911697892B8093EF00B2
:1022F0001A961C928091F40084608093F40080917F
:10230000F0008B7F8093F0007CCF1B968C911B9705
:10231000882309F482C315968C911597982F990FED
:10232000990F990F14968C911497829586958770C2
:10233000890F8093F30014968C911497982F990F1E
:10234000990F990F13968C911397829586958770A4
:10235000890F8093F20013968C911397982F990F01
:10236000990F990F12968C91129782958695877086
:10237000890F8093F10012968C911297880F880F25
:10238000880F8093F0008091EF0080618093EF00D0
:102390004FEF5FEFBA0149835A836B837C838FEFE2
:1023A0008093F7008B81982F990F990F990F8A814D
:1023B000829586958770890F8093F6008A81982F81
:1023C000990F990F990F8981829586958770890F4A
:1023D0008093F5008981880F880F880F8093F4001F
:1023E0009091EF0016968C91892B8093EF0080914D
:1023F000F4008B7F8093F40004CF19821A821B8231
:102400001C821092F7008B81982F990F990F990FCA
:102410008A81829586958770890F8093F6008A81DC
:10242000982F990F990F990F8981829586958770BA
:10243000890F8093F5008981880F880F880F80931A
:10244000F4009091EF0016968C911697892B80934B
:10245000EF0081E01A968C938091F4008460809361
:10246000F4008091F00084608093F0008091EF0090
:102470008F7D8093EF008091F4008E7F29CE1982AA
:102480001A821B821C821092F7008B81982F990F61
:10249000990F990F8A81829586958770890F80930D
:1024A000F6008A81982F990F990F990F898182954B
:1024B00086958770890F8093F5008981880F880F32
:1024C000880F8093F4009091EF0016968C911697E8
:1024D000892B8093EF001A961C928091F4008460FF
:1024E0008093F4008091F0008B7F8093F0008091C6
:1024F000F4008E7FEDCD19821A821B821C8210920D
:10250000F7008B81982F990F990F990F8A818295E7
:1025100086958770890F8093F6008A81982F990F8E
:10252000990F990F8981829586958770890F80937D
:10253000F5008981880F880F880F8093F4009091AF
:10254000EF0016968C91892B8093EF008091F40018
:102550008B7F8093F4008091F4008E7FB9CD1B9621
:102560008C911B97882309F492C215968C9115972C
:10257000982F990F990F990F14968C911497829513
:1025800086958770890F8093F30014968C91149729
:10259000982F990F990F990F13968C9113978295F5
:1025A00086958770890F8093F20013968C9113970C
:1025B000982F990F990F990F12968C9112978295D7
:1025C00086958770890F8093F10012968C911297EF
:1025D000880F880F880F8093F0008091EF00806152
:1025E0008093EF0081E01A968C931A978091F00007
:1025F00084608093F0009091EF0016968C91892B67
:102600008093EF008091EF008F738093EF008091B3
:10261000EF0080648093EF0080E00F900F900F90A8
:102620000F90DF91CF9108951B968C911B97882373
:1026300009F4B9C115968C911597982F990F990F98
:10264000990F14968C911497829586958770890FAF
:102650008093F30014968C911497982F990F990FEB
:10266000990F13968C911397829586958770890F91
:102670008093F20013968C911397982F990F990FCE
:10268000990F12968C911297829586958770890F73
:102690008093F10012968C911297880F880F880F03
:1026A0008093F0008091EF0080618093EF00169698
:1026B0008C911697882381F080E01796ED91FC911C
:1026C0001897E80FF11D90819093FA008F5F16968E
:1026D0009C911697891788F31A961C921A978091E5
:1026E000F0008B7F86CF1B968C911B97882309F473
:1026F0003DC115968C911597982F990F990F990FA9
:1027000014968C911497829586958770890F809383
:10271000F30014968C911497982F990F990F990F95
:1027200013968C911397829586958770890F809365
:10273000F20013968C911397982F990F990F990F78
:1027400012968C911297829586958770890F809347
:10275000F10012968C911297880F880F880F809342
:10276000F0008091EF0080618093EF0016968C91CD
:102770001697882381F080E01796ED91FC911897C9
:10278000E80FF11D90819093FA008F5F16969C914F
:102790001697891788F31A968C911A97882309F44B
:1027A0009ECF8091F00084608093F00024CF1B9630
:1027B0008C911B97882309F4BCC015968C911597B2
:1027C000982F990F990F990F14968C9114978295C1
:1027D00086958770890F8093F30014968C911497D7
:1027E000982F990F990F990F13968C9113978295A3
:1027F00086958770890F8093F20013968C911397BA
:10280000982F990F990F990F12968C911297829584
:1028100086958770890F8093F10012968C9112979C
:10282000880F880F880F8093F0008091EF008061FF
:102830008093EF0016968C911697882381F080E0A4
:102840001796ED91FC911897E80FF11D90819093E8
:10285000FA008F5F16969C911697891788F34FEFB1
:102860005FEFBA0149835A836B837C838FEF809338
:10287000F7008B81982F990F990F990F8A81829574
:1028800086958770890F8093F6008A81982F990F1B
:10289000990F990F8981829586958770890F80930A
:1028A000F5008981880F880F880F8093F40090913C
:1028B000EF0016968C911697892B8093EF0081E09C
:1028C0001A968C938091F40084608093F400809138
:1028D000F00084608093F0008091EF0080628FCCE4
:1028E00020E075CB21E080E172CB22E080E26FCB6B
:1028F00023E080E36CCB24E080E469CB25E080E535
:1029000066CB26E080E663CB27E080E760CB29E05A
:1029100080E95DCB2AE080EA5ACB2BE080EB57CBF5
:102920002CE080EC54CB2DE080ED51CB2EE080EEFE
:102930004ECB13969C91139712968C911297869575
:102940008695869520E2929F800D11248093F30056
:1029500012968C9112978295880F807E8093F20058
:102960008091EF008F7E8093EF0064CF13969C914F
:10297000139712968C91129786958695869520E2EC
:10298000929F800D11248093F30012968C911297E0
:102990008295880F807E8093F2008091EF008F7E79
:1029A0008093EF00E3CE13969C91139712968C912F
:1029B000129786958695869520E2929F800D112428
:1029C0008093F30012968C9112978295880F807EE7
:1029D0008093F2008091EF008F7E8093EF0067CEAE
:1029E00013969C91139712968C91129786958695C3
:1029F000869520E2929F800D11248093F300129619
:102A00008C9112978295880F807E8093F20080913E
:102A1000EF008F7E8093EF003BCC13969C91139731
:102A200012968C91129786958695869520E2929FB4
:102A3000800D11248093F30012968C911297829549
:102A4000880F807E8093F2008091EF008F7E8093CC
:102A5000EF009ECC13969C91139712968C9112972F
:102A600086958695869520E2929F800D112480930D
:102A7000F30012968C9112978295880F807E809336
:102A8000F2008091EF008F7E8093EF0078CB139659
:102A90009C91139712968C911297869586958695A0
:102AA00020E2929F800D11248093F30012968C9166
:102AB00012978295880F807E8093F2008091EF00BC
:102AC0008F7E8093EF008ECDDEC075C174D008F488
:102AD00081E0089512D00C9478040E94710458F09B
:102AE0000E946A0440F029F45F3F29F00C946104CD
:102AF00051110C94AC040C9467040E94890468F38F
:102B00009923B1F3552391F3951B550BBB27AA27A6
:102B100062177307840738F09F5F5F4F220F331FE0
:102B2000441FAA1FA9F335D00E2E3AF0E0E832D0A8
:102B300091505040E695001CCAF72BD0FE2F29D0AB
:102B4000660F771F881FBB1F261737074807AB077D
:102B5000B0E809F0BB0B802DBF01FF2793585F4FF2
:102B60003AF09E3F510578F00C9461040C94AC044B
:102B70005F3FE4F3983ED4F3869577956795B795D4
:102B8000F7959F5FC9F7880F911D9695879597F9DF
:102B90000895E1E0660F771F881FBB1F6217730758
:102BA0008407BA0720F0621B730B840BBA0BEE1F6D
:102BB00088F7E0950895990F0008550FAA0BE0E8F3
:102BC000FEEF16161706E807F907C0F012161306EF
:102BD000E407F50798F0621B730B840B950B39F42F
:102BE0000A2661F0232B242B252B21F408950A2695
:102BF00009F4A140A6958FEF811D811D0895A1E2E2
:102C00001A2EAA1BBB1BFD010DC0AA1FBB1FEE1F66
:102C1000FF1FA217B307E407F50720F0A21BB30BB1
:102C2000E40BF50B661F771F881F991F1A9469F72D
:102C300060957095809590959B01AC01BD01CF0189
:102C40000895EE0FFF1F0024001C0BBE0790F691A5
:102C5000E02D099409D0A59F900DB49F900DA49FDD
:102C6000800D911D11240895A29FB001B39FC00152
:102C7000A39F700D811D1124911DB29F700D811DA8
:102C80001124911D08950F931F93CF93DF938230EA
:102C9000910510F482E090E0E091DF02F091E00213
:102CA00020E030E0A0E0B0E0309719F140815181A0
:102CB0000281138148175907C8F08417950769F4F2
:102CC000109731F012960C93129713961C9327C00D
:102CD0000093DF021093E00222C02115310519F0A4
:102CE0004217530718F49A01BD01EF01DF01F80103
:102CF000DBCF21153105F9F0281B390B24303105C4
:102D000080F48A819B816115710521F0FB01938319
:102D1000828304C09093E0028093DF02FE0132962A
:102D200044C0FE01E20FF31F8193919322503109B9
:102D3000398328833AC02091DD023091DE02232BB3
:102D400041F420910201309103013093DE0220937F
:102D5000DD0220910001309101012115310541F47E
:102D60002DB73EB74091040150910501241B350B4E
:102D7000E091DD02F091DE02E217F307A0F42E1BD2
:102D80003F0B2817390778F0AC014E5F5F4F2417CF
:102D9000350748F04E0F5F1F5093DE024093DD026F
:102DA0008193919302C0E0E0F0E0CF01DF91CF91F9
:102DB0001F910F910895CF93DF93009709F481C07D
:102DC000FC01329713821282A091DF02B091E002DF
:102DD000109781F420813181820F931F2091DD02B1
:102DE0003091DE022817390751F5F093DE02E093A7
:102DF000DD0267C0ED0120E030E0CE17DF0740F4D0
:102E00004A815B819E0141155105F1F0EA01F5CF40
:102E1000D383C28340815181840F951FC817D9077E
:102E200059F488819981840F951F0296918380833C
:102E30008A819B81938382832115310529F4F09344
:102E4000E002E093DF023DC0E901FB83EA834991A0
:102E50005991C40FD51FEC17FD0761F48081918152
:102E6000840F951F0296E90199838883828193815B
:102E70009B838A83E0E0F0E012968D919C911397FA
:102E8000009719F0FD01DC01F7CF8D919C9111970E
:102E90009D012E5F3F4F820F931F2091DD023091E5
:102EA000DE022817390769F4309729F41092E002FE
:102EB0001092DF0202C013821282B093DE02A0934E
:0C2EC000DD02DF91CF910895F894FFCF60
:102ECC000000E10220002043483A200020563A201E
:102EDC00005445535432000000000087028E027EDD
:102EEC000200000000000032000000000000EA01B7
:102EFC000000000001EA010000000002EA010000ED
:102F0C00000003EA0104010000000000640000005E
:102F1C00000004EA010000000005EA0100000000C6
:102F2C0006EA010000000007EA0104000000006A44
:102F3C00055E071905310516055C05150587052E77
:022F4C00000083
:00000001FF
