:100000003FC1000067C1000065C1000063C100007E
:1000100061C100005FC100005DC100005BC1000064
:1000200059C100000C94340D55C1000053C10000AB
:100030000C940C0D4FC100004DC100004BC10000DD
:1000400049C1000047C100000C941C0943C10000D5
:1000500041C100000C945E0E3DC100003BC1000098
:1000600039C100000C94590D35C1000033C10000A6
:1000700031C100002FC100002DC100002BC10000C4
:100080000C949E0E27C1000025C1000023C1000072
:1000900021C100006E616E00696E660000407A103A
:1000A000F35A00A0724E18090010A5D4E80000E829
:1000B0007648170000E40B54020000CA9A3B000087
:1000C00000E1F505000080969800000040420F0016
:1000D0000000A08601000000102700000000E803D7
:1000E000000000006400000000000A0000000000A2
:1000F0000100000000002C76D888DC674F0823DF61
:10010000C1DFAE59E1B1B796E5E3E453C63AE65133
:10011000997696E8E6C28426EB898C9B62ED407C5A
:100120006FFCEFBC9C9F40F2BAA56FA5F490055AF6
:100130002AF75C936B6CF9676DC11BFCE0E40D471B
:10014000FEF520E6B500D0ED902E0300943577053E
:100150000080841E080000204E0A000000C80C33F6
:100160003333330F986E12831141EF8D2114893B85
:10017000E65516CFFEE6DB18D1844B381BF77C1D05
:10018000901DA4BBE424203284725E228100C9F158
:1001900024ECA1E53D27436F6D6D616E645F54658E
:1001A00073740043414E5261773A3A436F6E666909
:1001B0006754780043414E5261773A3A42696E641F
:1001C0004C697374656E65720043414E5261773AB3
:1001D0003A496E69740043414E5261773A3A52652A
:1001E000636F6E6669677572654D6F620074784300
:1001F000414E4D657373616765457272436E74203D
:1002000065786365656465642030784146204361A4
:100210006E6E6F742053656E6400556E61626C651E
:1002200020746F20436F6E66696754780020496EB2
:1002300074657276616C3A20002049443A2000438C
:10024000414E53656E736F7254696D6572204372CF
:1002500065617465643A20004641494C4544205428
:100260004F2042494E44204C495354454E4552007C
:100270004445564944200053544152542000BE0F77
:1002800011241FBECFEFD0E1DEBFCDBF11E0A0E053
:10029000B1E0ECE8FDE200E00BBF02C007900D9278
:1002A000AA3AB107D9F724E0AAEAB1E001C01D9249
:1002B000AF32B207E1F711E0C0E4D1E004C021970A
:1002C000FE010E945212CF33D107C9F70E948F0D51
:1002D0000C94C21695CEA091AA01B091AB011097D3
:1002E00069F0ED91FC91119712968D919C91139765
:1002F0009093AB018093AA010995EDCF0895CF9318
:10030000DF93EC0184E090E00E941914009781F0E3
:10031000FC01D183C0832091AA013091AB013383CA
:1003200022839093AB018093AA0180E090E002C009
:1003300081E090E0DF91CF9108952F923F924F920C
:100340005F926F927F928F929F92AF92BF92CF9265
:10035000DF92EF92FF920F931F93CF93DF93CDB76E
:10036000DEB760970FB6F894DEBF0FBECDBF7C013D
:100370001B016A01FC0117821682838181FF44C33D
:100380009E012F5F3F4F3901F7019381F10193FDEA
:10039000859193FF81911F01882309F431C3853230
:1003A00039F493FD859193FF81911F01853239F4D2
:1003B000B70190E00E94281656016501E5CF10E0D4
:1003C000512C912CFFE1F915D8F08B3279F038F4EB
:1003D000803279F08332A1F4F92DF0612EC08D3294
:1003E00061F0803369F4292D21602DC0392D3260F0
:1003F000932E892D8460982E2AC0E92DE86015C0BF
:1004000097FC2DC020ED280F2A3088F496FE06C0F8
:100410003AE0139F200D1124122F19C08AE0589E34
:10042000200D1124522EE92DE0629E2E10C08E3236
:1004300031F496FCE5C2F92DF0649F2E08C08C368D
:1004400021F4292D2068922E02C0883641F4F10152
:1004500093FD859193FF81911F018111B3CF9BEB98
:10046000980F933020F4992D9061805E07C09BE92E
:10047000980F933008F066C1992D9F7E96FF16E085
:100480009F73992E853619F49064992E08C086368C
:1004900021F4392F3068932E02C01111115097FEAC
:1004A00007C01C3350F444244394410E27E00BC092
:1004B000183038F027E017E005C027E09CE3492E0C
:1004C00002C0212F412C560184E0A80EB11CF60178
:1004D0006081718182819381042DA3010E943A156C
:1004E0006C01F981FC87F0FF02C0F3FF06C091FCAC
:1004F00006C092FE06C000E205C00DE203C00BE29A
:1005000001C000E08C858C7019F001115AC29BC2A9
:1005100097FE10C04C0CFC85F4FF04C08A81813327
:1005200009F44A94141474F528E0241578F588E049
:10053000482E2CC096FC2AC0812F90E08C159D057A
:100540009CF03CEFC3163FEFD30674F0892D806812
:10055000982E0AC0E2E0F0E0EC0FFD1FE10FF11D64
:100560008081803319F411501111F4CF97FE0EC021
:1005700044244394410E812F90E0C816D9062CF4F0
:100580001C1904C04424439401C010E097FE06C027
:100590001C141D0434F4C601019605C085E090E0EA
:1005A00002C081E090E001110196112331F0212F6A
:1005B00030E02F5F3F4F820F931F252D30E08217D1
:1005C000930714F4581A01C0512C892D897049F4ED
:1005D000552039F0B70180E290E00E9428165A9425
:1005E000F7CF002329F0B701802F90E00E94281652
:1005F00093FC09C0552039F0B70180E390E00E94D8
:1006000028165A94F7CF97FE4CC04601D7FE02C079
:10061000812C912CC60188199909F301E80FF91F63
:10062000FE87ED87960124193109388B2F87012F1A
:1006300010E01195019511093FEF8316930629F4F7
:10064000B7018EE290E00E942816C814D9044CF03D
:100650008F8598898815990524F4ED85FE8581811B
:1006600001C080E3F1E08F1A91082D853E852F5F50
:100670003F4F3E872D87801691062CF0B70190E002
:100680000E942816D9CFC814D90441F49A81963310
:1006900020F4953319F43C8534FF81E3B70190E0F1
:1006A0004EC08A81813319F09C859F7E9C87B7015B
:1006B00090E00E942816111105C094FC18C085E630
:1006C00090E017C0B7018EE290E00E9428161E5FEE
:1006D00082E001E0080FF301E80FF11D8081B7010E
:1006E00090E00E942816802F0113F3CFE6CF85E417
:1006F00090E0B7010E942816D7FC06C0C114D104AF
:1007000041F4EC85E4FF05C0D194C194D1088DE299
:1007100001C08BE2B70190E00E94281680E32AE036
:10072000C216D1042CF08F5FFAE0CF1AD108F7CFB0
:10073000B70190E00E942816B701C601C0960E943A
:10074000281654C1833631F0833779F0833509F0A8
:1007500056C020C0560132E0A30EB11CF6018081C4
:10076000898301E010E0630112C05601F2E0AF0E90
:10077000B11CF601C080D18096FE03C0612F70E0ED
:1007800002C06FEF7FEFC6010E941D168C01F92D8C
:10079000FF7714C0560122E0A20EB11CF601C08002
:1007A000D18096FE03C0612F70E002C06FEF7FEF33
:1007B000C6010E9412168C01F92DF0689F2EF3FDE0
:1007C0001AC0852D90E008171907A8F4B70180E238
:1007D00090E00E9428165A94F4CFF60197FC859178
:1007E00097FE81916F01B70190E00E942816511089
:1007F0005A94015011090115110579F7F7C0843693
:1008000011F0893661F5560197FE09C024E0A20E69
:10081000B11CF60160817181828193810AC0F2E08E
:10082000AF0EB11CF60160817181072E000C880BA0
:10083000990BF92DFF769F2E97FF09C09095809513
:10084000709561957F4F8F4F9F4FF0689F2E2AE0E4
:1008500030E0A3010E946416C82EC6183FC0092DBF
:10086000853721F40F7E2AE030E01DC0097F8F36E6
:1008700091F018F4883559F0C3C0803719F08837E3
:1008800011F0BEC0006104FF09C0046007C094FEFF
:1008900008C0066006C028E030E005C020E130E076
:1008A00002C020E132E0560107FF09C084E0A80E33
:1008B000B11CF601608171818281938108C0F2E0F0
:1008C000AF0EB11CF6016081718180E090E0A30160
:1008D0000E946416C82EC6180F77902E96FE0BC085
:1008E000092D0E7FC11650F494FE0AC092FC08C078
:1008F000092D0E7E05C0DC2C092D03C0DC2C01C0A7
:10090000D12E04FF0DC0FE01EC0DF11D808180335E
:1009100011F4097E09C002FF06C0D394D39404C029
:10092000802F867809F0D39403FD11C000FF06C024
:100930001C2DD51480F4150D1D190DC0D51458F4B7
:10094000B70180E290E00E942816D394F7CFD51427
:1009500010F45D1801C0512C04FF10C0B70180E3F2
:1009600090E00E94281602FF17C001FD03C088E72F
:1009700090E002C088E590E0B7010CC0802F867837
:1009800059F001FF02C08BE201C080E207FD8DE259
:10099000B70190E00E942816C11638F4B70180E331
:1009A00090E00E9428161150F7CFCA94F301EC0D85
:1009B000F11D8081B70190E00E942816C110F5CF8B
:1009C00015C0F4E0F51560F584E0581A93FE1FC0D9
:1009D000011127C02C8523FF2AC004E910E0392D1E
:1009E0003071932EF8018491811124C0552009F4AF
:1009F000E4CCB70180E290E00E9428165A94F6CF2A
:100A0000F7018681978126C08FEF9FEF23C0B70142
:100A100080E290E00E9428165A945110F8CFD8CF67
:100A2000512CB701802F90E00E942816D3CF08E9FF
:100A300010E0D5CF91108052B70190E00E942816A7
:100A40000F5F1F4FCFCF23E0251510F483E0BDCFFC
:100A5000512CC0CF60960FB6F894DEBF0FBECDBF4D
:100A6000DF91CF911F910F91FF90EF90DF90CF908A
:100A7000BF90AF909F908F907F906F905F904F90BE
:100A80003F902F9008958091B6019091B701009703
:100A900039F0DC01ED91FC910280F381E02D0994A5
:100AA000089586E093E00C941F114AE050E086E040
:100AB00093E00C945B1186E093E00C9456104AE0AE
:100AC00050E086E093E00C947F100F931F93CF9338
:100AD000DF93EC0183E090E00E9417128C0138D084
:100AE0001B870A871D861C861F861E8682E38883D5
:100AF000198240E855E260E070E086E093E0DF9123
:100B0000CF911F910F910C94DE0E8091BC01882330
:100B100019F08CEA91E008958CEB91E00E94191293
:100B2000892BB9F38CEA91E0D0DF8CEB91E00E9445
:100B3000221283E495E0E3DB8CEA91E008950895C6
:100B40000C941812E2DF66E971E0ABDF80E00895F3
:100B50002AE031E0FC013183208312820895EAE724
:100B6000F0E085E0808380E480937C008081886869
:100B7000808308958091C5019091C601892B11F061
:100B800080E008957093C6016093C5014093C4014D
:100B90004F70406440937C0080917A008064809321
:100BA0007A0081E00895CF93DF9300D0CDB7DEB710
:100BB0008091C5019091C601892B11F1F894809123
:100BC000780090E09A83898320917900922B9A8310
:100BD000898378948091C5019091C601DC01ED91E3
:100BE000FC910480F581E02D4091C401BE016F5F4E
:100BF0007F4F09951092C6011092C5011092C40151
:100C00000F900F90DF91CF9108950895FC0190E02F
:100C100021913191232B29F09F5F9F30C9F78FE0FD
:100C20000895892F08951F93CF93DF93EC01162F1A
:100C30006CDF69EC71E035DF81E08093D8001092C1
:100C4000DE001092DF0080EB8093DB001092EC005E
:100C50001130D9F188F1123069F1133049F48EE086
:100C60008093E2008CE08093E30087E38093E400CC
:100C70001092E50080E0982F9295907F9093ED0080
:100C8000EEEEF0E01192E83FF105E1F78F5F8F3073
:100C900091F78091D80082608093D8008091D9002C
:100CA00082FFFCCFC051DF4F81E08883DF91CF917D
:100CB0001F91089586E0D4CF1092E2008CE08093DB
:100CC000E30086E38093E400D3CF82E0C9CFEF92C4
:100CD000FF920F931F93CF93DF938C017B01C42F5F
:100CE000D22F13DF64EB71E0DCDECF30D8F48C2F31
:100CF00090E0FC01EE0FFF1FE00FF11F208131811A
:100D0000232B11F0DD2371F0F182E082F801E80F6E
:100D1000F91F168E81E0DF91CF911F910F91FF9007
:100D2000EF90089580E0DF91CF911F910F91FF9098
:100D3000EF900895FC01E051FF4F2081222361F0E4
:100D40005091ED00E42FF0E0DC01AE0FBF1F5E9686
:100D50003C91313019F020E0822F08954F30D8F7C0
:100D60004295407F4093ED00DF01AA0FBB1FAA0F01
:100D7000BB1FAA0FBB1FAE1BBF0BA80FB91FD3967B
:100D80008C91D397882361F090E0D396FB01E90F13
:100D9000F11D30813093FA009F5F3C919317B0F3BF
:100DA0008091EF008F738093EF008091EF0080645B
:100DB0008093EF005093ED00822F08958F929F92C1
:100DC000AF92BF92CF92DF92EF92FF920F931F9359
:100DD000CF93DF93EC014B01042F97DE63EA71E0C0
:100DE00060DEFE01E051FF4F1081112351F0E02E33
:100DF000F12C6E01CE0CDF1CF601868D882379F074
:100E000010E0812FDF91CF911F910F91FF90EF9014
:100E1000DF90CF90BF90AF909F908F90089581E02A
:100E2000868F5701AA0CBB1CAA0CBB1CAA0CBB1CAE
:100E3000D501AE19BF09AC0FBD1F9D9687E0F40127
:100E400001900D928A95E1F760DE66ED71E029DE92
:100E50008091ED00902F9295907F9093ED0090916E
:100E6000EF009F739093EF00EEEEF0E01192E83FF9
:100E7000F105E1F7F501EE19FF09DE01AE0FBF1F25
:100E8000D2969C91BD96EC0FFD1F9111AFC02181B0
:100E9000908196959695969530E2239F900D11241A
:100EA0009093F30090819295990F907E9093F20029
:100EB0009091EF009F7E9093EF00F501EE19FF09EE
:100EC000EC0FFD1F91A9992309F4C7C09091F00080
:100ED00094609093F0002091EF00F501EE19FF0966
:100EE000EC0FFD1F93A9922B9093EF00F601968DC6
:100EF000913009F467C008F4B6C0923009F073C0AD
:100F00009701220F331FF901EE0DFF1DEE0FFF1F9A
:100F1000EC0FFD1FE556FF4F90819111B9C09091E4
:100F2000F4009E7F9093F400F901EE0DFF1DEE0F8B
:100F3000FF1FEC0FFD1FE656FF4F9081992309F428
:100F4000C4C09091F40094609093F400AE18BF0870
:100F5000FE01EA0DFB1D92A9E20EF31EEE0CFF1C32
:100F6000992309F49BC0F6E9EF0EF11CCE0DDF1DAD
:100F70009B81292F220F220F220F9A8192959695FD
:100F80009770920F9093F7009A81292F220F220FCA
:100F9000220F9981929596959770920F9093F600F3
:100FA0009981292F220F220F220F988192959695D1
:100FB0009770920F9093F5009881990F990F990F60
:100FC0009093F4009091DE0021E030E002C0220F07
:100FD000331F0A95E2F7922B9093DE009091DF0089
:100FE000932B9093DF008093ED000BCF9381292FFB
:100FF000220F220F220F9281929596959770920F51
:101000009093F3009281292F220F220F220F9181BA
:10101000929596959770920F9093F2009181292F57
:10102000220F220F220F9081929596959770920F22
:101030009093F1009081990F990F990F9093F00080
:101040009091EF0090619093EF00F501EE19FF0988
:10105000EC0FFD1F91A9911139CF9091F0009B7F6A
:101060009093F00038CF9091DE0021E030E002C094
:10107000220F331F0A95E2F7209592239093DE000A
:101080009091DF00232F209592239093DF00ABCF28
:101090009091F40091609093F40046CF36E9E30E0E
:1010A000F11CCE0DDF1D2981988196959695969518
:1010B000E0E22E9F900D11249093F7009881929575
:1010C000990F907E9093F6007DCF9091F4009B7FD6
:1010D0009093F4003BCF1F93CF93DF93EC011091DB
:1010E000ED009091E0008091E100892B09F443C06C
:1010F0008091E00080FD17C08091E00081FD41C03B
:101100008091E00082FD40C08091E00083FD3FC0FF
:101110008091E00084FD4EC08091E00085FF4DC0CD
:1011200080E525E002C080E020E08093ED00809122
:10113000EE00982F907EA9F286FFD3CF30E0F90120
:10114000EE0FFF1FEC0FFD1FA081B181109751F032
:10115000ED91FC9111970680F781E02D86E0E53056
:10116000F807C1F41092EE009091E0008091E10048
:10117000892B09F0BDCF1093ED00DF91CF911F9126
:10118000089580E121E0D1CF80E222E0CECF80E35C
:1011900023E0CBCFB901660F771F660F771F660F6D
:1011A000771F621B730B635D7F4F6C0F7D1FCD013B
:1011B0000995D8CF80E424E0B8CF8091E00086FD87
:1011C00023C08091E00087FD28C08091E10080FD70
:1011D0001EC08091E10081FD1DC08091E10082FD73
:1011E0001FC08091E10083FD1EC08091E10084FD5D
:1011F0001DC08091E10085FD1CC08091E10086FF4B
:10120000BACF80EE2EE091CF80E626E08ECF80E848
:1012100028E08BCF80E929E088CF80E727E085CFE1
:1012200080EA2AE082CF80EB2BE07FCF80EC2CE0BD
:101230007CCF80ED2DE079CF1F920F920FB60F92E9
:1012400011240BB60F922F933F934F935F936F939D
:101250007F938F939F93AF93BF93EF93FF9380916F
:10126000C7018823B1F08FEC91E035DFFF91EF915A
:10127000BF91AF919F918F917F916F915F914F91AE
:101280003F912F910F900BBE0F900FBE0F901F90AC
:10129000189587EC91E00E941912892B21F3109286
:1012A000BF0287EC91E00E942212DDCF08950895DD
:1012B00021E0FC01238708950C941812FF920F93EC
:1012C0001F93CF93DF93CDB7DEB727970FB6F89470
:1012D000DEBF0FBECDBF8C0184E191E0D801119635
:1012E0009C938E9313967C936E931297FA01808150
:1012F0009181A281B381F80184839583A683B7830A
:101300002087789688E0DF011D928A95E9F7F80139
:101310007287618710A28091C701882309F465C094
:101320008FEC91E073DCD8011F968C931F9791E0AE
:101330001B969C931B971D961C921E921C971E96A3
:101340001C9220E0482FB8018FEC91E0C0DC88238C
:1013500009F446C0DADB6FE372E0ADDBF801F78435
:10136000D4DB6F2DACDBD1DB69E372E0A4DBD80109
:101370001496FC90CADB6F2DA2DBC7DB6DE272E036
:101380009ADBF801F280C1DB6F2D8FDBBE016F5F4E
:101390007F4F87E0DB011D928A95E9F7F801848190
:1013A0009581A681B78189839A83AB83BC8380A111
:1013B000880F8F8347858FEC91E000DD811104C099
:1013C000A4DB6AE172E06DDB27960FB6F894DEBF0E
:1013D0000FBECDBFDF91CF911F910F91FF90089568
:1013E00094DB68E572E05DDBB5CF87EC91E00E94AD
:1013F0001912892B09F494CF1092BF0287EC91E067
:101400000E9422128DCF453050F4E42FF0E0EE0F11
:10141000FF1FE80FF91F208D318D232B11F080E085
:101420000895DC0190962C919097421718F04F5F29
:1014300090964C93718F608F81E00895BF92CF9208
:10144000DF92EF92FF920F931F93CF93DF93CDB76D
:10145000DEB72A970FB6F894DEBF0FBECDBF8C0162
:10146000FC0190A1F12CF916B8F4EF2DF0E03C96B8
:10147000EE0FFF1FE00FF11F208131812115310593
:1014800009F488C0C901C7D0882309F480C0F39447
:10149000F80190A1F91648F3992309F47DC080E082
:1014A000E82FF0E03C96EE0FFF1FE00FF11F0190D8
:1014B000F081E02D309711F0218521118F5F891780
:1014C00078F39E012F5F3F4F690188E0F901119287
:1014D0008A95E9F7B12CEB2CF12CF7013C96EE0F35
:1014E000FF1FE00FF11F208131812115310579F0B7
:1014F000C901AED099878A87EE0CFF1CF601EE0D6C
:10150000FF1D89859A8591838083F80190A1B3940A
:10151000B91608F3F89488E0F601D80150960190C6
:101520000D928A95E1F7F801848595858F3F9105A5
:10153000B9F481E08387158614867894811114C0EC
:101540002A960FB6F894DEBF0FBECDBFDF91CF91C4
:101550001F910F91FF90EF90DF90CF90BF90089573
:1015600080E07894882361F3D0DA6DEE71E02A96FA
:101570000FB6F894DEBF0FBECDBFDF91CF911F91A4
:101580000F91FF90EF90DF90CF90BF908ACAF80143
:1015900090A169CFF39467CF9E012F5F3F4F690100
:1015A00088E0F90111928A95E9F7B4CF0895FB011B
:1015B00020813181FC013087278321E02187089534
:1015C00037C7FC01DB0180E291E0918380838D913C
:1015D0009C9111979383828312968D919C9113977E
:1015E0009583848314968C911497868381E04D9122
:1015F0005C91119712962D913C91139742175307C6
:101600000CF080E0828715968D919C9116979487B7
:101610008387118608951F93CF93DF93EC011E817A
:101620008091C002882359F0412FBE0188EC92E0DE
:10163000A1DA81111986DF91CF911F91089580EC75
:1016400092E0F7D6892B81F380EC92E0FBD6ECCFC9
:10165000CF92DF92EF92FF920F931F93CF93DF937E
:1016600000D000D0CDB7DEB78C01F894DC0117961E
:101670006D917C91189780E090E0C6D72AE038E21F
:1016800040EA5BE30E94B61369837A838B839C8371
:101690007894C980DA80EB80FC8022E430E645E66D
:1016A0005CEBC701B6010E94B6132CE437E349E8AE
:1016B0005DE311D79B01AC01C701B6010BD76B01EC
:1016C0007C0120E030E0A9016AD787FD29C0C982EA
:1016D000DA82EB82FC82D8011B96ED91FC911C977B
:1016E000CE0101960995F8012285222351F024812B
:1016F00035812817390794F02281338182179307A7
:101700006CF00F900F900F900F90DF91CF911F9181
:101710000F91FF90EF90DF90CF900895C901F1CF26
:1017200019821A821B821C82D6CF2FE632E143E84F
:1017300052E4FC0160817181828193810E94B61321
:1017400020E030E048EC52E40E94B6132CD7CB01E5
:10175000089529E739EE46EA5EE3FC016081718174
:10176000828193810E94B6132CE83BED40ED5FE34C
:10177000B1D62FE632E143E852E4F8D720E030E07A
:1017800048EC52E4F3D70FD7CB0108952BE13DE0AD
:1017900040EA5EE3FC016081718182819381E6D73A
:1017A0002CEF39EA41ED5FE396D62FE632E143E8CC
:1017B00052E4DCD720E030E048EC52E4D7D7F3D64F
:1017C000CB01089523E333EF49EF53E4FC0160813B
:1017D000718182819381CAD720E030E040E05FE3ED
:1017E0007AD62FE632E143E852E4C0D720E030E079
:1017F00048EC52E4BBD7D7D6CB0108950F931F9383
:10180000CF93DF93EC012E968C010C5E1F4F8991D4
:101810009991009709F012DEC017D107C1F7DF9147
:10182000CF911F910F9108954F925F926F927F9287
:101830008F929F92AF92BF92CF92DF92EF92FF92E0
:101840000F931F93CF93DF93CDB7DEB7A5970FB656
:10185000F894DEBF0FBECDBF6C018EE0D6011D92A5
:101860008A95E9F7F6013E9686E0DF011D928A959A
:10187000E9F796E2892E91E0992E5F013601B4E1F5
:101880006B0E711C412C85E2F401DE011196019072
:101890000D928A95E1F781E290E0C9D57C016F81D4
:1018A00078852D81AE014F5F5F4F08DDF501E19234
:1018B000F1925F018DA1882311F1512C8DE090E010
:1018C000B6D58C0161E070E06C0F7D1FF7E05F9E84
:1018D000600D711D1124685F7F4F73DEE42DF0E011
:1018E000EE0FFF1FEC0DFD1D118300834394452D6A
:1018F000B801C70188DD53948DA15816F8F285E22E
:10190000880E911CA614B70409F0BDCFA5960FB69A
:10191000F894DEBF0FBECDBFDF91CF911F910F9125
:10192000FF90EF90DF90CF90BF90AF909F908F90FF
:101930007F906F905F904F9008958091DD02882393
:1019400019F089EC92E008958DED92E072D5892B23
:10195000C1F389EC92E068DF8DED92E073D589ECFC
:1019600092E00895DF92EF92FF920F931F93CF932F
:10197000DF93EC012E968C010C5E1F4FE991F991DB
:1019800021853285215031093287218781859285D1
:10199000892BE9F4828193819287818783858823CB
:1019A00009F186858F5F868784859585892B01F56A
:1019B0001386D7847F0180E1E80EF11C8091C70176
:1019C0008823F9F04D2DB7018FEC91E0B3D9C01702
:1019D000D107A1F6DF91CF911F910F91FF90EF906A
:1019E000DF90089584859585019695878487EFCF4C
:1019F00086858F3FE9F6848595850197958784874D
:101A0000D7CF87EC91E015D5892BE1F21092BF0278
:101A100087EC91E017D5D6CF1F920F920FB60F9299
:101A200011240BB60F922F933F934F935F936F93B5
:101A30007F938F939F93AF93BF93EF93FF937DDF3C
:101A400091DFFF91EF91BF91AF919F918F917F9126
:101A50006F915F914F913F912F910F900BBE0F901F
:101A60000FBE0F901F9018951F920F920FB60F92F6
:101A700011248F939F93AF93BF938091E502909130
:101A8000E602A091E702B091E8020196A11DB11D06
:101A90008093E5029093E602A093E702B093E802F8
:101AA000BF91AF919F918F910F900FBE0F901F909C
:101AB00018951F920F920FB60F9211240BB60F922A
:101AC0002F933F934F935F936F937F938F939F9346
:101AD000AF93BF93EF93FF938091C0028823B1F03F
:101AE00088EC92E060D8FF91EF91BF91AF919F9108
:101AF0008F917F916F915F914F913F912F910F90B7
:101B00000BBE0F900FBE0F901F90189580EC92E0C7
:101B100090D4892B29F380EC92E094D4E1CFF8940F
:101B2000809181008A6080938100109285001092DC
:101B300084008FEC97E090938900809388008091D7
:101B40006F00826080936F008091C002882341F112
:101B500088EC92E004D88091C701882389F160E085
:101B60008FEC91E060D8E9DEEC0178940E94850565
:101B700067E772E00E945B0514B70E948505612F3C
:101B80000E9455050E94850560E772E00E945B0592
:101B90000E94850561E00E945505CE012FDEFDCF34
:101BA00080EC92E046D4892B99F280EC92E04AD402
:101BB00088EC92E00E94AF058091C7018111CFCFE0
:101BC00087EC91E036D4892B51F21092BF0287EC5A
:101BD00091E038D4C4CF089580E090E00895FC01EE
:101BE00024853585F901E058FF4F80819181805827
:101BF0009F4F329620813181821B930B8F77907893
:101C000097FF0895019780689F6F01960895FC01E2
:101C100084859585FC01EE57FF4F20813181DC01E1
:101C2000A058BF4F4D915C9142175307C1F0DC01A2
:101C3000A20FB31F8C912F5F3F4F2F77307837FD66
:101C400004C03183208390E0089521503109206839
:101C50003F6F2F5F3F4F3183208390E008958FEFD8
:101C60009FEF0895FC0184859585FC01E058FF4FA6
:101C7000DC01AE57BF4F8D919C9191838083089575
:101C8000DC015296ED91FC91539741E050E05B9658
:101C90000C905B9702C0440F551F0A94E2F7208115
:101CA00030E024233523232BD1F35696ED91FC917C
:101CB0005797608381E090E00895BAC31F920F9216
:101CC0000FB60F9211240BB60F922F933F934F93A1
:101CD0005F936F938F939F93EF93FF936091C600F1
:101CE0002091270430912804C90101968F779078BC
:101CF00097FD1FC04091290450912A04841795072D
:101D000041F0F901E955FC4F6083909328048093DA
:101D10002704FF91EF919F918F916F915F914F9168
:101D20003F912F910F900BBE0F900FBE0F901F9001
:101D30001895019780689F6F0196DCCF1F920F92D4
:101D40000FB60F9211240BB60F922F933F934F9320
:101D50005F936F938F939F93EF93FF936091CE0068
:101D60002091A3033091A403C90101968F77907845
:101D700097FD1FC04091A5035091A60384179507B6
:101D800041F0F901ED5DFC4F60839093A4038093D3
:101D9000A303FF91EF919F918F916F915F914F916D
:101DA0003F912F910F900BBE0F900FBE0F901F9081
:101DB0001895019780689F6F0196DCCF8F929F9254
:101DC000AF92BF92CF92DF92EF92FF921F93CF9389
:101DD000DF93EC016A017B01413452446F4071058D
:101DE00008F455C0EA89FB8981E090E00C8C02C0C0
:101DF000880F991F0A94E2F7808360E079E08DE311
:101E000090E0A701960122D3DA01C9010197A10947
:101E1000B109AC01BD017695679557954795CA0103
:101E2000EE85FF859083E889F9898083EC89FD89B7
:101E3000408181E090E09C01088C02C0220F331F9A
:101E40000A94E2F7242B2083EC89FD8940819C01D0
:101E5000098C02C0220F331F0A94E2F7242B20833F
:101E6000EC89FD8920810A8C02C0880F991F0A9491
:101E7000E2F7822B8083DF91CF911F91FF90EF904B
:101E8000DF90CF90BF90AF909F908F90089560E8C3
:101E900074E88EE190E0A7019601D8D249015A0179
:101EA00081E0881A9108A108B108B694A794979484
:101EB0008794D501C4010196A11DB11D880F991FFA
:101EC000AA1FBB1F880F991FAA1FBB1F9C01AD0132
:101ED000220F331F441F551F220F331F441F551F4E
:101EE00060E074E284EF90E0B1D2AFEFB0E0D0D226
:101EF000A7019601ABD28FEF90E0821B930B1816CF
:101F00001906BCF5122F109560E079E08DE390E0A2
:101F1000A70196019BD2DA01C9010197A109B10974
:101F20008E7F0296A11DB11D9C01AD01220F331FB2
:101F3000441F551F220F331F441F551F60E074E2DA
:101F400084EF90E083D2AFEFB0E0A2D2A701960178
:101F50007DD28FEF90E0821B930B1816190664F464
:101F60002095211708F43ECFEA89FB891082C4012D
:101F700057CF11E0120FC8CF2F5FF3CFCF92DF9270
:101F8000EF92FF92E6E0F3E01382128288EEC82E11
:101F900083E0D82EE12CF12CC482D582E682F78230
:101FA000108611861286138669E971E07183608359
:101FB00087EA93E09587848785EC90E0978786870A
:101FC00084EC90E0918B808B80EC90E0938B828B03
:101FD00081EC90E0958B848B86EC90E0978B868BE0
:101FE00044E0408F33E0318F27E0228F95E0938FDC
:101FF00081E0848FE9EEF2E013821282C482D582FE
:10200000E682F782108611861286138671836083BA
:1020100063E273E0758764876DEC70E077876687AD
:102020006CEC70E0718B608B68EC70E0738B628B92
:1020300069EC70E0758B648B6EEC70E0778B668B6F
:10204000408F318F228F938F848FFF90EF90DF909E
:10205000CF900895CF92DF92EF92FF920F931F934C
:10206000CF93DF9341155105F1F08C017B01EA011B
:10207000C12CD12CD7016D917D01D801ED91FC913E
:102080000190F081E02DC8010995C80ED91E219755
:1020900089F7C601DF91CF911F910F91FF90EF90CB
:1020A000DF90CF900895C12CD12CF3CFEF92FF9207
:1020B0000F931F93CF93DF93EB012196FB01649164
:1020C0006623D1F08C01E12CF12CD801ED91FC912B
:1020D0000190F081E02DC8010995E80EF91EFE017E
:1020E000649121966111F1CFC701DF91CF911F91CA
:1020F0000F91FF90EF900895E12CF12CF5CF4F92C6
:102100005F926F927F929F92AF92BF92CF92DF9237
:10211000EF92FF920F931F93CF93DF93CDB7DEB76C
:10212000A1970FB6F894DEBF0FBECDBF5C0141157D
:10213000510509F46CC0942E19A2B1E0B41708F04F
:102140006EC0442E512C612C712CC62ED12CE12C4A
:10215000F12C8E010F5D1F4F09C0805DF801808357
:1021600069017A01232B242B252B79F0C701B601B5
:10217000A30192016BD18C2D929E801911240150E4
:1021800011098A3050F3895CE9CFD501ED91FC91BA
:1021900022813381D8010D900020E9F71197AD011C
:1021A000401B510BB0E12A323B0709F040C04115FA
:1021B000510509F441C07A01C12CD12C03C0D501CD
:1021C000ED91FC91D8016D918D010190F081E02D90
:1021D000C5010995C80ED91EB1E0EB1AF10879F7CF
:1021E000C601A1960FB6F894DEBF0FBECDBFDF913A
:1021F000CF911F910F91FF90EF90DF90CF90BF9004
:10220000AF909F907F906F905F904F900895DC010A
:10221000ED91FC910190F081E02D0995E2CF8AE0EB
:10222000482E512C612C712C9AE0992E8ECFB8013A
:10223000C501F9010995D5CF80E090E0D2CFEF92AA
:10224000FF920F931F93CF93DF938C01EB012196A5
:10225000FB016491E12CF12C662379F0D801ED911A
:10226000FC910190F081E02DC8010995E80EF91E5E
:10227000FE01649121966111F1CFD801ED91FC919D
:102280000190F081E02D6DE0C8010995EC01D801C5
:10229000ED91FC910190F081E02D6AE0C801099573
:1022A000EC0EFD1E8E0D9F1DDF91CF911F910F91A2
:1022B000FF90EF9008954F925F926F927F929F925E
:1022C000AF92BF92CF92DF92EF92FF920F931F9344
:1022D000CF93DF93CDB7DEB7A1970FB6F894DEBFEB
:1022E0000FBECDBF5C014115510509F480C0942E8D
:1022F00019A2B1E0B41708F086C0442E512C612C0D
:10230000712CC62ED12CE12CF12C8E010F5D1F4FAC
:1023100009C0805DF801808369017A01232B242B99
:10232000252B79F0C701B601A30192018FD08C2D26
:10233000929E80191124015011098A3050F3895C52
:10234000E9CFD501ED91FC9122813381D8010D9027
:102350000020E9F71197AD01401B510BB0E12A3283
:102360003B0709F058C04115510509F45DC07A01D9
:10237000C12CD12CD8016D918D010190F081E02DFF
:10238000C5010995C80ED91EB1E0EB1AF108D501B7
:10239000ED91FC91E114F10469F70190F081E02DD9
:1023A0006DE0C50109958C01D501ED91FC9101907D
:1023B000F081E02D6AE0C5010995C00ED11E8C0D9B
:1023C0009D1DA1960FB6F894DEBF0FBECDBFDF9165
:1023D000CF911F910F91FF90EF90DF90CF90BF9022
:1023E000AF909F907F906F905F904F900895DC0129
:1023F000ED91FC910190F081E02D09956C01D501E2
:10240000ED91FC91CACF8AE0482E512C612C712CA1
:102410009AE0992E76CFB801C501F90109956C01B2
:10242000D501ED91FC91B9CFC12CD12CB6CF01C211
:1024300098C2FC0181E090E02081222311F080E02D
:1024400090E0089521E0FC0120830895A1E21A2E76
:10245000AA1BBB1BFD010DC0AA1FBB1FEE1FFF1F48
:10246000A217B307E407F50720F0A21BB30BE40B98
:10247000F50B661F771F881F991F1A9469F76095DF
:102480007095809590959B01AC01BD01CF01089599
:1024900012D0A59F900DB49F900DA49F800D911D0B
:1024A00011240895EE0FFF1F0024001C0BBE07909F
:1024B000F691E02D0994A29FB001B39FC001A39FA4
:1024C000700D811D1124911DB29F700D811D11246D
:1024D000911D08955058BB27AA270ED00DC1FED0DC
:1024E00030F003D120F031F49F3F11F41EF4F3C01B
:1024F0000EF4E095E7FBE9C0E92F0FD180F3BA179E
:10250000620773078407950718F071F49EF527C1D9
:102510000EF4E0950B2EBA2FA02D0B01B9019001FE
:102520000C01CA01A0011124FF27591B99F0593F42
:1025300050F4503E68F11A16F040A22F232F342F8A
:102540004427585FF3CF469537952795A795F040D8
:102550005395C9F77EF41F16BA0B620B730B840BED
:10256000BAF09150A1F0FF0FBB1F661F771F881FA5
:10257000C2F70EC0BA0F621F731F841F48F48795FD
:1025800077956795B795F7959E3F08F0B3CF9395EC
:10259000880F08F09927EE0F97958795089571D0C9
:1025A00008F481E0089504D06894B111D9C0089569
:1025B000BCD088F09F5790F0B92F9927B751A0F061
:1025C000D1F0660F771F881F991F1AF0BA95C9F7C7
:1025D00012C0B13081F0C3D0B1E00895C0C0672F00
:1025E000782F8827B85F39F0B93FCCF38695779577
:1025F0006795B395D9F73EF4909580957095619560
:102600007F4F8F4F9F4F0895E89409C097FB3EF48A
:1026100090958095709561957F4F8F4F9F4F99232F
:10262000A9F0F92F96E9BB279395F69587957795AD
:102630006795B795F111F8CFFAF4BB0F11F460FF6D
:102640001BC06F5F7F4F8F4F9F4F16C0882311F0C5
:1026500096E911C0772321F09EE8872F762F05C0D9
:10266000662371F096E8862F70E060E02AF09A9574
:10267000660F771F881FDAF7880F9695879597F969
:102680000895990F0008550FAA0BE0E8FEEF161603
:102690001706E807F907C0F012161306E407F50756
:1026A00098F0621B730B840B950B39F40A2661F0CA
:1026B000232B242B252B21F408950A2609F4A1406D
:1026C000A6958FEF811D811D089597F99F6780E87A
:1026D00070E060E008959FEF80EC089500240A9474
:1026E0001616170618060906089500240A941216ED
:1026F0001306140605060895092E0394000C11F420
:10270000882352F0BB0F40F4BF2B11F460FF04C0CC
:102710006F5F7F4F8F4F9F4F089557FD9058440F25
:10272000551F59F05F3F71F04795880F97FB991F30
:1027300061F09F3F79F087950895121613061406ED
:10274000551FF2CF4695F1DF08C01616170618067A
:10275000991FF1CF86957105610508940895E89455
:10276000BB2766277727CB0197F908950BD0C4CFF5
:10277000B5DF28F0BADF18F0952309F0A6CFABCF6C
:102780001124EECFCADFA0F3959FD1F3950F50E04F
:10279000551F629FF001729FBB27F00DB11D639F13
:1027A000AA27F00DB11DAA1F649F6627B00DA11DB9
:1027B000661F829F2227B00DA11D621F739FB00D5F
:1027C000A11D621F839FA00D611D221F749F3327CF
:1027D000A00D611D231F849F600D211D822F762F68
:1027E0006A2F11249F5750408AF0E1F088234AF065
:1027F000EE0FFF1FBB1F661F771F881F91505040B1
:10280000A9F79E3F510570F060CFAACF5F3FECF370
:10281000983EDCF3869577956795B795F795E7959C
:102820009F5FC1F7FE2B880F911D9695879597F9AD
:1028300008950F931F93CF93DF938230910510F487
:1028400082E090E0E0912D04F0912E0420E030E051
:10285000A0E0B0E0309719F14081518102811381ED
:1028600048175907C8F08417950769F4109731F095
:1028700012960C93129713961C9327C000932D0465
:1028800010932E0422C02115310519F04217530769
:1028900018F49A01BD01EF01DF01F801DBCF21152A
:1028A0003105F9F0281B390B2430310580F48A8179
:1028B0009B816115710521F0FB019383828304C024
:1028C00090932E0480932D04FE01329644C0FE01A5
:1028D000E20FF31F819391932250310939832883AA
:1028E0003AC020912B0430912C04232B41F42091E9
:1028F00002013091030130932C0420932B0420918A
:102900000001309101012115310541F42DB73EB789
:102910004091040150910501241B350BE0912B04DB
:10292000F0912C04E217F307A0F42E1B3F0B28179D
:10293000390778F0AC014E5F5F4F2417350748F038
:102940004E0F5F1F50932C0440932B04819391935F
:1029500002C0E0E0F0E0CF01DF91CF911F910F9135
:102960000895CF93DF93009709F481C0FC0132975B
:1029700013821282A0912D04B0912E04109781F43D
:1029800020813181820F931F20912B0430912C04E0
:102990002817390751F5F0932C04E0932B0467C0F6
:1029A000ED0120E030E0CE17DF0740F44A815B8183
:1029B0009E0141155105F1F0EA01F5CFD383C283A1
:1029C00040815181840F951FC817D90759F4888118
:1029D0009981840F951F0296918380838A819B81C0
:1029E000938382832115310529F4F0932E04E0931B
:1029F0002D043DC0E901FB83EA8349915991C40F3D
:102A0000D51FEC17FD0761F480819181840F951F1C
:102A10000296E90199838883828193819B838A83CB
:102A2000E0E0F0E012968D919C911397009719F0D9
:102A3000FD01DC01F7CF8D919C9111979D012E5FD7
:102A40003F4F820F931F20912B0430912C042817A5
:102A5000390769F4309729F410922E0410922D044E
:102A600002C013821282B0932C04A0932B04DF9136
:102A7000CF910895283008F027E03327DA01990F25
:102A8000311D87FD916000966105710539F4326052
:102A90002E5F3D9330E32A95E1F708959F3F30F094
:102AA00080387105610509F03C5F3C5F3D939130D2
:102AB00008F08068911DDF93CF931F930F93FF92CF
:102AC000EF92192F987F9695E92F96959695E90F95
:102AD000FF27EA50FF4F99273327EE24FF24A70151
:102AE000E70105900894079428F4360FE71EF81EB6
:102AF000491F511D660F771F881F991F0694A1F764
:102B00000590079428F4E70EF81E491F561FC11DB3
:102B1000770F881F991F661F0694A1F705900794E9
:102B200028F4F80E491F561FC71FD11D880F991F83
:102B3000661F771F0694A1F70590079420F4490FAC
:102B4000561FC71FD81F990F661F771F881F06942F
:102B5000A9F784911095177041F0D695C7955795B0
:102B60004795F794E7941A95C1F7ECE9F0E068947B
:102B70001590159135916591959105907FE273952A
:102B8000E118F10A430B560BC90BD009C0F7E10C51
:102B9000F11E431F561FC91FD01D7EF4703311F460
:102BA0008A95E6CFE894015030F0080F0AF4002728
:102BB000021708F4202F2395022F7A3328F079E3A7
:102BC0007D932A95E9F710C07D932A9589F606949E
:102BD00097956795379517951794E118F10A430B68
:102BE000560BC90BD00998F023957E9173957A33D3
:102BF00008F070E37C932013B8F77E9170617D93A9
:102C000030F0839571E37D9370E32A95E1F7112409
:102C1000EF90FF900F911F91CF91DF91992787FD42
:102C200090950895FC010590615070400110D8F70F
:102C3000809590958E0F9F1F0895FC016150704004
:102C400001900110D8F7809590958E0F9F1F0895E1
:102C50000F931F93CF93DF93FB01238121FD03C0CB
:102C60008FEF9FEF2CC022FF16C046815781248131
:102C700035814217530744F4A081B1819D012F5F34
:102C80003F4F318320838C93268137812F5F3F4FC5
:102C90003783268314C08B01EC01FB010084F1858E
:102CA000E02D0995892BE1F6D80116968D919C911E
:102CB0001797019617969C938E931697CE01DF91E6
:102CC000CF911F910F910895FA01AA27283051F151
:102CD000203181F1E8946F936E7F6E5F7F4F8F4F4D
:102CE0009F4FAF4FB1E03ED0B4E03CD0670F781FAC
:102CF000891F9A1FA11D680F791F8A1F911DA11D91
:102D00006A0F711D811D911DA11D20D009F46894C9
:102D10003F912AE0269F11243019305D3193DEF671
:102D2000CF010895462F4770405D4193B3E00FD027
:102D3000C9F7F6CF462F4F70405D4A3318F0495D12
:102D400031FD4052419302D0A9F7EACFB4E0A695F5
:102D50009795879577956795BA95C9F70097610517
:102D6000710508959B01AC010A2E0694579547956D
:102D700037952795BA95C9F7620F731F841F951F62
:0C2D8000A01D08950E946B01F894FFCF85
:102D8C0000002F042000000000009F05A005A205F4
:102D9C000000000057095C095609580900000000A2
:102DAC00D60AE00AD70AC0000000000001000000AB
:102DBC00000000950B0000000001950B00000000C6
:102DCC000000000000000000000002F00000000005
:102DDC000004000000000003950B0000000004A993
:102DEC000B0000000005C60B0000000006E20B04FF
:102DFC00F1000000000004000000000007E20B00DE
:102E0C0000000000000000000000000000000000B6
:102E1C00000000000100000000400E2A10EF0D071A
:0A2E2C000EEC0D320EEB0D5D0E00F2
:00000001FF
