:10000000EBC0000013C1000011C100000FC10000CF
:100010000DC100000BC1000009C1000007C10000B4
:1000200005C100000C94E50D01C10000FFC00000F7
:100030000C94AB0DFBC00000F9C00000F7C000003D
:10004000F5C00000F3C00000B6C50000EFC000001E
:10005000EDC000000C94350FE9C00000E7C00000BF
:10006000E5C000000C940A0EE1C00000DFC00000F3
:10007000DDC00000DBC00000D9C00000D7C0000018
:100080000C94750FD3C00000D1C00000CFC0000099
:10009000CDC000006E616E00696E660000407A108F
:1000A000F35A00A0724E18090010A5D4E80000E829
:1000B0007648170000E40B54020000CA9A3B000087
:1000C00000E1F505000080969800000040420F0016
:1000D0000000A08601000000102700000000E803D7
:1000E000000000006400000000000A0000000000A2
:1000F0000100000000002C76D888DC674F0823DF61
:10010000C1DFAE59E1B1B796E5E3E453C63AE65133
:10011000997696E8E6C28426EB898C9B62ED407C5A
:100120006FFCEFBC9C9F40F2BAA56FA5F490055AF6
:100130002AF75C936B6CF9676DC11BFCE0E40D471B
:10014000FEF520E6B500D0ED902E0300943577053E
:100150000080841E080000204E0A000000C80C33F6
:100160003333330F986E12831141EF8D2114893B85
:10017000E65516CFFEE6DB18D1844B381BF77C1D05
:10018000901DA4BBE424203284725E228100C9F158
:1001900024ECA1E53D27436F6D6D616E645F54658E
:1001A000737400747843414E4D204552524F5200B3
:1001B000747843414E4D2053656E64696E672E2EF0
:1001C0002E00494E545F43616C6C5F53656E7446FC
:1001D00072616D650000951011241FBECFEFD0E154
:1001E000DEBFCDBF11E0A0E0B1E0EAE0FCE200E05C
:1001F0000BBF02C007900D92A438B107D9F724E0D5
:10020000A4E8B1E001C01D92A730B207E1F710E009
:10021000CCEED0E004C02197FE010E949111CB3EAC
:10022000D107C9F70E94320E0C940116E9CEA091B5
:100230008401B0918501109769F0ED91FC911197BF
:1002400012968D919C9113979093850180938401D0
:100250000995EDCF0895CF93DF93EC0184E090E012
:100260000E945813009781F0FC01D183C083209134
:10027000840130918501338322839093850180939B
:10028000840180E090E002C081E090E0DF91CF91B6
:1002900008952F923F924F925F926F927F928F922A
:1002A0009F92AF92BF92CF92DF92EF92FF920F9305
:1002B0001F93CF93DF93CDB7DEB760970FB6F89457
:1002C000DEBF0FBECDBF7C011B016A01FC0117829E
:1002D0001682838181FF44C39E012F5F3F4F390106
:1002E000F7019381F10193FD859193FF81911F01A6
:1002F000882309F431C3853239F493FD859193FF46
:1003000081911F01853239F4B70190E00E94671591
:1003100056016501E5CF10E0512C912CFFE1F91554
:10032000D8F08B3279F038F4803279F08332A1F44E
:10033000F92DF0612EC08D3261F0803369F4292DE2
:1003400021602DC0392D3260932E892D8460982E26
:100350002AC0E92DE86015C097FC2DC020ED280FBC
:100360002A3088F496FE06C03AE0139F200D11242F
:10037000122F19C08AE0589E200D1124522EE92D0B
:10038000E0629E2E10C08E3231F496FCE5C2F92D4B
:10039000F0649F2E08C08C3621F4292D2068922EFF
:1003A00002C0883641F4F10193FD859193FF81915C
:1003B0001F018111B3CF9BEB980F933020F4992D3F
:1003C0009061805E07C09BE9980F933008F066C18A
:1003D000992D9F7E96FF16E09F73992E853619F40E
:1003E0009064992E08C0863621F4392F3068932EF8
:1003F00002C01111115097FE07C01C3350F4442461
:100400004394410E27E00BC0183038F027E017E086
:1004100005C027E09CE3492E02C0212F412C560144
:1004200084E0A80EB11CF601608171818281938104
:10043000042DA3010E9479146C01F981FC87F0FF5F
:1004400002C0F3FF06C091FC06C092FE06C000E2A7
:1004500005C00DE203C00BE201C000E08C858C708A
:1004600019F001115AC29BC297FE10C04C0CFC85BA
:10047000F4FF04C08A81813309F44A94141474F59A
:1004800028E0241578F588E0482E2CC096FC2AC078
:10049000812F90E08C159D059CF03CEFC3163FEF3B
:1004A000D30674F0892D8068982E0AC0E2E0F0E04F
:1004B000EC0FFD1FE10FF11D8081803319F4115005
:1004C0001111F4CF97FE0EC044244394410E812FA6
:1004D00090E0C816D9062CF41C1904C04424439497
:1004E00001C010E097FE06C01C141D0434F4C601C0
:1004F000019605C085E090E002C081E090E0011126
:100500000196112331F0212F30E02F5F3F4F820FF2
:10051000931F252D30E08217930714F4581A01C059
:10052000512C892D897049F4552039F0B70180E2AA
:1005300090E00E9467155A94F7CF002329F0B70185
:10054000802F90E00E94671593FC09C0552039F078
:10055000B70180E390E00E9467155A94F7CF97FEA9
:100560004CC04601D7FE02C0812C912CC6018819CF
:100570009909F301E80FF91FFE87ED879601241909
:100580003109388B2F87012F10E011950195110942
:100590003FEF8316930629F4B7018EE290E00E94A4
:1005A0006715C814D9044CF08F859889881599056A
:1005B00024F4ED85FE85818101C080E3F1E08F1A8E
:1005C00091082D853E852F5F3F4F3E872D878016F2
:1005D00091062CF0B70190E00E946715D9CFC8149E
:1005E000D90441F49A81963320F4953319F43C856B
:1005F00034FF81E3B70190E04EC08A81813319F066
:100600009C859F7E9C87B70190E00E946715111121
:1006100005C094FC18C085E690E017C0B7018EE2D3
:1006200090E00E9467151E5F82E001E0080FF30171
:10063000E80FF11D8081B70190E00E946715802FBF
:100640000113F3CFE6CF85E490E0B7010E94671570
:10065000D7FC06C0C114D10441F4EC85E4FF05C009
:10066000D194C194D1088DE201C08BE2B70190E032
:100670000E94671580E32AE0C216D1042CF08F5F38
:10068000FAE0CF1AD108F7CFB70190E00E946715C2
:10069000B701C601C0960E94671554C1833631F078
:1006A000833779F0833509F056C020C0560132E017
:1006B000A30EB11CF6018081898301E010E0630183
:1006C00012C05601F2E0AF0EB11CF601C080D1801D
:1006D00096FE03C0612F70E002C06FEF7FEFC6018E
:1006E0000E945C158C01F92DFF7714C0560122E0A1
:1006F000A20EB11CF601C080D18096FE03C0612F0E
:1007000070E002C06FEF7FEFC6010E9451158C01AF
:10071000F92DF0689F2EF3FD1AC0852D90E0081783
:100720001907A8F4B70180E290E00E9467155A9477
:10073000F4CFF60197FC859197FE81916F01B70187
:1007400090E00E94671551105A940150110901154B
:10075000110579F7F7C0843611F0893661F5560135
:1007600097FE09C024E0A20EB11CF60160817181E0
:10077000828193810AC0F2E0AF0EB11CF601608164
:100780007181072E000C880B990BF92DFF769F2E97
:1007900097FF09C090958095709561957F4F8F4F19
:1007A0009F4FF0689F2E2AE030E0A3010E94A3151E
:1007B000C82EC6183FC0092D853721F40F7E2AE0C8
:1007C00030E01DC0097F8F3691F018F4883559F05C
:1007D000C3C0803719F0883711F0BEC0006104FF34
:1007E00009C0046007C094FE08C0066006C028E087
:1007F00030E005C020E130E002C020E132E05601E7
:1008000007FF09C084E0A80EB11CF6016081718168
:100810008281938108C0F2E0AF0EB11CF6016081C5
:10082000718180E090E0A3010E94A315C82EC61834
:100830000F77902E96FE0BC0092D0E7FC11650F437
:1008400094FE0AC092FC08C0092D0E7E05C0DC2C67
:10085000092D03C0DC2C01C0D12E04FF0DC0FE0108
:10086000EC0DF11D8081803311F4097E09C002FF77
:1008700006C0D394D39404C0802F867809F0D39413
:1008800003FD11C000FF06C01C2DD51480F4150D0A
:100890001D190DC0D51458F4B70180E290E00E94F4
:1008A0006715D394F7CFD51410F45D1801C0512CFF
:1008B00004FF10C0B70180E390E00E94671502FFBB
:1008C00017C001FD03C088E790E002C088E590E012
:1008D000B7010CC0802F867859F001FF02C08BE26F
:1008E00001C080E207FD8DE2B70190E00E9467152C
:1008F000C11638F4B70180E390E00E9467151150EB
:10090000F7CFCA94F301EC0DF11D8081B70190E09F
:100910000E946715C110F5CF15C0F4E0F51560F51C
:1009200084E0581A93FE1FC0011127C02C8523FFB5
:100930002AC004E910E0392D3071932EF80184911A
:10094000811124C0552009F4E4CCB70180E290E085
:100950000E9467155A94F6CFF7018681978126C0C9
:100960008FEF9FEF23C0B70180E290E00E946715F0
:100970005A945110F8CFD8CF512CB701802F90E066
:100980000E946715D3CF08E910E0D5CF91108052AF
:10099000B70190E00E9467150F5F1F4FCFCF23E094
:1009A000251510F483E0BDCF512CC0CF60960FB653
:1009B000F894DEBF0FBECDBFDF91CF911F910F9195
:1009C000FF90EF90DF90CF90BF90AF909F908F906F
:1009D0007F906F905F904F903F902F9008958091FF
:1009E000900190919101009739F0DC01ED91FC911B
:1009F0000280F381E02D09940895FC01848595859A
:100A0000892B09F00895A285B38512968C911297CF
:100A10006813F8CFB587A487DA018D919C919787E9
:100A200086870895CF93DF93EC018C859D85009791
:100A300071F0DC01ED91FC910480F581E02DBE01A7
:100A4000625F7F4F09951D861C861F861E868981E1
:100A5000882329F019828C859D85892B19F0DF91D7
:100A6000CF9108951982FBCF8EED92E00C942D1159
:100A70000F931F93CF93DF93EC0183E090E00E94EC
:100A800056118C0138D01B870A871D861C861F864D
:100A90001E8682E38883198240E855E260E070E0B8
:100AA0008EED92E0DF91CF911F910F910C94B50FD5
:100AB00080919601882319F086E891E0089586E9EF
:100AC00091E00E945811892BB9F386E891E0D0DFBC
:100AD00086E991E00E9461118FEE94E0BCDB86E82C
:100AE00091E0089508950C945711E2DF66E971E0F2
:100AF000BBDF80E008952AE031E0FC0131832083F0
:100B0000128208950895EAE7F0E087E0808380E4A8
:100B100080937C00808188688083089520919F0164
:100B20003091A001232B11F080E008959093A00153
:100B300080939F0160939E016F70606460937C005E
:100B400080917A00806480937A0081E00895CF9349
:100B5000DF9300D0CDB7DEB780919F019091A001C7
:100B6000892B11F1F8948091780090E09A83898321
:100B700020917900922B9A838983789480919F01A8
:100B80009091A001DC01ED91FC910480F581E02DB4
:100B900040919E01BE016F5F7F4F09951092A001A9
:100BA00010929F0110929E010F900F90DF91CF91B4
:100BB0000895089508951F920F920FB60F92112471
:100BC0000BB60F928F929F92AF92BF92CF92DF920D
:100BD000EF92FF920F931F932F933F934F935F9347
:100BE0006F937F938F939F93AF93BF93CF93DF9335
:100BF000EF93FF938FEF80B98091A101882309F4CF
:100C000015C29090ED00EE24E394F12C9091E00059
:100C10008091E100892B09F440C18091E00080FDC2
:100C200018C08091E00081FD59C18091E00082FDF3
:100C300073C18091E00083FD91C18091E00084FD4B
:100C4000ABC18091E00085FFB1C1F0E58F2EC5E01A
:100C500002C0812CC0E08092ED009091EE00892FBF
:100C6000807EA1F2D0E08E01000F111FF801E75540
:100C7000FE4FA081B18196FD35C195FFC7CF609130
:100C8000EF006F7061F020E030E08091FA00FD012C
:100C9000E20FF31F84832F5F3F4F2617B0F35E01EF
:100CA000AA0CBB1CAA0CBB1CAA0CBB1CC5018C1B30
:100CB0009D0BFC01EA52FE4F6F011396FC93EE93DD
:100CC0001297ED91FC9111970480F581E02D25E0BC
:100CD000E93DF20709F05DC19091ED008092ED00D1
:100CE0008091EF008F738093EF00EEEEF0E01192B1
:100CF000E83FF105E1F7F501EC1BFD0BE755FE4F71
:100D000082A9F601882309F411C18381282F220FBB
:100D1000220F220F8281829586958770820F8093A1
:100D2000F3008281282F220F220F220F81818295CA
:100D300086958770820F8093F2008181282F220F81
:100D4000220F220F8081829586958770820F809373
:100D5000F1008081880F880F880F8093F0008091C8
:100D6000EF0080618093EF00F501EC1BFD0BE75570
:100D7000FE4F81A9882309F4D3C08091F0008460DC
:100D80008093F0002091EF00F501EC1BFD0BE7557F
:100D9000FE4F83A9822B8093EF00FE01E755FE4FA3
:100DA000868D813009F45EC008F4DCC0823009F021
:100DB0006BC0F801EC0FFD1FEE0FFF1FEC5BFD4F4A
:100DC00080818111EDC08091F4008E7F8093F400CA
:100DD000F801EC0FFD1FEE0FFF1FED5BFD4F808153
:100DE000882309F41DC18091F40084608093F4008D
:100DF000F501EC1BFD0BE755FE4F82A9F801EC0F46
:100E0000FD1FEE0FFF1FE15CFD4F882309F4F6C0C4
:100E10008381282F220F220F220F828182958695AF
:100E20008770820F8093F7008281282F220F220F74
:100E3000220F8181829586958770820F8093F600BC
:100E40008181282F220F220F220F80818295869583
:100E50008770820F8093F5008081880F880F880F3C
:100E60008093F4008091DE00970102C0220F331FAF
:100E7000CA95E2F7822B8093DE008091DF00832BFE
:100E80008093DF009093ED001092EE009091E000CF
:100E90008091E100892B09F0C0CE9092ED00FF9186
:100EA000EF91DF91CF91BF91AF919F918F917F9102
:100EB0006F915F914F913F912F911F910F91FF90F3
:100EC000EF90DF90CF90BF90AF909F908F900F905A
:100ED0000BBE0F900FBE0F901F901895D0E18D2E76
:100EE000C1E0B9CEED91FC9111970680F781E02D1C
:100EF00025E0EA3DF20741F2BE01660F771F660F5B
:100F0000771F660F771F6C1B7D0B6A527E4FCD01DA
:100F100009951092EE00BACFC0E28C2EC2E09BCEB3
:100F20008091F0008B7F8093F0002CCF2181808115
:100F3000869586958695F0E22F9F800D11248093EB
:100F4000F300F60180818295880F807E8093F20005
:100F50008091EF008F7E8093EF0006CFB0E38B2E61
:100F6000C3E079CE8091DE00970102C0220F331FCB
:100F7000CA95E2F7922F909589238093DE008091A5
:100F8000DF00932F909589238093DF001092EE006D
:100F90007DCFCD010995A0CEA0E48A2EC4E05BCE22
:100FA0008091F40081608093F40012CF8091E00082
:100FB00086FD48C08091E00087FD50C08091E1002F
:100FC00080FD44C08091E10081FD44C08091E1003A
:100FD00082FD48C08091E10083FD48C08091E1001E
:100FE00084FD4CC08091E10085FD44C08091E1000A
:100FF00086FF53CF10EE812ECEE02DCE2181808151
:1010000086958695869530E2239F800D11248093E6
:10101000F70080818295880F807E8093F60022CF32
:101020008091F4008B7F8093F400E2CE81EA91E01E
:101030000E945811892B09F4E4CD81EA91E00E94C5
:101040006111DFCDE0E68E2EC6E005CE60E8862E8B
:10105000C8E001CE50E9852EC9E0FDCD70E7872EAE
:10106000C7E0F9CD40EA842ECAE0F5CD30EB832EFF
:10107000CBE0F1CD90ED892ECDE0EDCD20EC822EB0
:10108000CCE0E9CDFC0190E021913191232B29F0B6
:101090009F5F9F30C9F78FE00895892F089581E001
:1010A0008093D8001092DE001092DF0080EB8093D6
:1010B000DB001092EC00613081F130F1623011F10F
:1010C000633049F48EE08093E2008CE08093E3008B
:1010D00087E38093E4001092E50080E0982F9295DA
:1010E000907F9093ED00EEEEF0E01192E83FF10575
:1010F000E1F78F5F8F3091F78091D8008260809305
:10110000D800089586E0DFCF1092E2008CE0809353
:10111000E30086E38093E400DECF82E0D4CF4F305B
:1011200080F450E0440F551FFC01E40FF51F80814F
:101130009181892B11F0222321F07183608381E05A
:10114000089580E00895242F30E0FC01E20FF31FA2
:10115000568D513011F080E008954F30E0F7D901FD
:10116000AA0FBB1FAA0FBB1FAA0FBB1FA21BB30B4B
:10117000A80FB91FD3968C91D397882361F090E084
:10118000D396FB01E90FF11D20812093FA009F5FA8
:101190002C919217B0F38091EF008F738093EF0042
:1011A0008091EF0080648093EF0081E00895EF92DA
:1011B000FF920F931F93CF93DF93242F30E08C0186
:1011C000020F131FF801568D511117C17901EE0C52
:1011D000FF1CFC01EE0DFF1D0190F081E02DEF2BB7
:1011E00009F40BC151E0F801568FE901CC0FDD1F66
:1011F000CC0FDD1FCC0FDD1FDE01A21BB30BA80F30
:10120000B91F9D9657E0FB0101900D925A95E1F7A9
:101210005091ED00642F6295607F6093ED006091C6
:10122000EF006F736093EF00EEEEF0E01192E83F95
:10123000F105E1F7DE01A21BB30BFC01EA0FFB1F76
:1012400062A99D96A80FB91F662309F4DEC0139604
:101250006C911397762F770F770F770F12966C910B
:101260001297629566956770670F6093F300129608
:101270006C911297762F770F770F770F11966C91ED
:101280001197629566956770670F6093F2001196EB
:101290006C911197762F770F770F770F6C9162957E
:1012A00066956770670F6093F1006C91660F660F2B
:1012B000660F6093F0006091EF0060616093EF0053
:1012C000FE01E21BF30BE80FF91F61A9662309F485
:1012D000BCC06091F00064606093F0007091EF001A
:1012E000FE01E21BF30BE80FF91F63A9672B609364
:1012F000EF00F801668D613009F464C008F4B3C0F2
:10130000623009F0A8C0F701E20FF31FEE0FFF1FD4
:10131000E80FF91FE556FF4F6081662309F4D6C038
:101320006091F40061606093F400F701E20FF31F35
:10133000EE0FFF1FE80FF91FE656FF4F608166238F
:1013400009F4BEC06091F40064606093F400C21BB5
:10135000D30BC80FD91F6AA9F701E20FF31FEE0FD5
:10136000FF1FEA56FF4FE80FF91F662309F496C0E6
:101370008381982F990F990F990F82818295869575
:101380008770890F8093F7008281982F990F990FAA
:10139000990F8181829586958770890F8093F600D9
:1013A0008181982F990F990F990F80818295869549
:1013B0008770890F8093F5008081880F880F880FD0
:1013C0008093F4002091DE0081E090E002C0880F5D
:1013D000991F4A95E2F7822B8093DE008091DF000F
:1013E000892B8093DF005093ED0081E0DF91CF9156
:1013F0001F910F91FF90EF90089580E0DF91CF91C2
:101400001F910F91FF90EF90089511967C91119785
:101410006C91669566956695F0E27F9F600D11244C
:101420006093F3006C916295660F607E6093F200AA
:101430006091EF006F7E6093EF00FE01E21BF30B03
:10144000E80FF91F61A9611144CF6091F0006B7F33
:101450006093F00043CF81E0DF91CF911F910F9116
:10146000FF90EF9008952091DE0081E090E002C0AF
:10147000880F991F4A95E2F7809582238093DE00BA
:101480008091DF00909589238093DF0081E0DF91D8
:10149000CF911F910F91FF90EF90089591818081DE
:1014A00086958695869520E2929F800D11248093E3
:1014B000F70080818295880F807E8093F60082CF2E
:1014C0006091F4006B7F6093F40041CF6091F40071
:1014D0006E7F6093F40029CF262F2295207F2093E2
:1014E000ED002091D80020682093D8002091D800EA
:1014F0002F772093D800EEEEF0E01192E83FF1054F
:10150000E1F7FC01E60FF11D168E08950895CFC690
:10151000CF93DF93EC01CCDA62EC71E0A5DA81E0E5
:101520008E8BDF91CF910895CF93DF93EC011B82D7
:101530001A8284E191E0998388837D876C87FA0120
:1015400080819181A281B3818E879F87A88BB98B7F
:101550002A8BFE01B39688E0DF011D928A95E9F798
:101560007D8B6C8B1BA68091A101882399F089EA61
:1015700091E088DD8A8F20E0482FBE0189EA91E062
:10158000CEDD1CA681E08E8B188E1F8A198EDF910E
:10159000CF91089581EA91E08BD6892B41F381EABE
:1015A00091E08FD6E4CF453060F4242F30E0220F55
:1015B000331FFC01E20FF31F03A0F4A1E02DEF2B7A
:1015C00011F080E00895FC0153A5451710F04F5F1E
:1015D00043A7FC01E20FF31F74A363A3FC0114A64D
:1015E00081E00895FC01848995890197958B848B0E
:1015F00084899589892B31F481E0838B8485958555
:10160000958B848B0895AF92BF92DF92EF92FF92F9
:101610000F931F93CF93DF93CDB7DEB727970FB606
:10162000F894DEBF0FBECDBF8C01FC0184A58823DA
:1016300009F444C0F8018389882359F123A5F12CCA
:10164000F21690F4EF2DF0E0EE0FFF1FE00FF11F08
:1016500083A194A1009781F1FDD0882351F1F394E7
:10166000F80123A5F21670F3F8018689811157C09D
:1016700080919902811109C081E080939902F8015B
:101680008789908D0196908F878B12DA63EA71E0DB
:10169000EBD927960FB6F894DEBF0FBECDBFDF9112
:1016A000CF911F910F91FF90EF90DF90BF90AF907F
:1016B0000895F80123A5C4CFF394C2CF8091A1016E
:1016C000882321F1CE0101967C0187E0F701119278
:1016D0008A95E9F7F80186859785A089B18989837C
:1016E0009A83AB83BC8383A5880F8F83628D89EA3D
:1016F00091E0F2DEF801428DB70189EA91E057DD11
:10170000882339F281E0F80184A7C3CF81EA91E010
:10171000CFD5892BB9F281EA91E0D3D5D3CF1092FE
:101720009902C6D960EB71E09FD9F801168A138A35
:10173000818D8F5F818F2789308D2115310511F0C3
:101740008F3FA1F15801FBE1AF0EB11C88E0F5011C
:1017500011928A95E9F7F80123A52223D9F0D12C1B
:10176000ED2CF12CEE0CFF1CF801EE0DFF1D83A1FA
:1017700094A1009761F078D099838A83F501EE0DEA
:10178000FF1D89819A8191838083F80123A5D394D9
:10179000D21630F3F801128D8091A101882359F0FF
:1017A000412FB50189EA91E0CEDC73CF2150310998
:1017B000308F278BC7CF81EA91E07AD5892B81F3CF
:1017C00081EA91E07ED5ECCFFB0120813181FC01E3
:1017D0003087278321E02187089520E231E0FC0152
:1017E000318320838FC9CF93DF93EC0180E291E0B6
:1017F00099838883CE0186D9CE01DF91CF9157C5D9
:10180000FC01DB0180E291E0918380838D919C91CA
:1018100011979383828312968D919C911397958350
:10182000848314968C911497868381E04D915C910A
:10183000119712962D913C911397421753070CF074
:1018400080E0828715968D919C9116979487838767
:1018500011860895CF93DF93EC016E815FD98111DA
:101860001986DF91CF910895CF92DF92EF92FF9288
:101870000F931F93CF93DF9300D000D0CDB7DEB787
:101880008C01F894DC0117966D917C91189780E09B
:1018900090E0F9D52AE038E240EA5BE3A6D6698316
:1018A0007A838B839C837894C980DA80EB80FC8078
:1018B00022E430E645E65CEBC701B60196D62CE49F
:1018C00037E349E85DE346D59B01AC01C701B601AA
:1018D00040D56B017C0120E030E0A9019FD587FD58
:1018E00019C0C982DA82EB82FC82D8011B96ED9185
:1018F000FC911C97CE01019609950F900F900F90C7
:101900000F90DF91CF911F910F91FF90EF90DF909B
:10191000CF90089519821A821B821C82E6CF2FE68F
:1019200032E143E852E4FC0160817181828193815C
:101930005CD620E030E048EC52E457D673D5CB01BA
:1019400008954F925F926F927F928F929F92AF9283
:10195000BF92CF92DF92EF92FF920F931F93CF939C
:10196000DF93CDB7DEB7A5970FB6F894DEBF0FBEF5
:10197000CDBF6C0196E2892E91E0992E560180E14F
:10198000A80EB11C3601E4E16E0E711C412C85E2FB
:10199000F401DE01119601900D928A95E1F78DE236
:1019A00090E084D47C016F8178852D81AE014F5FFA
:1019B0005F4FBADDF501E192F1925F018DA18823BD
:1019C00011F1512C8DE090E071D48C0161E070E058
:1019D0006C0F7D1FF7E05F9E600D711D1124685F25
:1019E0007F4F0EDFE42DF0E0EE0FFF1FEC0DFD1D2D
:1019F000118300834394452DB801C701D4DD53946E
:101A00008DA15816F8F285E2880E911CA614B70431
:101A100009F0BDCFA5960FB6F894DEBF0FBECDBFBF
:101A2000DF91CF911F910F91FF90EF90DF90CF90BA
:101A3000BF90AF909F908F907F906F905F904F90EE
:101A400008958091AE02882319F08AE992E0089502
:101A50008EEA92E02DD4892BC1F38AE992E071DFFE
:101A60008EEA92E02ED48AE992E00895CF93DF9334
:101A7000EC0188899989C7DD8A899B89DF91CF919B
:101A8000C2CDCF93DF93EC0188899989ABDD8A8938
:101A90009B89DF91CF91A6CDCF92DF92EF92FF92FB
:101AA000CF93F894B99B16C08091B6029091B7027B
:101AB000A091B802B091B9020196A11DB11D809309
:101AC000B6029093B702A093B802B093B90287B35D
:101AD0008D6F87BBC091B2008091B6029091B70222
:101AE000A091B802B091B9027894880F991FAA1FEB
:101AF000BB1F880F991FAA1FBB1F880F991FAA1F02
:101B0000BB1F880F991FAA1FBB1F880F991FAA1FF1
:101B1000BB1F880F991FAA1FBB1FBC01CD01660FF9
:101B2000771F881F991FAFD46B017C016C2F70E069
:101B300080E090E0AAD420E030E040E05FE355D5BB
:101B40009B01AC01C701B60105D4CF91FF90EF9086
:101B5000DF90CF9008951F920F920FB60F9211242D
:101B60000BB60F922F933F934F935F936F937F9397
:101B70008F939F93AF93BF93CF93EF93FF93C1E066
:101B8000C093C0025EDF7DDF0E945805FC018081AA
:101B9000811117C082E38083C183FF91EF91CF91C0
:101BA000BF91AF919F918F917F916F915F914F9175
:101BB0003F912F910F900BBE0F900FBE0F901F9073
:101BC0001895808181508083E8CF1F920F920FB6C5
:101BD0000F9211248F939F93AF93BF938091B6027E
:101BE0009091B702A091B802B091B9020196A11DDF
:101BF000B11D8093B6029093B702A093B802B09340
:101C0000B902BF91AF919F918F910F900FBE0F902E
:101C10001F9018951F920F920FB60F9211240BB6BA
:101C20000F922F933F934F935F936F937F938F9375
:101C30009F93AF93BF93EF93FF930E94A705FF91EC
:101C4000EF91BF91AF919F918F917F916F915F9134
:101C50004F913F912F910F900BBE0F900FBE0F90A1
:101C60001F901895CF93DF9300D0CDB7DEB7F894CF
:101C70000E9458057C01809181008A6080938100D8
:101C800010928500109284008FEC97E09093890069
:101C90008093880080916F00826080936F008091B4
:101CA000B0008A608093B0001092B2008FEF8093F2
:101CB000B300809170008260809370000E94830561
:101CC0008091A101882309F453C060E089EA91E082
:101CD000E6D9B7DE8C0178941A8219820E945805E1
:101CE000AE014F5F5F4F60E00E94FD04D5DE4B0107
:101CF0005C01C801BBDEC7010E941205CDDEA50153
:101D0000940127D39B01AC0125D391D38090BC02D1
:101D10009090BD02A090BE02B090BF02D501C40158
:101D2000860F971FA11DB11D8093BC029093BD0229
:101D3000A093BE02B093BF028091BA029091BB0201
:101D400001969093BB028093BA028091C0028823CF
:101D500069F21092C0021092BC021092BD02109261
:101D6000BE021092BF021092BB021092BA02BECF06
:101D700081EA91E09DD2892B09F4A7CF81EA91E015
:101D8000A0D2A3CF089580E090E00895FC012485BF
:101D90003585F901E058FF4F8081918180589F4F30
:101DA000329620813181821B930B8F77907897FF39
:101DB0000895019780689F6F01960895FC018485BE
:101DC0009585FC01EE57FF4F20813181DC01A05841
:101DD000BF4F4D915C9142175307C1F0DC01A20F38
:101DE000B31F8C912F5F3F4F2F77307837FD04C0A2
:101DF0003183208390E008952150310920683F6F9E
:101E00002F5F3F4F3183208390E008958FEF9FEF46
:101E10000895FC0184859585FC01E058FF4FDC01A5
:101E2000AE57BF4F8D919C91918380830895DC01C3
:101E30005296ED91FC91539741E050E05B960C90E7
:101E40005B9702C0440F551F0A94E2F7208130E0EF
:101E500024233523232BD1F35696ED91FC915797EC
:101E6000608381E090E0089522C21F920F920FB626
:101E70000F9211240BB60F922F933F934F935F93C2
:101E80006F938F939F93EF93FF936091C600209180
:101E9000FF0330910004C90101968F77907897FD78
:101EA0001FC040910104509102048417950741F02E
:101EB000F901E158FC4F6083909300048093FF0385
:101EC000FF91EF919F918F916F915F914F913F9112
:101ED0002F910F900BBE0F900FBE0F901F90189573
:101EE000019780689F6F0196DCCF1F920F920FB60B
:101EF0000F9211240BB60F922F933F934F935F9342
:101F00006F938F939F93EF93FF936091CE002091F7
:101F10007B0330917C03C90101968F77907897FD00
:101F20001FC040917D0350917E038417950741F0B7
:101F3000F901E550FD4F608390937C0380937B0310
:101F4000FF91EF919F918F916F915F914F913F9191
:101F50002F910F900BBE0F900FBE0F901F901895F2
:101F6000019780689F6F0196DCCF8F929F92AF920E
:101F7000BF92CF92DF92EF92FF921F93CF93DF93A6
:101F8000EC016A017B01413452446F40710508F451
:101F900055C0EA89FB8981E090E00C8C02C0880F73
:101FA000991F0A94E2F7808360E079E08DE390E086
:101FB000A70196018AD1DA01C9010197A109B109E6
:101FC000AC01BD017695679557954795CA01EE8599
:101FD000FF859083E889F9898083EC89FD894081B8
:101FE00081E090E09C01088C02C0220F331F0A940C
:101FF000E2F7242B2083EC89FD8940819C01098C28
:1020000002C0220F331F0A94E2F7242B2083EC89AD
:10201000FD8920810A8C02C0880F991F0A94E2F77B
:10202000822B8083DF91CF911F91FF90EF90DF9003
:10203000CF90BF90AF909F908F90089560E874E824
:102040008EE190E0A701960140D149015A0181E05B
:10205000881A9108A108B108B694A7949794879418
:10206000D501C4010196A11DB11D880F991FAA1F9A
:10207000BB1F880F991FAA1FBB1F9C01AD01220F18
:10208000331F441F551F220F331F441F551F60E08D
:1020900074E284EF90E019D1AFEFB0E038D1A7013E
:1020A000960113D18FEF90E0821B930B181619063F
:1020B000BCF5122F109560E079E08DE390E0A70168
:1020C000960103D1DA01C9010197A109B1098E7FF7
:1020D0000296A11DB11D9C01AD01220F331F441FAB
:1020E000551F220F331F441F551F60E074E284EF19
:1020F00090E0EBD0AFEFB0E00AD1A7019601E5D0B8
:102100008FEF90E0821B930B1816190664F420954C
:10211000211708F43ECFEA89FB891082C40157CF0A
:1021200011E0120FC8CF2F5FF3CFCF92DF92EF9263
:10213000FF92EEEDF2E01382128288EEC82E83E069
:10214000D82EE12CF12CC482D582E682F78210864B
:1021500011861286138664E771E0718360838FE7CE
:1021600093E09587848785EC90E09787868784EC59
:1021700090E0918B808B80EC90E0938B828B81EC54
:1021800090E0958B848B86EC90E0978B868B44E077
:10219000408F33E0318F27E0228F95E0938F81E0ED
:1021A000848FE1ECF2E013821282C482D582E6824F
:1021B000F7821086118612861386718360836BEF17
:1021C00072E0758764876DEC70E0778766876CECEA
:1021D00070E0718B608B68EC70E0738B628B69ECE4
:1021E00070E0758B648B6EEC70E0778B668B408F44
:1021F000318F228F938F848FFF90EF90DF90CF905D
:102200000895CF92DF92EF92FF920F931F93CF9397
:10221000DF9341155105F1F08C017B01EA01C12CDE
:10222000D12CD7016D917D01D801ED91FC910190E8
:10223000F081E02DC8010995C80ED91E219789F7B4
:10224000C601DF91CF911F910F91FF90EF90DF902A
:10225000CF900895C12CD12CF3CFEF92FF920F9322
:102260001F93CF93DF93EB012196FB0164916623CB
:10227000D1F08C01E12CF12CD801ED91FC91019071
:10228000F081E02DC8010995E80EF91EFE01649168
:1022900021966111F1CFC701DF91CF911F910F916D
:1022A000FF90EF900895E12CF12CF5CF01C298C278
:1022B000FC0181E090E02081222311F080E090E099
:1022C000089521E0FC0120830895A1E21A2EAA1BA3
:1022D000BB1BFD010DC0AA1FBB1FEE1FFF1FA217D6
:1022E000B307E407F50720F0A21BB30BE40BF50BD3
:1022F000661F771F881F991F1A9469F7609570955C
:10230000809590959B01AC01BD01CF01089512D03D
:10231000A59F900DB49F900DA49F800D911D112439
:102320000895EE0FFF1F0024001C0BBE0790F691CE
:10233000E02D0994A29FB001B39FC001A39F700D2F
:10234000811D1124911DB29F700D811D1124911DBD
:1023500008955058BB27AA270ED00DC1FED030F0EB
:1023600003D120F031F49F3F11F41EF4F3C00EF4BA
:10237000E095E7FBE9C0E92F0FD180F3BA176207B8
:1023800073078407950718F071F49EF527C10EF4C2
:10239000E0950B2EBA2FA02D0B01B90190010C0175
:1023A000CA01A0011124FF27591B99F0593F50F48D
:1023B000503E68F11A16F040A22F232F342F4427E5
:1023C000585FF3CF469537952795A795F0405395DD
:1023D000C9F77EF41F16BA0B620B730B840BBAF0AD
:1023E0009150A1F0FF0FBB1F661F771F881FC2F718
:1023F0000EC0BA0F621F731F841F48F4879577952C
:102400006795B795F7959E3F08F0B3CF9395880FE2
:1024100008F09927EE0F97958795089571D008F4E5
:1024200081E0089504D06894B111D9C00895BCD05A
:1024300088F09F5790F0B92F9927B751A0F0D1F0AD
:10244000660F771F881F991F1AF0BA95C9F712C037
:10245000B13081F0C3D0B1E00895C0C0672F782FAC
:102460008827B85F39F0B93FCCF3869577956795A3
:10247000B395D9F73EF490958095709561957F4F0F
:102480008F4F9F4F0895E89409C097FB3EF49095B5
:102490008095709561957F4F8F4F9F4F9923A9F03D
:1024A000F92F96E9BB279395F695879577956795CC
:1024B000B795F111F8CFFAF4BB0F11F460FF1BC010
:1024C0006F5F7F4F8F4F9F4F16C0882311F096E9A3
:1024D00011C0772321F09EE8872F762F05C0662351
:1024E00071F096E8862F70E060E02AF09A95660F0A
:1024F000771F881FDAF7880F9695879597F90895C3
:10250000990F0008550FAA0BE0E8FEEF1616170604
:10251000E807F907C0F012161306E407F50798F06C
:10252000621B730B840B950B39F40A2661F0232B85
:10253000242B252B21F408950A2609F4A140A69501
:102540008FEF811D811D089597F99F6780E870E0E6
:1025500060E008959FEF80EC089500240A94161619
:10256000170618060906089500240A941216130681
:10257000140605060895092E0394000C11F488230F
:1025800052F0BB0F40F4BF2B11F460FF04C06F5F2B
:102590007F4F8F4F9F4F089557FD9058440F551F01
:1025A00059F05F3F71F04795880F97FB991F61F0D5
:1025B0009F3F79F087950895121613061406551F4C
:1025C000F2CF4695F1DF08C0161617061806991FB8
:1025D000F1CF86957105610508940895E894BB27AD
:1025E00066277727CB0197F908950BD0C4CFB5DFC5
:1025F00028F0BADF18F0952309F0A6CFABCF11244D
:10260000EECFCADFA0F3959FD1F3950F50E0551F91
:10261000629FF001729FBB27F00DB11D639FAA2737
:10262000F00DB11DAA1F649F6627B00DA11D661F86
:10263000829F2227B00DA11D621F739FB00DA11DA7
:10264000621F839FA00D611D221F749F3327A00D61
:10265000611D231F849F600D211D822F762F6A2FFD
:1026600011249F5750408AF0E1F088234AF0EE0F82
:10267000FF1FBB1F661F771F881F91505040A9F78F
:102680009E3F510570F060CFAACF5F3FECF3983EBC
:10269000DCF3869577956795B795F795E7959F5FF6
:1026A000C1F7FE2B880F911D9695879597F9089590
:1026B0000F931F93CF93DF938230910510F482E044
:1026C00090E0E0910504F091060420E030E0A0E005
:1026D000B0E0309719F14081518102811381481790
:1026E0005907C8F08417950769F4109731F01296CE
:1026F0000C93129713961C9327C000930504109314
:10270000060422C02115310519F04217530718F4A9
:102710009A01BD01EF01DF01F801DBCF2115310581
:10272000F9F0281B390B2430310580F48A819B8114
:102730006115710521F0FB019383828304C090939E
:10274000060480930504FE01329644C0FE01E20FA8
:10275000F31F8193919322503109398328833AC022
:102760002091030430910404232B41F420910201B1
:10277000309103013093040420930304209100015D
:10278000309101012115310541F42DB73EB740913B
:10279000040150910501241B350BE0910304F091D5
:1027A0000404E217F307A0F42E1B3F0B2817390788
:1027B00078F0AC014E5F5F4F2417350748F04E0F9D
:1027C0005F1F50930404409303048193919302C0CC
:1027D000E0E0F0E0CF01DF91CF911F910F910895DC
:1027E000CF93DF93009709F481C0FC0132971382E5
:1027F0001282A0910504B0910604109781F4208103
:102800003181820F931F2091030430910404281713
:10281000390751F5F0930404E093030467C0ED0118
:1028200020E030E0CE17DF0740F44A815B819E0153
:1028300041155105F1F0EA01F5CFD383C283408100
:102840005181840F951FC817D90759F48881998140
:10285000840F951F0296918380838A819B81938345
:1028600082832115310529F4F0930604E0930504D1
:102870003DC0E901FB83EA8349915991C40FD51FFB
:10288000EC17FD0761F480819181840F951F0296FA
:10289000E90199838883828193819B838A83E0E025
:1028A000F0E012968D919C911397009719F0FD011D
:1028B000DC01F7CF8D919C9111979D012E5F3F4FC9
:1028C000820F931F209103043091040428173907C5
:1028D00069F4309729F4109206041092050402C09E
:1028E00013821282B0930404A0930304DF91CF916A
:1028F0000895283008F027E03327DA01990F311DB9
:1029000087FD916000966105710539F432602E5F94
:102910003D9330E32A95E1F708959F3F30F08038EA
:102920007105610509F03C5F3C5F3D93913008F013
:102930008068911DDF93CF931F930F93FF92EF92C7
:10294000192F987F9695E92F96959695E90FFF2771
:10295000EA50FF4F99273327EE24FF24A701E70110
:1029600005900894079428F4360FE71EF81E491FB7
:10297000511D660F771F881F991F0694A1F70590B8
:10298000079428F4E70EF81E491F561FC11D770F44
:10299000881F991F661F0694A1F70590079428F4D5
:1029A000F80E491F561FC71FD11D880F991F661F9C
:1029B000771F0694A1F70590079420F4490F561F3E
:1029C000C71FD81F990F661F771F881F0694A9F786
:1029D00084911095177041F0D695C79557954795F6
:1029E000F794E7941A95C1F7ECE9F0E06894159034
:1029F000159135916591959105907FE27395E11858
:102A0000F10A430B560BC90BD009C0F7E10CF11EBC
:102A1000431F561FC91FD01D7EF4703311F48A95D1
:102A2000E6CFE894015030F0080F0AF400270217AF
:102A300008F4202F2395022F7A3328F079E37D9331
:102A40002A95E9F710C07D932A9589F60694979503
:102A50006795379517951794E118F10A430B560BB4
:102A6000C90BD00998F023957E9173957A3308F0BD
:102A700070E37C932013B8F77E9170617D9330F002
:102A8000839571E37D9370E32A95E1F71124EF902C
:102A9000FF900F911F91CF91DF91992787FD90951E
:102AA0000895FC010590615070400110D8F78095A1
:102AB00090958E0F9F1F0895FC016150704001900A
:102AC0000110D8F7809590958E0F9F1F08950F9352
:102AD0001F93CF93DF93FB01238121FD03C08FEF71
:102AE0009FEF2CC022FF16C046815781248135817B
:102AF0004217530744F4A081B1819D012F5F3F4FDE
:102B0000318320838C93268137812F5F3F4F37831A
:102B1000268314C08B01EC01FB010084F185E02DBC
:102B20000995892BE1F6D80116968D919C911797FE
:102B3000019617969C938E931697CE01DF91CF91B5
:102B40001F910F910895FA01AA27283051F12031E1
:102B500081F1E8946F936E7F6E5F7F4F8F4F9F4F31
:102B6000AF4FB1E03ED0B4E03CD0670F781F891F73
:102B70009A1FA11D680F791F8A1F911DA11D6A0F41
:102B8000711D811D911DA11D20D009F468943F91F4
:102B90002AE0269F11243019305D3193DEF6CF01F3
:102BA0000895462F4770405D4193B3E00FD0C9F7B9
:102BB000F6CF462F4F70405D4A3318F0495D31FD26
:102BC0004052419302D0A9F7EACFB4E0A695979579
:102BD000879577956795BA95C9F70097610571054F
:102BE00008959B01AC010A2E069457954795379599
:102BF0002795BA95C9F7620F731F841F951FA01DF3
:0A2C000008950E941701F894FFCF19
:102C0A000000070420000000000072057305750526
:102C1A0000000000860A870AD905880A0000000019
:102C2A00ED0BF30BE40BD3000000000002000000E0
:102C3A000000008F0C00000000018F0C0000000053
:102C4A00028F0C00000000038F0C04D40000000067
:102C5A0000060000000000048F0C00000000058F31
:102C6A000C00000000068F0C00000000078F0C0407
:102C7A0000000000170F0111C60EDE0EC30E090F69
:042C8A00C20E340F33
:00000001FF
