:10000000FDC0000025C1000023C1000021C1000087
:100010001FC100001DC100001BC1000019C100006C
:1000200017C100000C949E0E13C1000011C1000006
:100030000C94760E0DC100000BC1000009C1000038
:1000400007C1000005C100004AC5000001C1000051
:10005000FFC000000C94E80FFBC00000F9C00000D6
:10006000F7C000000C94C30EF3C00000F1C0000004
:10007000EFC00000EDC00000EBC00000E9C00000D0
:100080000C942810E5C00000E3C00000E1C00000AF
:10009000DFC000006E616E00696E660000407A107D
:1000A000F35A00A0724E18090010A5D4E80000E829
:1000B0007648170000E40B54020000CA9A3B000087
:1000C00000E1F505000080969800000040420F0016
:1000D0000000A08601000000102700000000E803D7
:1000E000000000006400000000000A0000000000A2
:1000F0000100000000002C76D888DC674F0823DF61
:10010000C1DFAE59E1B1B796E5E3E453C63AE65133
:10011000997696E8E6C28426EB898C9B62ED407C5A
:100120006FFCEFBC9C9F40F2BAA56FA5F490055AF6
:100130002AF75C936B6CF9676DC11BFCE0E40D471B
:10014000FEF520E6B500D0ED902E0300943577053E
:100150000080841E080000204E0A000000C80C33F6
:100160003333330F986E12831141EF8D2114893B85
:10017000E65516CFFEE6DB18D1844B381BF77C1D05
:10018000901DA4BBE424203284725E228100C9F158
:1001900024ECA1E53D27436F6D6D616E645F54658E
:1001A000737400556E61626C6520746F20436F6ECE
:1001B00066696754780020496E74657276616C3A9E
:1001C00020002049443A200043414E53656E736F2E
:1001D0007254696D657220437265617465643A207A
:1001E000004641494C454420544F2042494E44204A
:1001F0004C495354454E45520000481111241FBE2E
:10020000CFEFD0E1DEBFCDBF11E0A0E0B1E0E0EA8A
:10021000F0E300E00BBF02C007900D92AE35B107CE
:10022000D9F723E0AEE5B1E001C01D92AA3DB207C7
:10023000E1F710E0CEEFD0E004C02197FE010E946C
:10024000DC13CD3FD107C9F70E94220F0C944C1844
:10025000D7CEA0915E01B0915F01109769F0ED914A
:10026000FC91119712968D919C91139790935F0139
:1002700080935E010995EDCF0895CF93DF93EC0154
:1002800084E090E00E94A315009781F0FC01D183E7
:10029000C08320915E0130915F013383228390936C
:1002A0005F0180935E0180E090E002C081E090E019
:1002B000DF91CF9108952F923F924F925F926F926C
:1002C0007F928F929F92AF92BF92CF92DF92EF92E6
:1002D000FF920F931F93CF93DF93CDB7DEB7609755
:1002E0000FB6F894DEBF0FBECDBF7C011B016A01C3
:1002F000FC0117821682838181FF44C39E012F5F18
:100300003F4F3901F7019381F10193FD859193FFEF
:1003100081911F01882309F431C3853239F493FD9B
:10032000859193FF81911F01853239F4B70190E0E7
:100330000E94B21756016501E5CF10E0512C912CB7
:10034000FFE1F915D8F08B3279F038F4803279F08A
:100350008332A1F4F92DF0612EC08D3261F080332B
:1003600069F4292D21602DC0392D3260932E892DFD
:100370008460982E2AC0E92DE86015C097FC2DC036
:1003800020ED280F2A3088F496FE06C03AE0139F2D
:10039000200D1124122F19C08AE0589E200D11241F
:1003A000522EE92DE0629E2E10C08E3231F496FC62
:1003B000E5C2F92DF0649F2E08C08C3621F4292D5A
:1003C0002068922E02C0883641F4F10193FD859198
:1003D00093FF81911F018111B3CF9BEB980F933055
:1003E00020F4992D9061805E07C09BE9980F9330AF
:1003F00008F066C1992D9F7E96FF16E09F73992E97
:10040000853619F49064992E08C0863621F4392F68
:100410003068932E02C01111115097FE07C01C3393
:1004200050F444244394410E27E00BC0183038F0B8
:1004300027E017E005C027E09CE3492E02C0212FEA
:10044000412C560184E0A80EB11CF6016081718137
:1004500082819381042DA3010E94C4166C01F9814D
:10046000FC87F0FF02C0F3FF06C091FC06C092FEBD
:1004700006C000E205C00DE203C00BE201C000E0CF
:100480008C858C7019F001115AC29BC297FE10C066
:100490004C0CFC85F4FF04C08A81813309F44A9432
:1004A000141474F528E0241578F588E0482E2CC043
:1004B00096FC2AC0812F90E08C159D059CF03CEFA6
:1004C000C3163FEFD30674F0892D8068982E0AC0BA
:1004D000E2E0F0E0EC0FFD1FE10FF11D80818033C1
:1004E00019F411501111F4CF97FE0EC04424439417
:1004F000410E812F90E0C816D9062CF41C1904C0B7
:100500004424439401C010E097FE06C01C141D044F
:1005100034F4C601019605C085E090E002C081E098
:1005200090E001110196112331F0212F30E02F5F6F
:100530003F4F820F931F252D30E08217930714F44D
:10054000581A01C0512C892D897049F4552039F071
:10055000B70180E290E00E94B2175A94F7CF0023CF
:1005600029F0B701802F90E00E94B21793FC09C0D8
:10057000552039F0B70180E390E00E94B2175A94F9
:10058000F7CF97FE4CC04601D7FE02C0812C912CBC
:10059000C60188199909F301E80FF91FFE87ED8755
:1005A000960124193109388B2F87012F10E01195FE
:1005B000019511093FEF8316930629F4B7018EE2E6
:1005C00090E00E94B217C814D9044CF08F85988926
:1005D0008815990524F4ED85FE85818101C080E3AD
:1005E000F1E08F1A91082D853E852F5F3F4F3E87A2
:1005F0002D87801691062CF0B70190E00E94B2176B
:10060000D9CFC814D90441F49A81963320F4953394
:1006100019F43C8534FF81E3B70190E04EC08A8134
:10062000813319F09C859F7E9C87B70190E00E94E2
:10063000B217111105C094FC18C085E690E017C0F0
:10064000B7018EE290E00E94B2171E5F82E001E0E7
:10065000080FF301E80FF11D8081B70190E00E94BF
:10066000B217802F0113F3CFE6CF85E490E0B701F6
:100670000E94B217D7FC06C0C114D10441F4EC8526
:10068000E4FF05C0D194C194D1088DE201C08BE292
:10069000B70190E00E94B21780E32AE0C216D104AD
:1006A0002CF08F5FFAE0CF1AD108F7CFB70190E0B6
:1006B0000E94B217B701C601C0960E94B21754C17A
:1006C000833631F0833779F0833509F056C020C086
:1006D000560132E0A30EB11CF6018081898301E04E
:1006E00010E0630112C05601F2E0AF0EB11CF6013A
:1006F000C080D18096FE03C0612F70E002C06FEF12
:100700007FEFC6010E94A7178C01F92DFF7714C057
:10071000560122E0A20EB11CF601C080D18096FEE7
:1007200003C0612F70E002C06FEF7FEFC6010E942F
:100730009C178C01F92DF0689F2EF3FD1AC0852DB2
:1007400090E008171907A8F4B70180E290E00E9432
:10075000B2175A94F4CFF60197FC859197FE8191D8
:100760006F01B70190E00E94B21751105A940150E6
:1007700011090115110579F7F7C0843611F0893692
:1007800061F5560197FE09C024E0A20EB11CF601E6
:1007900060817181828193810AC0F2E0AF0EB11C49
:1007A000F60160817181072E000C880B990BF92DE1
:1007B000FF769F2E97FF09C0909580957095619563
:1007C0007F4F8F4F9F4FF0689F2E2AE030E0A301AC
:1007D0000E94EE17C82EC6183FC0092D853721F498
:1007E0000F7E2AE030E01DC0097F8F3691F018F4AB
:1007F000883559F0C3C0803719F0883711F0BEC072
:10080000006104FF09C0046007C094FE08C00660D0
:1008100006C028E030E005C020E130E002C020E161
:1008200032E0560107FF09C084E0A80EB11CF601B2
:10083000608171818281938108C0F2E0AF0EB11CAA
:10084000F6016081718180E090E0A3010E94EE17C3
:10085000C82EC6180F77902E96FE0BC0092D0E7F5E
:10086000C11650F494FE0AC092FC08C0092D0E7EF9
:1008700005C0DC2C092D03C0DC2C01C0D12E04FFE7
:100880000DC0FE01EC0DF11D8081803311F4097E55
:1008900009C002FF06C0D394D39404C0802F867889
:1008A00009F0D39403FD11C000FF06C01C2DD51420
:1008B00080F4150D1D190DC0D51458F4B70180E250
:1008C00090E00E94B217D394F7CFD51410F45D18BE
:1008D00001C0512C04FF10C0B70180E390E00E94DA
:1008E000B21702FF17C001FD03C088E790E002C005
:1008F00088E590E0B7010CC0802F867859F001FFA1
:1009000002C08BE201C080E207FD8DE2B70190E0FA
:100910000E94B217C11638F4B70180E390E00E943C
:10092000B2171150F7CFCA94F301EC0DF11D80817D
:10093000B70190E00E94B217C110F5CF15C0F4E0E6
:10094000F51560F584E0581A93FE1FC0011127C009
:100950002C8523FF2AC004E910E0392D3071932E35
:10096000F8018491811124C0552009F4E4CCB70129
:1009700080E290E00E94B2175A94F6CFF701868188
:10098000978126C08FEF9FEF23C0B70180E290E0F0
:100990000E94B2175A945110F8CFD8CF512CB701FA
:1009A000802F90E00E94B217D3CF08E910E0D5CF96
:1009B00091108052B70190E00E94B2170F5F1F4F55
:1009C000CFCF23E0251510F483E0BDCF512CC0CF4D
:1009D00060960FB6F894DEBF0FBECDBFDF91CF910A
:1009E0001F910F91FF90EF90DF90CF90BF90AF904D
:1009F0009F908F907F906F905F904F903F902F903F
:100A0000089580916A0190916B01009739F0DC01A3
:100A1000ED91FC910280F381E02D0994089581EB22
:100A200092E00C94A9124AE050E081EB92E00C9421
:100A3000E51281EB92E00C94E0114AE050E081EB8A
:100A400092E00C9409120F931F93CF93DF93EC0164
:100A500083E090E00E94A1138C0138D01B870A87A5
:100A60001D861C861F861E8682E38883198240E8C5
:100A700055E260E070E081EB92E0DF91CF911F9151
:100A80000F910C94681080917001882319F080E612
:100A900091E0089580E791E00E94A313892BB9F3B8
:100AA00080E691E0D0DF80E791E00E94AC1381E026
:100AB00095E0E3DB80E691E0089508950C94A2139D
:100AC000E2DF66E971E0ABDF80E008952AE031E023
:100AD000FC013183208312820895089508951F92A6
:100AE0000F920FB60F9211240BB60F928F929F9216
:100AF000AF92BF92CF92DF92EF92FF920F931F932C
:100B00002F933F934F935F936F937F938F939F9315
:100B1000AF93BF93EF93FF93CF93DF93CDB7DEB740
:100B20002F97DEBFCDBF80917801882309F462C280
:100B30009090ED00CC24C394D12C9091E000809152
:100B4000E100892B09F446C08091E00080FD18C0C7
:100B50008091E00081FDAEC18091E00082FDAEC1D8
:100B60008091E00083FDAEC18091E00084FDF3C17F
:100B70008091E00085FF16C260E5862E05E002C088
:100B8000812C00E08092ED002091EE00822F807E8B
:100B9000A1F210E07801EE0CFF1CF701E058FE4FC7
:100BA0008081918126FF3DC0009759F0DC01ED91D5
:100BB000FC910680F781E02DB5E0EE36FB0709F0E9
:100BC000BDC11092EE009091E0008091E100892B70
:100BD00009F0BACF9092ED002F960FB6F894DEBFD1
:100BE0000FBECDBFDF91CF91FF91EF91BF91AF913C
:100BF0009F918F917F916F915F914F913F912F9135
:100C00001F910F91FF90EF90DF90CF90BF90AF902A
:100C10009F908F900F900BBE0F900FBE0F901F9064
:100C2000189525FF8ACF3091EF003F705801AA0C2C
:100C3000BB1CAA0CBB1CAA0CBB1CF501E01BF10BD6
:100C4000E355FE4F27E0DE01199601900D922A959B
:100C5000E1F7332379F0FE0131964FEF430F50E077
:100C60004F5F5F4F4E0F5F1F2091FA002193E417F3
:100C7000F507D1F73F872091F00022FB222720F9CA
:100C80002D872E85222309F421C12091F30030E025
:100C90003595279535952795359527952C8720915E
:100CA000F2003091F30026952695269540E2349F78
:100CB000200D11242B872091F1003091F200269510
:100CC00026952695A0E23A9F200D11242A8720918F
:100CD000F0003091F100269526952695B0E23B9FD5
:100CE000200D11242987DC01ED91FC910480F58110
:100CF000E02DB5E0ED36FB0709F046C18091ED002F
:100D00008092ED009091EF009F739093EF00EEEED4
:100D1000F0E01192E83FF105E1F7F501E01BF10B7E
:100D2000DF01A058BE4FD2969C91E355FE4F992308
:100D300009F4EDC09381292F220F220F220F9281F7
:100D4000929596959770920F9093F3009281292F28
:100D5000220F220F220F9181929596959770920FF4
:100D60009093F2009181292F220F220F220F908160
:100D7000929596959770920F9093F1009081990FAC
:100D8000990F990F9093F0009091EF0090619093DC
:100D9000EF00F501E01BF10BE058FE4F91A99923FC
:100DA00009F4AFC09091F00094609093F00020910E
:100DB000EF00F501E01BF10BE058FE4F93A9922BD9
:100DC0009093EF00F801E058FE4F968D913009F4B2
:100DD0005EC008F4C4C0923009F0F3CEF701E00F12
:100DE000F11FEE0FFF1FE55EFD4F90819111D4C002
:100DF0009091F4009E7F9093F400F701E00FF11FB3
:100E0000EE0FFF1FE65EFD4F9081992309F410C19C
:100E10009091F40094609093F400F501E01BF10BC5
:100E2000E058FE4F92A9F701E00FF11FEE0FFF1FF0
:100E3000EA5EFD4F992309F4E9C09381292F220F1F
:100E4000220F220F9281929596959770920F909310
:100E5000F7009281292F220F220F220F9181929564
:100E600096959770920F9093F6009181292F220FFB
:100E7000220F220F9081929596959770920F9093E2
:100E8000F5009081990F990F990F9093F40090912C
:100E9000DE00960102C0220F331F0A95E2F7922B63
:100EA0009093DE009091DF00932B9093DF0080936E
:100EB000ED0087CEA0E18A2E01E064CEF0E28F2E15
:100EC00002E060CEE0E38E2E03E05CCE2091F300E2
:100ED00030E03595279535952795359527953595A6
:100EE0002795359527952A873091F2002091F300B8
:100EF000329536953770220F220F220F230F298744
:100F0000F2CE9091F0009B7F9093F00050CF218122
:100F1000908196959695969530E2239F900D112499
:100F20009093F30090819295990F907E9093F200A8
:100F30009091EF009F7E9093EF002BCFB801660F4A
:100F4000771F660F771F660F771F601B710B635546
:100F50007E4F099536CE70E4872E04E013CE809143
:100F6000DE00960102C0220F331F0A95E2F7922F8E
:100F7000909589238093DE008091DF00932F9095D8
:100F800089238093DF001DCEAE014F5F5F4FBE010E
:100F9000675F7F4F0995B2CE9091F4009160909376
:100FA000F4002BCF8091E00086FD48C08091E000E6
:100FB00087FD50C08091E10080FD44C08091E10038
:100FC00081FD44C08091E10082FD48C08091E10034
:100FD00083FD48C08091E10084FD48C08091E1001C
:100FE00085FD48C08091E10086FFF4CDB0EE8B2EE8
:100FF0000EE0C8CD88E791E00E94A313892B09F485
:1010000097CD88E791E00E94AC1392CD2181908129
:1010100096959695969540E2249F900D1124909375
:10102000F70090819295990F907E9093F6002FCFC4
:101030009091F4009B7F9093F400EFCE50E6852EC4
:1010400006E0A0CD30E8832E08E09CCD20E9822E7A
:1010500009E098CD40E7842E07E094CD90EA892EF0
:101060000AE090CD80EB882E0BE08CCD00EC802E3A
:101070000CE088CD10ED812E0DE084CDFC0190E0D8
:1010800021913191232B29F09F5F9F30C9F78FE089
:101090000895892F089581E08093D8001092DE0092
:1010A0001092DF0080EB8093DB001092EC00613047
:1010B00081F130F1623011F1633049F48EE08093B8
:1010C000E2008CE08093E30087E38093E4001092D9
:1010D000E50080E0982F9295907F9093ED00EEEEE2
:1010E000F0E01192E83FF105E1F78F5F8F3091F763
:1010F0008091D80082608093D800089586E0DFCF89
:101100001092E2008CE08093E30086E38093E40099
:10111000DECF82E0D4CF4F3080F450E0440F551F33
:10112000FC01E40FF51F80819181892B11F02223AE
:1011300021F07183608381E0089580E00895242F79
:1011400030E0FC01E20FF31F568D513011F080E0CA
:1011500008954F30E0F74295407F4093ED00D9016C
:10116000AA0FBB1FAA0FBB1FAA0FBB1FA21BB30B4B
:10117000A80FB91FD3968C91D397882361F090E084
:10118000D396FB01E90FF11D20812093FA009F5FA8
:101190002C919217B0F38091EF008F738093EF0042
:1011A0008091EF0080648093EF0081E008950F93B9
:1011B0001F93CF93DF93242F30E0EC01C20FD31F96
:1011C0005E8D552331F080E0DF91CF911F910F911B
:1011D000089551E05E8F8901000F111F000F111F4C
:1011E000000F111FD801A21BB30BA80FB91F9D96AA
:1011F00057E0FB0101900D925A95E1F75091ED00F7
:10120000642F6295607F6093ED006091EF006F73D3
:101210006093EF00EEEEF0E01192E83FF105E1F7A8
:10122000F801E21BF30BDC01AE0FBF1FD2966C91ED
:10123000BD96E80FF91F6111B3C071816081669599
:1012400066956695A0E27A9F600D11246093F30085
:1012500060816295660F607E6093F2006091EF009E
:101260006F7E6093EF00F801E21BF30BE80FF91FAC
:1012700061A9662309F4CBC06091F00064606093BB
:10128000F0007091EF00F801E21BF30BE80FF91F7B
:1012900063A9672B6093EF006E8D613009F467C01E
:1012A00008F4BDC0623009F0B8C0F901EE0FFF1FAD
:1012B000DF01A20FB31FAA0FBB1FA80FB91FA556AE
:1012C000BF4F6C916111C0C06091F4006E7F60935C
:1012D000F400DF01A20FB31FAA0FBB1FA80FB91F95
:1012E000A656BF4F6C91662309F4C6C06091F40006
:1012F00064606093F400021B130BDC01A00FB11FAC
:10130000D2966C91E20FF31FEE0FFF1FEA56FF4FCC
:10131000E80FF91F662309F49DC08381982F990F68
:10132000990F990F8281829586958770890F809396
:10133000F7008281982F990F990F990F81818295DB
:1013400086958770890F8093F6008181982F990F79
:10135000990F990F8081829586958770890F809368
:10136000F5008081880F880F880F8093F40020910A
:10137000DE0081E090E002C0880F991F4A95E2F7F5
:10138000822B8093DE008091DF00892B8093DF0029
:101390005093ED0081E0DF91CF911F910F9108955F
:1013A0006381762F770F770F770F6281629566954D
:1013B0006770670F6093F3006281762F770F770F66
:1013C000770F6181629566956770670F6093F20091
:1013D0006181762F770F770F770F60816295669521
:1013E0006770670F6093F1006081660F660F660F8C
:1013F0006093F0006091EF0060616093EF00F8018E
:10140000E21BF30BE80FF91F61A9611135CF609161
:10141000F0006B7F6093F00034CF81E0D5CE209157
:10142000DE0081E090E002C0880F991F4A95E2F744
:10143000809582238093DE008091DF009095892340
:101440008093DF0081E0C0CE6091F4006160609322
:10145000F4003FCF9181808186958695869520E224
:10146000929F800D11248093F70080818295880FD0
:10147000807E8093F6007BCF6091F4006B7F609359
:10148000F40039CF1F93CF93DF93262F30E0DC0198
:10149000A20FB31F5E961C925E977091ED00462FCF
:1014A0004295407F4093ED004091EF004F73409391
:1014B000EF00EEEEF0E01192E83FF105E1F7A9014F
:1014C000440F551F440F551F440F551FFA01E21BCF
:1014D000F30BEC01CE0FDF1FCAA9BD96E80FF91F71
:1014E000CC2309F4D2C0C381DC2FDD0FDD0FDD0F6B
:1014F000C281C295C695C770CD0FC093F300C2815B
:10150000DC2FDD0FDD0FDD0FC181C295C695C770E1
:10151000CD0FC093F200C181DC2FDD0FDD0FDD0F99
:10152000C081C295C695C770CD0FC093F100E08110
:10153000EE0FEE0FEE0FE093F000E091EF00E061B0
:10154000E093EF00FA01E21BF30BE80FF91FE1A9AA
:10155000EE2309F494C0E091F000E460E093F00021
:10156000F091EF00EA01C21BD30BC80FD91FEBA902
:10157000EF2BE093EF005E96EC91E13009F468C048
:1015800008F49AC0E23009F076C0F901EE0FFF1FAF
:10159000DF01A20FB31FAA0FBB1FA80FB91FA556CB
:1015A000BF4FAC91A1119FC0A091F400AE7FA0935A
:1015B000F400DF01A20FB31FAA0FBB1FA80FB91FB2
:1015C000A656BF4FAC91AA2309F4ACC0A091F40079
:1015D000A460A093F400421B530BDC01A40FB51FC1
:1015E000D2964C912E0F3F1F442309F482C0F9017B
:1015F000EE0FFF1FEA56FF4FE80FF91F8381982F68
:10160000990F990F990F8281829586958770890F1E
:101610008093F7008281982F990F990F990F8181FC
:10162000829586958770890F8093F6008181982F27
:10163000990F990F990F8081829586958770890FF0
:101640008093F5008081880F880F880F8093F400C5
:101650002091DE0081E090E002C0880F991F6A951A
:10166000E2F7822B8093DE008091DF00892B80934C
:10167000DF007093ED00DF91CF911F910895E0910D
:10168000F000EB7FE093F0006BCFD181C081C69575
:10169000C695C69510E2D19FC00D1124C093F300EA
:1016A000E081E295EE0FE07EE093F200E091EF0042
:1016B000EF7EE093EF0046CF2091DE0081E090E0E6
:1016C00002C0880F991F6A95E2F780958223809364
:1016D000DE008091DF00909589238093DF00DF9109
:1016E000CF911F910895A091F400A160A093F40000
:1016F00060CF220F331F2A563F4FFC01E20FF31F2A
:101700009181808186958695869520E2929F800DB5
:1017100011248093F70080818295880F807E8093CA
:10172000F60096CFA091F400AB7FA093F40053CFC6
:10173000089521E0FC01248708950C94A2131F93BF
:10174000CF93DF93EC0184E191E0998388837B83DD
:101750006A83FA0180819181A281B3818C839D8308
:10176000AE83BF832887FE01799688E0DF011D9252
:101770008A95E9F77B876A8719A280917801882387
:1017800009F432C080E891E079DC888B20E0482FB2
:10179000BE0180E891E0BFDC811104C074D961EE24
:1017A00071E03DD970D968EC71E043D918896BD9E3
:1017B000612F43D968D962EC71E03BD91C8163D9B0
:1017C000612F3BD960D966EB71E033D91A815BD9BF
:1017D000612F29D91AA281E08C871E861D861F865B
:1017E000DF91CF911F91089588E791E0ACD7892BC5
:1017F00009F4C8CF88E791E0AFD7C4CF453060F493
:10180000242F30E0220F331FFC01E20FF31F018C65
:10181000F28DE02DEF2B11F080E00895FC0151A135
:10182000451710F04F5F41A3FC01E20FF31F728FC9
:10183000618FFC0112A281E00895AF92BF92DF9206
:10184000EF92FF920F931F93CF93DF93CDB7DEB745
:1018500027970FB6F894DEBF0FBECDBF8C01FC01F9
:1018600082A1882309F476C0F8018185882309F4D0
:101870005CC08485882309F495C01186109270029B
:10188000148687858F5F87872585368521153105E5
:1018900009F09FC0F80121A1F12CF216A0F4EF2D60
:1018A000F0E0EE0FFF1FE00FF11F818D928D00978A
:1018B00009F44EC0D1D0882309F447C0F394F8014D
:1018C00021A1F21660F35801F1E1AF0EB11C88E0DE
:1018D000F50111928A95E9F72223D9F0D12CED2C4C
:1018E000F12CEE0CFF1CF801EE0DFF1D818D928D89
:1018F000009751F0EFD099838A83F501EE0DFF1D1B
:1019000089819A8191838083D394F80181A1D8162B
:1019100030F3F801108980917801882309F461C0BF
:10192000412FB50180E891E00ADC27960FB6F894C4
:10193000DEBF0FBECDBFDF91CF911F910F91FF9002
:10194000EF90DF90BF90AF900895F80121A1A5CF4F
:10195000F394A3CF80917801882391F1CE01019671
:101960007C0187E0F70111928A95E9F7F8018481FB
:101970009581A681B78189839A83AB83BC8381A13A
:10198000880F8F83608980E891E07CDDF8014089D1
:10199000B70180E891E00BDC882369F181E0F80170
:1019A00082A3C3CF809170028111BFCF81E0809369
:1019B0007002F80185859685019696878587B5CF53
:1019C00088E791E0C0D6892B49F288E791E0C4D638
:1019D000C5CF8F3F09F05ECF21503109368725876B
:1019E00059CF88E791E0AFD6892B09F499CF88E7E2
:1019F00091E0B2D695CF47D863EA71E010D895CF81
:101A00000895A0C6FC01DB0180E291E09183808310
:101A10008D919C9111979383828312968D919C91C5
:101A200013979583848314968C911497868381E011
:101A30004D915C91119712962D913C9113974217FD
:101A400053070CF080E0828715968D919C91169734
:101A500094878387118608950F931F93CF938C01EA
:101A6000FC01C6818091740290917502892B09F165
:101A70008091720290917302892B29F080E0CF91BE
:101A80001F910F9108951093730200937202C093F7
:101A90007102CF70C064C0937C0080917A00806432
:101AA00080937A00F801118681E0CF911F910F9108
:101AB000089581E090E045D690937502809374027A
:101AC000D7CFFB0120813181FC013087278321E0C2
:101AD00021870895CF92DF92EF92FF920F931F9389
:101AE000CF93DF9300D000D0CDB7DEB78C01F89450
:101AF000DC0117966D917C91189780E090E00ED7ED
:101B00002AE038E240EA5BE3BBD769837A838B83C0
:101B10009C837894C980DA80EB80FC8022E430E6F4
:101B200045E65CEBC701B601ABD72CE437E349E8E7
:101B30005DE35BD69B01AC01C701B60155D66B01D5
:101B40007C0120E030E0A901B4D687FD29C0C9821C
:101B5000DA82EB82FC82D8011B96ED91FC911C97F6
:101B6000CE0101960995F8012285222351F02481A6
:101B700035812817390794F0228133818217930722
:101B80006CF00F900F900F900F90DF91CF911F91FD
:101B90000F91FF90EF90DF90CF900895C901F1CFA2
:101BA00019821A821B821C82D6CF2FE632E143E8CB
:101BB00052E4FC01608171818281938161D720E0D0
:101BC00030E048EC52E45CD778D6CB0108958F9290
:101BD0009F92AF92BF92CF92DF92EF92FF921F93AC
:101BE000CF93DF93CDB7DEB7A5970FB6F894DEBFDE
:101BF0000FBECDBF4C0185E2E4E2F1E0DE011196BB
:101C000001900D928A95E1F783E290E09AD55C010C
:101C10006F8178852D81AE014F5F5F4F90DDF401BC
:101C2000B18AA08A8DA1882329F110E08DE090E08F
:101C300088D56C01E12EF12C61E070E06C0F7D1F06
:101C4000F7E01F9F600D711D1124685F7F4FDADE82
:101C5000EE0CFF1CF401EE0DFF1DD182C082FF24AB
:101C6000F394F10E412FB601C501C8DD1F2D8DA1E2
:101C7000F816E0F2A5960FB6F894DEBF0FBECDBF02
:101C8000DF91CF911F91FF90EF90DF90CF90BF90A9
:101C9000AF909F908F90089580918802882319F0CB
:101CA00086E792E0089588E892E04DD5892BC1F34C
:101CB00086E792E08CDF88E892E04ED586E792E0F6
:101CC0000895DC015096ED91FC91519782859385A2
:101CD00001979387828782859385892B31F481E0F0
:101CE0008187828193819387828708951F920F92C3
:101CF0000FB60F9211240BB60F922F933F934F9371
:101D00005F936F937F938F939F93AF93BF93EF9363
:101D1000FF93C2DFD6DFFF91EF91BF91AF919F910B
:101D20008F917F916F915F914F913F912F910F9084
:101D30000BBE0F900FBE0F901F9018951F920F9221
:101D40000FB60F9211248F939F93AF93BF938091FF
:101D5000900290919102A0919202B091930201960B
:101D6000A11DB11D8093900290939102A0939202C5
:101D7000B0939302BF91AF919F918F910F900FBE3F
:101D80000F901F9018951F920F920FB60F9211246B
:101D90000BB60F922F933F934F935F936F937F9365
:101DA0008F939F93AF93BF93EF93FF93CF93DF9363
:101DB00000D0CDB7DEB78091740290917502892B67
:101DC000C9F18091720290917302892BE1F0F8942D
:101DD0008091780090E09A83898320917900922BFA
:101DE0009A838983789440917102BE016F5F7F4F1F
:101DF000809172029091730264DE109273021092CD
:101E00007202109271020F900F90DF91CF91FF91AB
:101E1000EF91BF91AF919F918F917F916F915F9162
:101E20004F913F912F910F900BBE0F900FBE0F90CF
:101E30001F90189581E090E084D490937502809370
:101E40007402BFCFF894809181008A6080938100F2
:101E500010928500109284008FEC97E09093890097
:101E60008093880080916F00826080936F008091E2
:101E7000B0008B608093B0001092B2008FEF80931F
:101E8000B300809170008260809370008091740232
:101E900090917502892B39F481E090E052D49093AF
:101EA00075028093740287E080937A0080E48093C7
:101EB0007C0080917A00886880937A008091780114
:101EC000882351F060E080E891E0E5D8E5DE789481
:101ED000FC0180899189B1DC88E791E034D4892BB9
:101EE00089F388E791E038D4EDCF089580E090E061
:101EF0000895FC0124853585F901E058FF4F808164
:101F0000918180589F4F329620813181821B930BA3
:101F10008F77907897FF0895019780689F6F01965B
:101F20000895FC0184859585FC01EE57FF4F2081C3
:101F30003181DC01A058BF4F4D915C91421753078E
:101F4000C1F0DC01A20FB31F8C912F5F3F4F2F77A1
:101F5000307837FD04C03183208390E0089521500C
:101F6000310920683F6F2F5F3F4F3183208390E01E
:101F700008958FEF9FEF0895FC0184859585FC01FE
:101F8000E058FF4FDC01AE57BF4F8D919C9191837C
:101F900080830895DC015296ED91FC91539741E0C6
:101FA00050E05B960C905B9702C0440F551F0A945B
:101FB000E2F7208130E024233523232BD1F35696FA
:101FC000ED91FC915797608381E090E00895BAC34A
:101FD0001F920F920FB60F9211240BB60F922F93F0
:101FE0003F934F935F936F938F939F93EF93FF93E1
:101FF0006091C6002091D2033091D303C9010196AC
:102000008F77907897FD1FC04091D4035091D503EE
:102010008417950741F0F901EE5AFC4F60839093C5
:10202000D3038093D203FF91EF919F918F916F9192
:102030005F914F913F912F910F900BBE0F900FBE6C
:102040000F901F901895019780689F6F0196DCCFC5
:102050001F920F920FB60F9211240BB60F922F936F
:102060003F934F935F936F938F939F93EF93FF9360
:102070006091CE0020914E0330914F03C90101962B
:102080008F77907897FD1FC0409150035091510376
:102090008417950741F0F901E253FD4F6083909357
:1020A0004F0380934E03FF91EF919F918F916F911A
:1020B0005F914F913F912F910F900BBE0F900FBEEC
:1020C0000F901F901895019780689F6F0196DCCF45
:1020D0008F929F92AF92BF92CF92DF92EF92FF9238
:1020E0001F93CF93DF93EC016A017B01413452448B
:1020F0006F40710508F455C0EA89FB8981E090E0E2
:102100000C8C02C0880F991F0A94E2F7808360E06C
:1021100079E08DE390E0A701960122D3DA01C901AD
:102120000197A109B109AC01BD0176956795579555
:102130004795CA01EE85FF859083E889F9898083F8
:10214000EC89FD89408181E090E09C01088C02C00F
:10215000220F331F0A94E2F7242B2083EC89FD8998
:1021600040819C01098C02C0220F331F0A94E2F7C0
:10217000242B2083EC89FD8920810A8C02C0880FE2
:10218000991F0A94E2F7822B8083DF91CF911F91F0
:10219000FF90EF90DF90CF90BF90AF909F908F9087
:1021A000089560E874E88EE190E0A7019601D8D226
:1021B00049015A0181E0881A9108A108B108B69432
:1021C000A79497948794D501C4010196A11DB11DD0
:1021D000880F991FAA1FBB1F880F991FAA1FBB1F1B
:1021E0009C01AD01220F331F441F551F220F331FC7
:1021F000441F551F60E074E284EF90E0B1D2AFEF6E
:10220000B0E0D0D2A7019601ABD28FEF90E0821B55
:10221000930B18161906BCF5122F109560E079E0A3
:102220008DE390E0A70196019BD2DA01C9010197E5
:10223000A109B1098E7F0296A11DB11D9C01AD01BE
:10224000220F331F441F551F220F331F441F551FDA
:1022500060E074E284EF90E083D2AFEFB0E0A2D20E
:10226000A70196017DD28FEF90E0821B930B181689
:10227000190664F42095211708F43ECFEA89FB89FA
:102280001082C40157CF11E0120FC8CF2F5FF3CFD8
:10229000CF92DF92EF92FF92E1EBF2E01382128293
:1022A00088EEC82E83E0D82EE12CF12CC482D58292
:1022B000E682F78210861186128613866DE471E03D
:1022C0007183608382E593E09587848785EC90E055
:1022D0009787868784EC90E0918B808B80EC90E0F0
:1022E000938B828B81EC90E0958B848B86EC90E0D5
:1022F000978B868B44E0408F33E0318F27E0228F2D
:1023000095E0938F81E0848FE4E9F2E013821282FA
:10231000C482D582E682F7821086118612861386E1
:10232000718360836EEC72E0758764876DEC70E09A
:10233000778766876CEC70E0718B608B68EC70E07F
:10234000738B628B69EC70E0758B648B6EEC70E064
:10235000778B668B408F318F228F938F848FFF9086
:10236000EF90DF90CF900895CF92DF92EF92FF929F
:102370000F931F93CF93DF9341155105F1F08C011B
:102380007B01EA01C12CD12CD7016D917D01D801CF
:10239000ED91FC910190F081E02DC8010995C80EE6
:1023A000D91E219789F7C601DF91CF911F910F9117
:1023B000FF90EF90DF90CF900895C12CD12CF3CFF8
:1023C000EF92FF920F931F93CF93DF93EB01219630
:1023D000FB0164916623D1F08C01E12CF12CD80132
:1023E000ED91FC910190F081E02DC8010995E80E76
:1023F000F91EFE01649121966111F1CFC701DF91B1
:10240000CF911F910F91FF90EF900895E12CF12C47
:10241000F5CF4F925F926F927F929F92AF92BF9251
:10242000CF92DF92EF92FF920F931F93CF93DF93A0
:10243000CDB7DEB7A1970FB6F894DEBF0FBECDBF04
:102440005C014115510509F46CC0942E19A2B1E04C
:10245000B41708F06EC0442E512C612C712CC62E7E
:10246000D12CE12CF12C8E010F5D1F4F09C0805D36
:10247000F801808369017A01232B242B252B79F025
:10248000C701B601A30192016BD18C2D929E8019D8
:102490001124015011098A3050F3895CE9CFD5012C
:1024A000ED91FC9122813381D8010D900020E9F754
:1024B0001197AD01401B510BB1E1243B3B0709F0E3
:1024C00040C04115510509F441C07A01C12CD12CFD
:1024D00003C0D501ED91FC91D8016D918D01019062
:1024E000F081E02DC5010995C80ED91EB1E0EB1AA7
:1024F000F10879F7C601A1960FB6F894DEBF0FBEBA
:10250000CDBFDF91CF911F910F91FF90EF90DF90A2
:10251000CF90BF90AF909F907F906F905F904F90C3
:102520000895DC01ED91FC910190F081E02D099579
:10253000E2CF8AE0482E512C612C712C9AE0992E22
:102540008ECFB801C501F9010995D5CF80E090E0A3
:10255000D2CFEF92FF920F931F93CF93DF938C0113
:10256000EB012196FB016491E12CF12C662379F0BB
:10257000D801ED91FC910190F081E02DC801099501
:10258000E80EF91EFE01649121966111F1CFD80188
:10259000ED91FC910190F081E02D6DE0C80109956D
:1025A000EC01D801ED91FC910190F081E02D6AE001
:1025B000C8010995EC0EFD1E8E0D9F1DDF91CF9178
:1025C0001F910F91FF90EF9008954F925F926F923D
:1025D0007F929F92AF92BF92CF92DF92EF92FF9243
:1025E0000F931F93CF93DF93CDB7DEB7A1970FB6AD
:1025F000F894DEBF0FBECDBF5C014115510509F453
:1026000080C0942E19A2B1E0B41708F086C0442E01
:10261000512C612C712CC62ED12CE12CF12C8E0169
:102620000F5D1F4F09C0805DF801808369017A0149
:10263000232B242B252B79F0C701B601A30192018E
:102640008FD08C2D929E80191124015011098A304F
:1026500050F3895CE9CFD501ED91FC912281338162
:10266000D8010D900020E9F71197AD01401B510BE7
:10267000B1E1243B3B0709F058C04115510509F46D
:102680005DC07A01C12CD12CD8016D918D010190D2
:10269000F081E02DC5010995C80ED91EB1E0EB1AF5
:1026A000F108D501ED91FC91E114F10469F7019075
:1026B000F081E02D6DE0C50109958C01D501ED910A
:1026C000FC910190F081E02D6AE0C5010995C00EF2
:1026D000D11E8C0D9D1DA1960FB6F894DEBF0FBEC6
:1026E000CDBFDF91CF911F910F91FF90EF90DF90C1
:1026F000CF90BF90AF909F907F906F905F904F90E2
:102700000895DC01ED91FC910190F081E02D099597
:102710006C01D501ED91FC91CACF8AE0482E512C75
:10272000612C712C9AE0992E76CFB801C501F90180
:1027300009956C01D501ED91FC91B9CFC12CD12C3B
:10274000B6CF01C298C2FC0181E090E02081222333
:1027500011F080E090E0089521E0FC0120830895CD
:10276000A1E21A2EAA1BBB1BFD010DC0AA1FBB1F95
:10277000EE1FFF1FA217B307E407F50720F0A21B07
:10278000B30BE40BF50B661F771F881F991F1A9474
:1027900069F760957095809590959B01AC01BD019E
:1027A000CF01089512D0A59F900DB49F900DA49FC6
:1027B000800D911D11240895EE0FFF1F0024001CB1
:1027C0000BBE0790F691E02D0994A29FB001B39F34
:1027D000C001A39F700D811D1124911DB29F700D2A
:1027E000811D1124911D08955058BB27AA270ED092
:1027F0000DC1FED030F003D120F031F49F3F11F431
:102800001EF4F3C00EF4E095E7FBE9C0E92F0FD109
:1028100080F3BA17620773078407950718F071F4FD
:102820009EF527C10EF4E0950B2EBA2FA02D0B01BB
:10283000B90190010C01CA01A0011124FF27591B05
:1028400099F0593F50F4503E68F11A16F040A22F0B
:10285000232F342F4427585FF3CF4695379527957C
:10286000A795F0405395C9F77EF41F16BA0B620B7B
:10287000730B840BBAF09150A1F0FF0FBB1F661FC2
:10288000771F881FC2F70EC0BA0F621F731F841F05
:1028900048F4879577956795B795F7959E3F08F02B
:1028A000B3CF9395880F08F09927EE0F97958795EA
:1028B000089571D008F481E0089504D06894B111AE
:1028C000D9C00895BCD088F09F5790F0B92F9927B0
:1028D000B751A0F0D1F0660F771F881F991F1AF02B
:1028E000BA95C9F712C0B13081F0C3D0B1E00895F4
:1028F000C0C0672F782F8827B85F39F0B93FCCF375
:10290000869577956795B395D9F73EF49095809520
:10291000709561957F4F8F4F9F4F0895E89409C040
:1029200097FB3EF490958095709561957F4F8F4F02
:102930009F4F9923A9F0F92F96E9BB279395F69518
:10294000879577956795B795F111F8CFFAF4BB0F96
:1029500011F460FF1BC06F5F7F4F8F4F9F4F16C0FA
:10296000882311F096E911C0772321F09EE8872F84
:10297000762F05C0662371F096E8862F70E060E040
:102980002AF09A95660F771F881FDAF7880F9695B9
:10299000879597F90895990F0008550FAA0BE0E85D
:1029A000FEEF16161706E807F907C0F01216130611
:1029B000E407F50798F0621B730B840B950B39F451
:1029C0000A2661F0232B242B252B21F408950A26B7
:1029D00009F4A140A6958FEF811D811D089597F9F7
:1029E0009F6780E870E060E008959FEF80EC0895B5
:1029F00000240A94161617061806090608950024DE
:102A00000A9412161306140605060895092E039457
:102A1000000C11F4882352F0BB0F40F4BF2B11F4CB
:102A200060FF04C06F5F7F4F8F4F9F4F089557FD2A
:102A30009058440F551F59F05F3F71F04795880F2C
:102A400097FB991F61F09F3F79F0879508951216C3
:102A500013061406551FF2CF4695F1DF08C016166F
:102A600017061806991FF1CF869571056105089420
:102A70000895E894BB2766277727CB0197F9089537
:102A80000BD0C4CFB5DF28F0BADF18F0952309F0DA
:102A9000A6CFABCF1124EECFCADFA0F3959FD1F321
:102AA000950F50E0551F629FF001729FBB27F00DFC
:102AB000B11D639FAA27F00DB11DAA1F649F662751
:102AC000B00DA11D661F829F2227B00DA11D621FA0
:102AD000739FB00DA11D621F839FA00D611D221F5A
:102AE000749F3327A00D611D231F849F600D211D3E
:102AF000822F762F6A2F11249F5750408AF0E1F0E1
:102B000088234AF0EE0FFF1FBB1F661F771F881F29
:102B100091505040A9F79E3F510570F060CFAACF69
:102B20005F3FECF3983EDCF3869577956795B79514
:102B3000F795E7959F5FC1F7FE2B880F911D96953E
:102B4000879597F908950F931F93CF93DF93823062
:102B5000910510F482E090E0E091D803F091D90360
:102B600020E030E0A0E0B0E0309719F140815181E1
:102B70000281138148175907C8F08417950769F433
:102B8000109731F012960C93129713961C9327C04E
:102B90000093D8031093D90322C02115310519F0F1
:102BA0004217530718F49A01BD01EF01DF01F80144
:102BB000DBCF21153105F9F0281B390B2430310505
:102BC00080F48A819B816115710521F0FB0193835B
:102BD000828304C09093D9038093D803FE01329678
:102BE00044C0FE01E20FF31F8193919322503109FB
:102BF000398328833AC02091D6033091D703232B01
:102C000041F420910201309103013093D7032093C6
:102C1000D60320910001309101012115310541F4C5
:102C20002DB73EB74091040150910501241B350B8F
:102C3000E091D603F091D703E217F307A0F42E1B1F
:102C40003F0B2817390778F0AC014E5F5F4F241710
:102C5000350748F04E0F5F1F5093D7034093D603BC
:102C60008193919302C0E0E0F0E0CF01DF91CF913A
:102C70001F910F910895CF93DF93009709F481C0BE
:102C8000FC01329713821282A091D803B091D9032C
:102C9000109781F420813181820F931F2091D603F8
:102CA0003091D7032817390751F5F093D703E093F4
:102CB000D60367C0ED0120E030E0CE17DF0740F417
:102CC0004A815B819E0141155105F1F0EA01F5CF82
:102CD000D383C28340815181840F951FC817D907C0
:102CE00059F488819981840F951F0296918380837E
:102CF0008A819B81938382832115310529F4F09386
:102D0000D903E093D8033DC0E901FB83EA834991ED
:102D10005991C40FD51FEC17FD0761F48081918193
:102D2000840F951F0296E90199838883828193819C
:102D30009B838A83E0E0F0E012968D919C9113973B
:102D4000009719F0FD01DC01F7CF8D919C9111974F
:102D50009D012E5F3F4F820F931F2091D60330912C
:102D6000D7032817390769F4309729F41092D9034B
:102D70001092D80302C013821282B093D703A0939B
:102D8000D603DF91CF910895283008F027E033274C
:102D9000DA01990F311D87FD91600096610571057B
:102DA00039F432602E5F3D9330E32A95E1F70895C0
:102DB0009F3F30F080387105610509F03C5F3C5F52
:102DC0003D93913008F08068911DDF93CF931F935E
:102DD0000F93FF92EF92192F987F9695E92F969572
:102DE0009695E90FFF27EA50FF4F99273327EE24E6
:102DF000FF24A701E70105900894079428F4360FF3
:102E0000E71EF81E491F511D660F771F881F991F67
:102E10000694A1F70590079428F4E70EF81E491FC1
:102E2000561FC11D770F881F991F661F0694A1F7B3
:102E30000590079428F4F80E491F561FC71FD11D8F
:102E4000880F991F661F771F0694A1F705900794B6
:102E500020F4490F561FC71FD81F990F661F771FF1
:102E6000881F0694A9F784911095177041F0D695A4
:102E7000C79557954795F794E7941A95C1F7ECE9EC
:102E8000F0E06894159015913591659195910590B4
:102E90007FE27395E118F10A430B560BC90BD00979
:102EA000C0F7E10CF11E431F561FC91FD01D7EF451
:102EB000703311F48A95E6CFE894015030F0080F92
:102EC0000AF40027021708F4202F2395022F7A33E3
:102ED00028F079E37D932A95E9F710C07D932A9530
:102EE00089F6069497956795379517951794E11885
:102EF000F10A430B560BC90BD00998F023957E912C
:102F000073957A3308F070E37C932013B8F77E91C1
:102F100070617D9330F0839571E37D9370E32A9522
:102F2000E1F71124EF90FF900F911F91CF91DF9166
:102F3000992787FD90950895FC0105906150704098
:102F40000110D8F7809590958E0F9F1F0895FC0172
:102F50006150704001900110D8F7809590958E0FC8
:102F60009F1F08950F931F93CF93DF93FB0123813E
:102F700021FD03C08FEF9FEF2CC022FF16C04681BA
:102F80005781248135814217530744F4A081B181D0
:102F90009D012F5F3F4F318320838C9326813781A2
:102FA0002F5F3F4F3783268314C08B01EC01FB0159
:102FB0000084F185E02D0995892BE1F6D80116965C
:102FC0008D919C911797019617969C938E931697C7
:102FD000CE01DF91CF911F910F910895FA01AA2799
:102FE000283051F1203181F1E8946F936E7F6E5F4C
:102FF0007F4F8F4F9F4FAF4FB1E03ED0B4E03CD0FA
:10300000670F781F891F9A1FA11D680F791F8A1FDC
:10301000911DA11D6A0F711D811D911DA11D20D043
:1030200009F468943F912AE0269F11243019305DFD
:103030003193DEF6CF010895462F4770405D4193EE
:10304000B3E00FD0C9F7F6CF462F4F70405D4A333B
:1030500018F0495D31FD4052419302D0A9F7EACF03
:10306000B4E0A6959795879577956795BA95C9F732
:1030700000976105710508959B01AC010A2E069425
:103080005795479537952795BA95C9F7620F731FDE
:10309000841F951FA01D08950E942901F894FFCF59
:1030A0000000DA032000000000005D055E056005F9
:1030B00000000000980B9D0B6D05990B00000000AF
:1030C000000D010DD300000000000600000000000C
:1030D00000D50D0000000001D50D0000000002D554
:1030E0000D0000000003D50D0400000000CA0FB45D
:0E30F00011790F910F760FBC0F750FE70F00CF
:00000001FF
