:10000000F6C000001EC100001CC100001AC10000A3
:1000100018C1000016C1000014C1000012C1000088
:1000200010C100000C94050F0CC100000AC10000B3
:100030000C94DA0E06C1000004C1000002C10000E9
:1000400000C10000FEC00000D1C50000FAC00000E1
:10005000F8C000000C946310F4C00000F2C000006F
:10006000F0C000000C942A0FECC00000EAC00000B1
:10007000E8C00000E6C00000E4C00000E2C00000EC
:100080000C94A310DEC00000DCC00000DAC0000049
:10009000D8C000006E616E00696E660000407A1084
:1000A000F35A00A0724E18090010A5D4E80000E829
:1000B0007648170000E40B54020000CA9A3B000087
:1000C00000E1F505000080969800000040420F0016
:1000D0000000A08601000000102700000000E803D7
:1000E000000000006400000000000A0000000000A2
:1000F0000100000000002C76D888DC674F0823DF61
:10010000C1DFAE59E1B1B796E5E3E453C63AE65133
:10011000997696E8E6C28426EB898C9B62ED407C5A
:100120006FFCEFBC9C9F40F2BAA56FA5F490055AF6
:100130002AF75C936B6CF9676DC11BFCE0E40D471B
:10014000FEF520E6B500D0ED902E0300943577053E
:100150000080841E080000204E0A000000C80C33F6
:100160003333330F986E12831141EF8D2114893B85
:10017000E65516CFFEE6DB18D1844B381BF77C1D05
:10018000901DA4BBE424203284725E228100C9F158
:1001900024ECA1E53D27436F6D6D616E645F54658E
:1001A000737400556E61626C6520746F20436F6ECE
:1001B00066696754780049443A200043414E5365CC
:1001C0006E736F7254696D657220437265617465F8
:1001D000643A20004641494C454420544F2042494E
:1001E0004E44204C495354454E455200C3111124EE
:1001F0001FBECFEFD0E1DEBFCDBF11E0A0E0B1E088
:10020000E6E9F1E300E00BBF02C007900D92A636CD
:10021000B107D9F723E0A6E6B1E001C01D92A13EE7
:10022000B207E1F710E0C7EFD0E004C02197FE016C
:100230000E945714C63FD107C9F70E94520F0C9471
:10024000C718DECEA0916601B0916701109769F0E2
:10025000ED91FC91119712968D919C91139790932B
:100260006701809366010995EDCF0895CF93DF93E1
:10027000EC0184E090E00E941E16009781F0FC01E2
:10028000D183C0832091660130916701338322833B
:10029000909367018093660180E090E002C081E066
:1002A00090E0DF91CF9108952F923F924F925F920D
:1002B0006F927F928F929F92AF92BF92CF92DF9276
:1002C000EF92FF920F931F93CF93DF93CDB7DEB7DB
:1002D00060970FB6F894DEBF0FBECDBF7C011B0147
:1002E0006A01FC0117821682838181FF44C39E014B
:1002F0002F5F3F4F3901F7019381F10193FD859104
:1003000093FF81911F01882309F431C3853239F4A9
:1003100093FD859193FF81911F01853239F4B701D7
:1003200090E00E942D1856016501E5CF10E0512C98
:10033000912CFFE1F915D8F08B3279F038F4803246
:1003400079F08332A1F4F92DF0612EC08D3261F085
:10035000803369F4292D21602DC0392D3260932E10
:10036000892D8460982E2AC0E92DE86015C097FC7D
:100370002DC020ED280F2A3088F496FE06C03AE002
:10038000139F200D1124122F19C08AE0589E200DB2
:100390001124522EE92DE0629E2E10C08E3231F4CF
:1003A00096FCE5C2F92DF0649F2E08C08C3621F42E
:1003B000292D2068922E02C0883641F4F10193FD68
:1003C000859193FF81911F018111B3CF9BEB980F12
:1003D000933020F4992D9061805E07C09BE9980FBF
:1003E000933008F066C1992D9F7E96FF16E09F73AB
:1003F000992E853619F49064992E08C0863621F41A
:10040000392F3068932E02C01111115097FE07C08A
:100410001C3350F444244394410E27E00BC01830A1
:1004200038F027E017E005C027E09CE3492E02C022
:10043000212F412C560184E0A80EB11CF6016081E9
:10044000718182819381042DA3010E943F176C0169
:10045000F981FC87F0FF02C0F3FF06C091FC06C0E3
:1004600092FE06C000E205C00DE203C00BE201C02F
:1004700000E08C858C7019F001115AC29BC297FE66
:1004800010C04C0CFC85F4FF04C08A81813309F450
:100490004A94141474F528E0241578F588E0482E61
:1004A0002CC096FC2AC0812F90E08C159D059CF0F5
:1004B0003CEFC3163FEFD30674F0892D8068982E69
:1004C0000AC0E2E0F0E0EC0FFD1FE10FF11D8081BA
:1004D000803319F411501111F4CF97FE0EC044244B
:1004E0004394410E812F90E0C816D9062CF41C19B4
:1004F00004C04424439401C010E097FE06C01C14BD
:100500001D0434F4C601019605C085E090E002C0E8
:1005100081E090E001110196112331F0212F30E0AC
:100520002F5F3F4F820F931F252D30E082179307D7
:1005300014F4581A01C0512C892D897049F45520A2
:1005400039F0B70180E290E00E942D185A94F7CF5D
:10055000002329F0B701802F90E00E942D1893FC12
:1005600009C0552039F0B70180E390E00E942D18B2
:100570005A94F7CF97FE4CC04601D7FE02C0812C9B
:10058000912CC60188199909F301E80FF91FFE871C
:10059000ED87960124193109388B2F87012F10E040
:1005A0001195019511093FEF8316930629F4B701C0
:1005B0008EE290E00E942D18C814D9044CF08F856B
:1005C00098898815990524F4ED85FE85818101C0FF
:1005D00080E3F1E08F1A91082D853E852F5F3F4F14
:1005E0003E872D87801691062CF0B70190E00E947F
:1005F0002D18D9CFC814D90441F49A81963320F428
:10060000953319F43C8534FF81E3B70190E04EC087
:100610008A81813319F09C859F7E9C87B70190E089
:100620000E942D18111105C094FC18C085E690E0B9
:1006300017C0B7018EE290E00E942D181E5F82E085
:1006400001E0080FF301E80FF11D8081B70190E090
:100650000E942D18802F0113F3CFE6CF85E490E0A0
:10066000B7010E942D18D7FC06C0C114D10441F473
:10067000EC85E4FF05C0D194C194D1088DE201C09E
:100680008BE2B70190E00E942D1880E32AE0C216A9
:10069000D1042CF08F5FFAE0CF1AD108F7CFB70161
:1006A00090E00E942D18B701C601C0960E942D1837
:1006B00054C1833631F0833779F0833509F056C061
:1006C00020C0560132E0A30EB11CF601808189835F
:1006D00001E010E0630112C05601F2E0AF0EB11C60
:1006E000F601C080D18096FE03C0612F70E002C089
:1006F0006FEF7FEFC6010E9422188C01F92DFF7762
:1007000014C0560122E0A20EB11CF601C080D180B7
:1007100096FE03C0612F70E002C06FEF7FEFC6014D
:100720000E9417188C01F92DF0689F2EF3FD1AC056
:10073000852D90E008171907A8F4B70180E290E032
:100740000E942D185A94F4CFF60197FC859197FEDC
:1007500081916F01B70190E00E942D1851105A94B9
:10076000015011090115110579F7F7C0843611F010
:10077000893661F5560197FE09C024E0A20EB11C2E
:10078000F60160817181828193810AC0F2E0AF0E2F
:10079000B11CF60160817181072E000C880B990B4A
:1007A000F92DFF769F2E97FF09C090958095709543
:1007B00061957F4F8F4F9F4FF0689F2E2AE030E06A
:1007C000A3010E946918C82EC6183FC0092D85379D
:1007D00021F40F7E2AE030E01DC0097F8F3691F0B2
:1007E00018F4883559F0C3C0803719F0883711F0F4
:1007F000BEC0006104FF09C0046007C094FE08C0C9
:10080000066006C028E030E005C020E130E002C00C
:1008100020E132E0560107FF09C084E0A80EB11CB8
:10082000F601608171818281938108C0F2E0AF0E90
:10083000B11CF6016081718180E090E0A3010E940B
:100840006918C82EC6180F77902E96FE0BC0092D7A
:100850000E7FC11650F494FE0AC092FC08C0092D08
:100860000E7E05C0DC2C092D03C0DC2C01C0D12E6E
:1008700004FF0DC0FE01EC0DF11D8081803311F4E9
:10088000097E09C002FF06C0D394D39404C0802F10
:10089000867809F0D39403FD11C000FF06C01C2D1B
:1008A000D51480F4150D1D190DC0D51458F4B701D9
:1008B00080E290E00E942D18D394F7CFD51410F465
:1008C0005D1801C0512C04FF10C0B70180E390E017
:1008D0000E942D1802FF17C001FD03C088E790E0B9
:1008E00002C088E590E0B7010CC0802F867859F0EF
:1008F00001FF02C08BE201C080E207FD8DE2B7017B
:1009000090E00E942D18C11638F4B70180E390E002
:100910000E942D181150F7CFCA94F301EC0DF11D70
:100920008081B70190E00E942D18C110F5CF15C04D
:10093000F4E0F51560F584E0581A93FE1FC001112C
:1009400027C02C8523FF2AC004E910E0392D30711F
:10095000932EF8018491811124C0552009F4E4CC30
:10096000B70180E290E00E942D185A94F6CFF7016B
:100970008681978126C08FEF9FEF23C0B70180E269
:1009800090E00E942D185A945110F8CFD8CF512CD6
:10099000B701802F90E00E942D18D3CF08E910E016
:1009A000D5CF91108052B70190E00E942D180F5FB3
:1009B0001F4FCFCF23E0251510F483E0BDCF512C7E
:1009C000C0CF60960FB6F894DEBF0FBECDBFDF91EB
:1009D000CF911F910F91FF90EF90DF90CF90BF903C
:1009E000AF909F908F907F906F905F904F903F90CF
:1009F0002F9008958091720190917301009739F0C2
:100A0000DC01ED91FC910280F381E02D09940895C1
:100A1000FC0184859585892B09F00895A285B3850D
:100A200012968C9112976813F8CFB587A487DA01D4
:100A30008D919C91978786870895CF93DF93EC01E2
:100A40008C859D85009771F0DC01ED91FC9104800F
:100A5000F581E02DBE01625F7F4F09951D861C86E2
:100A60001F861E868981882329F019828C859D85A1
:100A7000892B19F0DF91CF9108951982FBCF88EB74
:100A800092E00C9424134AE050E088EB92E00C943E
:100A9000601388EB92E00C945B124AE050E088EB24
:100AA00092E00C9484120F931F93CF93DF93EC0189
:100AB00083E090E00E941C148C0138D01B870A87C9
:100AC0001D861C861F861E8682E38883198240E865
:100AD00055E260E070E088EB92E0DF91CF911F91EA
:100AE0000F910C94E31080917801882319F088E627
:100AF00091E0089588E791E00E941E14892BB9F3D4
:100B000088E691E0D0DF88E791E00E9427148AEF21
:100B100094E0ACDB88E691E0089508950C941D14F0
:100B2000E2DF66E971E0ABDF80E0089521E131E0CA
:100B3000FC0131832083128208950895EAE7F0E0F2
:100B400087E0808380E480937C0080818868808354
:100B500008952091810130918201232B11F080E0D2
:100B600008959093820180938101609380016F705A
:100B7000606460937C0080917A00806480937A0046
:100B800081E00895CF93DF9300D0CDB7DEB7809199
:100B9000810190918201892B11F1F8948091780064
:100BA00090E09A83898320917900922B9A8389839C
:100BB00078948091810190918201DC01ED91FC910A
:100BC0000480F581E02D40918001BE016F5F7F4F71
:100BD00009951092820110928101109280010F906C
:100BE0000F90DF91CF910895089508951F920F926D
:100BF0000FB60F9211240BB60F928F929F92AF9265
:100C0000BF92CF92DF92EF92FF920F931F932F9399
:100C10003F934F935F936F937F938F939F93AF9384
:100C2000BF93CF93DF93EF93FF938091830188234A
:100C300009F4FDC19090ED00EE24E394F12C909125
:100C4000E0008091E100892B09F446C08091E0002A
:100C500080FD18C08091E00081FD67C18091E000B7
:100C600082FD67C18091E00083FD67C18091E00053
:100C700084FD93C18091E00085FFB1C1F0E58F2E26
:100C8000C5E002C0812CC0E08092ED009091EE00A2
:100C9000892F807EA1F2D0E08E01000F111FF80194
:100CA000E557FE4FA081B18196FF37C0109759F0EC
:100CB000ED91FC9111970680F781E02D25E0E53F4D
:100CC000F20709F05CC11092EE009091E000809173
:100CD000E100892B09F0BACF9092ED00FF91EF91DE
:100CE000DF91CF91BF91AF919F918F917F916F9144
:100CF0005F914F913F912F911F910F91FF90EF9036
:100D0000DF90CF90BF90AF909F908F900F900BBED1
:100D10000F900FBE0F901F90189595FF90CF609188
:100D2000EF006F7061F020E030E08091FA00FD018B
:100D3000E20FF31F84832F5F3F4F2617B0F35E014E
:100D4000AA0CBB1CAA0CBB1CAA0CBB1CC5018C1B8F
:100D50009D0BFC01E854FE4F6F011396FC93EE933C
:100D60001297ED91FC9111970480F581E02D25E01B
:100D7000E43FF20709F02AC19091ED008092ED0066
:100D80008091EF008F738093EF00EEEEF0E0119210
:100D9000E83FF105E1F7F501EC1BFD0BE557FE4FD0
:100DA00082A9F601882309F4D2C08381282F220F5B
:100DB000220F220F8281829586958770820F809301
:100DC000F3008281282F220F220F220F818182952A
:100DD00086958770820F8093F2008181282F220FE1
:100DE000220F220F8081829586958770820F8093D3
:100DF000F1008081880F880F880F8093F000809128
:100E0000EF0080618093EF00F501EC1BFD0BE557CF
:100E1000FE4F81A9882309F494C08091F00084607A
:100E20008093F0002091EF00F501EC1BFD0BE557DE
:100E3000FE4F83A9822B8093EF00FE01E557FE4F02
:100E4000868D813009F45EC008F4ABC0823009F0B1
:100E50003ACFF801EC0FFD1FEE0FFF1FEA5DFD4FCB
:100E600080818111B6C08091F4008E7F8093F40060
:100E7000F801EC0FFD1FEE0FFF1FEB5DFD4F8081B2
:100E8000882309F4F2C08091F40084608093F40018
:100E9000F501EC1BFD0BE557FE4F82A9F801EC0FA5
:100EA000FD1FEE0FFF1FEF5DFD4F882309F4CBC040
:100EB0008381282F220F220F220F8281829586950F
:100EC0008770820F8093F7008281282F220F220FD4
:100ED000220F8181829586958770820F8093F6001C
:100EE0008181282F220F220F220F808182958695E3
:100EF0008770820F8093F5008081880F880F880F9C
:100F00008093F4008091DE00970102C0220F331F0E
:100F1000CA95E2F7822B8093DE008091DF00832B5D
:100F20008093DF009093ED00CECED0E18D2EC1E016
:100F3000ABCEC0E28C2EC2E0A7CEB0E38B2EC3E0D6
:100F4000A3CE8091F0008B7F8093F0006BCF218146
:100F50008081869586958695F0E22F9F800D1124DD
:100F60008093F300F60180818295880F807E8093C4
:100F7000F2008091EF008F7E8093EF0045CFBE019D
:100F8000660F771F660F771F660F771F6C1B7D0B31
:100F900068547E4FCD01099596CEA0E48A2EC4E018
:100FA00073CE8091DE00970102C0220F331FCA95D5
:100FB000E2F7922F909589238093DE008091DF00E5
:100FC000932F909589238093DF007DCECD010995E5
:100FD000D3CE8091F40081608093F40049CF80915A
:100FE000E00086FD48C08091E00087FD50C0809100
:100FF000E10080FD44C08091E10081FD44C080910A
:10100000E10082FD48C08091E10083FD48C08091ED
:10101000E10084FD48C08091E10085FD48C08091D9
:10102000E10086FF59CE10EE812ECEE02DCE83E872
:1010300091E00E941E14892B09F4FCCD83E891E015
:101040000E942714F7CD218180818695869586950B
:1010500030E2239F800D11248093F70080818295D8
:10106000880F807E8093F6004DCF8091F4008B7FB7
:101070008093F4000DCFE0E68E2EC6E005CE60E84A
:10108000862EC8E001CE50E9852EC9E0FDCD70E77F
:10109000872EC7E0F9CD40EA842ECAE0F5CD30EBCB
:1010A000832ECBE0F1CD20EC822ECCE0EDCD90ED87
:1010B000892ECDE0E9CDFC0190E021913191232BE7
:1010C00029F09F5F9F30C9F78FE00895892F089519
:1010D00081E08093D8001092DE001092DF0080EB58
:1010E0008093DB001092EC00613081F130F16230CE
:1010F00011F1633049F48EE08093E2008CE080933C
:10110000E30087E38093E4001092E50080E0982FED
:101110009295907F9093ED00EEEEF0E01192E83F13
:10112000F105E1F78F5F8F3091F78091D8008260F1
:101130008093D800089586E0DFCF1092E2008CE023
:101140008093E30086E38093E400DECF82E0D4CF97
:101150004F3080F450E0440F551FFC01E40FF51FA1
:1011600080819181892B11F0222321F0718360838A
:1011700081E0089580E00895242F30E0FC01E20F23
:10118000F31F568D513011F080E008954F30E0F795
:101190004295407F4093ED00D901AA0FBB1FAA0FD3
:1011A000BB1FAA0FBB1FA21BB30BA80FB91FD3965F
:1011B0008C91D397882361F090E0D396FB01E90FDF
:1011C000F11D20812093FA009F5F2C919217B0F3BC
:1011D0008091EF008F738093EF008091EF00806427
:1011E0008093EF0081E008950F931F93CF93DF93D7
:1011F000242F30E0EC01C20FD31F5E8D552331F058
:1012000080E0DF91CF911F910F91089551E05E8FA3
:101210008901000F111F000F111F000F111FD801AE
:10122000A21BB30BA80FB91F9D9657E0FB010190BD
:101230000D925A95E1F75091ED00642F6295607F11
:101240006093ED006091EF006F736093EF00EEEE3E
:10125000F0E01192E83FF105E1F7F801E21BF30B32
:10126000DC01AE0FBF1FD2966C91BD96E80FF91F3F
:101270006111B3C071816081669566956695A0E243
:101280007A9F600D11246093F30060816295660F70
:10129000607E6093F2006091EF006F7E6093EF00DC
:1012A000F801E21BF30BE80FF91F61A9662309F4AB
:1012B000CBC06091F00064606093F0007091EF002B
:1012C000F801E21BF30BE80FF91F63A9672B60938A
:1012D000EF006E8D613009F467C008F4BDC0623064
:1012E00009F0B8C0F901EE0FFF1FDF01A20FB31F15
:1012F000AA0FBB1FA80FB91FA556BF4F6C91611154
:10130000C0C06091F4006E7F6093F400DF01A20F13
:10131000B31FAA0FBB1FA80FB91FA656BF4F6C91D2
:10132000662309F4C6C06091F40064606093F40021
:10133000021B130BDC01A00FB11FD2966C91E20FC0
:10134000F31FEE0FFF1FEA56FF4FE80FF91F66234A
:1013500009F49DC08381982F990F990F990F82816D
:10136000829586958770890F8093F7008281982FE8
:10137000990F990F990F8181829586958770890FB2
:101380008093F6008181982F990F990F990F808192
:10139000829586958770890F8093F5008081880FEC
:1013A000880F880F8093F4002091DE0081E090E0A8
:1013B00002C0880F991F4A95E2F7822B8093DE00C6
:1013C0008091DF00892B8093DF005093ED0081E056
:1013D000DF91CF911F910F9108956381762F770F41
:1013E000770F770F6281629566956770670F6093DC
:1013F000F3006281762F770F770F770F6181629507
:1014000066956770670F6093F2006181762F770FA2
:10141000770F770F6081629566956770670F6093AD
:10142000F1006081660F660F660F6093F0006091B7
:10143000EF0060616093EF00F801E21BF30BE80F2F
:10144000F91F61A9611135CF6091F0006B7F609346
:10145000F00034CF81E0D5CE2091DE0081E090E035
:1014600002C0880F991F4A95E2F7809582238093E6
:10147000DE008091DF00909589238093DF0081E07A
:10148000C0CE6091F40061606093F4003FCF918121
:10149000808186958695869520E2929F800D112405
:1014A0008093F70080818295880F807E8093F6007C
:1014B0007BCF6091F4006B7F6093F40039CF1F9372
:1014C000CF93DF93262F30E0DC01A20FB31F5E968F
:1014D0001C925E977091ED00462F4295407F40939D
:1014E000ED004091EF004F734093EF00EEEEF0E01F
:1014F0001192E83FF105E1F7A901440F551F440F90
:10150000551F440F551FFA01E21BF30BEC01CE0FE0
:10151000DF1FCAA9BD96E80FF91FCC2309F4D2C07A
:10152000C381DC2FDD0FDD0FDD0FC281C295C695B3
:10153000C770CD0FC093F300C281DC2FDD0FDD0F2C
:10154000DD0FC181C295C695C770CD0FC093F20063
:10155000C181DC2FDD0FDD0FDD0FC081C295C69587
:10156000C770CD0FC093F100E081EE0FEE0FEE0FCC
:10157000E093F000E091EF00E061E093EF00FA010A
:10158000E21BF30BE80FF91FE1A9EE2309F494C065
:10159000E091F000E460E093F000F091EF00EA01E8
:1015A000C21BD30BC80FD91FEBA9EF2BE093EF00A1
:1015B0005E96EC91E13009F468C008F49AC0E2301C
:1015C00009F076C0F901EE0FFF1FDF01A20FB31F74
:1015D000AA0FBB1FA80FB91FA556BF4FAC91A111F1
:1015E0009FC0A091F400AE7FA093F400DF01A20F92
:1015F000B31FAA0FBB1FA80FB91FA656BF4FAC91B0
:10160000AA2309F4ACC0A091F400A460A093F40054
:10161000421B530BDC01A40FB51FD2964C912E0F29
:101620003F1F442309F482C0F901EE0FFF1FEA5661
:10163000FF4FE80FF91F8381982F990F990F990F8A
:101640008281829586958770890F8093F7008281C9
:10165000982F990F990F990F8181829586958770A0
:10166000890F8093F6008181982F990F990F990F18
:101670008081829586958770890F8093F50080819F
:10168000880F880F880F8093F4002091DE0081E09E
:1016900090E002C0880F991F6A95E2F7822B809331
:1016A000DE008091DF00892B8093DF007093ED00D6
:1016B000DF91CF911F910895E091F000EB7FE093CF
:1016C000F0006BCFD181C081C695C695C69510E25A
:1016D000D19FC00D1124C093F300E081E295EE0F7D
:1016E000E07EE093F200E091EF00EF7EE093EF0008
:1016F00046CF2091DE0081E090E002C0880F991F64
:101700006A95E2F7809582238093DE008091DF0066
:10171000909589238093DF00DF91CF911F910895E9
:10172000A091F400A160A093F40060CF220F331FBA
:101730002A563F4FFC01E20FF31F9181808186956D
:101740008695869520E2929F800D11248093F70064
:1017500080818295880F807E8093F60096CFA0913D
:10176000F400AB7FA093F40053CF089521E0FC0177
:10177000268B08950C941D141F93CF93DF93EC01D7
:101780001B821A828BE191E0998388837D876C8725
:10179000FA0180819181A281B3818E879F87A88B76
:1017A000B98B2A8BFE01B39688E0DF011D928A95E2
:1017B000E9F77D8B6C8B1BA680918301882351F107
:1017C0008BE891E078DC8A8F20E0482FBE018BE81F
:1017D00091E0BEDC811104C086D964ED71E04FD97F
:1017E00082D96BEB71E055D91A8D7DD9612F55D90E
:1017F0007AD966EB71E04DD91E8575D9612F43D931
:101800001CA681E08E8B188E1F8A198EDF91CF91D6
:101810001F91089583E891E00E941E14892B81F2A4
:1018200083E891E00E942714CBCF453060F4242F49
:1018300030E0220F331FFC01E20FF31F03A0F4A1DD
:10184000E02DEF2B11F080E00895FC0153A5451722
:1018500010F04F5F43A7FC01E20FF31F74A363A3D3
:10186000FC0114A681E00895FC0184899589019703
:10187000958B848B84899589892B31F481E0838BC6
:1018800084859585958B848B0895AF92BF92DF9266
:10189000EF92FF920F931F93CF93DF93CDB7DEB7F5
:1018A00027970FB6F894DEBF0FBECDBF8C01FC01A9
:1018B00084A5882309F476C0F8018389882309F474
:1018C0005CC08689882309F495C010927B02168A31
:1018D000138A818D8F5F818F2789308D2115310586
:1018E00009F09FC0F80123A5F12CF216A0F4EF2D0A
:1018F000F0E0EE0FFF1FE00FF11F83A194A100970E
:1019000009F44EC0EBD0882309F447C0F394F801E2
:1019100023A5F21660F35801FBE1AF0EB11C88E07D
:10192000F50111928A95E9F72223D9F0D12CED2CFB
:10193000F12CEE0CFF1CF801EE0DFF1D83A194A10C
:10194000009751F0D5D099838A83F501EE0DFF1DE4
:1019500089819A8191838083D394F80183A5D816D5
:1019600030F3F801128D80918301882309F461C05E
:10197000412FB5018BE891E0FFDB27960FB6F89475
:10198000DEBF0FBECDBFDF91CF911F910F91FF90B2
:10199000EF90DF90BF90AF900895F80123A5A5CFF9
:1019A000F394A3CF80918301882391F1CE01019616
:1019B0007C0187E0F70111928A95E9F7F8018685A5
:1019C0009785A089B18989839A83AB83BC8383A5DA
:1019D000880F8F83628D8BE891E071DDF801428D75
:1019E000B7018BE891E000DC882369F181E0F80120
:1019F00084A7C3CF80917B028111BFCF81E0809308
:101A00007B02F8018789908D0196908F878BB5CFE7
:101A100083E891E013D7892B49F283E891E017D747
:101A2000C5CF8F3F09F05ECF21503109308F278B12
:101A300059CF83E891E002D7892B09F499CF83E845
:101A400091E005D795CF4FD863EA71E018D895CFCC
:101A5000FB0120813181FC013087278321E0218730
:101A6000089527E231E0FC013183208366C8CF93DB
:101A7000DF93EC0187E291E099838883CE015DD802
:101A8000CE01DF91CF91D9C6FC01DB0187E291E065
:101A9000918380838D919C91119793838283129679
:101AA0008D919C9113979583848314968C911497B0
:101AB000868381E04D915C91119712962D913C9116
:101AC0001397421753070CF080E0828715968D918B
:101AD0009C9116979487838711860895CF93DF93FF
:101AE000EC016E8136D881111986DF91CF9108956E
:101AF000CF92DF92EF92FF920F931F93CF93DF93DA
:101B000000D000D0CDB7DEB78C01F894DC01179679
:101B10006D917C91189780E090E07BD72AE038E2C5
:101B200040EA5BE30E94BB1569837A838B839C83C5
:101B30007894C980DA80EB80FC8022E430E645E6C8
:101B40005CEBC701B6010E94BB152CE437E349E802
:101B50005DE3C6D69B01AC01C701B601C0D66B01DF
:101B60007C0120E030E0A9011FD787FD19C0C982A0
:101B7000DA82EB82FC82D8011B96ED91FC911C97D6
:101B8000CE01019609950F900F900F900F90DF9165
:101B9000CF911F910F91FF90EF90DF90CF9008951C
:101BA00019821A821B821C82E6CF2FE632E143E8BB
:101BB00052E4FC016081718182819381DCD720E055
:101BC00030E048EC52E4D7D7F3D6CB0108958F929A
:101BD0009F92AF92BF92CF92DF92EF92FF921F93AC
:101BE000CF93DF93CDB7DEB7A5970FB6F894DEBFDE
:101BF0000FBECDBF4C0185E2EDE2F1E0DE011196B2
:101C000001900D928A95E1F78DE290E015D65C0186
:101C10006F8178852D81AE014F5F5F4FADDDF4019F
:101C2000B18AA08A8DA1882329F110E08DE090E08F
:101C300003D66C01E12EF12C61E070E06C0F7D1F8A
:101C4000F7E01F9F600D711D1124685F7F4F1CDF3F
:101C5000EE0CFF1CF401EE0DFF1DD182C082FF24AB
:101C6000F394F10E412FB601C501DFDD1F2D8DA1CB
:101C7000F816E0F2A5960FB6F894DEBF0FBECDBF02
:101C8000DF91CF911F91FF90EF90DF90CF90BF90A9
:101C9000AF909F908F90089580918E02882319F0C5
:101CA0008CE792E008958EE892E0C8D5892BC1F3C5
:101CB0008CE792E08CDF8EE892E0C9D58CE792E069
:101CC0000895FC0180899189E0CDFC01808991898A
:101CD000CBCD80918301882319F08BE891E00895A2
:101CE00083E891E0ABD5892BC1F383E891E0AFD5D0
:101CF0008BE891E00895CF92DF92EF92FF92CF931D
:101D0000F894B99B16C08091960290919702A09189
:101D10009802B09199020196A11DB11D809396027F
:101D200090939702A0939802B093990287B38D6F16
:101D300087BBC091B2008091960290919702A091CA
:101D40009802B09199027894880F991FAA1FBB1F1F
:101D5000880F991FAA1FBB1F880F991FAA1FBB1F9F
:101D6000880F991FAA1FBB1F880F991FAA1FBB1F8F
:101D7000880F991FAA1FBB1FBC01CD01660F771FDB
:101D8000881F991F46D66B017C016C2F70E080E0A4
:101D900090E041D620E030E040E05FE3ECD69B01EC
:101DA000AC01C701B6019CD5CF91FF90EF90DF90B9
:101DB000CF9008951F920F920FB60F9211240BB679
:101DC0000F922F933F934F935F936F937F938F93D4
:101DD0009F93AF93BF93EF93FF9381E080939A0219
:101DE0005BDF73DFFF91EF91BF91AF919F918F9177
:101DF0007F916F915F914F913F912F910F900BBE0B
:101E00000F900FBE0F901F9018951F920F920FB654
:101E10000F9211248F939F93AF93BF93809196025B
:101E200090919702A0919802B09199020196A11DFC
:101E3000B11D8093960290939702A0939802B0935D
:101E40009902BF91AF919F918F910F900FBE0F900C
:101E50001F9018951F920F920FB60F9211240BB678
:101E60000F922F933F934F935F936F937F938F9333
:101E70009F93AF93BF93EF93FF930E94C205FF918F
:101E8000EF91BF91AF919F918F917F916F915F91F2
:101E90004F913F912F910F900BBE0F900FBE0F905F
:101EA0001F901895CF93DF93CDB7DEB72F970FB65E
:101EB000F894DEBF0FBECDBFF8940E9473056C018D
:101EC000809181008A608093810010928500109239
:101ED00084008FEC97E09093890080938800809134
:101EE0006F00826080936F008091B0008A60809361
:101EF000B0001092B2008FEF8093B3008091700019
:101F00008260809370000E949E05E3DE60E0E0D86E
:101F1000C3DE7C0178941A8219820E947305AE0197
:101F20004F5F5F4F60E00E940805D3DE8C0187E0C1
:101F3000E6E0F1E0DE01199601900D928A95E1F755
:101F400064E0C801BCDA44E0BE01675F7F4FC801AE
:101F50004BD9612C712C812C912CCDDE1B012C01D5
:101F6000C701AFDEC6010E941D0580919A02811152
:101F700010C0C1DEA2019101B2D45B018C019B01B2
:101F8000AC01B301C40110D587FFE7CF350148018B
:101F9000E4CF10929A02B301C4010FD58B011B82CA
:101FA0001C821D821E821F82188619836A8380917B
:101FB0008301882361F044E0BE016F5F7F4F8BE8AF
:101FC00091E0DAD8612C712C812C912CD2CF83E84E
:101FD00091E034D4892B79F383E891E038D4EBCFC6
:101FE000089580E090E00895FC0124853585F9018D
:101FF000E058FF4F8081918180589F4F3296208119
:102000003181821B930B8F77907897FF089501970A
:1020100080689F6F01960895FC0184859585FC0179
:10202000EE57FF4F20813181DC01A058BF4F4D9109
:102030005C9142175307C1F0DC01A20FB31F8C91D2
:102040002F5F3F4F2F77307837FD04C031832083D7
:1020500090E008952150310920683F6F2F5F3F4F76
:102060003183208390E008958FEF9FEF0895FC0166
:1020700084859585FC01E058FF4FDC01AE57BF4FCA
:102080008D919C91918380830895DC015296ED910E
:10209000FC91539741E050E05B960C905B9702C037
:1020A000440F551F0A94E2F7208130E024233523A2
:1020B000232BD1F35696ED91FC915797608381E0E5
:1020C00090E00895BAC31F920F920FB60F92112499
:1020D0000BB60F922F933F934F935F936F938F9312
:1020E0009F93EF93FF936091C6002091D9033091A5
:1020F000DA03C90101968F77907897FD1FC0409150
:10210000DB035091DC038417950741F0F901E75A8E
:10211000FC4F60839093DA038093D903FF91EF9192
:102120009F918F916F915F914F913F912F910F9060
:102130000BBE0F900FBE0F901F90189501978068EF
:102140009F6F0196DCCF1F920F920FB60F92112452
:102150000BB60F922F933F934F935F936F938F9391
:102160009F93EF93FF936091CE00209155033091A0
:102170005603C90101968F77907897FD1FC0409153
:102180005703509158038417950741F0F901EB521A
:10219000FD4F60839093560380935503FF91EF9119
:1021A0009F918F916F915F914F913F912F910F90E0
:1021B0000BBE0F900FBE0F901F901895019780686F
:1021C0009F6F0196DCCF8F929F92AF92BF92CF927A
:1021D000DF92EF92FF921F93CF93DF93EC016A019E
:1021E0007B01413452446F40710508F455C0EA89BF
:1021F000FB8981E090E00C8C02C0880F991F0A9443
:10220000E2F7808360E079E08DE390E0A70196013A
:1022100022D3DA01C9010197A109B109AC01BD01BD
:102220007695679557954795CA01EE85FF8590830A
:10223000E889F9898083EC89FD89408181E090E01B
:102240009C01088C02C0220F331F0A94E2F7242B52
:102250002083EC89FD8940819C01098C02C0220FFA
:10226000331F0A94E2F7242B2083EC89FD89208117
:102270000A8C02C0880F991F0A94E2F7822B808390
:10228000DF91CF911F91FF90EF90DF90CF90BF90A3
:10229000AF909F908F90089560E874E88EE190E091
:1022A000A7019601D8D249015A0181E0881A910804
:1022B000A108B108B694A79497948794D501C40156
:1022C0000196A11DB11D880F991FAA1FBB1F880F62
:1022D000991FAA1FBB1F9C01AD01220F331F441F72
:1022E000551F220F331F441F551F60E074E284EF17
:1022F00090E0B1D2AFEFB0E0D0D2A7019601ABD25F
:102300008FEF90E0821B930B18161906BCF5122F65
:10231000109560E079E08DE390E0A70196019BD2F3
:10232000DA01C9010197A109B1098E7F0296A11DA9
:10233000B11D9C01AD01220F331F441F551F220FF9
:10234000331F441F551F60E074E284EF90E083D296
:10235000AFEFB0E0A2D2A70196017DD28FEF90E05F
:10236000821B930B1816190664F42095211708F4A4
:102370003ECFEA89FB891082C40157CF11E0120FCA
:10238000C8CF2F5FF3CFCF92DF92EF92FF92E8EBAF
:10239000F2E01382128288EEC82E83E0D82EE12C60
:1023A000F12CC482D582E682F782108611861286CD
:1023B000138666E571E07183608389E593E0958714
:1023C000848785EC90E09787868784EC90E0918BFA
:1023D000808B80EC90E0938B828B81EC90E0958BEE
:1023E000848B86EC90E0978B868B44E0408F33E0C3
:1023F000318F27E0228F95E0938F81E0848FEBE986
:10240000F2E013821282C482D582E682F7821086BD
:102410001186128613867183608365ED72E075877D
:1024200064876DEC70E0778766876CEC70E0718B89
:10243000608B68EC70E0738B628B69EC70E0758B7D
:10244000648B6EEC70E0778B668B408F318F228FC0
:10245000938F848FFF90EF90DF90CF900895CF926D
:10246000DF92EF92FF920F931F93CF93DF9341156B
:102470005105F1F08C017B01EA01C12CD12CD7016F
:102480006D917D01D801ED91FC910190F081E02DDD
:10249000C8010995C80ED91E219789F7C601DF9199
:1024A000CF911F910F91FF90EF90DF90CF90089503
:1024B000C12CD12CF3CFEF92FF920F931F93CF93A8
:1024C000DF93EB012196FB0164916623D1F08C012F
:1024D000E12CF12CD801ED91FC910190F081E02DDF
:1024E000C8010995E80EF91EFE016491219661115B
:1024F000F1CFC701DF91CF911F910F91FF90EF9026
:102500000895E12CF12CF5CF4F925F926F927F925C
:102510009F92AF92BF92CF92DF92EF92FF920F9372
:102520001F93CF93DF93CDB7DEB7A1970FB6F89483
:10253000DEBF0FBECDBF5C014115510509F46CC073
:10254000942E19A2B1E0B41708F06EC0442E512C9D
:10255000612C712CC62ED12CE12CF12C8E010F5D3B
:102560001F4F09C0805DF801808369017A01232B28
:10257000242B252B79F0C701B601A30192016BD161
:102580008C2D929E80191124015011098A3050F32C
:10259000895CE9CFD501ED91FC9122813381D8018D
:1025A0000D900020E9F71197AD01401B510BB2E1EE
:1025B0002F323B0709F040C04115510509F441C0D5
:1025C0007A01C12CD12C03C0D501ED91FC91D80129
:1025D0006D918D010190F081E02DC5010995C80E26
:1025E000D91EB1E0EB1AF10879F7C601A1960FB632
:1025F000F894DEBF0FBECDBFDF91CF911F910F9139
:10260000FF90EF90DF90CF90BF90AF909F907F9022
:102610006F905F904F900895DC01ED91FC910190D7
:10262000F081E02D0995E2CF8AE0482E512C612CF3
:10263000712C9AE0992E8ECFB801C501F901099548
:10264000D5CF80E090E0D2CFEF92FF920F931F930F
:10265000CF93DF938C01EB012196FB016491E12C78
:10266000F12C662379F0D801ED91FC910190F08175
:10267000E02DC8010995E80EF91EFE01649121962E
:102680006111F1CFD801ED91FC910190F081E02D25
:102690006DE0C8010995EC01D801ED91FC91019024
:1026A000F081E02D6AE0C8010995EC0EFD1E8E0D4B
:1026B0009F1DDF91CF911F910F91FF90EF90089593
:1026C0004F925F926F927F929F92AF92BF92CF9202
:1026D000DF92EF92FF920F931F93CF93DF93CDB7CB
:1026E000DEB7A1970FB6F894DEBF0FBECDBF5C0179
:1026F0004115510509F480C0942E19A2B1E0B41718
:1027000008F086C0442E512C612C712CC62ED12C81
:10271000E12CF12C8E010F5D1F4F09C0805DF80187
:10272000808369017A01232B242B252B79F0C701A3
:10273000B601A30192018FD08C2D929E8019112495
:10274000015011098A3050F3895CE9CFD501ED9130
:10275000FC9122813381D8010D900020E9F7119777
:10276000AD01401B510BB2E12F323B0709F058C0BD
:102770004115510509F45DC07A01C12CD12CD80155
:102780006D918D010190F081E02DC5010995C80E74
:10279000D91EB1E0EB1AF108D501ED91FC91E114DD
:1027A000F10469F70190F081E02D6DE0C501099514
:1027B0008C01D501ED91FC910190F081E02D6AE052
:1027C000C5010995C00ED11E8C0D9D1DA1960FB699
:1027D000F894DEBF0FBECDBFDF91CF911F910F9157
:1027E000FF90EF90DF90CF90BF90AF909F907F9041
:1027F0006F905F904F900895DC01ED91FC910190F6
:10280000F081E02D09956C01D501ED91FC91CACFC5
:102810008AE0482E512C612C712C9AE0992E76CFAB
:10282000B801C501F90109956C01D501ED91FC9143
:10283000B9CFC12CD12CB6CF01C298C2FC0181E026
:1028400090E02081222311F080E090E0089521E0C3
:10285000FC0120830895A1E21A2EAA1BBB1BFD01D7
:102860000DC0AA1FBB1FEE1FFF1FA217B307E4076F
:10287000F50720F0A21BB30BE40BF50B661F771FC7
:10288000881F991F1A9469F76095709580959095A7
:102890009B01AC01BD01CF01089512D0A59F900D01
:1028A000B49F900DA49F800D911D11240895EE0FEB
:1028B000FF1F0024001C0BBE0790F691E02D099429
:1028C000A29FB001B39FC001A39F700D811D112471
:1028D000911DB29F700D811D1124911D08955058B6
:1028E000BB27AA270ED00DC1FED030F003D120F0B7
:1028F00031F49F3F11F41EF4F3C00EF4E095E7FBB2
:10290000E9C0E92F0FD180F3BA1762077307840774
:10291000950718F071F49EF527C10EF4E0950B2E83
:10292000BA2FA02D0B01B90190010C01CA01A00121
:102930001124FF27591B99F0593F50F4503E68F17C
:102940001A16F040A22F232F342F4427585FF3CFBD
:10295000469537952795A795F0405395C9F77EF48E
:102960001F16BA0B620B730B840BBAF09150A1F0D7
:10297000FF0FBB1F661F771F881FC2F70EC0BA0F5D
:10298000621F731F841F48F4879577956795B795E5
:10299000F7959E3F08F0B3CF9395880F08F09927DD
:1029A000EE0F97958795089571D008F481E008950A
:1029B00004D06894B111D9C00895BCD088F09F5755
:1029C00090F0B92F9927B751A0F0D1F0660F771F7B
:1029D000881F991F1AF0BA95C9F712C0B13081F05B
:1029E000C3D0B1E00895C0C0672F782F8827B85FA3
:1029F00039F0B93FCCF3869577956795B395D9F7BC
:102A00003EF490958095709561957F4F8F4F9F4FC5
:102A10000895E89409C097FB3EF4909580957095D1
:102A200061957F4F8F4F9F4F9923A9F0F92F96E91A
:102A3000BB279395F695879577956795B795F1118F
:102A4000F8CFFAF4BB0F11F460FF1BC06F5F7F4F2C
:102A50008F4F9F4F16C0882311F096E911C077233E
:102A600021F09EE8872F762F05C0662371F096E847
:102A7000862F70E060E02AF09A95660F771F881F16
:102A8000DAF7880F9695879597F90895990F0008BA
:102A9000550FAA0BE0E8FEEF16161706E807F90730
:102AA000C0F012161306E407F50798F0621B730BCB
:102AB000840B950B39F40A2661F0232B242B252B4C
:102AC00021F408950A2609F4A140A6958FEF811DEF
:102AD000811D089597F99F6780E870E060E0089590
:102AE0009FEF80EC089500240A9416161706180626
:102AF0000906089500240A94121613061406050602
:102B00000895092E0394000C11F4882352F0BB0F92
:102B100040F4BF2B11F460FF04C06F5F7F4F8F4FF5
:102B20009F4F089557FD9058440F551F59F05F3F30
:102B300071F04795880F97FB991F61F09F3F79F0DF
:102B400087950895121613061406551FF2CF469561
:102B5000F1DF08C0161617061806991FF1CF8695E3
:102B60007105610508940895E894BB2766277727C7
:102B7000CB0197F908950BD0C4CFB5DF28F0BADFA9
:102B800018F0952309F0A6CFABCF1124EECFCADF02
:102B9000A0F3959FD1F3950F50E0551F629FF00170
:102BA000729FBB27F00DB11D639FAA27F00DB11DC9
:102BB000AA1F649F6627B00DA11D661F829F222752
:102BC000B00DA11D621F739FB00DA11D621F839FD9
:102BD000A00D611D221F749F3327A00D611D231FAF
:102BE000849F600D211D822F762F6A2F11249F57FD
:102BF00050408AF0E1F088234AF0EE0FFF1FBB1F20
:102C0000661F771F881F91505040A9F79E3F5105BE
:102C100070F060CFAACF5F3FECF3983EDCF386956F
:102C200077956795B795F795E7959F5FC1F7FE2B69
:102C3000880F911D9695879597F908950F931F9387
:102C4000CF93DF938230910510F482E090E0E09121
:102C5000DF03F091E00320E030E0A0E0B0E0309747
:102C600019F1408151810281138148175907C8F039
:102C70008417950769F4109731F012960C93129708
:102C800013961C9327C00093DF031093E00322C028
:102C90002115310519F04217530718F49A01BD01A7
:102CA000EF01DF01F801DBCF21153105F9F0281B19
:102CB000390B2430310580F48A819B8161157105BF
:102CC00021F0FB019383828304C09093E0038093FF
:102CD000DF03FE01329644C0FE01E20FF31F819331
:102CE000919322503109398328833AC02091DD0322
:102CF0003091DE03232B41F4209102013091030136
:102D00003093DE032093DD03209100013091010117
:102D10002115310541F42DB73EB740910401509182
:102D20000501241B350BE091DD03F091DE03E21772
:102D3000F307A0F42E1B3F0B2817390778F0AC01DE
:102D40004E5F5F4F2417350748F04E0F5F1F5093BB
:102D5000DE034093DD038193919302C0E0E0F0E055
:102D6000CF01DF91CF911F910F910895CF93DF9302
:102D7000009709F481C0FC01329713821282A0915E
:102D8000DF03B091E003109781F420813181820F3D
:102D9000931F2091DD033091DE032817390751F589
:102DA000F093DE03E093DD0367C0ED0120E030E047
:102DB000CE17DF0740F44A815B819E014115510522
:102DC000F1F0EA01F5CFD383C28340815181840FB2
:102DD000951FC817D90759F488819981840F951FC9
:102DE0000296918380838A819B81938382832115BC
:102DF000310529F4F093E003E093DF033DC0E901DE
:102E0000FB83EA8349915991C40FD51FEC17FD0745
:102E100061F480819181840F951F0296E901998365
:102E20008883828193819B838A83E0E0F0E012961D
:102E30008D919C911397009719F0FD01DC01F7CF5C
:102E40008D919C9111979D012E5F3F4F820F931F93
:102E50002091DD033091DE032817390769F430979C
:102E600029F41092E0031092DF0302C01382128251
:102E7000B093DE03A093DD03DF91CF910895283056
:102E800008F027E03327DA01990F311D87FD9160A3
:102E900000966105710539F432602E5F3D9330E391
:102EA0002A95E1F708959F3F30F08038710561055C
:102EB00009F03C5F3C5F3D93913008F08068911DC4
:102EC000DF93CF931F930F93FF92EF92192F987F69
:102ED0009695E92F96959695E90FFF27EA50FF4FB3
:102EE00099273327EE24FF24A701E70105900894D2
:102EF000079428F4360FE71EF81E491F511D660F70
:102F0000771F881F991F0694A1F70590079428F44E
:102F1000E70EF81E491F561FC11D770F881F991F06
:102F2000661F0694A1F70590079428F4F80E491F30
:102F3000561FC71FD11D880F991F661F771F069444
:102F4000A1F70590079420F4490F561FC71FD81FFB
:102F5000990F661F771F881F0694A9F78491109513
:102F6000177041F0D695C79557954795F794E79414
:102F70001A95C1F7ECE9F0E0689415901591359138
:102F80006591959105907FE27395E118F10A430BE5
:102F9000560BC90BD009C0F7E10CF11E431F561F99
:102FA000C91FD01D7EF4703311F48A95E6CFE894E2
:102FB000015030F0080F0AF40027021708F4202F00
:102FC0002395022F7A3328F079E37D932A95E9F748
:102FD00010C07D932A9589F6069497956795379545
:102FE00017951794E118F10A430B560BC90BD0093A
:102FF00098F023957E9173957A3308F070E37C9373
:103000002013B8F77E9170617D9330F0839571E362
:103010007D9370E32A95E1F71124EF90FF900F91D3
:103020001F91CF91DF91992787FD90950895FC011D
:103030000590615070400110D8F7809590958E0FE3
:103040009F1F0895FC016150704001900110D8F756
:10305000809590958E0F9F1F08950F931F93CF9388
:10306000DF93FB01238121FD03C08FEF9FEF2CC075
:1030700022FF16C0468157812481358142175307AC
:1030800044F4A081B1819D012F5F3F4F31832083A4
:103090008C93268137812F5F3F4F3783268314C05F
:1030A0008B01EC01FB010084F185E02D0995892B52
:1030B000E1F6D80116968D919C9117970196179677
:1030C0009C938E931697CE01DF91CF911F910F9114
:1030D0000895FA01AA27283051F1203181F1E894AE
:1030E0006F936E7F6E5F7F4F8F4F9F4FAF4FB1E0FB
:1030F0003ED0B4E03CD0670F781F891F9A1FA11DF6
:10310000680F791F8A1F911DA11D6A0F711D811DF6
:10311000911DA11D20D009F468943F912AE0269FBB
:1031200011243019305D3193DEF6CF010895462F1A
:103130004770405D4193B3E00FD0C9F7F6CF462FFB
:103140004F70405D4A3318F0495D31FD4052419364
:1031500002D0A9F7EACFB4E0A69597958795779521
:103160006795BA95C9F700976105710508959B01A8
:10317000AC010A2E06945795479537952795BA9531
:10318000C9F7620F731F841F951FA01D08950E9429
:063190002201F894FFCFBC
:103196000000E1032000D50000000000020000004E
:1031A600008D058E05900500000000B50BBA0BF4E6
:1031B60005B60B00000000310D370D280DD30000B9
:1031C60000000001000000000000D50D0000000016
:1031D60001D50D0000000002D50D0000000003D54A
:1031E6000D040000000045102F12F40F0C10F10F13
:0631F6003710F00F62101B
:00000001FF
