:10000000FDC0000025C1000023C1000021C1000087
:100010001FC100001DC100001BC1000019C100006C
:1000200017C100000C94C41013C1000011C10000DE
:100030000C949C100DC100000BC1000009C1000010
:1000400007C1000005C100004CC5000001C100004F
:10005000FFC000000C941412FBC00000F9C00000A7
:10006000F7C000000C94E910F3C00000F1C00000DC
:10007000EFC00000EDC00000EBC00000E9C00000D0
:100080000C945412E5C00000E3C00000E1C0000081
:10009000DFC000006E616E00696E660000407A107D
:1000A000F35A00A0724E18090010A5D4E80000E829
:1000B0007648170000E40B54020000CA9A3B000087
:1000C00000E1F505000080969800000040420F0016
:1000D0000000A08601000000102700000000E803D7
:1000E000000000006400000000000A0000000000A2
:1000F0000100000000002C76D888DC674F0823DF61
:10010000C1DFAE59E1B1B796E5E3E453C63AE65133
:10011000997696E8E6C28426EB898C9B62ED407C5A
:100120006FFCEFBC9C9F40F2BAA56FA5F490055AF6
:100130002AF75C936B6CF9676DC11BFCE0E40D471B
:10014000FEF520E6B500D0ED902E0300943577053E
:100150000080841E080000204E0A000000C80C33F6
:100160003333330F986E12831141EF8D2114893B85
:10017000E65516CFFEE6DB18D1844B381BF77C1D05
:10018000901DA4BBE424203284725E228100C9F158
:1001900024ECA1E53D27436F6D6D616E645F54658E
:1001A000737400556E61626C6520746F20436F6ECE
:1001B00066696754780020496E74657276616C3A9E
:1001C00020002049443A200043414E53656E736F2E
:1001D0007254696D657220437265617465643A207A
:1001E000004641494C454420544F2042494E44204A
:1001F0004C495354454E45520000741311241FBE00
:10020000CFEFD0E1DEBFCDBF11E0A0E0B1E0E8EF7D
:10021000F4E300E00BBF02C007900D92A238B107D3
:10022000D9F724E0A2E8B1E001C01D92A030B207E6
:10023000E1F710E0CEEFD0E004C02197FE010E946C
:100240000816CD3FD107C9F70E9448110C94781ABF
:10025000D7CEA0918201B0918301109769F0ED9102
:10026000FC91119712968D919C9113979093830115
:10027000809382010995EDCF0895CF93DF93EC0130
:1002800084E090E00E94CF17009781F0FC01D183B9
:10029000C083209182013091830133832283909324
:1002A00083018093820180E090E002C081E090E0D1
:1002B000DF91CF9108952F923F924F925F926F926C
:1002C0007F928F929F92AF92BF92CF92DF92EF92E6
:1002D000FF920F931F93CF93DF93CDB7DEB7609755
:1002E0000FB6F894DEBF0FBECDBF7C011B016A01C3
:1002F000FC0117821682838181FF44C39E012F5F18
:100300003F4F3901F7019381F10193FD859193FFEF
:1003100081911F01882309F431C3853239F493FD9B
:10032000859193FF81911F01853239F4B70190E0E7
:100330000E94DE1956016501E5CF10E0512C912C89
:10034000FFE1F915D8F08B3279F038F4803279F08A
:100350008332A1F4F92DF0612EC08D3261F080332B
:1003600069F4292D21602DC0392D3260932E892DFD
:100370008460982E2AC0E92DE86015C097FC2DC036
:1003800020ED280F2A3088F496FE06C03AE0139F2D
:10039000200D1124122F19C08AE0589E200D11241F
:1003A000522EE92DE0629E2E10C08E3231F496FC62
:1003B000E5C2F92DF0649F2E08C08C3621F4292D5A
:1003C0002068922E02C0883641F4F10193FD859198
:1003D00093FF81911F018111B3CF9BEB980F933055
:1003E00020F4992D9061805E07C09BE9980F9330AF
:1003F00008F066C1992D9F7E96FF16E09F73992E97
:10040000853619F49064992E08C0863621F4392F68
:100410003068932E02C01111115097FE07C01C3393
:1004200050F444244394410E27E00BC0183038F0B8
:1004300027E017E005C027E09CE3492E02C0212FEA
:10044000412C560184E0A80EB11CF6016081718137
:1004500082819381042DA3010E94F0186C01F9811F
:10046000FC87F0FF02C0F3FF06C091FC06C092FEBD
:1004700006C000E205C00DE203C00BE201C000E0CF
:100480008C858C7019F001115AC29BC297FE10C066
:100490004C0CFC85F4FF04C08A81813309F44A9432
:1004A000141474F528E0241578F588E0482E2CC043
:1004B00096FC2AC0812F90E08C159D059CF03CEFA6
:1004C000C3163FEFD30674F0892D8068982E0AC0BA
:1004D000E2E0F0E0EC0FFD1FE10FF11D80818033C1
:1004E00019F411501111F4CF97FE0EC04424439417
:1004F000410E812F90E0C816D9062CF41C1904C0B7
:100500004424439401C010E097FE06C01C141D044F
:1005100034F4C601019605C085E090E002C081E098
:1005200090E001110196112331F0212F30E02F5F6F
:100530003F4F820F931F252D30E08217930714F44D
:10054000581A01C0512C892D897049F4552039F071
:10055000B70180E290E00E94DE195A94F7CF0023A1
:1005600029F0B701802F90E00E94DE1993FC09C0AA
:10057000552039F0B70180E390E00E94DE195A94CB
:10058000F7CF97FE4CC04601D7FE02C0812C912CBC
:10059000C60188199909F301E80FF91FFE87ED8755
:1005A000960124193109388B2F87012F10E01195FE
:1005B000019511093FEF8316930629F4B7018EE2E6
:1005C00090E00E94DE19C814D9044CF08F859889F8
:1005D0008815990524F4ED85FE85818101C080E3AD
:1005E000F1E08F1A91082D853E852F5F3F4F3E87A2
:1005F0002D87801691062CF0B70190E00E94DE193D
:10060000D9CFC814D90441F49A81963320F4953394
:1006100019F43C8534FF81E3B70190E04EC08A8134
:10062000813319F09C859F7E9C87B70190E00E94E2
:10063000DE19111105C094FC18C085E690E017C0C2
:10064000B7018EE290E00E94DE191E5F82E001E0B9
:10065000080FF301E80FF11D8081B70190E00E94BF
:10066000DE19802F0113F3CFE6CF85E490E0B701C8
:100670000E94DE19D7FC06C0C114D10441F4EC85F8
:10068000E4FF05C0D194C194D1088DE201C08BE292
:10069000B70190E00E94DE1980E32AE0C216D1047F
:1006A0002CF08F5FFAE0CF1AD108F7CFB70190E0B6
:1006B0000E94DE19B701C601C0960E94DE1954C11E
:1006C000833631F0833779F0833509F056C020C086
:1006D000560132E0A30EB11CF6018081898301E04E
:1006E00010E0630112C05601F2E0AF0EB11CF6013A
:1006F000C080D18096FE03C0612F70E002C06FEF12
:100700007FEFC6010E94D3198C01F92DFF7714C029
:10071000560122E0A20EB11CF601C080D18096FEE7
:1007200003C0612F70E002C06FEF7FEFC6010E942F
:10073000C8198C01F92DF0689F2EF3FD1AC0852D84
:1007400090E008171907A8F4B70180E290E00E9432
:10075000DE195A94F4CFF60197FC859197FE8191AA
:100760006F01B70190E00E94DE1951105A940150B8
:1007700011090115110579F7F7C0843611F0893692
:1007800061F5560197FE09C024E0A20EB11CF601E6
:1007900060817181828193810AC0F2E0AF0EB11C49
:1007A000F60160817181072E000C880B990BF92DE1
:1007B000FF769F2E97FF09C0909580957095619563
:1007C0007F4F8F4F9F4FF0689F2E2AE030E0A301AC
:1007D0000E941A1AC82EC6183FC0092D853721F469
:1007E0000F7E2AE030E01DC0097F8F3691F018F4AB
:1007F000883559F0C3C0803719F0883711F0BEC072
:10080000006104FF09C0046007C094FE08C00660D0
:1008100006C028E030E005C020E130E002C020E161
:1008200032E0560107FF09C084E0A80EB11CF601B2
:10083000608171818281938108C0F2E0AF0EB11CAA
:10084000F6016081718180E090E0A3010E941A1A94
:10085000C82EC6180F77902E96FE0BC0092D0E7F5E
:10086000C11650F494FE0AC092FC08C0092D0E7EF9
:1008700005C0DC2C092D03C0DC2C01C0D12E04FFE7
:100880000DC0FE01EC0DF11D8081803311F4097E55
:1008900009C002FF06C0D394D39404C0802F867889
:1008A00009F0D39403FD11C000FF06C01C2DD51420
:1008B00080F4150D1D190DC0D51458F4B70180E250
:1008C00090E00E94DE19D394F7CFD51410F45D1890
:1008D00001C0512C04FF10C0B70180E390E00E94DA
:1008E000DE1902FF17C001FD03C088E790E002C0D7
:1008F00088E590E0B7010CC0802F867859F001FFA1
:1009000002C08BE201C080E207FD8DE2B70190E0FA
:100910000E94DE19C11638F4B70180E390E00E940E
:10092000DE191150F7CFCA94F301EC0DF11D80814F
:10093000B70190E00E94DE19C110F5CF15C0F4E0B8
:10094000F51560F584E0581A93FE1FC0011127C009
:100950002C8523FF2AC004E910E0392D3071932E35
:10096000F8018491811124C0552009F4E4CCB70129
:1009700080E290E00E94DE195A94F6CFF70186815A
:10098000978126C08FEF9FEF23C0B70180E290E0F0
:100990000E94DE195A945110F8CFD8CF512CB701CC
:1009A000802F90E00E94DE19D3CF08E910E0D5CF68
:1009B00091108052B70190E00E94DE190F5F1F4F27
:1009C000CFCF23E0251510F483E0BDCF512CC0CF4D
:1009D00060960FB6F894DEBF0FBECDBFDF91CF910A
:1009E0001F910F91FF90EF90DF90CF90BF90AF904D
:1009F0009F908F907F906F905F904F903F902F903F
:100A0000089580918E0190918F01009739F0DC015B
:100A1000ED91FC910280F381E02D09940895CF932C
:100A2000DF9380919401882329F084E891E0DF919D
:100A3000CF91089584E991E00E94CF15892BA9F305
:100A400083E090E00E94CD15EC0142D0D0938F015D
:100A5000C0938E0110929101109290011092930117
:100A60001092920182E3809384011092850140E804
:100A700055E260E070E087ED92E00E94941284E914
:100A800091E00E94D81581E095E0F7DB84E891E0E1
:100A9000DF91CF91089587ED92E00C94D5144AE050
:100AA00050E087ED92E00C94111587ED92E00C94E4
:100AB0000C144AE050E087ED92E00C943514089550
:100AC0000C94CE15ACDF66E971E0E5DF80E00895B7
:100AD0002AE031E0FC0131832083128208950895D9
:100AE00008951F920F920FB60F9211240BB60F921A
:100AF0008F929F92AF92BF92CF92DF92EF92FF922E
:100B00000F931F932F933F934F935F936F937F9315
:100B10008F939F93AF93BF93EF93FF93CF93DF9305
:100B2000CDB7DEB72F97DEBFCDBF80919C01882364
:100B300009F494C2E090ED00CC24C394D12C9091A0
:100B4000E0008091E100892B09F448C08091E00029
:100B500080FD19C08091E00081FDABC08091E00074
:100B600082FDACC08091E00083FDDBC18091E0009C
:100B700084FD22C28091E00085FF47C205E010E0BD
:100B8000E0E5FE2E03C000E010E0F12CF092ED0055
:100B90009091EE00892F807E91F25801AA0CBB1C27
:100BA000F501EC55FE4F2081318196FF3EC02115A5
:100BB000310559F0D901ED91FC910680F781E02DC6
:100BC000B5E0E037FB0709F0E9C11092EE00909123
:100BD000E0008091E100892B09F0B8CFE092ED00B0
:100BE0002F960FB6F894DEBF0FBECDBFDF91CF9129
:100BF000FF91EF91BF91AF919F918F917F916F91F5
:100C00005F914F913F912F911F910F91FF90EF9026
:100C1000DF90CF90BF90AF909F908F900F900BBEC2
:100C20000F900FBE0F901F90189595FF88CF809161
:100C3000EF008F704801880C991C880C991C880C57
:100C4000991CF401E01BF10BEF52FE4F97E0DE011F
:100C5000199601900D929A95E1F78823A1F1909150
:100C6000FA009983813079F19091FA009A83823069
:100C700051F19091FA009B83833029F19091FA0011
:100C80009C83843001F19091FA009D838530D9F0E6
:100C90009091FA009E838630B1F09091FA009F8384
:100CA000873089F09091FA009887883061F08091C0
:100CB000FA0001E010E080E1F82E68CF02E010E0D9
:100CC000B0E2FB2E63CF8F878091F00082FB8827F4
:100CD00080F98D878E85882309F428C18091F300DF
:100CE00090E09595879595958795959587958C87AF
:100CF0008091F2009091F30086958695869540E26A
:100D0000949F800D11248B878091F1009091F200C7
:100D1000869586958695A0E29A9F800D11248A87F4
:100D20008091F0009091F100869586958695B0E2CD
:100D30009B9F800D11248987D901ED91FC9104803E
:100D4000F581E02DB5E0EF36FB0709F04FC190913A
:100D5000ED00F092ED008091EF008F738093EF0033
:100D60001092EE001092EF001092F0001092F1003D
:100D70001092F2001092F3001092F4001092F5001D
:100D80001092F6001092F700F401E01BF10BDF0166
:100D9000AC55BE4FD2968C91EF52FE4F882309F48A
:100DA000E6C08381282F220F220F220F8281829595
:100DB00086958770820F8093F3008281282F220FFF
:100DC000220F220F8181829586958770820F8093F2
:100DD000F2008181282F220F220F220F808182951D
:100DE00086958770820F8093F1008081880F880F2D
:100DF000880F8093F0008091EF0080618093EF0076
:100E0000F401E01BF10BEC55FE4F81A9882309F496
:100E1000A8C08091F00084608093F0002091EF00E2
:100E2000F401E01BF10BEC55FE4F83A9822B80935C
:100E3000EF00F801EC55FE4F868D813009F45EC05D
:100E400008F4BFC0823009F0C0CEF501E00FF11FF9
:100E5000EE0FFF1FE15CFD4F80818111D0C08091BA
:100E6000F4008E7F8093F400F501E00FF11FEE0F88
:100E7000FF1FE25CFD4F8081882309F40DC1809142
:100E8000F40084608093F400F401E01BF10BEC5556
:100E9000FE4F82A9F501E00FF11FEE0FFF1FE65C88
:100EA000FD4F882309F4E6C08381282F220F220FEB
:100EB000220F8281829586958770820F8093F7003A
:100EC0008281282F220F220F220F81818295869501
:100ED0008770820F8093F6008181282F220F220FC6
:100EE000220F8081829586958770820F8093F5000E
:100EF0008081880F880F880F8093F4008091DE0036
:100F0000960102C0220F331F0A95E2F7822B8093CD
:100F1000DE008091DF00832B8093DF009093ED0053
:100F200054CE03E010E0A0E3FA2E30CE8091F3001F
:100F300090E0959587959595879595958795959545
:100F40008795959587958A879091F2008091F30017
:100F5000929596959770880F880F880F890F8987CB
:100F6000EBCE8091F0008B7F8093F00057CF2181F2
:100F7000808186958695869530E2239F800D112489
:100F80008093F30080818295880F807E8093F200A9
:100F90008091EF008F7E8093EF0032CFB801660F13
:100FA000771F660F771F660F771F601B710B6F52DD
:100FB0007E4FC901099509CE04E010E0F0E4FF2E50
:100FC000E5CD8091DE00960102C0220F331F0A9505
:100FD000E2F7922F909589238093DE008091DF00C5
:100FE000932F909589238093DF00EFCDAE014F5F63
:100FF0005F4FBE01675F7F4FC9010995A8CE809101
:10100000F40081608093F4002FCF8091E00086FD92
:1010100049C08091E00087FD54C08091E10080FDCF
:1010200046C08091E10081FD47C08091E10082FDD2
:101030004DC08091E10083FD4EC08091E10084FDB0
:101040004FC08091E10085FD50C08091E10086FF96
:10105000C5CD0EE010E090EEF92E98CD8CE991E030
:101060000E94CF15892B09F465CD8CE991E00E948F
:10107000D81560CD2181808186958695869540E240
:10108000249F800D11248093F70080818295880F22
:10109000807E8093F60032CF8091F4008B7F809326
:1010A000F400F2CE06E010E070E6F72E6FCD08E017
:1010B00010E050E8F52E6ACD09E010E040E9F42E8A
:1010C00065CD07E010E060E7F62E60CD0AE010E0A5
:1010D00030EAF32E5BCD0BE010E020EBF22E56CD84
:1010E0000CE010E090ECF92E51CD0DE010E080ED19
:1010F000F82E4CCDFC0180819181892BD1F1828128
:101100009381892BC1F184819581892BB1F18681ED
:101110009781892BA1F180859185892B91F1828519
:101120009385892B81F184859585892B71F186853D
:101130009785892B61F180899189892B51F1828969
:101140009389892B41F184899589892B31F186898D
:101150009789892B21F1808D918D892B11F1828DB9
:10116000938D892B01F1848D958D892BF1F08FE082
:10117000089580E0089581E0089582E0089583E075
:10118000089584E0089585E0089586E0089587E055
:10119000089588E0089589E008958AE008958BE035
:1011A00008958CE008958DE008958EE0089581E023
:1011B0008093D8001092DE001092DF0080EB8093C5
:1011C000DB001092EC00613009F47BC108F470C1BF
:1011D000623009F46BC1633049F48EE08093E20021
:1011E0008CE08093E30087E38093E4001092E500B5
:1011F0001092ED001092EE001092EF001092F000AD
:101200001092F1001092F2001092F3001092F4008C
:101210001092F5001092F6001092F70080E1809392
:10122000ED001092EE001092EF001092F00010927C
:10123000F1001092F2001092F3001092F40010925C
:10124000F5001092F6001092F70080E28093ED0016
:101250001092EE001092EF001092F0001092F10048
:101260001092F2001092F3001092F4001092F50028
:101270001092F6001092F70080E38093ED00109238
:10128000EE001092EF001092F0001092F100109218
:10129000F2001092F3001092F4001092F5001092F8
:1012A000F6001092F70080E48093ED001092EE00BB
:1012B0001092EF001092F0001092F1001092F200E4
:1012C0001092F3001092F4001092F5001092F600C4
:1012D0001092F70080E58093ED001092EE001092DE
:1012E000EF001092F0001092F1001092F2001092B4
:1012F000F3001092F4001092F5001092F600109294
:10130000F70080E68093ED001092EE001092EF005F
:101310001092F0001092F1001092F2001092F3007F
:101320001092F4001092F5001092F6001092F7005F
:1013300080E78093ED001092EE001092EF00109283
:10134000F0001092F1001092F2001092F30010924F
:10135000F4001092F5001092F6001092F70080E869
:101360008093ED001092EE001092EF001092F000CA
:101370001092F1001092F2001092F3001092F4001B
:101380001092F5001092F6001092F70080E9809319
:10139000ED001092EE001092EF001092F00010920B
:1013A000F1001092F2001092F3001092F4001092EB
:1013B000F5001092F6001092F70080EA8093ED009D
:1013C0001092EE001092EF001092F0001092F100D7
:1013D0001092F2001092F3001092F4001092F500B7
:1013E0001092F6001092F70080EB8093ED001092BF
:1013F000EE001092EF001092F0001092F1001092A7
:10140000F2001092F3001092F4001092F500109286
:10141000F6001092F70080EC8093ED001092EE0041
:101420001092EF001092F0001092F1001092F20072
:101430001092F3001092F4001092F5001092F60052
:101440001092F70080ED8093ED001092EE00109264
:10145000EF001092F0001092F1001092F200109242
:10146000F3001092F4001092F5001092F600109222
:10147000F70080EE8093ED001092EE001092EF00E6
:101480001092F0001092F1001092F2001092F3000E
:101490001092F4001092F5001092F6001092F700EE
:1014A0008091D80082608093D800089586E096CE1F
:1014B0001092E2008CE08093E30086E38093E400E6
:1014C00095CE82E08BCE4F3080F450E0440F551F14
:1014D000FC01E40FF51F80819181892B11F02223FB
:1014E00021F07183608381E0089580E00895242FC6
:1014F00030E0FC01E20FF31F568D513011F080E017
:1015000008954F30E0F74295407F4093ED00D901B8
:10151000AA0FBB1FAA0FBB1FAA0FBB1FA21BB30B97
:10152000A80FB91FD3968C91D397882361F090E0D0
:10153000D396FB01E90FF11D20812093FA009F5FF4
:101540002C919217B0F38091EF008F738093EF008E
:101550008091EF0080648093EF0081E00895CF9246
:10156000DF92EF92FF920F931F93CF93DF93242F7D
:1015700030E08C01020F131FF801568D552351F0F6
:1015800080E0DF91CF911F910F91FF90EF90DF905E
:10159000CF90089551E0568F7901EE0CFF1CEE0CB0
:1015A000FF1CEE0CFF1CE701C21BD30B6C01CC0E21
:1015B000DD1ED6019D9657E0FB0101900D925A95D4
:1015C000E1F75091ED00642F6295607F6093ED002C
:1015D0006091EF006F736093EF001092EE00109235
:1015E000EF001092F0001092F1001092F2001092B1
:1015F000F3001092F4001092F5001092F600109291
:10160000F700F60162A9FE01BD96E80FF91F61110E
:10161000B0C071816081669566956695A0E27A9FFB
:10162000600D11246093F30060816295660F607E07
:101630006093F2006091EF006F7E6093EF00F7011E
:10164000E21BF30BE80FF91F61A9662309F4C8C078
:101650006091F00064606093F0007091EF00F7011A
:10166000E21BF30BE80FF91F63A9672B6093EF00F0
:10167000F801668D613009F467C008F4B9C06230C2
:1016800009F0B4C0F901EE0FFF1FDF01A20FB31F75
:10169000AA0FBB1FA80FB91FA556BF4F6C916111B0
:1016A000BCC06091F4006E7F6093F400DF01A20F74
:1016B000B31FAA0FBB1FA80FB91FA656BF4F6C912F
:1016C000662309F4C2C06091F40064606093F40082
:1016D000D701A21BB30BA80FB91FD2966C91E20FD2
:1016E000F31FEE0FFF1FEA56FF4FE80FF91F6623A7
:1016F00009F499C08381982F990F990F990F8281CE
:10170000829586958770890F8093F7008281982F44
:10171000990F990F990F8181829586958770890F0E
:101720008093F6008181982F990F990F990F8081EE
:10173000829586958770890F8093F5008081880F48
:10174000880F880F8093F4002091DE0081E090E004
:1017500002C0880F991F4A95E2F7822B8093DE0022
:101760008091DF00892B8093DF005093ED0081E0B2
:1017700008CF6381762F770F770F770F628162959D
:1017800066956770670F6093F3006281762F770F1D
:10179000770F770F6181629566956770670F609329
:1017A000F2006181762F770F770F770F6081629556
:1017B00066956770670F6093F1006081660F660F32
:1017C000660F6093F0006091EF0060616093EF003E
:1017D000F701E21BF30BE80FF91F61A9611138CF84
:1017E0006091F0006B7F6093F00037CF81E0C9CE4D
:1017F0002091DE0081E090E002C0880F991F4A9599
:10180000E2F7809582238093DE008091DF0090953F
:1018100089238093DF0081E0B4CE6091F4006160A1
:101820006093F40043CF918180818695869586955B
:1018300020E2929F800D11248093F7008081829591
:10184000880F807E8093F6007FCF6091F4006B7FDD
:101850006093F4003DCF1F93CF93DF93262F30E0AA
:10186000DC01A20FB31F5E961C925E977091ED0093
:10187000462F4295407F4093ED004091EF004F731B
:101880004093EF001092EE001092EF001092F000E3
:101890001092F1001092F2001092F3001092F400F6
:1018A0001092F5001092F6001092F700A901440F73
:1018B000551F440F551F440F551FFA01E21BF30B30
:1018C000EC01CE0FDF1FCAA9BD96E80FF91FCC238C
:1018D00009F4D2C0C381DC2FDD0FDD0FDD0FC28123
:1018E000C295C695C770CD0FC093F300C281DC2F9F
:1018F000DD0FDD0FDD0FC181C295C695C770CD0F1D
:10190000C093F200C181DC2FDD0FDD0FDD0FC08140
:10191000C295C695C770CD0FC093F100E081EE0F60
:10192000EE0FEE0FE093F000E091EF00E061E09346
:10193000EF00FA01E21BF30BE80FF91FE1A9EE2318
:1019400009F494C0E091F000E460E093F000F091BD
:10195000EF00EA01C21BD30BC80FD91FEBA9EF2B75
:10196000E093EF005E96EC91E13009F468C008F472
:101970009AC0E23009F076C0F901EE0FFF1FDF01D7
:10198000A20FB31FAA0FBB1FA80FB91FA556BF4FA9
:10199000AC91A1119FC0A091F400AE7FA093F40080
:1019A000DF01A20FB31FAA0FBB1FA80FB91FA656B6
:1019B000BF4FAC91AA2309F4ACC0A091F400A4607D
:1019C000A093F400421B530BDC01A40FB51FD29669
:1019D0004C912E0F3F1F442309F482C0F901EE0FF2
:1019E000FF1FEA56FF4FE80FF91F8381982F990FC9
:1019F000990F990F8281829586958770890F8093C0
:101A0000F7008281982F990F990F990F8181829504
:101A100086958770890F8093F6008181982F990FA2
:101A2000990F990F8081829586958770890F809391
:101A3000F5008081880F880F880F8093F400209133
:101A4000DE0081E090E002C0880F991F6A95E2F7FE
:101A5000822B8093DE008091DF00892B8093DF0052
:101A60007093ED00DF91CF911F910895E091F00008
:101A7000EB7FE093F0006BCFD181C081C695C69516
:101A8000C69510E2D19FC00D1124C093F300E081F0
:101A9000E295EE0FE07EE093F200E091EF00EF7E42
:101AA000E093EF0046CF2091DE0081E090E002C09D
:101AB000880F991F6A95E2F7809582238093DE0054
:101AC0008091DF00909589238093DF00DF91CF9193
:101AD0001F910895A091F400A160A093F40060CF3D
:101AE000220F331F2A563F4FFC01E20FF31F918153
:101AF000808186958695869520E2929F800D11249F
:101B00008093F70080818295880F807E8093F60015
:101B100096CFA091F400AB7FA093F40053CF08952B
:101B200021E0FC01248708950C94CE151F93CF93D8
:101B3000DF93EC0184E191E0998388837B836A835E
:101B4000FA0180819181A281B3818C839D83AE83D0
:101B5000BF832887FE01799688E0DF011D928A9570
:101B6000E9F77B876A8719A280919C01882309F491
:101B700040C084EA91E0BEDA888B20E0482FBE01A5
:101B800084EA91E0A0DC811106C00E940F0561EE9D
:101B900071E00E944B050E940F0568EC71E00E9405
:101BA000550518890E940F05612F0E9459050E9452
:101BB0000F0562EC71E00E9455051C810E940F0523
:101BC000612F0E9459050E940F0566EB71E00E948B
:101BD00055051A810E940F05612F0E944F051AA218
:101BE00081E08C871E861D861F86DF91CF911F9115
:101BF00008958CE991E0D3D7892B09F4BACF8CE909
:101C000091E0D6D7B6CF453060F4242F30E0220FD4
:101C1000331FFC01E20FF31F018CF28DE02DEF2B3F
:101C200011F080E00895FC0151A1451710F04F5FBD
:101C300041A3FC01E20FF31F728F618FFC0112A21E
:101C400081E00895AF92BF92DF92EF92FF920F93DF
:101C50001F93CF93DF93CDB7DEB727970FB6F894D6
:101C6000DEBF0FBECDBF8C01FC0182A1882309F429
:101C700076C0F8018185882309F45CC084858823B7
:101C800009F495C0118610929402148687858F5F9F
:101C90008787258536852115310509F09FC0F80114
:101CA00021A1F12CF216A0F4EF2DF0E0EE0FFF1FB2
:101CB000E00FF11F818D928D009709F44EC0D3D0B3
:101CC000882309F447C0F394F80121A1F21660F3C8
:101CD0005801F1E1AF0EB11C88E0F50111928A952F
:101CE000E9F72223D9F0D12CED2CF12CEE0CFF1CBE
:101CF000F801EE0DFF1D818D928D009751F0F1D00E
:101D000099838A83F501EE0DFF1D89819A81918364
:101D10008083D394F80181A1D81630F3F80110899B
:101D200080919C01882309F461C0412FB50184EAA8
:101D300091E0DDDB27960FB6F894DEBF0FBECDBF76
:101D4000DF91CF911F910F91FF90EF90DF90BF90A7
:101D5000AF900895F80121A1A5CFF394A3CF80916E
:101D60009C01882391F1CE0101967C0187E0F70167
:101D700011928A95E9F7F80184819581A681B7814E
:101D800089839A83AB83BC8381A1880F8F83608909
:101D900084EA91E060DDF8014089B70184EA91E0CE
:101DA000DEDB882369F181E0F80182A3C3CF809153
:101DB00094028111BFCF81E080939402F801858560
:101DC0009685019696878587B5CF8CE991E0E7D611
:101DD000892B49F28CE991E0EBD6C5CF8F3F09F012
:101DE0005ECF215031093687258759CF8CE991E0A4
:101DF000D6D6892B09F499CF8CE991E0D9D695CF25
:101E00000E940F0563EA71E00E944B0593CF08958D
:101E1000C5C6FC01DB0180E291E0918380838D9156
:101E20009C9111979383828312968D919C91139725
:101E30009583848314968C911497868381E04D91C9
:101E40005C91119712962D913C911397421753076D
:101E50000CF080E0828715968D919C91169794875F
:101E60008387118608950F931F93CF938C01FC01F4
:101E7000C6818091980290919902892B09F18091F5
:101E8000960290919702892B29F080E0CF911F91C3
:101E90000F9108951093970200939602C0939502B4
:101EA000CF70C064C0937C0080917A00806480937E
:101EB0007A00F801118681E0CF911F910F9108956A
:101EC00081E090E06AD69093990280939802D7CFF0
:101ED000FB0120813181FC013087278321E02187AC
:101EE0000895CF92DF92EF92FF920F931F93CF93BB
:101EF000DF9300D000D0CDB7DEB78C01F894DC01C1
:101F000017966D917C91189780E090E033D72AE086
:101F100038E240EA5BE3E0D769837A838B839C8372
:101F20007894C980DA80EB80FC8022E430E645E6D4
:101F30005CEBC701B601D0D72CE437E349E85DE399
:101F400080D69B01AC01C701B6017AD66B017C013A
:101F500020E030E0A901D9D687FD29C0C982DA8204
:101F6000EB82FC82D8011B96ED91FC911C97CE016F
:101F700001960995F8012285222351F024813581AB
:101F80002817390794F022813381821793076CF068
:101F90000F900F900F900F90DF91CF911F910F91A5
:101FA000FF90EF90DF90CF900895C901F1CF198293
:101FB0001A821B821C82D6CF2FE632E143E852E41C
:101FC000FC01608171818281938186D720E030E0BD
:101FD00048EC52E481D79DD6CB0108958F929F9211
:101FE000AF92BF92CF92DF92EF92FF920F931F9327
:101FF000CF93DF93CDB7DEB7A5970FB6F894DEBFCA
:102000000FBECDBF8091AE028823A9F08AE992E08D
:10201000A5960FB6F894DEBF0FBECDBFDF91CF916E
:102020001F910F91FF90EF90DF90CF90BF90AF90F6
:102030009F908F9008958EEA92E0B1D5892B31F36D
:1020400094E2A92E91E0B92E2AEAC22E22E0D22EE5
:10205000812C85E2F501DE01119601900D928A95A1
:10206000E1F783E290E099D57C016F8178852D813D
:10207000AE014F5F5F4F5ADDF601E192F1926F01C1
:102080008DA1882311F1912C8DE090E086D58C01F3
:1020900061E070E06C0F7D1FF7E09F9E600D711D89
:1020A0001124685F7F4FB5DEE82DF0E0EE0FFF1FD3
:1020B000E656FD4F118300838394492DB801C70173
:1020C000A2DD93948DA19816F8F285E2A80EB11CBA
:1020D000EEEACE16E2E0DE0609F0BBCF8EEA92E031
:1020E00067D594CFDC015096ED91FC9151972285F4
:1020F0003385215031093387228722853385232B6D
:1021000031F421E021872281338133872287DC016A
:102110005296ED91FC915397828593850197938711
:10212000828782859385892B31F481E08187828142
:1021300093819387828708951F920F920FB60F9213
:1021400011240BB60F922F933F934F935F936F938E
:102150007F938F939F93AF93BF93EF93FF933EDF54
:10216000C1DFFF91EF91BF91AF919F918F917F91CF
:102170006F915F914F913F912F910F900BBE0F90F8
:102180000FBE0F901F9018951F920F920FB60F92CF
:1021900011248F939F93AF93BF938091B602909138
:1021A000B702A091B802B091B9020196A11DB11D6C
:1021B0008093B6029093B702A093B802B093B9028D
:1021C000BF91AF919F918F910F900FBE0F901F9075
:1021D00018951F920F920FB60F9211240BB60F9203
:1021E0002F933F934F935F936F937F938F939F931F
:1021F000AF93BF93EF93FF93CF93DF9300D0CDB70F
:10220000DEB78091980290919902892BC9F1809153
:10221000960290919702892BE1F0F89480917800D2
:1022200090E09A83898320917900922B9A83898305
:10223000789440919502BE016F5F7F4F8091960226
:102240009091970245DE109297021092960210929A
:1022500095020F900F90DF91CF91FF91EF91BF9179
:10226000AF919F918F917F916F915F914F913F912E
:102270002F910F900BBE0F900FBE0F901F901895CF
:1022800081E090E08AD49093990280939802BFCF26
:10229000F894809181008A6080938100109285007B
:1022A000109284008FEC97E09093890080938800CF
:1022B00080916F00826080936F008091B0008B608E
:1022C0008093B0001092B2008FEF8093B3008091A2
:1022D00070008260809370008091980290919902C2
:1022E000892BF1F087E080937A0080E480937C0072
:1022F00080917A00886880937A0080919C0188237D
:10230000B9F060E084EA91E00E94D70867DEEC0152
:1023100078948889998996DC8A899B8993DCF9CF9E
:1023200081E090E03AD49093990280939802DACFBA
:102330008CE991E034D4892B21F38CE991E038D4F5
:10234000E0CF089580E090E00895FC012485358574
:10235000F901E058FF4F8081918180589F4F32965C
:1023600020813181821B930B8F77907897FF08959E
:10237000019780689F6F01960895FC01848595857B
:10238000FC01EE57FF4F20813181DC01A058BF4F87
:102390004D915C9142175307C1F0DC01A20FB31FAE
:1023A0008C912F5F3F4F2F77307837FD04C03183FA
:1023B000208390E008952150310920683F6F2F5FFE
:1023C0003F4F3183208390E008958FEF9FEF089572
:1023D000FC0184859585FC01E058FF4FDC01AE5778
:1023E000BF4F8D919C91918380830895DC0152961B
:1023F000ED91FC91539741E050E05B960C905B9718
:1024000002C0440F551F0A94E2F7208130E02423D4
:102410003523232BD1F35696ED91FC91579760838A
:1024200081E090E00895BAC31F920F920FB60F9209
:1024300011240BB60F922F933F934F935F936F939B
:102440008F939F93EF93FF936091C6002091F803C1
:102450003091F903C90101968F77907897FD1FC0DD
:102460004091FA035091FB038417950741F0F9015D
:10247000E858FC4F60839093F9038093F803FF9131
:10248000EF919F918F916F915F914F913F912F911C
:102490000F900BBE0F900FBE0F901F9018950197D5
:1024A00080689F6F0196DCCF1F920F920FB60F923C
:1024B00011240BB60F922F933F934F935F936F931B
:1024C0008F939F93EF93FF936091CE0020917403BD
:1024D00030917503C90101968F77907897FD1FC0E1
:1024E00040917603509177038417950741F0F901E5
:1024F000EC50FD4F60839093750380937403FF91BC
:10250000EF919F918F916F915F914F913F912F919B
:102510000F900BBE0F900FBE0F901F901895019754
:1025200080689F6F0196DCCF8F929F92AF92BF928F
:10253000CF92DF92EF92FF921F93CF93DF93EC0144
:102540006A017B01413452446F40710508F455C063
:10255000EA89FB8981E090E00C8C02C0880F991F0A
:102560000A94E2F7808360E079E08DE390E0A701D0
:10257000960122D3DA01C9010197A109B109AC0181
:10258000BD017695679557954795CA01EE85FF85FC
:102590009083E889F9898083EC89FD89408181E015
:1025A00090E09C01088C02C0220F331F0A94E2F7CE
:1025B000242B2083EC89FD8940819C01098C02C079
:1025C000220F331F0A94E2F7242B2083EC89FD8924
:1025D00020810A8C02C0880F991F0A94E2F7822B8F
:1025E0008083DF91CF911F91FF90EF90DF90CF908C
:1025F000BF90AF909F908F90089560E874E88EE14F
:1026000090E0A7019601D8D249015A0181E0881AC9
:102610009108A108B108B694A79497948794D5011E
:10262000C4010196A11DB11D880F991FAA1FBB1FD0
:10263000880F991FAA1FBB1F9C01AD01220F331FDA
:10264000441F551F220F331F441F551F60E074E2C3
:1026500084EF90E0B1D2AFEFB0E0D0D2A701960105
:10266000ABD28FEF90E0821B930B18161906BCF5C6
:10267000122F109560E079E08DE390E0A7019601BC
:102680009BD2DA01C9010197A109B1098E7F029697
:10269000A11DB11D9C01AD01220F331F441F551F09
:1026A000220F331F441F551F60E074E284EF90E057
:1026B00083D2AFEFB0E0A2D2A70196017DD28FEF17
:1026C00090E0821B930B1816190664F420952117CD
:1026D00008F43ECFEA89FB891082C40157CF11E08C
:1026E000120FC8CF2F5FF3CFCF92DF92EF92FF92FE
:1026F000E7EDF2E01382128288EEC82E83E0D82E36
:10270000E12CF12CC482D582E682F78210861186F4
:102710001286138662E771E07183608388E793E035
:102720009587848785EC90E09787868784EC90E096
:10273000918B808B80EC90E0938B828B81EC90E08E
:10274000958B848B86EC90E0978B868B44E0408F52
:1027500033E0318F27E0228F95E0938F81E0848FE3
:10276000EAEBF2E013821282C482D582E682F7821B
:1027700010861186128613867183608364EF72E07F
:10278000758764876DEC70E0778766876CEC70E026
:10279000718B608B68EC70E0738B628B69EC70E01E
:1027A000758B648B6EEC70E0778B668B408F318F0E
:1027B000228F938F848FFF90EF90DF90CF900895BA
:1027C000CF92DF92EF92FF920F931F93CF93DF93FD
:1027D00041155105F1F08C017B01EA01C12CD12C8E
:1027E000D7016D917D01D801ED91FC910190F081AF
:1027F000E02DC8010995C80ED91E219789F7C60199
:10280000DF91CF911F910F91FF90EF90DF90CF90CC
:102810000895C12CD12CF3CFEF92FF920F931F9309
:10282000CF93DF93EB012196FB0164916623D1F0F6
:102830008C01E12CF12CD801ED91FC910190F081FB
:10284000E02DC8010995E80EF91EFE01649121965C
:102850006111F1CFC701DF91CF911F910F91FF90CF
:10286000EF900895E12CF12CF5CF4F925F926F928B
:102870007F929F92AF92BF92CF92DF92EF92FF92A0
:102880000F931F93CF93DF93CDB7DEB7A1970FB60A
:10289000F894DEBF0FBECDBF5C014115510509F4B0
:1028A0006CC0942E19A2B1E0B41708F06EC0442E8B
:1028B000512C612C712CC62ED12CE12CF12C8E01C7
:1028C0000F5D1F4F09C0805DF801808369017A01A7
:1028D000232B242B252B79F0C701B601A3019201EC
:1028E0006BD18C2D929E80191124015011098A30D0
:1028F00050F3895CE9CFD501ED91FC9122813381C0
:10290000D8010D900020E9F71197AD01401B510B44
:10291000B3E1203E3B0709F040C04115510509F4E1
:1029200041C07A01C12CD12C03C0D501ED91FC919D
:10293000D8016D918D010190F081E02DC5010995BF
:10294000C80ED91EB1E0EB1AF10879F7C601A196BD
:102950000FB6F894DEBF0FBECDBFDF91CF911F91B0
:102960000F91FF90EF90DF90CF90BF90AF909F902E
:102970007F906F905F904F900895DC01ED91FC91F6
:102980000190F081E02D0995E2CF8AE0482E512C8C
:10299000612C712C9AE0992E8ECFB801C501F901F6
:1029A0000995D5CF80E090E0D2CFEF92FF920F93C0
:1029B0001F93CF93DF938C01EB012196FB01649170
:1029C000E12CF12C662379F0D801ED91FC91019076
:1029D000F081E02DC8010995E80EF91EFE01649111
:1029E00021966111F1CFD801ED91FC910190F08118
:1029F000E02D6DE0C8010995EC01D801ED91FC9145
:102A00000190F081E02D6AE0C8010995EC0EFD1EF1
:102A10008E0D9F1DDF91CF911F910F91FF90EF9031
:102A200008954F925F926F927F929F92AF92BF9262
:102A3000CF92DF92EF92FF920F931F93CF93DF938A
:102A4000CDB7DEB7A1970FB6F894DEBF0FBECDBFEE
:102A50005C014115510509F480C0942E19A2B1E022
:102A6000B41708F086C0442E512C612C712CC62E50
:102A7000D12CE12CF12C8E010F5D1F4F09C0805D20
:102A8000F801808369017A01232B242B252B79F00F
:102A9000C701B601A30192018FD08C2D929E80199F
:102AA0001124015011098A3050F3895CE9CFD50116
:102AB000ED91FC9122813381D8010D900020E9F73E
:102AC0001197AD01401B510BB3E1203E3B0709F0CC
:102AD00058C04115510509F45DC07A01C12CD12CB3
:102AE000D8016D918D010190F081E02DC50109950E
:102AF000C80ED91EB1E0EB1AF108D501ED91FC9199
:102B0000E114F10469F70190F081E02D6DE0C50159
:102B100009958C01D501ED91FC910190F081E02D9A
:102B20006AE0C5010995C00ED11E8C0D9D1DA196B0
:102B30000FB6F894DEBF0FBECDBFDF91CF911F91CE
:102B40000F91FF90EF90DF90CF90BF90AF909F904C
:102B50007F906F905F904F900895DC01ED91FC9114
:102B60000190F081E02D09956C01D501ED91FC916A
:102B7000CACF8AE0482E512C612C712C9AE0992EF4
:102B800076CFB801C501F90109956C01D501ED9128
:102B9000FC91B9CFC12CD12CB6CF01C298C2FC0197
:102BA00081E090E02081222311F080E090E0089500
:102BB00021E0FC0120830895A1E21A2EAA1BBB1B71
:102BC000FD010DC0AA1FBB1FEE1FFF1FA217B307F9
:102BD000E407F50720F0A21BB30BE40BF50B661F0F
:102BE000771F881F991F1A9469F7609570958095D3
:102BF00090959B01AC01BD01CF01089512D0A59F16
:102C0000900DB49F900DA49F800D911D11240895E7
:102C1000EE0FFF1F0024001C0BBE0790F691E02D65
:102C20000994A29FB001B39FC001A39F700D811DA5
:102C30001124911DB29F700D811D1124911D0895C5
:102C40005058BB27AA270ED00DC1FED030F003D1BB
:102C500020F031F49F3F11F41EF4F3C00EF4E09520
:102C6000E7FBE9C0E92F0FD180F3BA1762077307BA
:102C70008407950718F071F49EF527C10EF4E095CE
:102C80000B2EBA2FA02D0B01B90190010C01CA0126
:102C9000A0011124FF27591B99F0593F50F4503ED1
:102CA00068F11A16F040A22F232F342F4427585FC3
:102CB000F3CF469537952795A795F0405395C9F7DB
:102CC0007EF41F16BA0B620B730B840BBAF0915093
:102CD000A1F0FF0FBB1F661F771F881FC2F70EC032
:102CE000BA0F621F731F841F48F487957795679505
:102CF000B795F7959E3F08F0B3CF9395880F08F0EE
:102D00009927EE0F97958795089571D008F481E083
:102D1000089504D06894B111D9C00895BCD088F04A
:102D20009F5790F0B92F9927B751A0F0D1F0660FB7
:102D3000771F881F991F1AF0BA95C9F712C0B130D2
:102D400081F0C3D0B1E00895C0C0672F782F8827E5
:102D5000B85F39F0B93FCCF3869577956795B39511
:102D6000D9F73EF490958095709561957F4F8F4F80
:102D70009F4F0895E89409C097FB3EF49095809585
:102D8000709561957F4F8F4F9F4F9923A9F0F92F31
:102D900096E9BB279395F695879577956795B795AF
:102DA000F111F8CFFAF4BB0F11F460FF1BC06F5F95
:102DB0007F4F8F4F9F4F16C0882311F096E911C0A7
:102DC000772321F09EE8872F762F05C0662371F0C8
:102DD00096E8862F70E060E02AF09A95660F771FDC
:102DE000881FDAF7880F9695879597F90895990FB8
:102DF0000008550FAA0BE0E8FEEF16161706E807C5
:102E0000F907C0F012161306E407F50798F0621BE5
:102E1000730B840B950B39F40A2661F0232B242BBA
:102E2000252B21F408950A2609F4A140A6958FEFD9
:102E3000811D811D089597F99F6780E870E060E02B
:102E400008959FEF80EC089500240A941616170643
:102E500018060906089500240A941216130614068B
:102E600005060895092E0394000C11F4882352F0EE
:102E7000BB0F40F4BF2B11F460FF04C06F5F7F4FA6
:102E80008F4F9F4F089557FD9058440F551F59F08D
:102E90005F3F71F04795880F97FB991F61F09F3F47
:102EA00079F087950895121613061406551FF2CF70
:102EB0004695F1DF08C0161617061806991FF1CFC0
:102EC00086957105610508940895E894BB276627E7
:102ED0007727CB0197F908950BD0C4CFB5DF28F041
:102EE000BADF18F0952309F0A6CFABCF1124EECFAF
:102EF000CADFA0F3959FD1F3950F50E0551F629F55
:102F0000F001729FBB27F00DB11D639FAA27F00D42
:102F1000B11DAA1F649F6627B00DA11D661F829F69
:102F20002227B00DA11D621F739FB00DA11D621F4E
:102F3000839FA00D611D221F749F3327A00D611D6B
:102F4000231F849F600D211D822F762F6A2F11244D
:102F50009F5750408AF0E1F088234AF0EE0FFF1FA0
:102F6000BB1F661F771F881F91505040A9F79E3FD7
:102F7000510570F060CFAACF5F3FECF3983EDCF3D1
:102F8000869577956795B795F795E7959F5FC1F714
:102F9000FE2B880F911D9695879597F908950F93AD
:102FA0001F93CF93DF938230910510F482E090E07D
:102FB000E091FE03F091FF0320E030E0A0E0B0E0FC
:102FC000309719F1408151810281138148175907C7
:102FD000C8F08417950769F4109731F012960C9396
:102FE000129713961C9327C00093FE031093FF03C0
:102FF00022C02115310519F04217530718F49A0120
:10300000BD01EF01DF01F801DBCF21153105F9F03A
:10301000281B390B2430310580F48A819B8161158E
:10302000710521F0FB019383828304C09093FF0319
:103030008093FE03FE01329644C0FE01E20FF31FAF
:103040008193919322503109398328833AC020918A
:10305000FC033091FD03232B41F4209102013091B8
:1030600003013093FD032093FC0320910001309174
:1030700001012115310541F42DB73EB740910401FE
:1030800050910501241B350BE091FC03F091FD03E9
:10309000E217F307A0F42E1B3F0B2817390778F02F
:1030A000AC014E5F5F4F2417350748F04E0F5F1F8E
:1030B0005093FD034093FC038193919302C0E0E0A1
:1030C000F0E0CF01DF91CF911F910F910895CF9341
:1030D000DF93009709F481C0FC01329713821282BA
:1030E000A091FE03B091FF03109781F420813181FC
:1030F000820F931F2091FC033091FD03281739079D
:1031000051F5F093FD03E093FC0367C0ED0120E06F
:1031100030E0CE17DF0740F44A815B819E01411504
:103120005105F1F0EA01F5CFD383C283408151818B
:10313000840F951FC817D90759F488819981840F86
:10314000951F0296918380838A819B8193838283DA
:103150002115310529F4F093FF03E093FE033DC0F0
:10316000E901FB83EA8349915991C40FD51FEC17FC
:10317000FD0761F480819181840F951F0296E9011A
:1031800099838883828193819B838A83E0E0F0E046
:1031900012968D919C911397009719F0FD01DC0117
:1031A000F7CF8D919C9111979D012E5F3F4F820F1C
:1031B000931F2091FC033091FD032817390769F410
:1031C000309729F41092FF031092FE0302C013827D
:1031D0001282B093FD03A093FC03DF91CF91089579
:1031E000283008F027E03327DA01990F311D87FDD9
:1031F000916000966105710539F432602E5F3D9350
:1032000030E32A95E1F708959F3F30F0803871054B
:10321000610509F03C5F3C5F3D93913008F08068A8
:10322000911DDF93CF931F930F93FF92EF92192F6E
:10323000987F9695E92F96959695E90FFF27EA5086
:10324000FF4F99273327EE24FF24A701E7010590BC
:103250000894079428F4360FE71EF81E491F511DE5
:10326000660F771F881F991F0694A1F70590079492
:1032700028F4E70EF81E491F561FC11D770F881F3F
:10328000991F661F0694A1F70590079428F4F80E7D
:10329000491F561FC71FD11D880F991F661F771F13
:1032A0000694A1F70590079420F4490F561FC71FF5
:1032B000D81F990F661F771F881F0694A9F784915E
:1032C0001095177041F0D695C79557954795F79487
:1032D000E7941A95C1F7ECE9F0E068941590159120
:1032E00035916591959105907FE27395E118F10A0A
:1032F000430B560BC90BD009C0F7E10CF11E431F5D
:10330000561FC91FD01D7EF4703311F48A95E6CF85
:10331000E894015030F0080F0AF40027021708F46F
:10332000202F2395022F7A3328F079E37D932A9575
:10333000E9F710C07D932A9589F6069497956795CD
:10334000379517951794E118F10A430B560BC90BE3
:10335000D00998F023957E9173957A3308F070E345
:103360007C932013B8F77E9170617D9330F0839544
:1033700071E37D9370E32A95E1F71124EF90FF90BC
:103380000F911F91CF91DF91992787FD9095089517
:10339000FC010590615070400110D8F78095909520
:1033A0008E0F9F1F0895FC01615070400190011025
:1033B000D8F7809590958E0F9F1F08950F931F93B8
:1033C000CF93DF93FB01238121FD03C08FEF9FEF9C
:1033D0002CC022FF16C046815781248135814217B7
:1033E000530744F4A081B1819D012F5F3F4F31838A
:1033F00020838C93268137812F5F3F4F378326832D
:1034000014C08B01EC01FB010084F185E02D0995CE
:10341000892BE1F6D80116968D919C91179701960C
:1034200017969C938E931697CE01DF91CF911F91A3
:103430000F910895FA01AA27283051F1203181F126
:10344000E8946F936E7F6E5F7F4F8F4F9F4FAF4FAC
:10345000B1E03ED0B4E03CD0670F781F891F9A1FBF
:10346000A11D680F791F8A1F911DA11D6A0F711D73
:10347000811D911DA11D20D009F468943F912AE07F
:10348000269F11243019305D3193DEF6CF01089567
:10349000462F4770405D4193B3E00FD0C9F7F6CF98
:1034A000462F4F70405D4A3318F0495D31FD405260
:1034B000419302D0A9F7EACFB4E0A69597958795F6
:1034C00077956795BA95C9F70097610571050895D5
:1034D0009B01AC010A2E0694579547953795279581
:1034E000BA95C9F7620F731F841F951FA01D089519
:0834F0000E942901F894FFCFAE
:1034F800000000042000000000005F056005620570
:10350800000000008F0D940D6F05900D0000000065
:10351800070F080FD300000000000600000000009D
:1035280000DC0F0000000001DC0F0000000002DCDE
:103538000F0000000003DC0F04D4000000000003AB
:10354800000000000004DC0F0000000005DC0F0094
:1035580000000006DC0F0000000007DC0F0400007C
:103568000000F611E013A511BD11A211E811A11177
:0235780013122C
:00000001FF
